{
	"contracts/VotingSystem.sol": {
		"VotingSystem": {
			"abi": [
				{
					"inputs": [],
					"stateMutability": "nonpayable",
					"type": "constructor"
				},
				{
					"anonymous": false,
					"inputs": [
						{
							"indexed": false,
							"internalType": "address",
							"name": "candidate",
							"type": "address"
						},
						{
							"indexed": false,
							"internalType": "string",
							"name": "name",
							"type": "string"
						},
						{
							"indexed": false,
							"internalType": "string",
							"name": "nationalID",
							"type": "string"
						},
						{
							"indexed": false,
							"internalType": "string",
							"name": "area",
							"type": "string"
						}
					],
					"name": "CandidateRegistered",
					"type": "event"
				},
				{
					"anonymous": false,
					"inputs": [
						{
							"indexed": false,
							"internalType": "address",
							"name": "voter",
							"type": "address"
						},
						{
							"indexed": false,
							"internalType": "address",
							"name": "candidate",
							"type": "address"
						},
						{
							"indexed": false,
							"internalType": "string",
							"name": "area",
							"type": "string"
						}
					],
					"name": "VoteCasted",
					"type": "event"
				},
				{
					"anonymous": false,
					"inputs": [
						{
							"indexed": false,
							"internalType": "address",
							"name": "voter",
							"type": "address"
						},
						{
							"indexed": false,
							"internalType": "string",
							"name": "nationalID",
							"type": "string"
						},
						{
							"indexed": false,
							"internalType": "string",
							"name": "area",
							"type": "string"
						}
					],
					"name": "VoterRegistered",
					"type": "event"
				},
				{
					"anonymous": false,
					"inputs": [
						{
							"indexed": false,
							"internalType": "address",
							"name": "winner",
							"type": "address"
						},
						{
							"indexed": false,
							"internalType": "uint256",
							"name": "voteCount",
							"type": "uint256"
						},
						{
							"indexed": false,
							"internalType": "string",
							"name": "area",
							"type": "string"
						}
					],
					"name": "VotingEnded",
					"type": "event"
				},
				{
					"anonymous": false,
					"inputs": [],
					"name": "VotingSystemReset",
					"type": "event"
				},
				{
					"inputs": [
						{
							"internalType": "string",
							"name": "_areaName",
							"type": "string"
						},
						{
							"internalType": "uint256",
							"name": "_maxVoters",
							"type": "uint256"
						}
					],
					"name": "addArea",
					"outputs": [],
					"stateMutability": "nonpayable",
					"type": "function"
				},
				{
					"inputs": [],
					"name": "admin",
					"outputs": [
						{
							"internalType": "address",
							"name": "",
							"type": "address"
						}
					],
					"stateMutability": "view",
					"type": "function"
				},
				{
					"inputs": [
						{
							"internalType": "uint256",
							"name": "",
							"type": "uint256"
						}
					],
					"name": "areaList",
					"outputs": [
						{
							"internalType": "string",
							"name": "",
							"type": "string"
						}
					],
					"stateMutability": "view",
					"type": "function"
				},
				{
					"inputs": [
						{
							"internalType": "string",
							"name": "",
							"type": "string"
						}
					],
					"name": "areas",
					"outputs": [
						{
							"internalType": "uint256",
							"name": "maxVoters",
							"type": "uint256"
						},
						{
							"internalType": "uint256",
							"name": "currentVotes",
							"type": "uint256"
						}
					],
					"stateMutability": "view",
					"type": "function"
				},
				{
					"inputs": [
						{
							"internalType": "uint256",
							"name": "",
							"type": "uint256"
						}
					],
					"name": "candidateList",
					"outputs": [
						{
							"internalType": "address",
							"name": "",
							"type": "address"
						}
					],
					"stateMutability": "view",
					"type": "function"
				},
				{
					"inputs": [
						{
							"internalType": "address",
							"name": "",
							"type": "address"
						}
					],
					"name": "candidates",
					"outputs": [
						{
							"internalType": "string",
							"name": "name",
							"type": "string"
						},
						{
							"internalType": "address",
							"name": "candidateAddress",
							"type": "address"
						},
						{
							"internalType": "uint256",
							"name": "voteCount",
							"type": "uint256"
						},
						{
							"internalType": "string",
							"name": "area",
							"type": "string"
						},
						{
							"internalType": "string",
							"name": "nationalID",
							"type": "string"
						}
					],
					"stateMutability": "view",
					"type": "function"
				},
				{
					"inputs": [],
					"name": "endVoting",
					"outputs": [],
					"stateMutability": "nonpayable",
					"type": "function"
				},
				{
					"inputs": [],
					"name": "getAreas",
					"outputs": [
						{
							"internalType": "string[]",
							"name": "",
							"type": "string[]"
						}
					],
					"stateMutability": "view",
					"type": "function"
				},
				{
					"inputs": [],
					"name": "getCandidates",
					"outputs": [
						{
							"internalType": "string[]",
							"name": "",
							"type": "string[]"
						}
					],
					"stateMutability": "view",
					"type": "function"
				},
				{
					"inputs": [
						{
							"internalType": "string",
							"name": "_areaName",
							"type": "string"
						}
					],
					"name": "getCandidatesByArea",
					"outputs": [
						{
							"internalType": "address[]",
							"name": "",
							"type": "address[]"
						},
						{
							"internalType": "string[]",
							"name": "",
							"type": "string[]"
						}
					],
					"stateMutability": "view",
					"type": "function"
				},
				{
					"inputs": [],
					"name": "getTotalValidVotersByAllAreas",
					"outputs": [
						{
							"internalType": "string[]",
							"name": "",
							"type": "string[]"
						},
						{
							"internalType": "uint256[]",
							"name": "",
							"type": "uint256[]"
						}
					],
					"stateMutability": "view",
					"type": "function"
				},
				{
					"inputs": [
						{
							"internalType": "string",
							"name": "_areaName",
							"type": "string"
						}
					],
					"name": "getWinnerByArea",
					"outputs": [
						{
							"internalType": "address",
							"name": "",
							"type": "address"
						},
						{
							"internalType": "string",
							"name": "",
							"type": "string"
						},
						{
							"internalType": "uint256",
							"name": "",
							"type": "uint256"
						}
					],
					"stateMutability": "view",
					"type": "function"
				},
				{
					"inputs": [
						{
							"internalType": "address",
							"name": "_candidate",
							"type": "address"
						},
						{
							"internalType": "string",
							"name": "_name",
							"type": "string"
						},
						{
							"internalType": "string",
							"name": "_nationalID",
							"type": "string"
						},
						{
							"internalType": "string",
							"name": "_areaName",
							"type": "string"
						}
					],
					"name": "registerCandidate",
					"outputs": [],
					"stateMutability": "nonpayable",
					"type": "function"
				},
				{
					"inputs": [
						{
							"internalType": "address",
							"name": "_voter",
							"type": "address"
						},
						{
							"internalType": "string",
							"name": "_nationalID",
							"type": "string"
						},
						{
							"internalType": "string",
							"name": "_areaName",
							"type": "string"
						}
					],
					"name": "registerVoter",
					"outputs": [],
					"stateMutability": "nonpayable",
					"type": "function"
				},
				{
					"inputs": [],
					"name": "resetVotingSystem",
					"outputs": [],
					"stateMutability": "nonpayable",
					"type": "function"
				},
				{
					"inputs": [],
					"name": "startVoting",
					"outputs": [],
					"stateMutability": "nonpayable",
					"type": "function"
				},
				{
					"inputs": [
						{
							"internalType": "string",
							"name": "_candidateName",
							"type": "string"
						},
						{
							"internalType": "string",
							"name": "_nationalID",
							"type": "string"
						},
						{
							"internalType": "string",
							"name": "_area",
							"type": "string"
						}
					],
					"name": "vote",
					"outputs": [],
					"stateMutability": "nonpayable",
					"type": "function"
				},
				{
					"inputs": [
						{
							"internalType": "uint256",
							"name": "",
							"type": "uint256"
						}
					],
					"name": "voterList",
					"outputs": [
						{
							"internalType": "address",
							"name": "",
							"type": "address"
						}
					],
					"stateMutability": "view",
					"type": "function"
				},
				{
					"inputs": [
						{
							"internalType": "address",
							"name": "",
							"type": "address"
						}
					],
					"name": "voters",
					"outputs": [
						{
							"internalType": "bool",
							"name": "isRegistered",
							"type": "bool"
						},
						{
							"internalType": "bool",
							"name": "hasVoted",
							"type": "bool"
						},
						{
							"internalType": "address",
							"name": "votedCandidate",
							"type": "address"
						},
						{
							"internalType": "string",
							"name": "area",
							"type": "string"
						},
						{
							"internalType": "string",
							"name": "nationalID",
							"type": "string"
						}
					],
					"stateMutability": "view",
					"type": "function"
				},
				{
					"inputs": [],
					"name": "votingEnded",
					"outputs": [
						{
							"internalType": "bool",
							"name": "",
							"type": "bool"
						}
					],
					"stateMutability": "view",
					"type": "function"
				},
				{
					"inputs": [],
					"name": "votingStarted",
					"outputs": [
						{
							"internalType": "bool",
							"name": "",
							"type": "bool"
						}
					],
					"stateMutability": "view",
					"type": "function"
				}
			],
			"devdoc": {
				"kind": "dev",
				"methods": {},
				"version": 1
			},
			"evm": {
				"assembly": "    /* \"contracts/VotingSystem.sol\":157:12490  contract VotingSystem {... */\n  mstore(0x40, 0x80)\n    /* \"contracts/VotingSystem.sol\":2347:2398  constructor() {... */\n  callvalue\n  dup1\n  iszero\n  tag_1\n  jumpi\n  0x00\n  dup1\n  revert\ntag_1:\n  pop\n    /* \"contracts/VotingSystem.sol\":2380:2390  msg.sender */\n  caller\n    /* \"contracts/VotingSystem.sol\":2372:2377  admin */\n  0x00\n  dup1\n    /* \"contracts/VotingSystem.sol\":2372:2390  admin = msg.sender */\n  0x0100\n  exp\n  dup2\n  sload\n  dup2\n  0xffffffffffffffffffffffffffffffffffffffff\n  mul\n  not\n  and\n  swap1\n  dup4\n  0xffffffffffffffffffffffffffffffffffffffff\n  and\n  mul\n  or\n  swap1\n  sstore\n  pop\n    /* \"contracts/VotingSystem.sol\":157:12490  contract VotingSystem {... */\n  dataSize(sub_0)\n  dup1\n  dataOffset(sub_0)\n  0x00\n  codecopy\n  0x00\n  return\nstop\n\nsub_0: assembly {\n        /* \"contracts/VotingSystem.sol\":157:12490  contract VotingSystem {... */\n      mstore(0x40, 0x80)\n      callvalue\n      dup1\n      iszero\n      tag_1\n      jumpi\n      0x00\n      dup1\n      revert\n    tag_1:\n      pop\n      jumpi(tag_2, lt(calldatasize, 0x04))\n      shr(0xe0, calldataload(0x00))\n      dup1\n      0x8ab66a90\n      gt\n      tag_24\n      jumpi\n      dup1\n      0xac6ba3c3\n      gt\n      tag_25\n      jumpi\n      dup1\n      0xac6ba3c3\n      eq\n      tag_18\n      jumpi\n      dup1\n      0xb13c744b\n      eq\n      tag_19\n      jumpi\n      dup1\n      0xbb8fab8e\n      eq\n      tag_20\n      jumpi\n      dup1\n      0xc3403ddf\n      eq\n      tag_21\n      jumpi\n      dup1\n      0xd4a7de3e\n      eq\n      tag_22\n      jumpi\n      dup1\n      0xf851a440\n      eq\n      tag_23\n      jumpi\n      jump(tag_2)\n    tag_25:\n      dup1\n      0x8ab66a90\n      eq\n      tag_13\n      jumpi\n      dup1\n      0x8dfba9ac\n      eq\n      tag_14\n      jumpi\n      dup1\n      0x95f59fe1\n      eq\n      tag_15\n      jumpi\n      dup1\n      0x9d5a0529\n      eq\n      tag_16\n      jumpi\n      dup1\n      0xa3ec138d\n      eq\n      tag_17\n      jumpi\n      jump(tag_2)\n    tag_24:\n      dup1\n      0x3e46d279\n      gt\n      tag_26\n      jumpi\n      dup1\n      0x3e46d279\n      eq\n      tag_8\n      jumpi\n      dup1\n      0x432dea47\n      eq\n      tag_9\n      jumpi\n      dup1\n      0x438aabdc\n      eq\n      tag_10\n      jumpi\n      dup1\n      0x50e2e8af\n      eq\n      tag_11\n      jumpi\n      dup1\n      0x83d948b7\n      eq\n      tag_12\n      jumpi\n      jump(tag_2)\n    tag_26:\n      dup1\n      0x03b2b7f0\n      eq\n      tag_3\n      jumpi\n      dup1\n      0x06a49fce\n      eq\n      tag_4\n      jumpi\n      dup1\n      0x1ec6b60a\n      eq\n      tag_5\n      jumpi\n      dup1\n      0x21b3f528\n      eq\n      tag_6\n      jumpi\n      dup1\n      0x2ea3981a\n      eq\n      tag_7\n      jumpi\n    tag_2:\n      0x00\n      dup1\n      revert\n        /* \"contracts/VotingSystem.sol\":7742:8543  function resetVotingSystem() external onlyAdmin {... */\n    tag_3:\n      tag_27\n      tag_28\n      jump\t// in\n    tag_27:\n      stop\n        /* \"contracts/VotingSystem.sol\":8731:9059  function getCandidates() external view returns (string[] memory) {... */\n    tag_4:\n      tag_29\n      tag_30\n      jump\t// in\n    tag_29:\n      mload(0x40)\n      tag_31\n      swap2\n      swap1\n      tag_32\n      jump\t// in\n    tag_31:\n      mload(0x40)\n      dup1\n      swap2\n      sub\n      swap1\n      return\n        /* \"contracts/VotingSystem.sol\":4505:4698  function startVoting() external onlyAdmin {... */\n    tag_5:\n      tag_33\n      tag_34\n      jump\t// in\n    tag_33:\n      stop\n        /* \"contracts/VotingSystem.sol\":3636:4464  function registerCandidate(address _candidate, string memory _name, string memory _nationalID, string memory _areaName) external onlyAdmin {... */\n    tag_6:\n      tag_35\n      0x04\n      dup1\n      calldatasize\n      sub\n      dup2\n      add\n      swap1\n      tag_36\n      swap2\n      swap1\n      tag_37\n      jump\t// in\n    tag_36:\n      tag_38\n      jump\t// in\n    tag_35:\n      stop\n        /* \"contracts/VotingSystem.sol\":8585:8679  function getAreas() external view returns (string[] memory) {... */\n    tag_7:\n      tag_39\n      tag_40\n      jump\t// in\n    tag_39:\n      mload(0x40)\n      tag_41\n      swap2\n      swap1\n      tag_32\n      jump\t// in\n    tag_41:\n      mload(0x40)\n      dup1\n      swap2\n      sub\n      swap1\n      return\n        /* \"contracts/VotingSystem.sol\":1472:1496  string[] public areaList */\n    tag_8:\n      tag_42\n      0x04\n      dup1\n      calldatasize\n      sub\n      dup2\n      add\n      swap1\n      tag_43\n      swap2\n      swap1\n      tag_44\n      jump\t// in\n    tag_43:\n      tag_45\n      jump\t// in\n    tag_42:\n      mload(0x40)\n      tag_46\n      swap2\n      swap1\n      tag_47\n      jump\t// in\n    tag_46:\n      mload(0x40)\n      dup1\n      swap2\n      sub\n      swap1\n      return\n        /* \"contracts/VotingSystem.sol\":11580:12487  function getWinnerByArea(string memory _areaName) external view returns (address, string memory, uint256) {... */\n    tag_9:\n      tag_48\n      0x04\n      dup1\n      calldatasize\n      sub\n      dup2\n      add\n      swap1\n      tag_49\n      swap2\n      swap1\n      tag_50\n      jump\t// in\n    tag_49:\n      tag_51\n      jump\t// in\n    tag_48:\n      mload(0x40)\n      tag_52\n      swap4\n      swap3\n      swap2\n      swap1\n      tag_53\n      jump\t// in\n    tag_52:\n      mload(0x40)\n      dup1\n      swap2\n      sub\n      swap1\n      return\n        /* \"contracts/VotingSystem.sol\":10269:11509  function getCandidatesByArea(string memory _areaName) external view returns (address[] memory, string[] memory) {... */\n    tag_10:\n      tag_54\n      0x04\n      dup1\n      calldatasize\n      sub\n      dup2\n      add\n      swap1\n      tag_55\n      swap2\n      swap1\n      tag_50\n      jump\t// in\n    tag_55:\n      tag_56\n      jump\t// in\n    tag_54:\n      mload(0x40)\n      tag_57\n      swap3\n      swap2\n      swap1\n      tag_58\n      jump\t// in\n    tag_57:\n      mload(0x40)\n      dup1\n      swap2\n      sub\n      swap1\n      return\n        /* \"contracts/VotingSystem.sol\":1524:1550  address[] public voterList */\n    tag_11:\n      tag_59\n      0x04\n      dup1\n      calldatasize\n      sub\n      dup2\n      add\n      swap1\n      tag_60\n      swap2\n      swap1\n      tag_44\n      jump\t// in\n    tag_60:\n      tag_61\n      jump\t// in\n    tag_59:\n      mload(0x40)\n      tag_62\n      swap2\n      swap1\n      tag_63\n      jump\t// in\n    tag_62:\n      mload(0x40)\n      dup1\n      swap2\n      sub\n      swap1\n      return\n        /* \"contracts/VotingSystem.sol\":1609:1634  bool public votingStarted */\n    tag_12:\n      tag_64\n      tag_65\n      jump\t// in\n    tag_64:\n      mload(0x40)\n      tag_66\n      swap2\n      swap1\n      tag_67\n      jump\t// in\n    tag_66:\n      mload(0x40)\n      dup1\n      swap2\n      sub\n      swap1\n      return\n        /* \"contracts/VotingSystem.sol\":1147:1194  mapping(address => Candidate) public candidates */\n    tag_13:\n      tag_68\n      0x04\n      dup1\n      calldatasize\n      sub\n      dup2\n      add\n      swap1\n      tag_69\n      swap2\n      swap1\n      tag_70\n      jump\t// in\n    tag_69:\n      tag_71\n      jump\t// in\n    tag_68:\n      mload(0x40)\n      tag_72\n      swap6\n      swap5\n      swap4\n      swap3\n      swap2\n      swap1\n      tag_73\n      jump\t// in\n    tag_72:\n      mload(0x40)\n      dup1\n      swap2\n      sub\n      swap1\n      return\n        /* \"contracts/VotingSystem.sol\":9065:10218  function getTotalValidVotersByAllAreas() public view returns (string[] memory, uint256[] memory) {... */\n    tag_14:\n      tag_74\n      tag_75\n      jump\t// in\n    tag_74:\n      mload(0x40)\n      tag_76\n      swap3\n      swap2\n      swap1\n      tag_77\n      jump\t// in\n    tag_76:\n      mload(0x40)\n      dup1\n      swap2\n      sub\n      swap1\n      return\n        /* \"contracts/VotingSystem.sol\":4738:6668  function vote(string memory _candidateName, string memory _nationalID, string memory _area) external duringVoting {... */\n    tag_15:\n      tag_78\n      0x04\n      dup1\n      calldatasize\n      sub\n      dup2\n      add\n      swap1\n      tag_79\n      swap2\n      swap1\n      tag_80\n      jump\t// in\n    tag_79:\n      tag_81\n      jump\t// in\n    tag_78:\n      stop\n        /* \"contracts/VotingSystem.sol\":1641:1664  bool public votingEnded */\n    tag_16:\n      tag_82\n      tag_83\n      jump\t// in\n    tag_82:\n      mload(0x40)\n      tag_84\n      swap2\n      swap1\n      tag_67\n      jump\t// in\n    tag_84:\n      mload(0x40)\n      dup1\n      swap2\n      sub\n      swap1\n      return\n        /* \"contracts/VotingSystem.sol\":987:1026  mapping(address => Voter) public voters */\n    tag_17:\n      tag_85\n      0x04\n      dup1\n      calldatasize\n      sub\n      dup2\n      add\n      swap1\n      tag_86\n      swap2\n      swap1\n      tag_70\n      jump\t// in\n    tag_86:\n      tag_87\n      jump\t// in\n    tag_85:\n      mload(0x40)\n      tag_88\n      swap6\n      swap5\n      swap4\n      swap3\n      swap2\n      swap1\n      tag_89\n      jump\t// in\n    tag_88:\n      mload(0x40)\n      dup1\n      swap2\n      sub\n      swap1\n      return\n        /* \"contracts/VotingSystem.sol\":2444:2842  function addArea(string memory _areaName, uint256 _maxVoters) external onlyAdmin {... */\n    tag_18:\n      tag_90\n      0x04\n      dup1\n      calldatasize\n      sub\n      dup2\n      add\n      swap1\n      tag_91\n      swap2\n      swap1\n      tag_92\n      jump\t// in\n    tag_91:\n      tag_93\n      jump\t// in\n    tag_90:\n      stop\n        /* \"contracts/VotingSystem.sol\":1404:1434  address[] public candidateList */\n    tag_19:\n      tag_94\n      0x04\n      dup1\n      calldatasize\n      sub\n      dup2\n      add\n      swap1\n      tag_95\n      swap2\n      swap1\n      tag_44\n      jump\t// in\n    tag_95:\n      tag_96\n      jump\t// in\n    tag_94:\n      mload(0x40)\n      tag_97\n      swap2\n      swap1\n      tag_63\n      jump\t// in\n    tag_97:\n      mload(0x40)\n      dup1\n      swap2\n      sub\n      swap1\n      return\n        /* \"contracts/VotingSystem.sol\":2913:3561  function registerVoter(address _voter, string memory _nationalID, string memory _areaName) external onlyAdmin {... */\n    tag_20:\n      tag_98\n      0x04\n      dup1\n      calldatasize\n      sub\n      dup2\n      add\n      swap1\n      tag_99\n      swap2\n      swap1\n      tag_100\n      jump\t// in\n    tag_99:\n      tag_101\n      jump\t// in\n    tag_98:\n      stop\n        /* \"contracts/VotingSystem.sol\":6725:7690  function endVoting() external onlyAdmin duringVoting {... */\n    tag_21:\n      tag_102\n      tag_103\n      jump\t// in\n    tag_102:\n      stop\n        /* \"contracts/VotingSystem.sol\":1331:1367  mapping(string => Area) public areas */\n    tag_22:\n      tag_104\n      0x04\n      dup1\n      calldatasize\n      sub\n      dup2\n      add\n      swap1\n      tag_105\n      swap2\n      swap1\n      tag_50\n      jump\t// in\n    tag_105:\n      tag_106\n      jump\t// in\n    tag_104:\n      mload(0x40)\n      tag_107\n      swap3\n      swap2\n      swap1\n      tag_108\n      jump\t// in\n    tag_107:\n      mload(0x40)\n      dup1\n      swap2\n      sub\n      swap1\n      return\n        /* \"contracts/VotingSystem.sol\":186:206  address public admin */\n    tag_23:\n      tag_109\n      tag_110\n      jump\t// in\n    tag_109:\n      mload(0x40)\n      tag_111\n      swap2\n      swap1\n      tag_63\n      jump\t// in\n    tag_111:\n      mload(0x40)\n      dup1\n      swap2\n      sub\n      swap1\n      return\n        /* \"contracts/VotingSystem.sol\":7742:8543  function resetVotingSystem() external onlyAdmin {... */\n    tag_28:\n        /* \"contracts/VotingSystem.sol\":2148:2153  admin */\n      0x00\n      dup1\n      sload\n      swap1\n      0x0100\n      exp\n      swap1\n      div\n      0xffffffffffffffffffffffffffffffffffffffff\n      and\n        /* \"contracts/VotingSystem.sol\":2134:2153  msg.sender == admin */\n      0xffffffffffffffffffffffffffffffffffffffff\n      and\n        /* \"contracts/VotingSystem.sol\":2134:2144  msg.sender */\n      caller\n        /* \"contracts/VotingSystem.sol\":2134:2153  msg.sender == admin */\n      0xffffffffffffffffffffffffffffffffffffffff\n      and\n      eq\n        /* \"contracts/VotingSystem.sol\":2126:2193  require(msg.sender == admin, \"Only admin can perform this action.\") */\n      tag_113\n      jumpi\n      mload(0x40)\n      0x08c379a000000000000000000000000000000000000000000000000000000000\n      dup2\n      mstore\n      0x04\n      add\n      tag_114\n      swap1\n      tag_115\n      jump\t// in\n    tag_114:\n      mload(0x40)\n      dup1\n      swap2\n      sub\n      swap1\n      revert\n    tag_113:\n        /* \"contracts/VotingSystem.sol\":7850:7859  uint256 i */\n      0x00\n        /* \"contracts/VotingSystem.sol\":7845:7996  for (uint256 i = 0; i < voterList.length; i++) {... */\n    tag_117:\n        /* \"contracts/VotingSystem.sol\":7869:7878  voterList */\n      0x08\n        /* \"contracts/VotingSystem.sol\":7869:7885  voterList.length */\n      dup1\n      sload\n      swap1\n      pop\n        /* \"contracts/VotingSystem.sol\":7865:7866  i */\n      dup2\n        /* \"contracts/VotingSystem.sol\":7865:7885  i < voterList.length */\n      lt\n        /* \"contracts/VotingSystem.sol\":7845:7996  for (uint256 i = 0; i < voterList.length; i++) {... */\n      iszero\n      tag_118\n      jumpi\n        /* \"contracts/VotingSystem.sol\":7907:7927  address voterAddress */\n      0x00\n        /* \"contracts/VotingSystem.sol\":7930:7939  voterList */\n      0x08\n        /* \"contracts/VotingSystem.sol\":7940:7941  i */\n      dup3\n        /* \"contracts/VotingSystem.sol\":7930:7942  voterList[i] */\n      dup2\n      sload\n      dup2\n      lt\n      tag_120\n      jumpi\n      tag_121\n      tag_122\n      jump\t// in\n    tag_121:\n    tag_120:\n      swap1\n      0x00\n      mstore\n      keccak256(0x00, 0x20)\n      add\n      0x00\n      swap1\n      sload\n      swap1\n      0x0100\n      exp\n      swap1\n      div\n      0xffffffffffffffffffffffffffffffffffffffff\n      and\n        /* \"contracts/VotingSystem.sol\":7907:7942  address voterAddress = voterList[i] */\n      swap1\n      pop\n        /* \"contracts/VotingSystem.sol\":7964:7970  voters */\n      0x01\n        /* \"contracts/VotingSystem.sol\":7964:7984  voters[voterAddress] */\n      0x00\n        /* \"contracts/VotingSystem.sol\":7971:7983  voterAddress */\n      dup3\n        /* \"contracts/VotingSystem.sol\":7964:7984  voters[voterAddress] */\n      0xffffffffffffffffffffffffffffffffffffffff\n      and\n      0xffffffffffffffffffffffffffffffffffffffff\n      and\n      dup2\n      mstore\n      0x20\n      add\n      swap1\n      dup2\n      mstore\n      0x20\n      add\n      0x00\n      keccak256\n      0x00\n        /* \"contracts/VotingSystem.sol\":7957:7984  delete voters[voterAddress] */\n      dup1\n      dup3\n      add\n      exp(0x0100, 0x00)\n      dup2\n      sload\n      swap1\n      0xff\n      mul\n      not\n      and\n      swap1\n      sstore\n      0x00\n      dup3\n      add\n      exp(0x0100, 0x01)\n      dup2\n      sload\n      swap1\n      0xff\n      mul\n      not\n      and\n      swap1\n      sstore\n      0x00\n      dup3\n      add\n      exp(0x0100, 0x02)\n      dup2\n      sload\n      swap1\n      0xffffffffffffffffffffffffffffffffffffffff\n      mul\n      not\n      and\n      swap1\n      sstore\n      0x01\n      dup3\n      add\n      0x00\n      tag_124\n      swap2\n      swap1\n      tag_125\n      jump\t// in\n    tag_124:\n      0x02\n      dup3\n      add\n      0x00\n      tag_126\n      swap2\n      swap1\n      tag_125\n      jump\t// in\n    tag_126:\n      pop\n      pop\n        /* \"contracts/VotingSystem.sol\":7892:7996  {... */\n      pop\n        /* \"contracts/VotingSystem.sol\":7887:7890  i++ */\n      dup1\n      dup1\n      0x01\n      add\n      swap2\n      pop\n      pop\n        /* \"contracts/VotingSystem.sol\":7845:7996  for (uint256 i = 0; i < voterList.length; i++) {... */\n      jump(tag_117)\n    tag_118:\n      pop\n        /* \"contracts/VotingSystem.sol\":8013:8022  uint256 i */\n      0x00\n        /* \"contracts/VotingSystem.sol\":8008:8179  for (uint256 i = 0; i < candidateList.length; i++) {... */\n    tag_127:\n        /* \"contracts/VotingSystem.sol\":8032:8045  candidateList */\n      0x06\n        /* \"contracts/VotingSystem.sol\":8032:8052  candidateList.length */\n      dup1\n      sload\n      swap1\n      pop\n        /* \"contracts/VotingSystem.sol\":8028:8029  i */\n      dup2\n        /* \"contracts/VotingSystem.sol\":8028:8052  i < candidateList.length */\n      lt\n        /* \"contracts/VotingSystem.sol\":8008:8179  for (uint256 i = 0; i < candidateList.length; i++) {... */\n      iszero\n      tag_128\n      jumpi\n        /* \"contracts/VotingSystem.sol\":8074:8098  address candidateAddress */\n      0x00\n        /* \"contracts/VotingSystem.sol\":8101:8114  candidateList */\n      0x06\n        /* \"contracts/VotingSystem.sol\":8115:8116  i */\n      dup3\n        /* \"contracts/VotingSystem.sol\":8101:8117  candidateList[i] */\n      dup2\n      sload\n      dup2\n      lt\n      tag_130\n      jumpi\n      tag_131\n      tag_122\n      jump\t// in\n    tag_131:\n    tag_130:\n      swap1\n      0x00\n      mstore\n      keccak256(0x00, 0x20)\n      add\n      0x00\n      swap1\n      sload\n      swap1\n      0x0100\n      exp\n      swap1\n      div\n      0xffffffffffffffffffffffffffffffffffffffff\n      and\n        /* \"contracts/VotingSystem.sol\":8074:8117  address candidateAddress = candidateList[i] */\n      swap1\n      pop\n        /* \"contracts/VotingSystem.sol\":8139:8149  candidates */\n      0x03\n        /* \"contracts/VotingSystem.sol\":8139:8167  candidates[candidateAddress] */\n      0x00\n        /* \"contracts/VotingSystem.sol\":8150:8166  candidateAddress */\n      dup3\n        /* \"contracts/VotingSystem.sol\":8139:8167  candidates[candidateAddress] */\n      0xffffffffffffffffffffffffffffffffffffffff\n      and\n      0xffffffffffffffffffffffffffffffffffffffff\n      and\n      dup2\n      mstore\n      0x20\n      add\n      swap1\n      dup2\n      mstore\n      0x20\n      add\n      0x00\n      keccak256\n      0x00\n        /* \"contracts/VotingSystem.sol\":8132:8167  delete candidates[candidateAddress] */\n      dup1\n      dup3\n      add\n      0x00\n      tag_133\n      swap2\n      swap1\n      tag_125\n      jump\t// in\n    tag_133:\n      0x01\n      dup3\n      add\n      exp(0x0100, 0x00)\n      dup2\n      sload\n      swap1\n      0xffffffffffffffffffffffffffffffffffffffff\n      mul\n      not\n      and\n      swap1\n      sstore\n      0x02\n      dup3\n      add\n      0x00\n      swap1\n      sstore\n      0x03\n      dup3\n      add\n      0x00\n      tag_134\n      swap2\n      swap1\n      tag_125\n      jump\t// in\n    tag_134:\n      0x04\n      dup3\n      add\n      0x00\n      tag_135\n      swap2\n      swap1\n      tag_125\n      jump\t// in\n    tag_135:\n      pop\n      pop\n        /* \"contracts/VotingSystem.sol\":8059:8179  {... */\n      pop\n        /* \"contracts/VotingSystem.sol\":8054:8057  i++ */\n      dup1\n      dup1\n      0x01\n      add\n      swap2\n      pop\n      pop\n        /* \"contracts/VotingSystem.sol\":8008:8179  for (uint256 i = 0; i < candidateList.length; i++) {... */\n      jump(tag_127)\n    tag_128:\n      pop\n        /* \"contracts/VotingSystem.sol\":8239:8248  uint256 i */\n      0x00\n        /* \"contracts/VotingSystem.sol\":8234:8390  for (uint256 i = 0; i < areaList.length; i++) {... */\n    tag_136:\n        /* \"contracts/VotingSystem.sol\":8258:8266  areaList */\n      0x07\n        /* \"contracts/VotingSystem.sol\":8258:8273  areaList.length */\n      dup1\n      sload\n      swap1\n      pop\n        /* \"contracts/VotingSystem.sol\":8254:8255  i */\n      dup2\n        /* \"contracts/VotingSystem.sol\":8254:8273  i < areaList.length */\n      lt\n        /* \"contracts/VotingSystem.sol\":8234:8390  for (uint256 i = 0; i < areaList.length; i++) {... */\n      iszero\n      tag_137\n      jumpi\n        /* \"contracts/VotingSystem.sol\":8295:8317  string memory areaName */\n      0x00\n        /* \"contracts/VotingSystem.sol\":8320:8328  areaList */\n      0x07\n        /* \"contracts/VotingSystem.sol\":8329:8330  i */\n      dup3\n        /* \"contracts/VotingSystem.sol\":8320:8331  areaList[i] */\n      dup2\n      sload\n      dup2\n      lt\n      tag_139\n      jumpi\n      tag_140\n      tag_122\n      jump\t// in\n    tag_140:\n    tag_139:\n      swap1\n      0x00\n      mstore\n      keccak256(0x00, 0x20)\n      add\n        /* \"contracts/VotingSystem.sol\":8295:8331  string memory areaName = areaList[i] */\n      dup1\n      sload\n      tag_142\n      swap1\n      tag_143\n      jump\t// in\n    tag_142:\n      dup1\n      0x1f\n      add\n      0x20\n      dup1\n      swap2\n      div\n      mul\n      0x20\n      add\n      mload(0x40)\n      swap1\n      dup2\n      add\n      0x40\n      mstore\n      dup1\n      swap3\n      swap2\n      swap1\n      dup2\n      dup2\n      mstore\n      0x20\n      add\n      dup3\n      dup1\n      sload\n      tag_144\n      swap1\n      tag_143\n      jump\t// in\n    tag_144:\n      dup1\n      iszero\n      tag_145\n      jumpi\n      dup1\n      0x1f\n      lt\n      tag_146\n      jumpi\n      0x0100\n      dup1\n      dup4\n      sload\n      div\n      mul\n      dup4\n      mstore\n      swap2\n      0x20\n      add\n      swap2\n      jump(tag_145)\n    tag_146:\n      dup3\n      add\n      swap2\n      swap1\n      0x00\n      mstore\n      keccak256(0x00, 0x20)\n      swap1\n    tag_147:\n      dup2\n      sload\n      dup2\n      mstore\n      swap1\n      0x01\n      add\n      swap1\n      0x20\n      add\n      dup1\n      dup4\n      gt\n      tag_147\n      jumpi\n      dup3\n      swap1\n      sub\n      0x1f\n      and\n      dup3\n      add\n      swap2\n    tag_145:\n      pop\n      pop\n      pop\n      pop\n      pop\n      swap1\n      pop\n        /* \"contracts/VotingSystem.sol\":8377:8378  0 */\n      0x00\n        /* \"contracts/VotingSystem.sol\":8346:8351  areas */\n      0x05\n        /* \"contracts/VotingSystem.sol\":8352:8360  areaName */\n      dup3\n        /* \"contracts/VotingSystem.sol\":8346:8361  areas[areaName] */\n      mload(0x40)\n      tag_148\n      swap2\n      swap1\n      tag_149\n      jump\t// in\n    tag_148:\n      swap1\n      dup2\n      mstore\n      0x20\n      add\n      mload(0x40)\n      dup1\n      swap2\n      sub\n      swap1\n      keccak256\n        /* \"contracts/VotingSystem.sol\":8346:8374  areas[areaName].currentVotes */\n      0x01\n      add\n        /* \"contracts/VotingSystem.sol\":8346:8378  areas[areaName].currentVotes = 0 */\n      dup2\n      swap1\n      sstore\n      pop\n        /* \"contracts/VotingSystem.sol\":8280:8390  {... */\n      pop\n        /* \"contracts/VotingSystem.sol\":8275:8278  i++ */\n      dup1\n      dup1\n      0x01\n      add\n      swap2\n      pop\n      pop\n        /* \"contracts/VotingSystem.sol\":8234:8390  for (uint256 i = 0; i < areaList.length; i++) {... */\n      jump(tag_136)\n    tag_137:\n      pop\n        /* \"contracts/VotingSystem.sol\":8460:8469  voterList */\n      0x08\n      0x00\n        /* \"contracts/VotingSystem.sol\":8453:8469  delete voterList */\n      tag_150\n      swap2\n      swap1\n      tag_151\n      jump\t// in\n    tag_150:\n        /* \"contracts/VotingSystem.sol\":8487:8500  candidateList */\n      0x06\n      0x00\n        /* \"contracts/VotingSystem.sol\":8480:8500  delete candidateList */\n      tag_152\n      swap2\n      swap1\n      tag_151\n      jump\t// in\n    tag_152:\n        /* \"contracts/VotingSystem.sol\":8516:8535  VotingSystemReset() */\n      0x0bf08627280db28f838829bac111b71826df049e015888aaa3d0429d21b897b7\n      mload(0x40)\n      mload(0x40)\n      dup1\n      swap2\n      sub\n      swap1\n      log1\n        /* \"contracts/VotingSystem.sol\":7742:8543  function resetVotingSystem() external onlyAdmin {... */\n      jump\t// out\n        /* \"contracts/VotingSystem.sol\":8731:9059  function getCandidates() external view returns (string[] memory) {... */\n    tag_30:\n        /* \"contracts/VotingSystem.sol\":8779:8794  string[] memory */\n      0x60\n        /* \"contracts/VotingSystem.sol\":8807:8837  string[] memory candidateNames */\n      0x00\n        /* \"contracts/VotingSystem.sol\":8853:8866  candidateList */\n      0x06\n        /* \"contracts/VotingSystem.sol\":8853:8873  candidateList.length */\n      dup1\n      sload\n      swap1\n      pop\n        /* \"contracts/VotingSystem.sol\":8840:8874  new string[](candidateList.length) */\n      0xffffffffffffffff\n      dup2\n      gt\n      iszero\n      tag_154\n      jumpi\n      tag_155\n      tag_156\n      jump\t// in\n    tag_155:\n    tag_154:\n      mload(0x40)\n      swap1\n      dup1\n      dup3\n      mstore\n      dup1\n      0x20\n      mul\n      0x20\n      add\n      dup3\n      add\n      0x40\n      mstore\n      dup1\n      iszero\n      tag_157\n      jumpi\n      dup2\n      0x20\n      add\n    tag_158:\n      0x60\n      dup2\n      mstore\n      0x20\n      add\n      swap1\n      0x01\n      swap1\n      sub\n      swap1\n      dup2\n      tag_158\n      jumpi\n      swap1\n      pop\n    tag_157:\n      pop\n        /* \"contracts/VotingSystem.sol\":8807:8874  string[] memory candidateNames = new string[](candidateList.length) */\n      swap1\n      pop\n        /* \"contracts/VotingSystem.sol\":8892:8901  uint256 i */\n      0x00\n        /* \"contracts/VotingSystem.sol\":8887:9018  for (uint256 i = 0; i < candidateList.length; i++) {... */\n    tag_159:\n        /* \"contracts/VotingSystem.sol\":8911:8924  candidateList */\n      0x06\n        /* \"contracts/VotingSystem.sol\":8911:8931  candidateList.length */\n      dup1\n      sload\n      swap1\n      pop\n        /* \"contracts/VotingSystem.sol\":8907:8908  i */\n      dup2\n        /* \"contracts/VotingSystem.sol\":8907:8931  i < candidateList.length */\n      lt\n        /* \"contracts/VotingSystem.sol\":8887:9018  for (uint256 i = 0; i < candidateList.length; i++) {... */\n      iszero\n      tag_160\n      jumpi\n        /* \"contracts/VotingSystem.sol\":8973:8983  candidates */\n      0x03\n        /* \"contracts/VotingSystem.sol\":8973:9001  candidates[candidateList[i]] */\n      0x00\n        /* \"contracts/VotingSystem.sol\":8984:8997  candidateList */\n      0x06\n        /* \"contracts/VotingSystem.sol\":8998:8999  i */\n      dup4\n        /* \"contracts/VotingSystem.sol\":8984:9000  candidateList[i] */\n      dup2\n      sload\n      dup2\n      lt\n      tag_162\n      jumpi\n      tag_163\n      tag_122\n      jump\t// in\n    tag_163:\n    tag_162:\n      swap1\n      0x00\n      mstore\n      keccak256(0x00, 0x20)\n      add\n      0x00\n      swap1\n      sload\n      swap1\n      0x0100\n      exp\n      swap1\n      div\n      0xffffffffffffffffffffffffffffffffffffffff\n      and\n        /* \"contracts/VotingSystem.sol\":8973:9001  candidates[candidateList[i]] */\n      0xffffffffffffffffffffffffffffffffffffffff\n      and\n      0xffffffffffffffffffffffffffffffffffffffff\n      and\n      dup2\n      mstore\n      0x20\n      add\n      swap1\n      dup2\n      mstore\n      0x20\n      add\n      0x00\n      keccak256\n        /* \"contracts/VotingSystem.sol\":8973:9006  candidates[candidateList[i]].name */\n      0x00\n      add\n        /* \"contracts/VotingSystem.sol\":8953:9006  candidateNames[i] = candidates[candidateList[i]].name */\n      dup1\n      sload\n      tag_165\n      swap1\n      tag_143\n      jump\t// in\n    tag_165:\n      dup1\n      0x1f\n      add\n      0x20\n      dup1\n      swap2\n      div\n      mul\n      0x20\n      add\n      mload(0x40)\n      swap1\n      dup2\n      add\n      0x40\n      mstore\n      dup1\n      swap3\n      swap2\n      swap1\n      dup2\n      dup2\n      mstore\n      0x20\n      add\n      dup3\n      dup1\n      sload\n      tag_166\n      swap1\n      tag_143\n      jump\t// in\n    tag_166:\n      dup1\n      iszero\n      tag_167\n      jumpi\n      dup1\n      0x1f\n      lt\n      tag_168\n      jumpi\n      0x0100\n      dup1\n      dup4\n      sload\n      div\n      mul\n      dup4\n      mstore\n      swap2\n      0x20\n      add\n      swap2\n      jump(tag_167)\n    tag_168:\n      dup3\n      add\n      swap2\n      swap1\n      0x00\n      mstore\n      keccak256(0x00, 0x20)\n      swap1\n    tag_169:\n      dup2\n      sload\n      dup2\n      mstore\n      swap1\n      0x01\n      add\n      swap1\n      0x20\n      add\n      dup1\n      dup4\n      gt\n      tag_169\n      jumpi\n      dup3\n      swap1\n      sub\n      0x1f\n      and\n      dup3\n      add\n      swap2\n    tag_167:\n      pop\n      pop\n      pop\n      pop\n      pop\n        /* \"contracts/VotingSystem.sol\":8953:8967  candidateNames */\n      dup3\n        /* \"contracts/VotingSystem.sol\":8968:8969  i */\n      dup3\n        /* \"contracts/VotingSystem.sol\":8953:8970  candidateNames[i] */\n      dup2\n      mload\n      dup2\n      lt\n      tag_170\n      jumpi\n      tag_171\n      tag_122\n      jump\t// in\n    tag_171:\n    tag_170:\n      0x20\n      mul\n      0x20\n      add\n      add\n        /* \"contracts/VotingSystem.sol\":8953:9006  candidateNames[i] = candidates[candidateList[i]].name */\n      dup2\n      swap1\n      mstore\n      pop\n        /* \"contracts/VotingSystem.sol\":8933:8936  i++ */\n      dup1\n      dup1\n      0x01\n      add\n      swap2\n      pop\n      pop\n        /* \"contracts/VotingSystem.sol\":8887:9018  for (uint256 i = 0; i < candidateList.length; i++) {... */\n      jump(tag_159)\n    tag_160:\n      pop\n        /* \"contracts/VotingSystem.sol\":9037:9051  candidateNames */\n      dup1\n        /* \"contracts/VotingSystem.sol\":9030:9051  return candidateNames */\n      swap2\n      pop\n      pop\n        /* \"contracts/VotingSystem.sol\":8731:9059  function getCandidates() external view returns (string[] memory) {... */\n      swap1\n      jump\t// out\n        /* \"contracts/VotingSystem.sol\":4505:4698  function startVoting() external onlyAdmin {... */\n    tag_34:\n        /* \"contracts/VotingSystem.sol\":2148:2153  admin */\n      0x00\n      dup1\n      sload\n      swap1\n      0x0100\n      exp\n      swap1\n      div\n      0xffffffffffffffffffffffffffffffffffffffff\n      and\n        /* \"contracts/VotingSystem.sol\":2134:2153  msg.sender == admin */\n      0xffffffffffffffffffffffffffffffffffffffff\n      and\n        /* \"contracts/VotingSystem.sol\":2134:2144  msg.sender */\n      caller\n        /* \"contracts/VotingSystem.sol\":2134:2153  msg.sender == admin */\n      0xffffffffffffffffffffffffffffffffffffffff\n      and\n      eq\n        /* \"contracts/VotingSystem.sol\":2126:2193  require(msg.sender == admin, \"Only admin can perform this action.\") */\n      tag_173\n      jumpi\n      mload(0x40)\n      0x08c379a000000000000000000000000000000000000000000000000000000000\n      dup2\n      mstore\n      0x04\n      add\n      tag_174\n      swap1\n      tag_115\n      jump\t// in\n    tag_174:\n      mload(0x40)\n      dup1\n      swap2\n      sub\n      swap1\n      revert\n    tag_173:\n        /* \"contracts/VotingSystem.sol\":4590:4591  2 */\n      0x02\n        /* \"contracts/VotingSystem.sol\":4566:4579  candidateList */\n      0x06\n        /* \"contracts/VotingSystem.sol\":4566:4586  candidateList.length */\n      dup1\n      sload\n      swap1\n      pop\n        /* \"contracts/VotingSystem.sol\":4566:4591  candidateList.length >= 2 */\n      lt\n      iszero\n        /* \"contracts/VotingSystem.sol\":4558:4629  require(candidateList.length >= 2, \"At least two candidates required.\") */\n      tag_176\n      jumpi\n      mload(0x40)\n      0x08c379a000000000000000000000000000000000000000000000000000000000\n      dup2\n      mstore\n      0x04\n      add\n      tag_177\n      swap1\n      tag_178\n      jump\t// in\n    tag_177:\n      mload(0x40)\n      dup1\n      swap2\n      sub\n      swap1\n      revert\n    tag_176:\n        /* \"contracts/VotingSystem.sol\":4656:4660  true */\n      0x01\n        /* \"contracts/VotingSystem.sol\":4640:4653  votingStarted */\n      0x09\n      0x00\n        /* \"contracts/VotingSystem.sol\":4640:4660  votingStarted = true */\n      0x0100\n      exp\n      dup2\n      sload\n      dup2\n      0xff\n      mul\n      not\n      and\n      swap1\n      dup4\n      iszero\n      iszero\n      mul\n      or\n      swap1\n      sstore\n      pop\n        /* \"contracts/VotingSystem.sol\":4685:4690  false */\n      0x00\n        /* \"contracts/VotingSystem.sol\":4671:4682  votingEnded */\n      0x09\n      0x01\n        /* \"contracts/VotingSystem.sol\":4671:4690  votingEnded = false */\n      0x0100\n      exp\n      dup2\n      sload\n      dup2\n      0xff\n      mul\n      not\n      and\n      swap1\n      dup4\n      iszero\n      iszero\n      mul\n      or\n      swap1\n      sstore\n      pop\n        /* \"contracts/VotingSystem.sol\":4505:4698  function startVoting() external onlyAdmin {... */\n      jump\t// out\n        /* \"contracts/VotingSystem.sol\":3636:4464  function registerCandidate(address _candidate, string memory _name, string memory _nationalID, string memory _areaName) external onlyAdmin {... */\n    tag_38:\n        /* \"contracts/VotingSystem.sol\":2148:2153  admin */\n      0x00\n      dup1\n      sload\n      swap1\n      0x0100\n      exp\n      swap1\n      div\n      0xffffffffffffffffffffffffffffffffffffffff\n      and\n        /* \"contracts/VotingSystem.sol\":2134:2153  msg.sender == admin */\n      0xffffffffffffffffffffffffffffffffffffffff\n      and\n        /* \"contracts/VotingSystem.sol\":2134:2144  msg.sender */\n      caller\n        /* \"contracts/VotingSystem.sol\":2134:2153  msg.sender == admin */\n      0xffffffffffffffffffffffffffffffffffffffff\n      and\n      eq\n        /* \"contracts/VotingSystem.sol\":2126:2193  require(msg.sender == admin, \"Only admin can perform this action.\") */\n      tag_180\n      jumpi\n      mload(0x40)\n      0x08c379a000000000000000000000000000000000000000000000000000000000\n      dup2\n      mstore\n      0x04\n      add\n      tag_181\n      swap1\n      tag_115\n      jump\t// in\n    tag_181:\n      mload(0x40)\n      dup1\n      swap2\n      sub\n      swap1\n      revert\n    tag_180:\n        /* \"contracts/VotingSystem.sol\":3823:3824  0 */\n      0x00\n        /* \"contracts/VotingSystem.sol\":3794:3799  areas */\n      0x05\n        /* \"contracts/VotingSystem.sol\":3800:3809  _areaName */\n      dup3\n        /* \"contracts/VotingSystem.sol\":3794:3810  areas[_areaName] */\n      mload(0x40)\n      tag_183\n      swap2\n      swap1\n      tag_149\n      jump\t// in\n    tag_183:\n      swap1\n      dup2\n      mstore\n      0x20\n      add\n      mload(0x40)\n      dup1\n      swap2\n      sub\n      swap1\n      keccak256\n        /* \"contracts/VotingSystem.sol\":3794:3820  areas[_areaName].maxVoters */\n      0x00\n      add\n      sload\n        /* \"contracts/VotingSystem.sol\":3794:3824  areas[_areaName].maxVoters > 0 */\n      gt\n        /* \"contracts/VotingSystem.sol\":3786:3849  require(areas[_areaName].maxVoters > 0, \"Area does not exist.\") */\n      tag_184\n      jumpi\n      mload(0x40)\n      0x08c379a000000000000000000000000000000000000000000000000000000000\n      dup2\n      mstore\n      0x04\n      add\n      tag_185\n      swap1\n      tag_186\n      jump\t// in\n    tag_185:\n      mload(0x40)\n      dup1\n      swap2\n      sub\n      swap1\n      revert\n    tag_184:\n        /* \"contracts/VotingSystem.sol\":3890:3891  0 */\n      0x00\n        /* \"contracts/VotingSystem.sol\":3874:3879  _name */\n      dup4\n        /* \"contracts/VotingSystem.sol\":3868:3887  bytes(_name).length */\n      mload\n        /* \"contracts/VotingSystem.sol\":3868:3891  bytes(_name).length > 0 */\n      gt\n        /* \"contracts/VotingSystem.sol\":3860:3927  require(bytes(_name).length > 0, \"Candidate name cannot be empty.\") */\n      tag_187\n      jumpi\n      mload(0x40)\n      0x08c379a000000000000000000000000000000000000000000000000000000000\n      dup2\n      mstore\n      0x04\n      add\n      tag_188\n      swap1\n      tag_189\n      jump\t// in\n    tag_188:\n      mload(0x40)\n      dup1\n      swap2\n      sub\n      swap1\n      revert\n    tag_187:\n        /* \"contracts/VotingSystem.sol\":3997:3998  0 */\n      0x00\n        /* \"contracts/VotingSystem.sol\":3946:3999  candidates[_candidate].candidateAddress == address(0) */\n      0xffffffffffffffffffffffffffffffffffffffff\n      and\n        /* \"contracts/VotingSystem.sol\":3946:3956  candidates */\n      0x03\n        /* \"contracts/VotingSystem.sol\":3946:3968  candidates[_candidate] */\n      0x00\n        /* \"contracts/VotingSystem.sol\":3957:3967  _candidate */\n      dup7\n        /* \"contracts/VotingSystem.sol\":3946:3968  candidates[_candidate] */\n      0xffffffffffffffffffffffffffffffffffffffff\n      and\n      0xffffffffffffffffffffffffffffffffffffffff\n      and\n      dup2\n      mstore\n      0x20\n      add\n      swap1\n      dup2\n      mstore\n      0x20\n      add\n      0x00\n      keccak256\n        /* \"contracts/VotingSystem.sol\":3946:3985  candidates[_candidate].candidateAddress */\n      0x01\n      add\n      0x00\n      swap1\n      sload\n      swap1\n      0x0100\n      exp\n      swap1\n      div\n      0xffffffffffffffffffffffffffffffffffffffff\n      and\n        /* \"contracts/VotingSystem.sol\":3946:3999  candidates[_candidate].candidateAddress == address(0) */\n      0xffffffffffffffffffffffffffffffffffffffff\n      and\n      eq\n        /* \"contracts/VotingSystem.sol\":3938:4033  require(candidates[_candidate].candidateAddress == address(0), \"Candidate already registered.\") */\n      tag_190\n      jumpi\n      mload(0x40)\n      0x08c379a000000000000000000000000000000000000000000000000000000000\n      dup2\n      mstore\n      0x04\n      add\n      tag_191\n      swap1\n      tag_192\n      jump\t// in\n    tag_191:\n      mload(0x40)\n      dup1\n      swap2\n      sub\n      swap1\n      revert\n    tag_190:\n        /* \"contracts/VotingSystem.sol\":4053:4078  candidateNationalIDExists */\n      0x04\n        /* \"contracts/VotingSystem.sol\":4079:4090  _nationalID */\n      dup3\n        /* \"contracts/VotingSystem.sol\":4053:4091  candidateNationalIDExists[_nationalID] */\n      mload(0x40)\n      tag_193\n      swap2\n      swap1\n      tag_149\n      jump\t// in\n    tag_193:\n      swap1\n      dup2\n      mstore\n      0x20\n      add\n      mload(0x40)\n      dup1\n      swap2\n      sub\n      swap1\n      keccak256\n      0x00\n      swap1\n      sload\n      swap1\n      0x0100\n      exp\n      swap1\n      div\n      0xff\n      and\n        /* \"contracts/VotingSystem.sol\":4052:4091  !candidateNationalIDExists[_nationalID] */\n      iszero\n        /* \"contracts/VotingSystem.sol\":4044:4127  require(!candidateNationalIDExists[_nationalID], \"National ID already registered.\") */\n      tag_194\n      jumpi\n      mload(0x40)\n      0x08c379a000000000000000000000000000000000000000000000000000000000\n      dup2\n      mstore\n      0x04\n      add\n      tag_195\n      swap1\n      tag_196\n      jump\t// in\n    tag_195:\n      mload(0x40)\n      dup1\n      swap2\n      sub\n      swap1\n      revert\n    tag_194:\n        /* \"contracts/VotingSystem.sol\":4196:4251  Candidate(_name, _candidate, 0, _areaName, _nationalID) */\n      mload(0x40)\n      dup1\n      0xa0\n      add\n      0x40\n      mstore\n      dup1\n        /* \"contracts/VotingSystem.sol\":4206:4211  _name */\n      dup5\n        /* \"contracts/VotingSystem.sol\":4196:4251  Candidate(_name, _candidate, 0, _areaName, _nationalID) */\n      dup2\n      mstore\n      0x20\n      add\n        /* \"contracts/VotingSystem.sol\":4213:4223  _candidate */\n      dup6\n        /* \"contracts/VotingSystem.sol\":4196:4251  Candidate(_name, _candidate, 0, _areaName, _nationalID) */\n      0xffffffffffffffffffffffffffffffffffffffff\n      and\n      dup2\n      mstore\n      0x20\n      add\n        /* \"contracts/VotingSystem.sol\":4225:4226  0 */\n      0x00\n        /* \"contracts/VotingSystem.sol\":4196:4251  Candidate(_name, _candidate, 0, _areaName, _nationalID) */\n      dup2\n      mstore\n      0x20\n      add\n        /* \"contracts/VotingSystem.sol\":4228:4237  _areaName */\n      dup3\n        /* \"contracts/VotingSystem.sol\":4196:4251  Candidate(_name, _candidate, 0, _areaName, _nationalID) */\n      dup2\n      mstore\n      0x20\n      add\n        /* \"contracts/VotingSystem.sol\":4239:4250  _nationalID */\n      dup4\n        /* \"contracts/VotingSystem.sol\":4196:4251  Candidate(_name, _candidate, 0, _areaName, _nationalID) */\n      dup2\n      mstore\n      pop\n        /* \"contracts/VotingSystem.sol\":4171:4181  candidates */\n      0x03\n        /* \"contracts/VotingSystem.sol\":4171:4193  candidates[_candidate] */\n      0x00\n        /* \"contracts/VotingSystem.sol\":4182:4192  _candidate */\n      dup7\n        /* \"contracts/VotingSystem.sol\":4171:4193  candidates[_candidate] */\n      0xffffffffffffffffffffffffffffffffffffffff\n      and\n      0xffffffffffffffffffffffffffffffffffffffff\n      and\n      dup2\n      mstore\n      0x20\n      add\n      swap1\n      dup2\n      mstore\n      0x20\n      add\n      0x00\n      keccak256\n        /* \"contracts/VotingSystem.sol\":4171:4251  candidates[_candidate] = Candidate(_name, _candidate, 0, _areaName, _nationalID) */\n      0x00\n      dup3\n      add\n      mload\n      dup2\n      0x00\n      add\n      swap1\n      dup2\n      tag_197\n      swap2\n      swap1\n      tag_198\n      jump\t// in\n    tag_197:\n      pop\n      0x20\n      dup3\n      add\n      mload\n      dup2\n      0x01\n      add\n      exp(0x0100, 0x00)\n      dup2\n      sload\n      dup2\n      0xffffffffffffffffffffffffffffffffffffffff\n      mul\n      not\n      and\n      swap1\n      dup4\n      0xffffffffffffffffffffffffffffffffffffffff\n      and\n      mul\n      or\n      swap1\n      sstore\n      pop\n      0x40\n      dup3\n      add\n      mload\n      dup2\n      0x02\n      add\n      sstore\n      0x60\n      dup3\n      add\n      mload\n      dup2\n      0x03\n      add\n      swap1\n      dup2\n      tag_199\n      swap2\n      swap1\n      tag_198\n      jump\t// in\n    tag_199:\n      pop\n      0x80\n      dup3\n      add\n      mload\n      dup2\n      0x04\n      add\n      swap1\n      dup2\n      tag_200\n      swap2\n      swap1\n      tag_198\n      jump\t// in\n    tag_200:\n      pop\n      swap1\n      pop\n      pop\n        /* \"contracts/VotingSystem.sol\":4303:4307  true */\n      0x01\n        /* \"contracts/VotingSystem.sol\":4262:4287  candidateNationalIDExists */\n      0x04\n        /* \"contracts/VotingSystem.sol\":4288:4299  _nationalID */\n      dup4\n        /* \"contracts/VotingSystem.sol\":4262:4300  candidateNationalIDExists[_nationalID] */\n      mload(0x40)\n      tag_201\n      swap2\n      swap1\n      tag_149\n      jump\t// in\n    tag_201:\n      swap1\n      dup2\n      mstore\n      0x20\n      add\n      mload(0x40)\n      dup1\n      swap2\n      sub\n      swap1\n      keccak256\n      0x00\n        /* \"contracts/VotingSystem.sol\":4262:4307  candidateNationalIDExists[_nationalID] = true */\n      0x0100\n      exp\n      dup2\n      sload\n      dup2\n      0xff\n      mul\n      not\n      and\n      swap1\n      dup4\n      iszero\n      iszero\n      mul\n      or\n      swap1\n      sstore\n      pop\n        /* \"contracts/VotingSystem.sol\":4346:4359  candidateList */\n      0x06\n        /* \"contracts/VotingSystem.sol\":4365:4375  _candidate */\n      dup5\n        /* \"contracts/VotingSystem.sol\":4346:4376  candidateList.push(_candidate) */\n      swap1\n      dup1\n      0x01\n      dup2\n      sload\n      add\n      dup1\n      dup3\n      sstore\n      dup1\n      swap2\n      pop\n      pop\n      0x01\n      swap1\n      sub\n      swap1\n      0x00\n      mstore\n      keccak256(0x00, 0x20)\n      add\n      0x00\n      swap1\n      swap2\n      swap1\n      swap2\n      swap1\n      swap2\n      0x0100\n      exp\n      dup2\n      sload\n      dup2\n      0xffffffffffffffffffffffffffffffffffffffff\n      mul\n      not\n      and\n      swap1\n      dup4\n      0xffffffffffffffffffffffffffffffffffffffff\n      and\n      mul\n      or\n      swap1\n      sstore\n      pop\n        /* \"contracts/VotingSystem.sol\":4394:4456  CandidateRegistered(_candidate, _name, _nationalID, _areaName) */\n      0xd6fea68f71a20d8149f227f87e8cf7e6ad320b2dad4b45465b14599b80ee09\n        /* \"contracts/VotingSystem.sol\":4414:4424  _candidate */\n      dup5\n        /* \"contracts/VotingSystem.sol\":4426:4431  _name */\n      dup5\n        /* \"contracts/VotingSystem.sol\":4433:4444  _nationalID */\n      dup5\n        /* \"contracts/VotingSystem.sol\":4446:4455  _areaName */\n      dup5\n        /* \"contracts/VotingSystem.sol\":4394:4456  CandidateRegistered(_candidate, _name, _nationalID, _areaName) */\n      mload(0x40)\n      tag_203\n      swap5\n      swap4\n      swap3\n      swap2\n      swap1\n      tag_204\n      jump\t// in\n    tag_203:\n      mload(0x40)\n      dup1\n      swap2\n      sub\n      swap1\n      log1\n        /* \"contracts/VotingSystem.sol\":3636:4464  function registerCandidate(address _candidate, string memory _name, string memory _nationalID, string memory _areaName) external onlyAdmin {... */\n      pop\n      pop\n      pop\n      pop\n      jump\t// out\n        /* \"contracts/VotingSystem.sol\":8585:8679  function getAreas() external view returns (string[] memory) {... */\n    tag_40:\n        /* \"contracts/VotingSystem.sol\":8628:8643  string[] memory */\n      0x60\n        /* \"contracts/VotingSystem.sol\":8663:8671  areaList */\n      0x07\n        /* \"contracts/VotingSystem.sol\":8656:8671  return areaList */\n      dup1\n      sload\n      dup1\n      0x20\n      mul\n      0x20\n      add\n      mload(0x40)\n      swap1\n      dup2\n      add\n      0x40\n      mstore\n      dup1\n      swap3\n      swap2\n      swap1\n      dup2\n      dup2\n      mstore\n      0x20\n      add\n      0x00\n      swap1\n    tag_206:\n      dup3\n      dup3\n      lt\n      iszero\n      tag_207\n      jumpi\n      dup4\n      dup3\n      swap1\n      0x00\n      mstore\n      keccak256(0x00, 0x20)\n      add\n      dup1\n      sload\n      tag_209\n      swap1\n      tag_143\n      jump\t// in\n    tag_209:\n      dup1\n      0x1f\n      add\n      0x20\n      dup1\n      swap2\n      div\n      mul\n      0x20\n      add\n      mload(0x40)\n      swap1\n      dup2\n      add\n      0x40\n      mstore\n      dup1\n      swap3\n      swap2\n      swap1\n      dup2\n      dup2\n      mstore\n      0x20\n      add\n      dup3\n      dup1\n      sload\n      tag_210\n      swap1\n      tag_143\n      jump\t// in\n    tag_210:\n      dup1\n      iszero\n      tag_211\n      jumpi\n      dup1\n      0x1f\n      lt\n      tag_212\n      jumpi\n      0x0100\n      dup1\n      dup4\n      sload\n      div\n      mul\n      dup4\n      mstore\n      swap2\n      0x20\n      add\n      swap2\n      jump(tag_211)\n    tag_212:\n      dup3\n      add\n      swap2\n      swap1\n      0x00\n      mstore\n      keccak256(0x00, 0x20)\n      swap1\n    tag_213:\n      dup2\n      sload\n      dup2\n      mstore\n      swap1\n      0x01\n      add\n      swap1\n      0x20\n      add\n      dup1\n      dup4\n      gt\n      tag_213\n      jumpi\n      dup3\n      swap1\n      sub\n      0x1f\n      and\n      dup3\n      add\n      swap2\n    tag_211:\n      pop\n      pop\n      pop\n      pop\n      pop\n      dup2\n      mstore\n      0x20\n      add\n      swap1\n      0x01\n      add\n      swap1\n      jump(tag_206)\n    tag_207:\n      pop\n      pop\n      pop\n      pop\n      swap1\n      pop\n        /* \"contracts/VotingSystem.sol\":8585:8679  function getAreas() external view returns (string[] memory) {... */\n      swap1\n      jump\t// out\n        /* \"contracts/VotingSystem.sol\":1472:1496  string[] public areaList */\n    tag_45:\n      0x07\n      dup2\n      dup2\n      sload\n      dup2\n      lt\n      tag_214\n      jumpi\n      0x00\n      dup1\n      revert\n    tag_214:\n      swap1\n      0x00\n      mstore\n      keccak256(0x00, 0x20)\n      add\n      0x00\n      swap2\n      pop\n      swap1\n      pop\n      dup1\n      sload\n      tag_216\n      swap1\n      tag_143\n      jump\t// in\n    tag_216:\n      dup1\n      0x1f\n      add\n      0x20\n      dup1\n      swap2\n      div\n      mul\n      0x20\n      add\n      mload(0x40)\n      swap1\n      dup2\n      add\n      0x40\n      mstore\n      dup1\n      swap3\n      swap2\n      swap1\n      dup2\n      dup2\n      mstore\n      0x20\n      add\n      dup3\n      dup1\n      sload\n      tag_217\n      swap1\n      tag_143\n      jump\t// in\n    tag_217:\n      dup1\n      iszero\n      tag_218\n      jumpi\n      dup1\n      0x1f\n      lt\n      tag_219\n      jumpi\n      0x0100\n      dup1\n      dup4\n      sload\n      div\n      mul\n      dup4\n      mstore\n      swap2\n      0x20\n      add\n      swap2\n      jump(tag_218)\n    tag_219:\n      dup3\n      add\n      swap2\n      swap1\n      0x00\n      mstore\n      keccak256(0x00, 0x20)\n      swap1\n    tag_220:\n      dup2\n      sload\n      dup2\n      mstore\n      swap1\n      0x01\n      add\n      swap1\n      0x20\n      add\n      dup1\n      dup4\n      gt\n      tag_220\n      jumpi\n      dup3\n      swap1\n      sub\n      0x1f\n      and\n      dup3\n      add\n      swap2\n    tag_218:\n      pop\n      pop\n      pop\n      pop\n      pop\n      dup2\n      jump\t// out\n        /* \"contracts/VotingSystem.sol\":11580:12487  function getWinnerByArea(string memory _areaName) external view returns (address, string memory, uint256) {... */\n    tag_51:\n        /* \"contracts/VotingSystem.sol\":11653:11660  address */\n      0x00\n        /* \"contracts/VotingSystem.sol\":11662:11675  string memory */\n      0x60\n        /* \"contracts/VotingSystem.sol\":11677:11684  uint256 */\n      0x00\n        /* \"contracts/VotingSystem.sol\":11734:11735  0 */\n      dup1\n        /* \"contracts/VotingSystem.sol\":11705:11710  areas */\n      0x05\n        /* \"contracts/VotingSystem.sol\":11711:11720  _areaName */\n      dup6\n        /* \"contracts/VotingSystem.sol\":11705:11721  areas[_areaName] */\n      mload(0x40)\n      tag_222\n      swap2\n      swap1\n      tag_149\n      jump\t// in\n    tag_222:\n      swap1\n      dup2\n      mstore\n      0x20\n      add\n      mload(0x40)\n      dup1\n      swap2\n      sub\n      swap1\n      keccak256\n        /* \"contracts/VotingSystem.sol\":11705:11731  areas[_areaName].maxVoters */\n      0x00\n      add\n      sload\n        /* \"contracts/VotingSystem.sol\":11705:11735  areas[_areaName].maxVoters > 0 */\n      gt\n        /* \"contracts/VotingSystem.sol\":11697:11760  require(areas[_areaName].maxVoters > 0, \"Area does not exist.\") */\n      tag_223\n      jumpi\n      mload(0x40)\n      0x08c379a000000000000000000000000000000000000000000000000000000000\n      dup2\n      mstore\n      0x04\n      add\n      tag_224\n      swap1\n      tag_186\n      jump\t// in\n    tag_224:\n      mload(0x40)\n      dup1\n      swap2\n      sub\n      swap1\n      revert\n    tag_223:\n        /* \"contracts/VotingSystem.sol\":11773:11787  address winner */\n      0x00\n        /* \"contracts/VotingSystem.sol\":11811:11831  uint256 highestVotes */\n      dup1\n        /* \"contracts/VotingSystem.sol\":11846:11870  string memory winnerName */\n      0x60\n        /* \"contracts/VotingSystem.sol\":11888:11897  uint256 i */\n      0x00\n        /* \"contracts/VotingSystem.sol\":11883:12426  for (uint256 i = 0; i < candidateList.length; i++) {... */\n    tag_225:\n        /* \"contracts/VotingSystem.sol\":11907:11920  candidateList */\n      0x06\n        /* \"contracts/VotingSystem.sol\":11907:11927  candidateList.length */\n      dup1\n      sload\n      swap1\n      pop\n        /* \"contracts/VotingSystem.sol\":11903:11904  i */\n      dup2\n        /* \"contracts/VotingSystem.sol\":11903:11927  i < candidateList.length */\n      lt\n        /* \"contracts/VotingSystem.sol\":11883:12426  for (uint256 i = 0; i < candidateList.length; i++) {... */\n      iszero\n      tag_226\n      jumpi\n        /* \"contracts/VotingSystem.sol\":12082:12091  _areaName */\n      dup8\n        /* \"contracts/VotingSystem.sol\":12065:12092  abi.encodePacked(_areaName) */\n      add(0x20, mload(0x40))\n      tag_228\n      swap2\n      swap1\n      tag_149\n      jump\t// in\n    tag_228:\n      mload(0x40)\n      0x20\n      dup2\n      dup4\n      sub\n      sub\n      dup2\n      mstore\n      swap1\n      0x40\n      mstore\n        /* \"contracts/VotingSystem.sol\":12055:12093  keccak256(abi.encodePacked(_areaName)) */\n      dup1\n      mload\n      swap1\n      0x20\n      add\n      keccak256\n        /* \"contracts/VotingSystem.sol\":11998:12008  candidates */\n      0x03\n        /* \"contracts/VotingSystem.sol\":11998:12026  candidates[candidateList[i]] */\n      0x00\n        /* \"contracts/VotingSystem.sol\":12009:12022  candidateList */\n      0x06\n        /* \"contracts/VotingSystem.sol\":12023:12024  i */\n      dup5\n        /* \"contracts/VotingSystem.sol\":12009:12025  candidateList[i] */\n      dup2\n      sload\n      dup2\n      lt\n      tag_229\n      jumpi\n      tag_230\n      tag_122\n      jump\t// in\n    tag_230:\n    tag_229:\n      swap1\n      0x00\n      mstore\n      keccak256(0x00, 0x20)\n      add\n      0x00\n      swap1\n      sload\n      swap1\n      0x0100\n      exp\n      swap1\n      div\n      0xffffffffffffffffffffffffffffffffffffffff\n      and\n        /* \"contracts/VotingSystem.sol\":11998:12026  candidates[candidateList[i]] */\n      0xffffffffffffffffffffffffffffffffffffffff\n      and\n      0xffffffffffffffffffffffffffffffffffffffff\n      and\n      dup2\n      mstore\n      0x20\n      add\n      swap1\n      dup2\n      mstore\n      0x20\n      add\n      0x00\n      keccak256\n        /* \"contracts/VotingSystem.sol\":11998:12031  candidates[candidateList[i]].area */\n      0x03\n      add\n        /* \"contracts/VotingSystem.sol\":11981:12032  abi.encodePacked(candidates[candidateList[i]].area) */\n      add(0x20, mload(0x40))\n      tag_232\n      swap2\n      swap1\n      tag_233\n      jump\t// in\n    tag_232:\n      mload(0x40)\n      0x20\n      dup2\n      dup4\n      sub\n      sub\n      dup2\n      mstore\n      swap1\n      0x40\n      mstore\n        /* \"contracts/VotingSystem.sol\":11971:12033  keccak256(abi.encodePacked(candidates[candidateList[i]].area)) */\n      dup1\n      mload\n      swap1\n      0x20\n      add\n      keccak256\n        /* \"contracts/VotingSystem.sol\":11971:12093  keccak256(abi.encodePacked(candidates[candidateList[i]].area)) == ... */\n      sub\n        /* \"contracts/VotingSystem.sol\":11949:12415  if (... */\n      tag_234\n      jumpi\n        /* \"contracts/VotingSystem.sol\":12173:12185  highestVotes */\n      dup3\n        /* \"contracts/VotingSystem.sol\":12132:12142  candidates */\n      0x03\n        /* \"contracts/VotingSystem.sol\":12132:12160  candidates[candidateList[i]] */\n      0x00\n        /* \"contracts/VotingSystem.sol\":12143:12156  candidateList */\n      0x06\n        /* \"contracts/VotingSystem.sol\":12157:12158  i */\n      dup5\n        /* \"contracts/VotingSystem.sol\":12143:12159  candidateList[i] */\n      dup2\n      sload\n      dup2\n      lt\n      tag_235\n      jumpi\n      tag_236\n      tag_122\n      jump\t// in\n    tag_236:\n    tag_235:\n      swap1\n      0x00\n      mstore\n      keccak256(0x00, 0x20)\n      add\n      0x00\n      swap1\n      sload\n      swap1\n      0x0100\n      exp\n      swap1\n      div\n      0xffffffffffffffffffffffffffffffffffffffff\n      and\n        /* \"contracts/VotingSystem.sol\":12132:12160  candidates[candidateList[i]] */\n      0xffffffffffffffffffffffffffffffffffffffff\n      and\n      0xffffffffffffffffffffffffffffffffffffffff\n      and\n      dup2\n      mstore\n      0x20\n      add\n      swap1\n      dup2\n      mstore\n      0x20\n      add\n      0x00\n      keccak256\n        /* \"contracts/VotingSystem.sol\":12132:12170  candidates[candidateList[i]].voteCount */\n      0x02\n      add\n      sload\n        /* \"contracts/VotingSystem.sol\":12132:12185  candidates[candidateList[i]].voteCount > highestVotes */\n      gt\n        /* \"contracts/VotingSystem.sol\":12128:12400  if (candidates[candidateList[i]].voteCount > highestVotes) {... */\n      iszero\n      tag_238\n      jumpi\n        /* \"contracts/VotingSystem.sol\":12225:12235  candidates */\n      0x03\n        /* \"contracts/VotingSystem.sol\":12225:12253  candidates[candidateList[i]] */\n      0x00\n        /* \"contracts/VotingSystem.sol\":12236:12249  candidateList */\n      0x06\n        /* \"contracts/VotingSystem.sol\":12250:12251  i */\n      dup4\n        /* \"contracts/VotingSystem.sol\":12236:12252  candidateList[i] */\n      dup2\n      sload\n      dup2\n      lt\n      tag_239\n      jumpi\n      tag_240\n      tag_122\n      jump\t// in\n    tag_240:\n    tag_239:\n      swap1\n      0x00\n      mstore\n      keccak256(0x00, 0x20)\n      add\n      0x00\n      swap1\n      sload\n      swap1\n      0x0100\n      exp\n      swap1\n      div\n      0xffffffffffffffffffffffffffffffffffffffff\n      and\n        /* \"contracts/VotingSystem.sol\":12225:12253  candidates[candidateList[i]] */\n      0xffffffffffffffffffffffffffffffffffffffff\n      and\n      0xffffffffffffffffffffffffffffffffffffffff\n      and\n      dup2\n      mstore\n      0x20\n      add\n      swap1\n      dup2\n      mstore\n      0x20\n      add\n      0x00\n      keccak256\n        /* \"contracts/VotingSystem.sol\":12225:12263  candidates[candidateList[i]].voteCount */\n      0x02\n      add\n      sload\n        /* \"contracts/VotingSystem.sol\":12210:12263  highestVotes = candidates[candidateList[i]].voteCount */\n      swap3\n      pop\n        /* \"contracts/VotingSystem.sol\":12295:12308  candidateList */\n      0x06\n        /* \"contracts/VotingSystem.sol\":12309:12310  i */\n      dup2\n        /* \"contracts/VotingSystem.sol\":12295:12311  candidateList[i] */\n      dup2\n      sload\n      dup2\n      lt\n      tag_242\n      jumpi\n      tag_243\n      tag_122\n      jump\t// in\n    tag_243:\n    tag_242:\n      swap1\n      0x00\n      mstore\n      keccak256(0x00, 0x20)\n      add\n      0x00\n      swap1\n      sload\n      swap1\n      0x0100\n      exp\n      swap1\n      div\n      0xffffffffffffffffffffffffffffffffffffffff\n      and\n        /* \"contracts/VotingSystem.sol\":12286:12311  winner = candidateList[i] */\n      swap4\n      pop\n        /* \"contracts/VotingSystem.sol\":12347:12357  candidates */\n      0x03\n        /* \"contracts/VotingSystem.sol\":12347:12375  candidates[candidateList[i]] */\n      0x00\n        /* \"contracts/VotingSystem.sol\":12358:12371  candidateList */\n      0x06\n        /* \"contracts/VotingSystem.sol\":12372:12373  i */\n      dup4\n        /* \"contracts/VotingSystem.sol\":12358:12374  candidateList[i] */\n      dup2\n      sload\n      dup2\n      lt\n      tag_245\n      jumpi\n      tag_246\n      tag_122\n      jump\t// in\n    tag_246:\n    tag_245:\n      swap1\n      0x00\n      mstore\n      keccak256(0x00, 0x20)\n      add\n      0x00\n      swap1\n      sload\n      swap1\n      0x0100\n      exp\n      swap1\n      div\n      0xffffffffffffffffffffffffffffffffffffffff\n      and\n        /* \"contracts/VotingSystem.sol\":12347:12375  candidates[candidateList[i]] */\n      0xffffffffffffffffffffffffffffffffffffffff\n      and\n      0xffffffffffffffffffffffffffffffffffffffff\n      and\n      dup2\n      mstore\n      0x20\n      add\n      swap1\n      dup2\n      mstore\n      0x20\n      add\n      0x00\n      keccak256\n        /* \"contracts/VotingSystem.sol\":12347:12380  candidates[candidateList[i]].name */\n      0x00\n      add\n        /* \"contracts/VotingSystem.sol\":12334:12380  winnerName = candidates[candidateList[i]].name */\n      dup1\n      sload\n      tag_248\n      swap1\n      tag_143\n      jump\t// in\n    tag_248:\n      dup1\n      0x1f\n      add\n      0x20\n      dup1\n      swap2\n      div\n      mul\n      0x20\n      add\n      mload(0x40)\n      swap1\n      dup2\n      add\n      0x40\n      mstore\n      dup1\n      swap3\n      swap2\n      swap1\n      dup2\n      dup2\n      mstore\n      0x20\n      add\n      dup3\n      dup1\n      sload\n      tag_249\n      swap1\n      tag_143\n      jump\t// in\n    tag_249:\n      dup1\n      iszero\n      tag_250\n      jumpi\n      dup1\n      0x1f\n      lt\n      tag_251\n      jumpi\n      0x0100\n      dup1\n      dup4\n      sload\n      div\n      mul\n      dup4\n      mstore\n      swap2\n      0x20\n      add\n      swap2\n      jump(tag_250)\n    tag_251:\n      dup3\n      add\n      swap2\n      swap1\n      0x00\n      mstore\n      keccak256(0x00, 0x20)\n      swap1\n    tag_252:\n      dup2\n      sload\n      dup2\n      mstore\n      swap1\n      0x01\n      add\n      swap1\n      0x20\n      add\n      dup1\n      dup4\n      gt\n      tag_252\n      jumpi\n      dup3\n      swap1\n      sub\n      0x1f\n      and\n      dup3\n      add\n      swap2\n    tag_250:\n      pop\n      pop\n      pop\n      pop\n      pop\n      swap2\n      pop\n        /* \"contracts/VotingSystem.sol\":12128:12400  if (candidates[candidateList[i]].voteCount > highestVotes) {... */\n    tag_238:\n        /* \"contracts/VotingSystem.sol\":11949:12415  if (... */\n    tag_234:\n        /* \"contracts/VotingSystem.sol\":11929:11932  i++ */\n      dup1\n      dup1\n      0x01\n      add\n      swap2\n      pop\n      pop\n        /* \"contracts/VotingSystem.sol\":11883:12426  for (uint256 i = 0; i < candidateList.length; i++) {... */\n      jump(tag_225)\n    tag_226:\n      pop\n        /* \"contracts/VotingSystem.sol\":12446:12452  winner */\n      dup3\n        /* \"contracts/VotingSystem.sol\":12454:12464  winnerName */\n      dup2\n        /* \"contracts/VotingSystem.sol\":12466:12478  highestVotes */\n      dup4\n        /* \"contracts/VotingSystem.sol\":12438:12479  return (winner, winnerName, highestVotes) */\n      swap6\n      pop\n      swap6\n      pop\n      swap6\n      pop\n      pop\n      pop\n      pop\n        /* \"contracts/VotingSystem.sol\":11580:12487  function getWinnerByArea(string memory _areaName) external view returns (address, string memory, uint256) {... */\n      swap2\n      swap4\n      swap1\n      swap3\n      pop\n      jump\t// out\n        /* \"contracts/VotingSystem.sol\":10269:11509  function getCandidatesByArea(string memory _areaName) external view returns (address[] memory, string[] memory) {... */\n    tag_56:\n        /* \"contracts/VotingSystem.sol\":10346:10362  address[] memory */\n      0x60\n        /* \"contracts/VotingSystem.sol\":10364:10379  string[] memory */\n      dup1\n        /* \"contracts/VotingSystem.sol\":10429:10430  0 */\n      0x00\n        /* \"contracts/VotingSystem.sol\":10400:10405  areas */\n      0x05\n        /* \"contracts/VotingSystem.sol\":10406:10415  _areaName */\n      dup5\n        /* \"contracts/VotingSystem.sol\":10400:10416  areas[_areaName] */\n      mload(0x40)\n      tag_254\n      swap2\n      swap1\n      tag_149\n      jump\t// in\n    tag_254:\n      swap1\n      dup2\n      mstore\n      0x20\n      add\n      mload(0x40)\n      dup1\n      swap2\n      sub\n      swap1\n      keccak256\n        /* \"contracts/VotingSystem.sol\":10400:10426  areas[_areaName].maxVoters */\n      0x00\n      add\n      sload\n        /* \"contracts/VotingSystem.sol\":10400:10430  areas[_areaName].maxVoters > 0 */\n      gt\n        /* \"contracts/VotingSystem.sol\":10392:10455  require(areas[_areaName].maxVoters > 0, \"Area does not exist.\") */\n      tag_255\n      jumpi\n      mload(0x40)\n      0x08c379a000000000000000000000000000000000000000000000000000000000\n      dup2\n      mstore\n      0x04\n      add\n      tag_256\n      swap1\n      tag_186\n      jump\t// in\n    tag_256:\n      mload(0x40)\n      dup1\n      swap2\n      sub\n      swap1\n      revert\n    tag_255:\n        /* \"contracts/VotingSystem.sol\":10509:10522  uint256 count */\n      0x00\n        /* \"contracts/VotingSystem.sol\":10542:10551  uint256 i */\n      dup1\n        /* \"contracts/VotingSystem.sol\":10537:10816  for (uint256 i = 0; i < candidateList.length; i++) {... */\n    tag_257:\n        /* \"contracts/VotingSystem.sol\":10561:10574  candidateList */\n      0x06\n        /* \"contracts/VotingSystem.sol\":10561:10581  candidateList.length */\n      dup1\n      sload\n      swap1\n      pop\n        /* \"contracts/VotingSystem.sol\":10557:10558  i */\n      dup2\n        /* \"contracts/VotingSystem.sol\":10557:10581  i < candidateList.length */\n      lt\n        /* \"contracts/VotingSystem.sol\":10537:10816  for (uint256 i = 0; i < candidateList.length; i++) {... */\n      iszero\n      tag_258\n      jumpi\n        /* \"contracts/VotingSystem.sol\":10736:10745  _areaName */\n      dup5\n        /* \"contracts/VotingSystem.sol\":10719:10746  abi.encodePacked(_areaName) */\n      add(0x20, mload(0x40))\n      tag_260\n      swap2\n      swap1\n      tag_149\n      jump\t// in\n    tag_260:\n      mload(0x40)\n      0x20\n      dup2\n      dup4\n      sub\n      sub\n      dup2\n      mstore\n      swap1\n      0x40\n      mstore\n        /* \"contracts/VotingSystem.sol\":10709:10747  keccak256(abi.encodePacked(_areaName)) */\n      dup1\n      mload\n      swap1\n      0x20\n      add\n      keccak256\n        /* \"contracts/VotingSystem.sol\":10652:10662  candidates */\n      0x03\n        /* \"contracts/VotingSystem.sol\":10652:10680  candidates[candidateList[i]] */\n      0x00\n        /* \"contracts/VotingSystem.sol\":10663:10676  candidateList */\n      0x06\n        /* \"contracts/VotingSystem.sol\":10677:10678  i */\n      dup5\n        /* \"contracts/VotingSystem.sol\":10663:10679  candidateList[i] */\n      dup2\n      sload\n      dup2\n      lt\n      tag_261\n      jumpi\n      tag_262\n      tag_122\n      jump\t// in\n    tag_262:\n    tag_261:\n      swap1\n      0x00\n      mstore\n      keccak256(0x00, 0x20)\n      add\n      0x00\n      swap1\n      sload\n      swap1\n      0x0100\n      exp\n      swap1\n      div\n      0xffffffffffffffffffffffffffffffffffffffff\n      and\n        /* \"contracts/VotingSystem.sol\":10652:10680  candidates[candidateList[i]] */\n      0xffffffffffffffffffffffffffffffffffffffff\n      and\n      0xffffffffffffffffffffffffffffffffffffffff\n      and\n      dup2\n      mstore\n      0x20\n      add\n      swap1\n      dup2\n      mstore\n      0x20\n      add\n      0x00\n      keccak256\n        /* \"contracts/VotingSystem.sol\":10652:10685  candidates[candidateList[i]].area */\n      0x03\n      add\n        /* \"contracts/VotingSystem.sol\":10635:10686  abi.encodePacked(candidates[candidateList[i]].area) */\n      add(0x20, mload(0x40))\n      tag_264\n      swap2\n      swap1\n      tag_233\n      jump\t// in\n    tag_264:\n      mload(0x40)\n      0x20\n      dup2\n      dup4\n      sub\n      sub\n      dup2\n      mstore\n      swap1\n      0x40\n      mstore\n        /* \"contracts/VotingSystem.sol\":10625:10687  keccak256(abi.encodePacked(candidates[candidateList[i]].area)) */\n      dup1\n      mload\n      swap1\n      0x20\n      add\n      keccak256\n        /* \"contracts/VotingSystem.sol\":10625:10747  keccak256(abi.encodePacked(candidates[candidateList[i]].area)) == ... */\n      sub\n        /* \"contracts/VotingSystem.sol\":10603:10805  if (... */\n      tag_265\n      jumpi\n        /* \"contracts/VotingSystem.sol\":10782:10789  count++ */\n      dup2\n      dup1\n      tag_266\n      swap1\n      tag_267\n      jump\t// in\n    tag_266:\n      swap3\n      pop\n      pop\n        /* \"contracts/VotingSystem.sol\":10603:10805  if (... */\n    tag_265:\n        /* \"contracts/VotingSystem.sol\":10583:10586  i++ */\n      dup1\n      dup1\n      0x01\n      add\n      swap2\n      pop\n      pop\n        /* \"contracts/VotingSystem.sol\":10537:10816  for (uint256 i = 0; i < candidateList.length; i++) {... */\n      jump(tag_257)\n    tag_258:\n      pop\n        /* \"contracts/VotingSystem.sol\":10878:10909  address[] memory areaCandidates */\n      0x00\n        /* \"contracts/VotingSystem.sol\":10926:10931  count */\n      dup2\n        /* \"contracts/VotingSystem.sol\":10912:10932  new address[](count) */\n      0xffffffffffffffff\n      dup2\n      gt\n      iszero\n      tag_268\n      jumpi\n      tag_269\n      tag_156\n      jump\t// in\n    tag_269:\n    tag_268:\n      mload(0x40)\n      swap1\n      dup1\n      dup3\n      mstore\n      dup1\n      0x20\n      mul\n      0x20\n      add\n      dup3\n      add\n      0x40\n      mstore\n      dup1\n      iszero\n      tag_270\n      jumpi\n      dup2\n      0x20\n      add\n      0x20\n      dup3\n      mul\n      dup1\n      calldatasize\n      dup4\n      calldatacopy\n      dup1\n      dup3\n      add\n      swap2\n      pop\n      pop\n      swap1\n      pop\n    tag_270:\n      pop\n        /* \"contracts/VotingSystem.sol\":10878:10932  address[] memory areaCandidates = new address[](count) */\n      swap1\n      pop\n        /* \"contracts/VotingSystem.sol\":10943:10973  string[] memory candidateNames */\n      0x00\n        /* \"contracts/VotingSystem.sol\":10989:10994  count */\n      dup3\n        /* \"contracts/VotingSystem.sol\":10976:10995  new string[](count) */\n      0xffffffffffffffff\n      dup2\n      gt\n      iszero\n      tag_271\n      jumpi\n      tag_272\n      tag_156\n      jump\t// in\n    tag_272:\n    tag_271:\n      mload(0x40)\n      swap1\n      dup1\n      dup3\n      mstore\n      dup1\n      0x20\n      mul\n      0x20\n      add\n      dup3\n      add\n      0x40\n      mstore\n      dup1\n      iszero\n      tag_273\n      jumpi\n      dup2\n      0x20\n      add\n    tag_274:\n      0x60\n      dup2\n      mstore\n      0x20\n      add\n      swap1\n      0x01\n      swap1\n      sub\n      swap1\n      dup2\n      tag_274\n      jumpi\n      swap1\n      pop\n    tag_273:\n      pop\n        /* \"contracts/VotingSystem.sol\":10943:10995  string[] memory candidateNames = new string[](count) */\n      swap1\n      pop\n        /* \"contracts/VotingSystem.sol\":11006:11019  uint256 index */\n      0x00\n        /* \"contracts/VotingSystem.sol\":11041:11050  uint256 i */\n      dup1\n        /* \"contracts/VotingSystem.sol\":11036:11450  for (uint256 i = 0; i < candidateList.length; i++) {... */\n    tag_275:\n        /* \"contracts/VotingSystem.sol\":11060:11073  candidateList */\n      0x06\n        /* \"contracts/VotingSystem.sol\":11060:11080  candidateList.length */\n      dup1\n      sload\n      swap1\n      pop\n        /* \"contracts/VotingSystem.sol\":11056:11057  i */\n      dup2\n        /* \"contracts/VotingSystem.sol\":11056:11080  i < candidateList.length */\n      lt\n        /* \"contracts/VotingSystem.sol\":11036:11450  for (uint256 i = 0; i < candidateList.length; i++) {... */\n      iszero\n      tag_276\n      jumpi\n        /* \"contracts/VotingSystem.sol\":11235:11244  _areaName */\n      dup8\n        /* \"contracts/VotingSystem.sol\":11218:11245  abi.encodePacked(_areaName) */\n      add(0x20, mload(0x40))\n      tag_278\n      swap2\n      swap1\n      tag_149\n      jump\t// in\n    tag_278:\n      mload(0x40)\n      0x20\n      dup2\n      dup4\n      sub\n      sub\n      dup2\n      mstore\n      swap1\n      0x40\n      mstore\n        /* \"contracts/VotingSystem.sol\":11208:11246  keccak256(abi.encodePacked(_areaName)) */\n      dup1\n      mload\n      swap1\n      0x20\n      add\n      keccak256\n        /* \"contracts/VotingSystem.sol\":11151:11161  candidates */\n      0x03\n        /* \"contracts/VotingSystem.sol\":11151:11179  candidates[candidateList[i]] */\n      0x00\n        /* \"contracts/VotingSystem.sol\":11162:11175  candidateList */\n      0x06\n        /* \"contracts/VotingSystem.sol\":11176:11177  i */\n      dup5\n        /* \"contracts/VotingSystem.sol\":11162:11178  candidateList[i] */\n      dup2\n      sload\n      dup2\n      lt\n      tag_279\n      jumpi\n      tag_280\n      tag_122\n      jump\t// in\n    tag_280:\n    tag_279:\n      swap1\n      0x00\n      mstore\n      keccak256(0x00, 0x20)\n      add\n      0x00\n      swap1\n      sload\n      swap1\n      0x0100\n      exp\n      swap1\n      div\n      0xffffffffffffffffffffffffffffffffffffffff\n      and\n        /* \"contracts/VotingSystem.sol\":11151:11179  candidates[candidateList[i]] */\n      0xffffffffffffffffffffffffffffffffffffffff\n      and\n      0xffffffffffffffffffffffffffffffffffffffff\n      and\n      dup2\n      mstore\n      0x20\n      add\n      swap1\n      dup2\n      mstore\n      0x20\n      add\n      0x00\n      keccak256\n        /* \"contracts/VotingSystem.sol\":11151:11184  candidates[candidateList[i]].area */\n      0x03\n      add\n        /* \"contracts/VotingSystem.sol\":11134:11185  abi.encodePacked(candidates[candidateList[i]].area) */\n      add(0x20, mload(0x40))\n      tag_282\n      swap2\n      swap1\n      tag_233\n      jump\t// in\n    tag_282:\n      mload(0x40)\n      0x20\n      dup2\n      dup4\n      sub\n      sub\n      dup2\n      mstore\n      swap1\n      0x40\n      mstore\n        /* \"contracts/VotingSystem.sol\":11124:11186  keccak256(abi.encodePacked(candidates[candidateList[i]].area)) */\n      dup1\n      mload\n      swap1\n      0x20\n      add\n      keccak256\n        /* \"contracts/VotingSystem.sol\":11124:11246  keccak256(abi.encodePacked(candidates[candidateList[i]].area)) == ... */\n      sub\n        /* \"contracts/VotingSystem.sol\":11102:11439  if (... */\n      tag_283\n      jumpi\n        /* \"contracts/VotingSystem.sol\":11305:11318  candidateList */\n      0x06\n        /* \"contracts/VotingSystem.sol\":11319:11320  i */\n      dup2\n        /* \"contracts/VotingSystem.sol\":11305:11321  candidateList[i] */\n      dup2\n      sload\n      dup2\n      lt\n      tag_284\n      jumpi\n      tag_285\n      tag_122\n      jump\t// in\n    tag_285:\n    tag_284:\n      swap1\n      0x00\n      mstore\n      keccak256(0x00, 0x20)\n      add\n      0x00\n      swap1\n      sload\n      swap1\n      0x0100\n      exp\n      swap1\n      div\n      0xffffffffffffffffffffffffffffffffffffffff\n      and\n        /* \"contracts/VotingSystem.sol\":11281:11295  areaCandidates */\n      dup5\n        /* \"contracts/VotingSystem.sol\":11296:11301  index */\n      dup4\n        /* \"contracts/VotingSystem.sol\":11281:11302  areaCandidates[index] */\n      dup2\n      mload\n      dup2\n      lt\n      tag_287\n      jumpi\n      tag_288\n      tag_122\n      jump\t// in\n    tag_288:\n    tag_287:\n      0x20\n      mul\n      0x20\n      add\n      add\n        /* \"contracts/VotingSystem.sol\":11281:11321  areaCandidates[index] = candidateList[i] */\n      swap1\n      0xffffffffffffffffffffffffffffffffffffffff\n      and\n      swap1\n      dup2\n      0xffffffffffffffffffffffffffffffffffffffff\n      and\n      dup2\n      mstore\n      pop\n      pop\n        /* \"contracts/VotingSystem.sol\":11364:11374  candidates */\n      0x03\n        /* \"contracts/VotingSystem.sol\":11364:11392  candidates[candidateList[i]] */\n      0x00\n        /* \"contracts/VotingSystem.sol\":11375:11388  candidateList */\n      0x06\n        /* \"contracts/VotingSystem.sol\":11389:11390  i */\n      dup4\n        /* \"contracts/VotingSystem.sol\":11375:11391  candidateList[i] */\n      dup2\n      sload\n      dup2\n      lt\n      tag_289\n      jumpi\n      tag_290\n      tag_122\n      jump\t// in\n    tag_290:\n    tag_289:\n      swap1\n      0x00\n      mstore\n      keccak256(0x00, 0x20)\n      add\n      0x00\n      swap1\n      sload\n      swap1\n      0x0100\n      exp\n      swap1\n      div\n      0xffffffffffffffffffffffffffffffffffffffff\n      and\n        /* \"contracts/VotingSystem.sol\":11364:11392  candidates[candidateList[i]] */\n      0xffffffffffffffffffffffffffffffffffffffff\n      and\n      0xffffffffffffffffffffffffffffffffffffffff\n      and\n      dup2\n      mstore\n      0x20\n      add\n      swap1\n      dup2\n      mstore\n      0x20\n      add\n      0x00\n      keccak256\n        /* \"contracts/VotingSystem.sol\":11364:11397  candidates[candidateList[i]].name */\n      0x00\n      add\n        /* \"contracts/VotingSystem.sol\":11340:11397  candidateNames[index] = candidates[candidateList[i]].name */\n      dup1\n      sload\n      tag_292\n      swap1\n      tag_143\n      jump\t// in\n    tag_292:\n      dup1\n      0x1f\n      add\n      0x20\n      dup1\n      swap2\n      div\n      mul\n      0x20\n      add\n      mload(0x40)\n      swap1\n      dup2\n      add\n      0x40\n      mstore\n      dup1\n      swap3\n      swap2\n      swap1\n      dup2\n      dup2\n      mstore\n      0x20\n      add\n      dup3\n      dup1\n      sload\n      tag_293\n      swap1\n      tag_143\n      jump\t// in\n    tag_293:\n      dup1\n      iszero\n      tag_294\n      jumpi\n      dup1\n      0x1f\n      lt\n      tag_295\n      jumpi\n      0x0100\n      dup1\n      dup4\n      sload\n      div\n      mul\n      dup4\n      mstore\n      swap2\n      0x20\n      add\n      swap2\n      jump(tag_294)\n    tag_295:\n      dup3\n      add\n      swap2\n      swap1\n      0x00\n      mstore\n      keccak256(0x00, 0x20)\n      swap1\n    tag_296:\n      dup2\n      sload\n      dup2\n      mstore\n      swap1\n      0x01\n      add\n      swap1\n      0x20\n      add\n      dup1\n      dup4\n      gt\n      tag_296\n      jumpi\n      dup3\n      swap1\n      sub\n      0x1f\n      and\n      dup3\n      add\n      swap2\n    tag_294:\n      pop\n      pop\n      pop\n      pop\n      pop\n        /* \"contracts/VotingSystem.sol\":11340:11354  candidateNames */\n      dup4\n        /* \"contracts/VotingSystem.sol\":11355:11360  index */\n      dup4\n        /* \"contracts/VotingSystem.sol\":11340:11361  candidateNames[index] */\n      dup2\n      mload\n      dup2\n      lt\n      tag_297\n      jumpi\n      tag_298\n      tag_122\n      jump\t// in\n    tag_298:\n    tag_297:\n      0x20\n      mul\n      0x20\n      add\n      add\n        /* \"contracts/VotingSystem.sol\":11340:11397  candidateNames[index] = candidates[candidateList[i]].name */\n      dup2\n      swap1\n      mstore\n      pop\n        /* \"contracts/VotingSystem.sol\":11416:11423  index++ */\n      dup2\n      dup1\n      tag_299\n      swap1\n      tag_267\n      jump\t// in\n    tag_299:\n      swap3\n      pop\n      pop\n        /* \"contracts/VotingSystem.sol\":11102:11439  if (... */\n    tag_283:\n        /* \"contracts/VotingSystem.sol\":11082:11085  i++ */\n      dup1\n      dup1\n      0x01\n      add\n      swap2\n      pop\n      pop\n        /* \"contracts/VotingSystem.sol\":11036:11450  for (uint256 i = 0; i < candidateList.length; i++) {... */\n      jump(tag_275)\n    tag_276:\n      pop\n        /* \"contracts/VotingSystem.sol\":11470:11484  areaCandidates */\n      dup3\n        /* \"contracts/VotingSystem.sol\":11486:11500  candidateNames */\n      dup3\n        /* \"contracts/VotingSystem.sol\":11462:11501  return (areaCandidates, candidateNames) */\n      swap6\n      pop\n      swap6\n      pop\n      pop\n      pop\n      pop\n      pop\n        /* \"contracts/VotingSystem.sol\":10269:11509  function getCandidatesByArea(string memory _areaName) external view returns (address[] memory, string[] memory) {... */\n      swap2\n      pop\n      swap2\n      jump\t// out\n        /* \"contracts/VotingSystem.sol\":1524:1550  address[] public voterList */\n    tag_61:\n      0x08\n      dup2\n      dup2\n      sload\n      dup2\n      lt\n      tag_300\n      jumpi\n      0x00\n      dup1\n      revert\n    tag_300:\n      swap1\n      0x00\n      mstore\n      keccak256(0x00, 0x20)\n      add\n      0x00\n      swap2\n      pop\n      sload\n      swap1\n      0x0100\n      exp\n      swap1\n      div\n      0xffffffffffffffffffffffffffffffffffffffff\n      and\n      dup2\n      jump\t// out\n        /* \"contracts/VotingSystem.sol\":1609:1634  bool public votingStarted */\n    tag_65:\n      0x09\n      0x00\n      swap1\n      sload\n      swap1\n      0x0100\n      exp\n      swap1\n      div\n      0xff\n      and\n      dup2\n      jump\t// out\n        /* \"contracts/VotingSystem.sol\":1147:1194  mapping(address => Candidate) public candidates */\n    tag_71:\n      mstore(0x20, 0x03)\n      dup1\n      0x00\n      mstore\n      keccak256(0x00, 0x40)\n      0x00\n      swap2\n      pop\n      swap1\n      pop\n      dup1\n      0x00\n      add\n      dup1\n      sload\n      tag_302\n      swap1\n      tag_143\n      jump\t// in\n    tag_302:\n      dup1\n      0x1f\n      add\n      0x20\n      dup1\n      swap2\n      div\n      mul\n      0x20\n      add\n      mload(0x40)\n      swap1\n      dup2\n      add\n      0x40\n      mstore\n      dup1\n      swap3\n      swap2\n      swap1\n      dup2\n      dup2\n      mstore\n      0x20\n      add\n      dup3\n      dup1\n      sload\n      tag_303\n      swap1\n      tag_143\n      jump\t// in\n    tag_303:\n      dup1\n      iszero\n      tag_304\n      jumpi\n      dup1\n      0x1f\n      lt\n      tag_305\n      jumpi\n      0x0100\n      dup1\n      dup4\n      sload\n      div\n      mul\n      dup4\n      mstore\n      swap2\n      0x20\n      add\n      swap2\n      jump(tag_304)\n    tag_305:\n      dup3\n      add\n      swap2\n      swap1\n      0x00\n      mstore\n      keccak256(0x00, 0x20)\n      swap1\n    tag_306:\n      dup2\n      sload\n      dup2\n      mstore\n      swap1\n      0x01\n      add\n      swap1\n      0x20\n      add\n      dup1\n      dup4\n      gt\n      tag_306\n      jumpi\n      dup3\n      swap1\n      sub\n      0x1f\n      and\n      dup3\n      add\n      swap2\n    tag_304:\n      pop\n      pop\n      pop\n      pop\n      pop\n      swap1\n      dup1\n      0x01\n      add\n      0x00\n      swap1\n      sload\n      swap1\n      0x0100\n      exp\n      swap1\n      div\n      0xffffffffffffffffffffffffffffffffffffffff\n      and\n      swap1\n      dup1\n      0x02\n      add\n      sload\n      swap1\n      dup1\n      0x03\n      add\n      dup1\n      sload\n      tag_307\n      swap1\n      tag_143\n      jump\t// in\n    tag_307:\n      dup1\n      0x1f\n      add\n      0x20\n      dup1\n      swap2\n      div\n      mul\n      0x20\n      add\n      mload(0x40)\n      swap1\n      dup2\n      add\n      0x40\n      mstore\n      dup1\n      swap3\n      swap2\n      swap1\n      dup2\n      dup2\n      mstore\n      0x20\n      add\n      dup3\n      dup1\n      sload\n      tag_308\n      swap1\n      tag_143\n      jump\t// in\n    tag_308:\n      dup1\n      iszero\n      tag_309\n      jumpi\n      dup1\n      0x1f\n      lt\n      tag_310\n      jumpi\n      0x0100\n      dup1\n      dup4\n      sload\n      div\n      mul\n      dup4\n      mstore\n      swap2\n      0x20\n      add\n      swap2\n      jump(tag_309)\n    tag_310:\n      dup3\n      add\n      swap2\n      swap1\n      0x00\n      mstore\n      keccak256(0x00, 0x20)\n      swap1\n    tag_311:\n      dup2\n      sload\n      dup2\n      mstore\n      swap1\n      0x01\n      add\n      swap1\n      0x20\n      add\n      dup1\n      dup4\n      gt\n      tag_311\n      jumpi\n      dup3\n      swap1\n      sub\n      0x1f\n      and\n      dup3\n      add\n      swap2\n    tag_309:\n      pop\n      pop\n      pop\n      pop\n      pop\n      swap1\n      dup1\n      0x04\n      add\n      dup1\n      sload\n      tag_312\n      swap1\n      tag_143\n      jump\t// in\n    tag_312:\n      dup1\n      0x1f\n      add\n      0x20\n      dup1\n      swap2\n      div\n      mul\n      0x20\n      add\n      mload(0x40)\n      swap1\n      dup2\n      add\n      0x40\n      mstore\n      dup1\n      swap3\n      swap2\n      swap1\n      dup2\n      dup2\n      mstore\n      0x20\n      add\n      dup3\n      dup1\n      sload\n      tag_313\n      swap1\n      tag_143\n      jump\t// in\n    tag_313:\n      dup1\n      iszero\n      tag_314\n      jumpi\n      dup1\n      0x1f\n      lt\n      tag_315\n      jumpi\n      0x0100\n      dup1\n      dup4\n      sload\n      div\n      mul\n      dup4\n      mstore\n      swap2\n      0x20\n      add\n      swap2\n      jump(tag_314)\n    tag_315:\n      dup3\n      add\n      swap2\n      swap1\n      0x00\n      mstore\n      keccak256(0x00, 0x20)\n      swap1\n    tag_316:\n      dup2\n      sload\n      dup2\n      mstore\n      swap1\n      0x01\n      add\n      swap1\n      0x20\n      add\n      dup1\n      dup4\n      gt\n      tag_316\n      jumpi\n      dup3\n      swap1\n      sub\n      0x1f\n      and\n      dup3\n      add\n      swap2\n    tag_314:\n      pop\n      pop\n      pop\n      pop\n      pop\n      swap1\n      pop\n      dup6\n      jump\t// out\n        /* \"contracts/VotingSystem.sol\":9065:10218  function getTotalValidVotersByAllAreas() public view returns (string[] memory, uint256[] memory) {... */\n    tag_75:\n        /* \"contracts/VotingSystem.sol\":9127:9142  string[] memory */\n      0x60\n        /* \"contracts/VotingSystem.sol\":9144:9160  uint256[] memory */\n      dup1\n        /* \"contracts/VotingSystem.sol\":9231:9256  string[] memory areaNames */\n      0x00\n        /* \"contracts/VotingSystem.sol\":9272:9280  areaList */\n      0x07\n        /* \"contracts/VotingSystem.sol\":9272:9287  areaList.length */\n      dup1\n      sload\n      swap1\n      pop\n        /* \"contracts/VotingSystem.sol\":9259:9288  new string[](areaList.length) */\n      0xffffffffffffffff\n      dup2\n      gt\n      iszero\n      tag_318\n      jumpi\n      tag_319\n      tag_156\n      jump\t// in\n    tag_319:\n    tag_318:\n      mload(0x40)\n      swap1\n      dup1\n      dup3\n      mstore\n      dup1\n      0x20\n      mul\n      0x20\n      add\n      dup3\n      add\n      0x40\n      mstore\n      dup1\n      iszero\n      tag_320\n      jumpi\n      dup2\n      0x20\n      add\n    tag_321:\n      0x60\n      dup2\n      mstore\n      0x20\n      add\n      swap1\n      0x01\n      swap1\n      sub\n      swap1\n      dup2\n      tag_321\n      jumpi\n      swap1\n      pop\n    tag_320:\n      pop\n        /* \"contracts/VotingSystem.sol\":9231:9288  string[] memory areaNames = new string[](areaList.length) */\n      swap1\n      pop\n        /* \"contracts/VotingSystem.sol\":9295:9323  uint256[] memory voterCounts */\n      0x00\n        /* \"contracts/VotingSystem.sol\":9340:9348  areaList */\n      0x07\n        /* \"contracts/VotingSystem.sol\":9340:9355  areaList.length */\n      dup1\n      sload\n      swap1\n      pop\n        /* \"contracts/VotingSystem.sol\":9326:9356  new uint256[](areaList.length) */\n      0xffffffffffffffff\n      dup2\n      gt\n      iszero\n      tag_322\n      jumpi\n      tag_323\n      tag_156\n      jump\t// in\n    tag_323:\n    tag_322:\n      mload(0x40)\n      swap1\n      dup1\n      dup3\n      mstore\n      dup1\n      0x20\n      mul\n      0x20\n      add\n      dup3\n      add\n      0x40\n      mstore\n      dup1\n      iszero\n      tag_324\n      jumpi\n      dup2\n      0x20\n      add\n      0x20\n      dup3\n      mul\n      dup1\n      calldatasize\n      dup4\n      calldatacopy\n      dup1\n      dup3\n      add\n      swap2\n      pop\n      pop\n      swap1\n      pop\n    tag_324:\n      pop\n        /* \"contracts/VotingSystem.sol\":9295:9356  uint256[] memory voterCounts = new uint256[](areaList.length) */\n      swap1\n      pop\n        /* \"contracts/VotingSystem.sol\":9446:9455  uint256 i */\n      0x00\n        /* \"contracts/VotingSystem.sol\":9441:10175  for (uint256 i = 0; i < areaList.length; i++) {... */\n    tag_325:\n        /* \"contracts/VotingSystem.sol\":9465:9473  areaList */\n      0x07\n        /* \"contracts/VotingSystem.sol\":9465:9480  areaList.length */\n      dup1\n      sload\n      swap1\n      pop\n        /* \"contracts/VotingSystem.sol\":9461:9462  i */\n      dup2\n        /* \"contracts/VotingSystem.sol\":9461:9480  i < areaList.length */\n      lt\n        /* \"contracts/VotingSystem.sol\":9441:10175  for (uint256 i = 0; i < areaList.length; i++) {... */\n      iszero\n      tag_326\n      jumpi\n        /* \"contracts/VotingSystem.sol\":9498:9511  uint256 count */\n      0x00\n        /* \"contracts/VotingSystem.sol\":9526:9548  string memory areaName */\n      dup1\n        /* \"contracts/VotingSystem.sol\":9551:9559  areaList */\n      0x07\n        /* \"contracts/VotingSystem.sol\":9560:9561  i */\n      dup4\n        /* \"contracts/VotingSystem.sol\":9551:9562  areaList[i] */\n      dup2\n      sload\n      dup2\n      lt\n      tag_328\n      jumpi\n      tag_329\n      tag_122\n      jump\t// in\n    tag_329:\n    tag_328:\n      swap1\n      0x00\n      mstore\n      keccak256(0x00, 0x20)\n      add\n        /* \"contracts/VotingSystem.sol\":9526:9562  string memory areaName = areaList[i] */\n      dup1\n      sload\n      tag_331\n      swap1\n      tag_143\n      jump\t// in\n    tag_331:\n      dup1\n      0x1f\n      add\n      0x20\n      dup1\n      swap2\n      div\n      mul\n      0x20\n      add\n      mload(0x40)\n      swap1\n      dup2\n      add\n      0x40\n      mstore\n      dup1\n      swap3\n      swap2\n      swap1\n      dup2\n      dup2\n      mstore\n      0x20\n      add\n      dup3\n      dup1\n      sload\n      tag_332\n      swap1\n      tag_143\n      jump\t// in\n    tag_332:\n      dup1\n      iszero\n      tag_333\n      jumpi\n      dup1\n      0x1f\n      lt\n      tag_334\n      jumpi\n      0x0100\n      dup1\n      dup4\n      sload\n      div\n      mul\n      dup4\n      mstore\n      swap2\n      0x20\n      add\n      swap2\n      jump(tag_333)\n    tag_334:\n      dup3\n      add\n      swap2\n      swap1\n      0x00\n      mstore\n      keccak256(0x00, 0x20)\n      swap1\n    tag_335:\n      dup2\n      sload\n      dup2\n      mstore\n      swap1\n      0x01\n      add\n      swap1\n      0x20\n      add\n      dup1\n      dup4\n      gt\n      tag_335\n      jumpi\n      dup3\n      swap1\n      sub\n      0x1f\n      and\n      dup3\n      add\n      swap2\n    tag_333:\n      pop\n      pop\n      pop\n      pop\n      pop\n      swap1\n      pop\n        /* \"contracts/VotingSystem.sol\":9676:9685  uint256 j */\n      0x00\n        /* \"contracts/VotingSystem.sol\":9671:10043  for (uint256 j = 0; j < voterList.length; j++) {... */\n    tag_336:\n        /* \"contracts/VotingSystem.sol\":9695:9704  voterList */\n      0x08\n        /* \"contracts/VotingSystem.sol\":9695:9711  voterList.length */\n      dup1\n      sload\n      swap1\n      pop\n        /* \"contracts/VotingSystem.sol\":9691:9692  j */\n      dup2\n        /* \"contracts/VotingSystem.sol\":9691:9711  j < voterList.length */\n      lt\n        /* \"contracts/VotingSystem.sol\":9671:10043  for (uint256 j = 0; j < voterList.length; j++) {... */\n      iszero\n      tag_337\n      jumpi\n        /* \"contracts/VotingSystem.sol\":9755:9761  voters */\n      0x01\n        /* \"contracts/VotingSystem.sol\":9755:9775  voters[voterList[j]] */\n      0x00\n        /* \"contracts/VotingSystem.sol\":9762:9771  voterList */\n      0x08\n        /* \"contracts/VotingSystem.sol\":9772:9773  j */\n      dup4\n        /* \"contracts/VotingSystem.sol\":9762:9774  voterList[j] */\n      dup2\n      sload\n      dup2\n      lt\n      tag_339\n      jumpi\n      tag_340\n      tag_122\n      jump\t// in\n    tag_340:\n    tag_339:\n      swap1\n      0x00\n      mstore\n      keccak256(0x00, 0x20)\n      add\n      0x00\n      swap1\n      sload\n      swap1\n      0x0100\n      exp\n      swap1\n      div\n      0xffffffffffffffffffffffffffffffffffffffff\n      and\n        /* \"contracts/VotingSystem.sol\":9755:9775  voters[voterList[j]] */\n      0xffffffffffffffffffffffffffffffffffffffff\n      and\n      0xffffffffffffffffffffffffffffffffffffffff\n      and\n      dup2\n      mstore\n      0x20\n      add\n      swap1\n      dup2\n      mstore\n      0x20\n      add\n      0x00\n      keccak256\n        /* \"contracts/VotingSystem.sol\":9755:9788  voters[voterList[j]].isRegistered */\n      0x00\n      add\n      0x00\n      swap1\n      sload\n      swap1\n      0x0100\n      exp\n      swap1\n      div\n      0xff\n      and\n        /* \"contracts/VotingSystem.sol\":9755:9945  voters[voterList[j]].isRegistered && // Only check if the voter is registered... */\n      dup1\n      iszero\n      tag_342\n      jumpi\n      pop\n        /* \"contracts/VotingSystem.sol\":9935:9943  areaName */\n      dup2\n        /* \"contracts/VotingSystem.sol\":9918:9944  abi.encodePacked(areaName) */\n      add(0x20, mload(0x40))\n      tag_343\n      swap2\n      swap1\n      tag_149\n      jump\t// in\n    tag_343:\n      mload(0x40)\n      0x20\n      dup2\n      dup4\n      sub\n      sub\n      dup2\n      mstore\n      swap1\n      0x40\n      mstore\n        /* \"contracts/VotingSystem.sol\":9908:9945  keccak256(abi.encodePacked(areaName)) */\n      dup1\n      mload\n      swap1\n      0x20\n      add\n      keccak256\n        /* \"contracts/VotingSystem.sol\":9877:9883  voters */\n      0x01\n        /* \"contracts/VotingSystem.sol\":9877:9897  voters[voterList[j]] */\n      0x00\n        /* \"contracts/VotingSystem.sol\":9884:9893  voterList */\n      0x08\n        /* \"contracts/VotingSystem.sol\":9894:9895  j */\n      dup5\n        /* \"contracts/VotingSystem.sol\":9884:9896  voterList[j] */\n      dup2\n      sload\n      dup2\n      lt\n      tag_344\n      jumpi\n      tag_345\n      tag_122\n      jump\t// in\n    tag_345:\n    tag_344:\n      swap1\n      0x00\n      mstore\n      keccak256(0x00, 0x20)\n      add\n      0x00\n      swap1\n      sload\n      swap1\n      0x0100\n      exp\n      swap1\n      div\n      0xffffffffffffffffffffffffffffffffffffffff\n      and\n        /* \"contracts/VotingSystem.sol\":9877:9897  voters[voterList[j]] */\n      0xffffffffffffffffffffffffffffffffffffffff\n      and\n      0xffffffffffffffffffffffffffffffffffffffff\n      and\n      dup2\n      mstore\n      0x20\n      add\n      swap1\n      dup2\n      mstore\n      0x20\n      add\n      0x00\n      keccak256\n        /* \"contracts/VotingSystem.sol\":9877:9902  voters[voterList[j]].area */\n      0x01\n      add\n        /* \"contracts/VotingSystem.sol\":9860:9903  abi.encodePacked(voters[voterList[j]].area) */\n      add(0x20, mload(0x40))\n      tag_347\n      swap2\n      swap1\n      tag_233\n      jump\t// in\n    tag_347:\n      mload(0x40)\n      0x20\n      dup2\n      dup4\n      sub\n      sub\n      dup2\n      mstore\n      swap1\n      0x40\n      mstore\n        /* \"contracts/VotingSystem.sol\":9850:9904  keccak256(abi.encodePacked(voters[voterList[j]].area)) */\n      dup1\n      mload\n      swap1\n      0x20\n      add\n      keccak256\n        /* \"contracts/VotingSystem.sol\":9850:9945  keccak256(abi.encodePacked(voters[voterList[j]].area)) == keccak256(abi.encodePacked(areaName)) */\n      eq\n        /* \"contracts/VotingSystem.sol\":9755:9945  voters[voterList[j]].isRegistered && // Only check if the voter is registered... */\n    tag_342:\n        /* \"contracts/VotingSystem.sol\":9733:10032  if (... */\n      iszero\n      tag_348\n      jumpi\n        /* \"contracts/VotingSystem.sol\":10009:10016  count++ */\n      dup3\n      dup1\n      tag_349\n      swap1\n      tag_267\n      jump\t// in\n    tag_349:\n      swap4\n      pop\n      pop\n        /* \"contracts/VotingSystem.sol\":9733:10032  if (... */\n    tag_348:\n        /* \"contracts/VotingSystem.sol\":9713:9716  j++ */\n      dup1\n      dup1\n      0x01\n      add\n      swap2\n      pop\n      pop\n        /* \"contracts/VotingSystem.sol\":9671:10043  for (uint256 j = 0; j < voterList.length; j++) {... */\n      jump(tag_336)\n    tag_337:\n      pop\n        /* \"contracts/VotingSystem.sol\":10126:10134  areaName */\n      dup1\n        /* \"contracts/VotingSystem.sol\":10111:10120  areaNames */\n      dup6\n        /* \"contracts/VotingSystem.sol\":10121:10122  i */\n      dup5\n        /* \"contracts/VotingSystem.sol\":10111:10123  areaNames[i] */\n      dup2\n      mload\n      dup2\n      lt\n      tag_350\n      jumpi\n      tag_351\n      tag_122\n      jump\t// in\n    tag_351:\n    tag_350:\n      0x20\n      mul\n      0x20\n      add\n      add\n        /* \"contracts/VotingSystem.sol\":10111:10134  areaNames[i] = areaName */\n      dup2\n      swap1\n      mstore\n      pop\n        /* \"contracts/VotingSystem.sol\":10162:10167  count */\n      dup2\n        /* \"contracts/VotingSystem.sol\":10145:10156  voterCounts */\n      dup5\n        /* \"contracts/VotingSystem.sol\":10157:10158  i */\n      dup5\n        /* \"contracts/VotingSystem.sol\":10145:10159  voterCounts[i] */\n      dup2\n      mload\n      dup2\n      lt\n      tag_352\n      jumpi\n      tag_353\n      tag_122\n      jump\t// in\n    tag_353:\n    tag_352:\n      0x20\n      mul\n      0x20\n      add\n      add\n        /* \"contracts/VotingSystem.sol\":10145:10167  voterCounts[i] = count */\n      dup2\n      dup2\n      mstore\n      pop\n      pop\n        /* \"contracts/VotingSystem.sol\":9487:10175  {... */\n      pop\n      pop\n        /* \"contracts/VotingSystem.sol\":9482:9485  i++ */\n      dup1\n      dup1\n      0x01\n      add\n      swap2\n      pop\n      pop\n        /* \"contracts/VotingSystem.sol\":9441:10175  for (uint256 i = 0; i < areaList.length; i++) {... */\n      jump(tag_325)\n    tag_326:\n      pop\n        /* \"contracts/VotingSystem.sol\":10191:10200  areaNames */\n      dup2\n        /* \"contracts/VotingSystem.sol\":10202:10213  voterCounts */\n      dup2\n        /* \"contracts/VotingSystem.sol\":10183:10214  return (areaNames, voterCounts) */\n      swap4\n      pop\n      swap4\n      pop\n      pop\n      pop\n        /* \"contracts/VotingSystem.sol\":9065:10218  function getTotalValidVotersByAllAreas() public view returns (string[] memory, uint256[] memory) {... */\n      swap1\n      swap2\n      jump\t// out\n        /* \"contracts/VotingSystem.sol\":4738:6668  function vote(string memory _candidateName, string memory _nationalID, string memory _area) external duringVoting {... */\n    tag_81:\n        /* \"contracts/VotingSystem.sol\":2264:2277  votingStarted */\n      0x09\n      0x00\n      swap1\n      sload\n      swap1\n      0x0100\n      exp\n      swap1\n      div\n      0xff\n      and\n        /* \"contracts/VotingSystem.sol\":2264:2293  votingStarted && !votingEnded */\n      dup1\n      iszero\n      tag_355\n      jumpi\n      pop\n        /* \"contracts/VotingSystem.sol\":2282:2293  votingEnded */\n      0x09\n      0x01\n      swap1\n      sload\n      swap1\n      0x0100\n      exp\n      swap1\n      div\n      0xff\n      and\n        /* \"contracts/VotingSystem.sol\":2281:2293  !votingEnded */\n      iszero\n        /* \"contracts/VotingSystem.sol\":2264:2293  votingStarted && !votingEnded */\n    tag_355:\n        /* \"contracts/VotingSystem.sol\":2256:2319  require(votingStarted && !votingEnded, \"Voting is not active.\") */\n      tag_356\n      jumpi\n      mload(0x40)\n      0x08c379a000000000000000000000000000000000000000000000000000000000\n      dup2\n      mstore\n      0x04\n      add\n      tag_357\n      swap1\n      tag_358\n      jump\t// in\n    tag_357:\n      mload(0x40)\n      dup1\n      swap2\n      sub\n      swap1\n      revert\n    tag_356:\n        /* \"contracts/VotingSystem.sol\":4909:4929  Voter storage sender */\n      0x00\n        /* \"contracts/VotingSystem.sol\":4932:4938  voters */\n      0x01\n        /* \"contracts/VotingSystem.sol\":4932:4950  voters[msg.sender] */\n      0x00\n        /* \"contracts/VotingSystem.sol\":4939:4949  msg.sender */\n      caller\n        /* \"contracts/VotingSystem.sol\":4932:4950  voters[msg.sender] */\n      0xffffffffffffffffffffffffffffffffffffffff\n      and\n      0xffffffffffffffffffffffffffffffffffffffff\n      and\n      dup2\n      mstore\n      0x20\n      add\n      swap1\n      dup2\n      mstore\n      0x20\n      add\n      0x00\n      keccak256\n        /* \"contracts/VotingSystem.sol\":4909:4950  Voter storage sender = voters[msg.sender] */\n      swap1\n      pop\n        /* \"contracts/VotingSystem.sol\":4969:4975  sender */\n      dup1\n        /* \"contracts/VotingSystem.sol\":4969:4988  sender.isRegistered */\n      0x00\n      add\n      0x00\n      swap1\n      sload\n      swap1\n      0x0100\n      exp\n      swap1\n      div\n      0xff\n      and\n        /* \"contracts/VotingSystem.sol\":4961:5024  require(sender.isRegistered, \"You are not registered to vote.\") */\n      tag_360\n      jumpi\n      mload(0x40)\n      0x08c379a000000000000000000000000000000000000000000000000000000000\n      dup2\n      mstore\n      0x04\n      add\n      tag_361\n      swap1\n      tag_362\n      jump\t// in\n    tag_361:\n      mload(0x40)\n      dup1\n      swap2\n      sub\n      swap1\n      revert\n    tag_360:\n        /* \"contracts/VotingSystem.sol\":5044:5050  sender */\n      dup1\n        /* \"contracts/VotingSystem.sol\":5044:5059  sender.hasVoted */\n      0x00\n      add\n      0x01\n      swap1\n      sload\n      swap1\n      0x0100\n      exp\n      swap1\n      div\n      0xff\n      and\n        /* \"contracts/VotingSystem.sol\":5043:5059  !sender.hasVoted */\n      iszero\n        /* \"contracts/VotingSystem.sol\":5035:5087  require(!sender.hasVoted, \"You have already voted.\") */\n      tag_363\n      jumpi\n      mload(0x40)\n      0x08c379a000000000000000000000000000000000000000000000000000000000\n      dup2\n      mstore\n      0x04\n      add\n      tag_364\n      swap1\n      tag_365\n      jump\t// in\n    tag_364:\n      mload(0x40)\n      dup1\n      swap2\n      sub\n      swap1\n      revert\n    tag_363:\n        /* \"contracts/VotingSystem.sol\":5197:5208  _nationalID */\n      dup3\n        /* \"contracts/VotingSystem.sol\":5180:5209  abi.encodePacked(_nationalID) */\n      add(0x20, mload(0x40))\n      tag_366\n      swap2\n      swap1\n      tag_149\n      jump\t// in\n    tag_366:\n      mload(0x40)\n      0x20\n      dup2\n      dup4\n      sub\n      sub\n      dup2\n      mstore\n      swap1\n      0x40\n      mstore\n        /* \"contracts/VotingSystem.sol\":5170:5210  keccak256(abi.encodePacked(_nationalID)) */\n      dup1\n      mload\n      swap1\n      0x20\n      add\n      keccak256\n        /* \"contracts/VotingSystem.sol\":5147:5153  sender */\n      dup2\n        /* \"contracts/VotingSystem.sol\":5147:5164  sender.nationalID */\n      0x02\n      add\n        /* \"contracts/VotingSystem.sol\":5130:5165  abi.encodePacked(sender.nationalID) */\n      add(0x20, mload(0x40))\n      tag_367\n      swap2\n      swap1\n      tag_233\n      jump\t// in\n    tag_367:\n      mload(0x40)\n      0x20\n      dup2\n      dup4\n      sub\n      sub\n      dup2\n      mstore\n      swap1\n      0x40\n      mstore\n        /* \"contracts/VotingSystem.sol\":5120:5166  keccak256(abi.encodePacked(sender.nationalID)) */\n      dup1\n      mload\n      swap1\n      0x20\n      add\n      keccak256\n        /* \"contracts/VotingSystem.sol\":5120:5210  keccak256(abi.encodePacked(sender.nationalID)) == keccak256(abi.encodePacked(_nationalID)) */\n      eq\n        /* \"contracts/VotingSystem.sol\":5098:5265  require(... */\n      tag_368\n      jumpi\n      mload(0x40)\n      0x08c379a000000000000000000000000000000000000000000000000000000000\n      dup2\n      mstore\n      0x04\n      add\n      tag_369\n      swap1\n      tag_370\n      jump\t// in\n    tag_369:\n      mload(0x40)\n      dup1\n      swap2\n      sub\n      swap1\n      revert\n    tag_368:\n        /* \"contracts/VotingSystem.sol\":5369:5374  _area */\n      dup2\n        /* \"contracts/VotingSystem.sol\":5352:5375  abi.encodePacked(_area) */\n      add(0x20, mload(0x40))\n      tag_371\n      swap2\n      swap1\n      tag_149\n      jump\t// in\n    tag_371:\n      mload(0x40)\n      0x20\n      dup2\n      dup4\n      sub\n      sub\n      dup2\n      mstore\n      swap1\n      0x40\n      mstore\n        /* \"contracts/VotingSystem.sol\":5342:5376  keccak256(abi.encodePacked(_area)) */\n      dup1\n      mload\n      swap1\n      0x20\n      add\n      keccak256\n        /* \"contracts/VotingSystem.sol\":5325:5331  sender */\n      dup2\n        /* \"contracts/VotingSystem.sol\":5325:5336  sender.area */\n      0x01\n      add\n        /* \"contracts/VotingSystem.sol\":5308:5337  abi.encodePacked(sender.area) */\n      add(0x20, mload(0x40))\n      tag_372\n      swap2\n      swap1\n      tag_233\n      jump\t// in\n    tag_372:\n      mload(0x40)\n      0x20\n      dup2\n      dup4\n      sub\n      sub\n      dup2\n      mstore\n      swap1\n      0x40\n      mstore\n        /* \"contracts/VotingSystem.sol\":5298:5338  keccak256(abi.encodePacked(sender.area)) */\n      dup1\n      mload\n      swap1\n      0x20\n      add\n      keccak256\n        /* \"contracts/VotingSystem.sol\":5298:5376  keccak256(abi.encodePacked(sender.area)) == keccak256(abi.encodePacked(_area)) */\n      eq\n        /* \"contracts/VotingSystem.sol\":5276:5452  require(... */\n      tag_373\n      jumpi\n      mload(0x40)\n      0x08c379a000000000000000000000000000000000000000000000000000000000\n      dup2\n      mstore\n      0x04\n      add\n      tag_374\n      swap1\n      tag_375\n      jump\t// in\n    tag_374:\n      mload(0x40)\n      dup1\n      swap2\n      sub\n      swap1\n      revert\n    tag_373:\n        /* \"contracts/VotingSystem.sol\":5504:5525  address candidateAddr */\n      0x00\n        /* \"contracts/VotingSystem.sol\":5554:5563  uint256 i */\n      dup1\n        /* \"contracts/VotingSystem.sol\":5549:5832  for (uint256 i = 0; i < candidateList.length; i++) {... */\n    tag_376:\n        /* \"contracts/VotingSystem.sol\":5573:5586  candidateList */\n      0x06\n        /* \"contracts/VotingSystem.sol\":5573:5593  candidateList.length */\n      dup1\n      sload\n      swap1\n      pop\n        /* \"contracts/VotingSystem.sol\":5569:5570  i */\n      dup2\n        /* \"contracts/VotingSystem.sol\":5569:5593  i < candidateList.length */\n      lt\n        /* \"contracts/VotingSystem.sol\":5549:5832  for (uint256 i = 0; i < candidateList.length; i++) {... */\n      iszero\n      tag_377\n      jumpi\n        /* \"contracts/VotingSystem.sol\":5712:5726  _candidateName */\n      dup6\n        /* \"contracts/VotingSystem.sol\":5695:5727  abi.encodePacked(_candidateName) */\n      add(0x20, mload(0x40))\n      tag_379\n      swap2\n      swap1\n      tag_149\n      jump\t// in\n    tag_379:\n      mload(0x40)\n      0x20\n      dup2\n      dup4\n      sub\n      sub\n      dup2\n      mstore\n      swap1\n      0x40\n      mstore\n        /* \"contracts/VotingSystem.sol\":5685:5728  keccak256(abi.encodePacked(_candidateName)) */\n      dup1\n      mload\n      swap1\n      0x20\n      add\n      keccak256\n        /* \"contracts/VotingSystem.sol\":5646:5656  candidates */\n      0x03\n        /* \"contracts/VotingSystem.sol\":5646:5674  candidates[candidateList[i]] */\n      0x00\n        /* \"contracts/VotingSystem.sol\":5657:5670  candidateList */\n      0x06\n        /* \"contracts/VotingSystem.sol\":5671:5672  i */\n      dup5\n        /* \"contracts/VotingSystem.sol\":5657:5673  candidateList[i] */\n      dup2\n      sload\n      dup2\n      lt\n      tag_380\n      jumpi\n      tag_381\n      tag_122\n      jump\t// in\n    tag_381:\n    tag_380:\n      swap1\n      0x00\n      mstore\n      keccak256(0x00, 0x20)\n      add\n      0x00\n      swap1\n      sload\n      swap1\n      0x0100\n      exp\n      swap1\n      div\n      0xffffffffffffffffffffffffffffffffffffffff\n      and\n        /* \"contracts/VotingSystem.sol\":5646:5674  candidates[candidateList[i]] */\n      0xffffffffffffffffffffffffffffffffffffffff\n      and\n      0xffffffffffffffffffffffffffffffffffffffff\n      and\n      dup2\n      mstore\n      0x20\n      add\n      swap1\n      dup2\n      mstore\n      0x20\n      add\n      0x00\n      keccak256\n        /* \"contracts/VotingSystem.sol\":5646:5679  candidates[candidateList[i]].name */\n      0x00\n      add\n        /* \"contracts/VotingSystem.sol\":5629:5680  abi.encodePacked(candidates[candidateList[i]].name) */\n      add(0x20, mload(0x40))\n      tag_383\n      swap2\n      swap1\n      tag_233\n      jump\t// in\n    tag_383:\n      mload(0x40)\n      0x20\n      dup2\n      dup4\n      sub\n      sub\n      dup2\n      mstore\n      swap1\n      0x40\n      mstore\n        /* \"contracts/VotingSystem.sol\":5619:5681  keccak256(abi.encodePacked(candidates[candidateList[i]].name)) */\n      dup1\n      mload\n      swap1\n      0x20\n      add\n      keccak256\n        /* \"contracts/VotingSystem.sol\":5619:5728  keccak256(abi.encodePacked(candidates[candidateList[i]].name)) == keccak256(abi.encodePacked(_candidateName)) */\n      sub\n        /* \"contracts/VotingSystem.sol\":5615:5821  if (keccak256(abi.encodePacked(candidates[candidateList[i]].name)) == keccak256(abi.encodePacked(_candidateName))) {... */\n      tag_384\n      jumpi\n        /* \"contracts/VotingSystem.sol\":5765:5778  candidateList */\n      0x06\n        /* \"contracts/VotingSystem.sol\":5779:5780  i */\n      dup2\n        /* \"contracts/VotingSystem.sol\":5765:5781  candidateList[i] */\n      dup2\n      sload\n      dup2\n      lt\n      tag_385\n      jumpi\n      tag_386\n      tag_122\n      jump\t// in\n    tag_386:\n    tag_385:\n      swap1\n      0x00\n      mstore\n      keccak256(0x00, 0x20)\n      add\n      0x00\n      swap1\n      sload\n      swap1\n      0x0100\n      exp\n      swap1\n      div\n      0xffffffffffffffffffffffffffffffffffffffff\n      and\n        /* \"contracts/VotingSystem.sol\":5749:5781  candidateAddr = candidateList[i] */\n      swap2\n      pop\n        /* \"contracts/VotingSystem.sol\":5800:5805  break */\n      jump(tag_377)\n        /* \"contracts/VotingSystem.sol\":5615:5821  if (keccak256(abi.encodePacked(candidates[candidateList[i]].name)) == keccak256(abi.encodePacked(_candidateName))) {... */\n    tag_384:\n        /* \"contracts/VotingSystem.sol\":5595:5598  i++ */\n      dup1\n      dup1\n      0x01\n      add\n      swap2\n      pop\n      pop\n        /* \"contracts/VotingSystem.sol\":5549:5832  for (uint256 i = 0; i < candidateList.length; i++) {... */\n      jump(tag_376)\n    tag_377:\n      pop\n        /* \"contracts/VotingSystem.sol\":5875:5876  0 */\n      0x00\n        /* \"contracts/VotingSystem.sol\":5850:5877  candidateAddr != address(0) */\n      0xffffffffffffffffffffffffffffffffffffffff\n      and\n        /* \"contracts/VotingSystem.sol\":5850:5863  candidateAddr */\n      dup2\n        /* \"contracts/VotingSystem.sol\":5850:5877  candidateAddr != address(0) */\n      0xffffffffffffffffffffffffffffffffffffffff\n      and\n      sub\n        /* \"contracts/VotingSystem.sol\":5842:5905  require(candidateAddr != address(0), \"Invalid candidate name.\") */\n      tag_388\n      jumpi\n      mload(0x40)\n      0x08c379a000000000000000000000000000000000000000000000000000000000\n      dup2\n      mstore\n      0x04\n      add\n      tag_389\n      swap1\n      tag_390\n      jump\t// in\n    tag_389:\n      mload(0x40)\n      dup1\n      swap2\n      sub\n      swap1\n      revert\n    tag_388:\n        /* \"contracts/VotingSystem.sol\":6068:6073  _area */\n      dup3\n        /* \"contracts/VotingSystem.sol\":6051:6074  abi.encodePacked(_area) */\n      add(0x20, mload(0x40))\n      tag_391\n      swap2\n      swap1\n      tag_149\n      jump\t// in\n    tag_391:\n      mload(0x40)\n      0x20\n      dup2\n      dup4\n      sub\n      sub\n      dup2\n      mstore\n      swap1\n      0x40\n      mstore\n        /* \"contracts/VotingSystem.sol\":6041:6075  keccak256(abi.encodePacked(_area)) */\n      dup1\n      mload\n      swap1\n      0x20\n      add\n      keccak256\n        /* \"contracts/VotingSystem.sol\":6005:6015  candidates */\n      0x03\n        /* \"contracts/VotingSystem.sol\":6005:6030  candidates[candidateAddr] */\n      0x00\n        /* \"contracts/VotingSystem.sol\":6016:6029  candidateAddr */\n      dup4\n        /* \"contracts/VotingSystem.sol\":6005:6030  candidates[candidateAddr] */\n      0xffffffffffffffffffffffffffffffffffffffff\n      and\n      0xffffffffffffffffffffffffffffffffffffffff\n      and\n      dup2\n      mstore\n      0x20\n      add\n      swap1\n      dup2\n      mstore\n      0x20\n      add\n      0x00\n      keccak256\n        /* \"contracts/VotingSystem.sol\":6005:6035  candidates[candidateAddr].area */\n      0x03\n      add\n        /* \"contracts/VotingSystem.sol\":5988:6036  abi.encodePacked(candidates[candidateAddr].area) */\n      add(0x20, mload(0x40))\n      tag_392\n      swap2\n      swap1\n      tag_233\n      jump\t// in\n    tag_392:\n      mload(0x40)\n      0x20\n      dup2\n      dup4\n      sub\n      sub\n      dup2\n      mstore\n      swap1\n      0x40\n      mstore\n        /* \"contracts/VotingSystem.sol\":5978:6037  keccak256(abi.encodePacked(candidates[candidateAddr].area)) */\n      dup1\n      mload\n      swap1\n      0x20\n      add\n      keccak256\n        /* \"contracts/VotingSystem.sol\":5978:6075  keccak256(abi.encodePacked(candidates[candidateAddr].area)) == keccak256(abi.encodePacked(_area)) */\n      eq\n        /* \"contracts/VotingSystem.sol\":5956:6148  require(... */\n      tag_393\n      jumpi\n      mload(0x40)\n      0x08c379a000000000000000000000000000000000000000000000000000000000\n      dup2\n      mstore\n      0x04\n      add\n      tag_394\n      swap1\n      tag_395\n      jump\t// in\n    tag_394:\n      mload(0x40)\n      dup1\n      swap2\n      sub\n      swap1\n      revert\n    tag_393:\n        /* \"contracts/VotingSystem.sol\":6227:6244  Area storage area */\n      0x00\n        /* \"contracts/VotingSystem.sol\":6247:6252  areas */\n      0x05\n        /* \"contracts/VotingSystem.sol\":6253:6258  _area */\n      dup5\n        /* \"contracts/VotingSystem.sol\":6247:6259  areas[_area] */\n      mload(0x40)\n      tag_396\n      swap2\n      swap1\n      tag_149\n      jump\t// in\n    tag_396:\n      swap1\n      dup2\n      mstore\n      0x20\n      add\n      mload(0x40)\n      dup1\n      swap2\n      sub\n      swap1\n      keccak256\n        /* \"contracts/VotingSystem.sol\":6227:6259  Area storage area = areas[_area] */\n      swap1\n      pop\n        /* \"contracts/VotingSystem.sol\":6298:6302  area */\n      dup1\n        /* \"contracts/VotingSystem.sol\":6298:6312  area.maxVoters */\n      0x00\n      add\n      sload\n        /* \"contracts/VotingSystem.sol\":6278:6282  area */\n      dup2\n        /* \"contracts/VotingSystem.sol\":6278:6295  area.currentVotes */\n      0x01\n      add\n      sload\n        /* \"contracts/VotingSystem.sol\":6278:6312  area.currentVotes < area.maxVoters */\n      lt\n        /* \"contracts/VotingSystem.sol\":6270:6361  require(area.currentVotes < area.maxVoters, \"Voting limit for this area has been reached.\") */\n      tag_397\n      jumpi\n      mload(0x40)\n      0x08c379a000000000000000000000000000000000000000000000000000000000\n      dup2\n      mstore\n      0x04\n      add\n      tag_398\n      swap1\n      tag_399\n      jump\t// in\n    tag_398:\n      mload(0x40)\n      dup1\n      swap2\n      sub\n      swap1\n      revert\n    tag_397:\n        /* \"contracts/VotingSystem.sol\":6426:6430  true */\n      0x01\n        /* \"contracts/VotingSystem.sol\":6408:6414  sender */\n      dup4\n        /* \"contracts/VotingSystem.sol\":6408:6423  sender.hasVoted */\n      0x00\n      add\n      0x01\n        /* \"contracts/VotingSystem.sol\":6408:6430  sender.hasVoted = true */\n      0x0100\n      exp\n      dup2\n      sload\n      dup2\n      0xff\n      mul\n      not\n      and\n      swap1\n      dup4\n      iszero\n      iszero\n      mul\n      or\n      swap1\n      sstore\n      pop\n        /* \"contracts/VotingSystem.sol\":6465:6478  candidateAddr */\n      dup2\n        /* \"contracts/VotingSystem.sol\":6441:6447  sender */\n      dup4\n        /* \"contracts/VotingSystem.sol\":6441:6462  sender.votedCandidate */\n      0x00\n      add\n      0x02\n        /* \"contracts/VotingSystem.sol\":6441:6478  sender.votedCandidate = candidateAddr */\n      0x0100\n      exp\n      dup2\n      sload\n      dup2\n      0xffffffffffffffffffffffffffffffffffffffff\n      mul\n      not\n      and\n      swap1\n      dup4\n      0xffffffffffffffffffffffffffffffffffffffff\n      and\n      mul\n      or\n      swap1\n      sstore\n      pop\n        /* \"contracts/VotingSystem.sol\":6564:6565  1 */\n      0x01\n        /* \"contracts/VotingSystem.sol\":6525:6535  candidates */\n      0x03\n        /* \"contracts/VotingSystem.sol\":6525:6550  candidates[candidateAddr] */\n      0x00\n        /* \"contracts/VotingSystem.sol\":6536:6549  candidateAddr */\n      dup5\n        /* \"contracts/VotingSystem.sol\":6525:6550  candidates[candidateAddr] */\n      0xffffffffffffffffffffffffffffffffffffffff\n      and\n      0xffffffffffffffffffffffffffffffffffffffff\n      and\n      dup2\n      mstore\n      0x20\n      add\n      swap1\n      dup2\n      mstore\n      0x20\n      add\n      0x00\n      keccak256\n        /* \"contracts/VotingSystem.sol\":6525:6560  candidates[candidateAddr].voteCount */\n      0x02\n      add\n      0x00\n        /* \"contracts/VotingSystem.sol\":6525:6565  candidates[candidateAddr].voteCount += 1 */\n      dup3\n      dup3\n      sload\n      tag_400\n      swap2\n      swap1\n      tag_401\n      jump\t// in\n    tag_400:\n      swap3\n      pop\n      pop\n      dup2\n      swap1\n      sstore\n      pop\n        /* \"contracts/VotingSystem.sol\":6597:6598  1 */\n      0x01\n        /* \"contracts/VotingSystem.sol\":6576:6580  area */\n      dup2\n        /* \"contracts/VotingSystem.sol\":6576:6593  area.currentVotes */\n      0x01\n      add\n      0x00\n        /* \"contracts/VotingSystem.sol\":6576:6598  area.currentVotes += 1 */\n      dup3\n      dup3\n      sload\n      tag_402\n      swap2\n      swap1\n      tag_401\n      jump\t// in\n    tag_402:\n      swap3\n      pop\n      pop\n      dup2\n      swap1\n      sstore\n      pop\n        /* \"contracts/VotingSystem.sol\":6616:6660  VoteCasted(msg.sender, candidateAddr, _area) */\n      0x8d1cfb67c4b6ddfa4950ade9b8090e8da23fb82114fea7fd43c4cbbe2c2367b3\n        /* \"contracts/VotingSystem.sol\":6627:6637  msg.sender */\n      caller\n        /* \"contracts/VotingSystem.sol\":6639:6652  candidateAddr */\n      dup4\n        /* \"contracts/VotingSystem.sol\":6654:6659  _area */\n      dup7\n        /* \"contracts/VotingSystem.sol\":6616:6660  VoteCasted(msg.sender, candidateAddr, _area) */\n      mload(0x40)\n      tag_403\n      swap4\n      swap3\n      swap2\n      swap1\n      tag_404\n      jump\t// in\n    tag_403:\n      mload(0x40)\n      dup1\n      swap2\n      sub\n      swap1\n      log1\n        /* \"contracts/VotingSystem.sol\":4852:6668  {... */\n      pop\n      pop\n      pop\n        /* \"contracts/VotingSystem.sol\":4738:6668  function vote(string memory _candidateName, string memory _nationalID, string memory _area) external duringVoting {... */\n      pop\n      pop\n      pop\n      jump\t// out\n        /* \"contracts/VotingSystem.sol\":1641:1664  bool public votingEnded */\n    tag_83:\n      0x09\n      0x01\n      swap1\n      sload\n      swap1\n      0x0100\n      exp\n      swap1\n      div\n      0xff\n      and\n      dup2\n      jump\t// out\n        /* \"contracts/VotingSystem.sol\":987:1026  mapping(address => Voter) public voters */\n    tag_87:\n      mstore(0x20, 0x01)\n      dup1\n      0x00\n      mstore\n      keccak256(0x00, 0x40)\n      0x00\n      swap2\n      pop\n      swap1\n      pop\n      dup1\n      0x00\n      add\n      0x00\n      swap1\n      sload\n      swap1\n      0x0100\n      exp\n      swap1\n      div\n      0xff\n      and\n      swap1\n      dup1\n      0x00\n      add\n      0x01\n      swap1\n      sload\n      swap1\n      0x0100\n      exp\n      swap1\n      div\n      0xff\n      and\n      swap1\n      dup1\n      0x00\n      add\n      0x02\n      swap1\n      sload\n      swap1\n      0x0100\n      exp\n      swap1\n      div\n      0xffffffffffffffffffffffffffffffffffffffff\n      and\n      swap1\n      dup1\n      0x01\n      add\n      dup1\n      sload\n      tag_405\n      swap1\n      tag_143\n      jump\t// in\n    tag_405:\n      dup1\n      0x1f\n      add\n      0x20\n      dup1\n      swap2\n      div\n      mul\n      0x20\n      add\n      mload(0x40)\n      swap1\n      dup2\n      add\n      0x40\n      mstore\n      dup1\n      swap3\n      swap2\n      swap1\n      dup2\n      dup2\n      mstore\n      0x20\n      add\n      dup3\n      dup1\n      sload\n      tag_406\n      swap1\n      tag_143\n      jump\t// in\n    tag_406:\n      dup1\n      iszero\n      tag_407\n      jumpi\n      dup1\n      0x1f\n      lt\n      tag_408\n      jumpi\n      0x0100\n      dup1\n      dup4\n      sload\n      div\n      mul\n      dup4\n      mstore\n      swap2\n      0x20\n      add\n      swap2\n      jump(tag_407)\n    tag_408:\n      dup3\n      add\n      swap2\n      swap1\n      0x00\n      mstore\n      keccak256(0x00, 0x20)\n      swap1\n    tag_409:\n      dup2\n      sload\n      dup2\n      mstore\n      swap1\n      0x01\n      add\n      swap1\n      0x20\n      add\n      dup1\n      dup4\n      gt\n      tag_409\n      jumpi\n      dup3\n      swap1\n      sub\n      0x1f\n      and\n      dup3\n      add\n      swap2\n    tag_407:\n      pop\n      pop\n      pop\n      pop\n      pop\n      swap1\n      dup1\n      0x02\n      add\n      dup1\n      sload\n      tag_410\n      swap1\n      tag_143\n      jump\t// in\n    tag_410:\n      dup1\n      0x1f\n      add\n      0x20\n      dup1\n      swap2\n      div\n      mul\n      0x20\n      add\n      mload(0x40)\n      swap1\n      dup2\n      add\n      0x40\n      mstore\n      dup1\n      swap3\n      swap2\n      swap1\n      dup2\n      dup2\n      mstore\n      0x20\n      add\n      dup3\n      dup1\n      sload\n      tag_411\n      swap1\n      tag_143\n      jump\t// in\n    tag_411:\n      dup1\n      iszero\n      tag_412\n      jumpi\n      dup1\n      0x1f\n      lt\n      tag_413\n      jumpi\n      0x0100\n      dup1\n      dup4\n      sload\n      div\n      mul\n      dup4\n      mstore\n      swap2\n      0x20\n      add\n      swap2\n      jump(tag_412)\n    tag_413:\n      dup3\n      add\n      swap2\n      swap1\n      0x00\n      mstore\n      keccak256(0x00, 0x20)\n      swap1\n    tag_414:\n      dup2\n      sload\n      dup2\n      mstore\n      swap1\n      0x01\n      add\n      swap1\n      0x20\n      add\n      dup1\n      dup4\n      gt\n      tag_414\n      jumpi\n      dup3\n      swap1\n      sub\n      0x1f\n      and\n      dup3\n      add\n      swap2\n    tag_412:\n      pop\n      pop\n      pop\n      pop\n      pop\n      swap1\n      pop\n      dup6\n      jump\t// out\n        /* \"contracts/VotingSystem.sol\":2444:2842  function addArea(string memory _areaName, uint256 _maxVoters) external onlyAdmin {... */\n    tag_93:\n        /* \"contracts/VotingSystem.sol\":2148:2153  admin */\n      0x00\n      dup1\n      sload\n      swap1\n      0x0100\n      exp\n      swap1\n      div\n      0xffffffffffffffffffffffffffffffffffffffff\n      and\n        /* \"contracts/VotingSystem.sol\":2134:2153  msg.sender == admin */\n      0xffffffffffffffffffffffffffffffffffffffff\n      and\n        /* \"contracts/VotingSystem.sol\":2134:2144  msg.sender */\n      caller\n        /* \"contracts/VotingSystem.sol\":2134:2153  msg.sender == admin */\n      0xffffffffffffffffffffffffffffffffffffffff\n      and\n      eq\n        /* \"contracts/VotingSystem.sol\":2126:2193  require(msg.sender == admin, \"Only admin can perform this action.\") */\n      tag_416\n      jumpi\n      mload(0x40)\n      0x08c379a000000000000000000000000000000000000000000000000000000000\n      dup2\n      mstore\n      0x04\n      add\n      tag_417\n      swap1\n      tag_115\n      jump\t// in\n    tag_417:\n      mload(0x40)\n      dup1\n      swap2\n      sub\n      swap1\n      revert\n    tag_416:\n        /* \"contracts/VotingSystem.sol\":2570:2571  0 */\n      0x00\n        /* \"contracts/VotingSystem.sol\":2550:2559  _areaName */\n      dup3\n        /* \"contracts/VotingSystem.sol\":2544:2567  bytes(_areaName).length */\n      mload\n        /* \"contracts/VotingSystem.sol\":2544:2571  bytes(_areaName).length > 0 */\n      gt\n        /* \"contracts/VotingSystem.sol\":2536:2602  require(bytes(_areaName).length > 0, \"Area name cannot be empty.\") */\n      tag_419\n      jumpi\n      mload(0x40)\n      0x08c379a000000000000000000000000000000000000000000000000000000000\n      dup2\n      mstore\n      0x04\n      add\n      tag_420\n      swap1\n      tag_421\n      jump\t// in\n    tag_420:\n      mload(0x40)\n      dup1\n      swap2\n      sub\n      swap1\n      revert\n    tag_419:\n        /* \"contracts/VotingSystem.sol\":2634:2635  0 */\n      0x00\n        /* \"contracts/VotingSystem.sol\":2621:2631  _maxVoters */\n      dup2\n        /* \"contracts/VotingSystem.sol\":2621:2635  _maxVoters > 0 */\n      gt\n        /* \"contracts/VotingSystem.sol\":2613:2673  require(_maxVoters > 0, \"Area must have registered voters.\") */\n      tag_422\n      jumpi\n      mload(0x40)\n      0x08c379a000000000000000000000000000000000000000000000000000000000\n      dup2\n      mstore\n      0x04\n      add\n      tag_423\n      swap1\n      tag_424\n      jump\t// in\n    tag_423:\n      mload(0x40)\n      dup1\n      swap2\n      sub\n      swap1\n      revert\n    tag_422:\n        /* \"contracts/VotingSystem.sol\":2722:2723  0 */\n      0x00\n        /* \"contracts/VotingSystem.sol\":2692:2697  areas */\n      0x05\n        /* \"contracts/VotingSystem.sol\":2698:2707  _areaName */\n      dup4\n        /* \"contracts/VotingSystem.sol\":2692:2708  areas[_areaName] */\n      mload(0x40)\n      tag_425\n      swap2\n      swap1\n      tag_149\n      jump\t// in\n    tag_425:\n      swap1\n      dup2\n      mstore\n      0x20\n      add\n      mload(0x40)\n      dup1\n      swap2\n      sub\n      swap1\n      keccak256\n        /* \"contracts/VotingSystem.sol\":2692:2718  areas[_areaName].maxVoters */\n      0x00\n      add\n      sload\n        /* \"contracts/VotingSystem.sol\":2692:2723  areas[_areaName].maxVoters == 0 */\n      eq\n        /* \"contracts/VotingSystem.sol\":2684:2748  require(areas[_areaName].maxVoters == 0, \"Area already exists.\") */\n      tag_426\n      jumpi\n      mload(0x40)\n      0x08c379a000000000000000000000000000000000000000000000000000000000\n      dup2\n      mstore\n      0x04\n      add\n      tag_427\n      swap1\n      tag_428\n      jump\t// in\n    tag_427:\n      mload(0x40)\n      dup1\n      swap2\n      sub\n      swap1\n      revert\n    tag_426:\n        /* \"contracts/VotingSystem.sol\":2780:2799  Area(_maxVoters, 0) */\n      mload(0x40)\n      dup1\n      0x40\n      add\n      0x40\n      mstore\n      dup1\n        /* \"contracts/VotingSystem.sol\":2785:2795  _maxVoters */\n      dup3\n        /* \"contracts/VotingSystem.sol\":2780:2799  Area(_maxVoters, 0) */\n      dup2\n      mstore\n      0x20\n      add\n        /* \"contracts/VotingSystem.sol\":2797:2798  0 */\n      0x00\n        /* \"contracts/VotingSystem.sol\":2780:2799  Area(_maxVoters, 0) */\n      dup2\n      mstore\n      pop\n        /* \"contracts/VotingSystem.sol\":2761:2766  areas */\n      0x05\n        /* \"contracts/VotingSystem.sol\":2767:2776  _areaName */\n      dup4\n        /* \"contracts/VotingSystem.sol\":2761:2777  areas[_areaName] */\n      mload(0x40)\n      tag_429\n      swap2\n      swap1\n      tag_149\n      jump\t// in\n    tag_429:\n      swap1\n      dup2\n      mstore\n      0x20\n      add\n      mload(0x40)\n      dup1\n      swap2\n      sub\n      swap1\n      keccak256\n        /* \"contracts/VotingSystem.sol\":2761:2799  areas[_areaName] = Area(_maxVoters, 0) */\n      0x00\n      dup3\n      add\n      mload\n      dup2\n      0x00\n      add\n      sstore\n      0x20\n      dup3\n      add\n      mload\n      dup2\n      0x01\n      add\n      sstore\n      swap1\n      pop\n      pop\n        /* \"contracts/VotingSystem.sol\":2810:2818  areaList */\n      0x07\n        /* \"contracts/VotingSystem.sol\":2824:2833  _areaName */\n      dup3\n        /* \"contracts/VotingSystem.sol\":2810:2834  areaList.push(_areaName) */\n      swap1\n      dup1\n      0x01\n      dup2\n      sload\n      add\n      dup1\n      dup3\n      sstore\n      dup1\n      swap2\n      pop\n      pop\n      0x01\n      swap1\n      sub\n      swap1\n      0x00\n      mstore\n      keccak256(0x00, 0x20)\n      add\n      0x00\n      swap1\n      swap2\n      swap1\n      swap2\n      swap1\n      swap2\n      pop\n      swap1\n      dup2\n      tag_431\n      swap2\n      swap1\n      tag_198\n      jump\t// in\n    tag_431:\n      pop\n        /* \"contracts/VotingSystem.sol\":2444:2842  function addArea(string memory _areaName, uint256 _maxVoters) external onlyAdmin {... */\n      pop\n      pop\n      jump\t// out\n        /* \"contracts/VotingSystem.sol\":1404:1434  address[] public candidateList */\n    tag_96:\n      0x06\n      dup2\n      dup2\n      sload\n      dup2\n      lt\n      tag_432\n      jumpi\n      0x00\n      dup1\n      revert\n    tag_432:\n      swap1\n      0x00\n      mstore\n      keccak256(0x00, 0x20)\n      add\n      0x00\n      swap2\n      pop\n      sload\n      swap1\n      0x0100\n      exp\n      swap1\n      div\n      0xffffffffffffffffffffffffffffffffffffffff\n      and\n      dup2\n      jump\t// out\n        /* \"contracts/VotingSystem.sol\":2913:3561  function registerVoter(address _voter, string memory _nationalID, string memory _areaName) external onlyAdmin {... */\n    tag_101:\n        /* \"contracts/VotingSystem.sol\":2148:2153  admin */\n      0x00\n      dup1\n      sload\n      swap1\n      0x0100\n      exp\n      swap1\n      div\n      0xffffffffffffffffffffffffffffffffffffffff\n      and\n        /* \"contracts/VotingSystem.sol\":2134:2153  msg.sender == admin */\n      0xffffffffffffffffffffffffffffffffffffffff\n      and\n        /* \"contracts/VotingSystem.sol\":2134:2144  msg.sender */\n      caller\n        /* \"contracts/VotingSystem.sol\":2134:2153  msg.sender == admin */\n      0xffffffffffffffffffffffffffffffffffffffff\n      and\n      eq\n        /* \"contracts/VotingSystem.sol\":2126:2193  require(msg.sender == admin, \"Only admin can perform this action.\") */\n      tag_435\n      jumpi\n      mload(0x40)\n      0x08c379a000000000000000000000000000000000000000000000000000000000\n      dup2\n      mstore\n      0x04\n      add\n      tag_436\n      swap1\n      tag_115\n      jump\t// in\n    tag_436:\n      mload(0x40)\n      dup1\n      swap2\n      sub\n      swap1\n      revert\n    tag_435:\n        /* \"contracts/VotingSystem.sol\":3071:3072  0 */\n      0x00\n        /* \"contracts/VotingSystem.sol\":3042:3047  areas */\n      0x05\n        /* \"contracts/VotingSystem.sol\":3048:3057  _areaName */\n      dup3\n        /* \"contracts/VotingSystem.sol\":3042:3058  areas[_areaName] */\n      mload(0x40)\n      tag_438\n      swap2\n      swap1\n      tag_149\n      jump\t// in\n    tag_438:\n      swap1\n      dup2\n      mstore\n      0x20\n      add\n      mload(0x40)\n      dup1\n      swap2\n      sub\n      swap1\n      keccak256\n        /* \"contracts/VotingSystem.sol\":3042:3068  areas[_areaName].maxVoters */\n      0x00\n      add\n      sload\n        /* \"contracts/VotingSystem.sol\":3042:3072  areas[_areaName].maxVoters > 0 */\n      gt\n        /* \"contracts/VotingSystem.sol\":3034:3097  require(areas[_areaName].maxVoters > 0, \"Area does not exist.\") */\n      tag_439\n      jumpi\n      mload(0x40)\n      0x08c379a000000000000000000000000000000000000000000000000000000000\n      dup2\n      mstore\n      0x04\n      add\n      tag_440\n      swap1\n      tag_186\n      jump\t// in\n    tag_440:\n      mload(0x40)\n      dup1\n      swap2\n      sub\n      swap1\n      revert\n    tag_439:\n        /* \"contracts/VotingSystem.sol\":3117:3123  voters */\n      0x01\n        /* \"contracts/VotingSystem.sol\":3117:3131  voters[_voter] */\n      0x00\n        /* \"contracts/VotingSystem.sol\":3124:3130  _voter */\n      dup5\n        /* \"contracts/VotingSystem.sol\":3117:3131  voters[_voter] */\n      0xffffffffffffffffffffffffffffffffffffffff\n      and\n      0xffffffffffffffffffffffffffffffffffffffff\n      and\n      dup2\n      mstore\n      0x20\n      add\n      swap1\n      dup2\n      mstore\n      0x20\n      add\n      0x00\n      keccak256\n        /* \"contracts/VotingSystem.sol\":3117:3144  voters[_voter].isRegistered */\n      0x00\n      add\n      0x00\n      swap1\n      sload\n      swap1\n      0x0100\n      exp\n      swap1\n      div\n      0xff\n      and\n        /* \"contracts/VotingSystem.sol\":3116:3144  !voters[_voter].isRegistered */\n      iszero\n        /* \"contracts/VotingSystem.sol\":3108:3174  require(!voters[_voter].isRegistered, \"Voter already registered.\") */\n      tag_441\n      jumpi\n      mload(0x40)\n      0x08c379a000000000000000000000000000000000000000000000000000000000\n      dup2\n      mstore\n      0x04\n      add\n      tag_442\n      swap1\n      tag_443\n      jump\t// in\n    tag_442:\n      mload(0x40)\n      dup1\n      swap2\n      sub\n      swap1\n      revert\n    tag_441:\n        /* \"contracts/VotingSystem.sol\":3194:3215  voterNationalIDExists */\n      0x02\n        /* \"contracts/VotingSystem.sol\":3216:3227  _nationalID */\n      dup3\n        /* \"contracts/VotingSystem.sol\":3194:3228  voterNationalIDExists[_nationalID] */\n      mload(0x40)\n      tag_444\n      swap2\n      swap1\n      tag_149\n      jump\t// in\n    tag_444:\n      swap1\n      dup2\n      mstore\n      0x20\n      add\n      mload(0x40)\n      dup1\n      swap2\n      sub\n      swap1\n      keccak256\n      0x00\n      swap1\n      sload\n      swap1\n      0x0100\n      exp\n      swap1\n      div\n      0xff\n      and\n        /* \"contracts/VotingSystem.sol\":3193:3228  !voterNationalIDExists[_nationalID] */\n      iszero\n        /* \"contracts/VotingSystem.sol\":3185:3264  require(!voterNationalIDExists[_nationalID], \"National ID already registered.\") */\n      tag_445\n      jumpi\n      mload(0x40)\n      0x08c379a000000000000000000000000000000000000000000000000000000000\n      dup2\n      mstore\n      0x04\n      add\n      tag_446\n      swap1\n      tag_196\n      jump\t// in\n    tag_446:\n      mload(0x40)\n      dup1\n      swap2\n      sub\n      swap1\n      revert\n    tag_445:\n        /* \"contracts/VotingSystem.sol\":3321:3375  Voter(true, false, address(0), _areaName, _nationalID) */\n      mload(0x40)\n      dup1\n      0xa0\n      add\n      0x40\n      mstore\n      dup1\n        /* \"contracts/VotingSystem.sol\":3327:3331  true */\n      0x01\n        /* \"contracts/VotingSystem.sol\":3321:3375  Voter(true, false, address(0), _areaName, _nationalID) */\n      iszero\n      iszero\n      dup2\n      mstore\n      0x20\n      add\n        /* \"contracts/VotingSystem.sol\":3333:3338  false */\n      0x00\n        /* \"contracts/VotingSystem.sol\":3321:3375  Voter(true, false, address(0), _areaName, _nationalID) */\n      iszero\n      iszero\n      dup2\n      mstore\n      0x20\n      add\n        /* \"contracts/VotingSystem.sol\":3348:3349  0 */\n      0x00\n        /* \"contracts/VotingSystem.sol\":3321:3375  Voter(true, false, address(0), _areaName, _nationalID) */\n      0xffffffffffffffffffffffffffffffffffffffff\n      and\n      dup2\n      mstore\n      0x20\n      add\n        /* \"contracts/VotingSystem.sol\":3352:3361  _areaName */\n      dup3\n        /* \"contracts/VotingSystem.sol\":3321:3375  Voter(true, false, address(0), _areaName, _nationalID) */\n      dup2\n      mstore\n      0x20\n      add\n        /* \"contracts/VotingSystem.sol\":3363:3374  _nationalID */\n      dup4\n        /* \"contracts/VotingSystem.sol\":3321:3375  Voter(true, false, address(0), _areaName, _nationalID) */\n      dup2\n      mstore\n      pop\n        /* \"contracts/VotingSystem.sol\":3304:3310  voters */\n      0x01\n        /* \"contracts/VotingSystem.sol\":3304:3318  voters[_voter] */\n      0x00\n        /* \"contracts/VotingSystem.sol\":3311:3317  _voter */\n      dup6\n        /* \"contracts/VotingSystem.sol\":3304:3318  voters[_voter] */\n      0xffffffffffffffffffffffffffffffffffffffff\n      and\n      0xffffffffffffffffffffffffffffffffffffffff\n      and\n      dup2\n      mstore\n      0x20\n      add\n      swap1\n      dup2\n      mstore\n      0x20\n      add\n      0x00\n      keccak256\n        /* \"contracts/VotingSystem.sol\":3304:3375  voters[_voter] = Voter(true, false, address(0), _areaName, _nationalID) */\n      0x00\n      dup3\n      add\n      mload\n      dup2\n      0x00\n      add\n      exp(0x0100, 0x00)\n      dup2\n      sload\n      dup2\n      0xff\n      mul\n      not\n      and\n      swap1\n      dup4\n      iszero\n      iszero\n      mul\n      or\n      swap1\n      sstore\n      pop\n      0x20\n      dup3\n      add\n      mload\n      dup2\n      0x00\n      add\n      exp(0x0100, 0x01)\n      dup2\n      sload\n      dup2\n      0xff\n      mul\n      not\n      and\n      swap1\n      dup4\n      iszero\n      iszero\n      mul\n      or\n      swap1\n      sstore\n      pop\n      0x40\n      dup3\n      add\n      mload\n      dup2\n      0x00\n      add\n      exp(0x0100, 0x02)\n      dup2\n      sload\n      dup2\n      0xffffffffffffffffffffffffffffffffffffffff\n      mul\n      not\n      and\n      swap1\n      dup4\n      0xffffffffffffffffffffffffffffffffffffffff\n      and\n      mul\n      or\n      swap1\n      sstore\n      pop\n      0x60\n      dup3\n      add\n      mload\n      dup2\n      0x01\n      add\n      swap1\n      dup2\n      tag_447\n      swap2\n      swap1\n      tag_198\n      jump\t// in\n    tag_447:\n      pop\n      0x80\n      dup3\n      add\n      mload\n      dup2\n      0x02\n      add\n      swap1\n      dup2\n      tag_448\n      swap2\n      swap1\n      tag_198\n      jump\t// in\n    tag_448:\n      pop\n      swap1\n      pop\n      pop\n        /* \"contracts/VotingSystem.sol\":3423:3427  true */\n      0x01\n        /* \"contracts/VotingSystem.sol\":3386:3407  voterNationalIDExists */\n      0x02\n        /* \"contracts/VotingSystem.sol\":3408:3419  _nationalID */\n      dup4\n        /* \"contracts/VotingSystem.sol\":3386:3420  voterNationalIDExists[_nationalID] */\n      mload(0x40)\n      tag_449\n      swap2\n      swap1\n      tag_149\n      jump\t// in\n    tag_449:\n      swap1\n      dup2\n      mstore\n      0x20\n      add\n      mload(0x40)\n      dup1\n      swap2\n      sub\n      swap1\n      keccak256\n      0x00\n        /* \"contracts/VotingSystem.sol\":3386:3427  voterNationalIDExists[_nationalID] = true */\n      0x0100\n      exp\n      dup2\n      sload\n      dup2\n      0xff\n      mul\n      not\n      and\n      swap1\n      dup4\n      iszero\n      iszero\n      mul\n      or\n      swap1\n      sstore\n      pop\n        /* \"contracts/VotingSystem.sol\":3466:3475  voterList */\n      0x08\n        /* \"contracts/VotingSystem.sol\":3481:3487  _voter */\n      dup4\n        /* \"contracts/VotingSystem.sol\":3466:3488  voterList.push(_voter) */\n      swap1\n      dup1\n      0x01\n      dup2\n      sload\n      add\n      dup1\n      dup3\n      sstore\n      dup1\n      swap2\n      pop\n      pop\n      0x01\n      swap1\n      sub\n      swap1\n      0x00\n      mstore\n      keccak256(0x00, 0x20)\n      add\n      0x00\n      swap1\n      swap2\n      swap1\n      swap2\n      swap1\n      swap2\n      0x0100\n      exp\n      dup2\n      sload\n      dup2\n      0xffffffffffffffffffffffffffffffffffffffff\n      mul\n      not\n      and\n      swap1\n      dup4\n      0xffffffffffffffffffffffffffffffffffffffff\n      and\n      mul\n      or\n      swap1\n      sstore\n      pop\n        /* \"contracts/VotingSystem.sol\":3506:3553  VoterRegistered(_voter, _nationalID, _areaName) */\n      0x96ac7a421360a2bd773d747b2f64b40a916821c4906dbfdebf787c292e741f7d\n        /* \"contracts/VotingSystem.sol\":3522:3528  _voter */\n      dup4\n        /* \"contracts/VotingSystem.sol\":3530:3541  _nationalID */\n      dup4\n        /* \"contracts/VotingSystem.sol\":3543:3552  _areaName */\n      dup4\n        /* \"contracts/VotingSystem.sol\":3506:3553  VoterRegistered(_voter, _nationalID, _areaName) */\n      mload(0x40)\n      tag_451\n      swap4\n      swap3\n      swap2\n      swap1\n      tag_452\n      jump\t// in\n    tag_451:\n      mload(0x40)\n      dup1\n      swap2\n      sub\n      swap1\n      log1\n        /* \"contracts/VotingSystem.sol\":2913:3561  function registerVoter(address _voter, string memory _nationalID, string memory _areaName) external onlyAdmin {... */\n      pop\n      pop\n      pop\n      jump\t// out\n        /* \"contracts/VotingSystem.sol\":6725:7690  function endVoting() external onlyAdmin duringVoting {... */\n    tag_103:\n        /* \"contracts/VotingSystem.sol\":2148:2153  admin */\n      0x00\n      dup1\n      sload\n      swap1\n      0x0100\n      exp\n      swap1\n      div\n      0xffffffffffffffffffffffffffffffffffffffff\n      and\n        /* \"contracts/VotingSystem.sol\":2134:2153  msg.sender == admin */\n      0xffffffffffffffffffffffffffffffffffffffff\n      and\n        /* \"contracts/VotingSystem.sol\":2134:2144  msg.sender */\n      caller\n        /* \"contracts/VotingSystem.sol\":2134:2153  msg.sender == admin */\n      0xffffffffffffffffffffffffffffffffffffffff\n      and\n      eq\n        /* \"contracts/VotingSystem.sol\":2126:2193  require(msg.sender == admin, \"Only admin can perform this action.\") */\n      tag_454\n      jumpi\n      mload(0x40)\n      0x08c379a000000000000000000000000000000000000000000000000000000000\n      dup2\n      mstore\n      0x04\n      add\n      tag_455\n      swap1\n      tag_115\n      jump\t// in\n    tag_455:\n      mload(0x40)\n      dup1\n      swap2\n      sub\n      swap1\n      revert\n    tag_454:\n        /* \"contracts/VotingSystem.sol\":2264:2277  votingStarted */\n      0x09\n      0x00\n      swap1\n      sload\n      swap1\n      0x0100\n      exp\n      swap1\n      div\n      0xff\n      and\n        /* \"contracts/VotingSystem.sol\":2264:2293  votingStarted && !votingEnded */\n      dup1\n      iszero\n      tag_457\n      jumpi\n      pop\n        /* \"contracts/VotingSystem.sol\":2282:2293  votingEnded */\n      0x09\n      0x01\n      swap1\n      sload\n      swap1\n      0x0100\n      exp\n      swap1\n      div\n      0xff\n      and\n        /* \"contracts/VotingSystem.sol\":2281:2293  !votingEnded */\n      iszero\n        /* \"contracts/VotingSystem.sol\":2264:2293  votingStarted && !votingEnded */\n    tag_457:\n        /* \"contracts/VotingSystem.sol\":2256:2319  require(votingStarted && !votingEnded, \"Voting is not active.\") */\n      tag_458\n      jumpi\n      mload(0x40)\n      0x08c379a000000000000000000000000000000000000000000000000000000000\n      dup2\n      mstore\n      0x04\n      add\n      tag_459\n      swap1\n      tag_358\n      jump\t// in\n    tag_459:\n      mload(0x40)\n      dup1\n      swap2\n      sub\n      swap1\n      revert\n    tag_458:\n        /* \"contracts/VotingSystem.sol\":6803:6807  true */\n      0x01\n        /* \"contracts/VotingSystem.sol\":6789:6800  votingEnded */\n      0x09\n      0x01\n        /* \"contracts/VotingSystem.sol\":6789:6807  votingEnded = true */\n      0x0100\n      exp\n      dup2\n      sload\n      dup2\n      0xff\n      mul\n      not\n      and\n      swap1\n      dup4\n      iszero\n      iszero\n      mul\n      or\n      swap1\n      sstore\n      pop\n        /* \"contracts/VotingSystem.sol\":6834:6839  false */\n      0x00\n        /* \"contracts/VotingSystem.sol\":6818:6831  votingStarted */\n      0x09\n      0x00\n        /* \"contracts/VotingSystem.sol\":6818:6839  votingStarted = false */\n      0x0100\n      exp\n      dup2\n      sload\n      dup2\n      0xff\n      mul\n      not\n      and\n      swap1\n      dup4\n      iszero\n      iszero\n      mul\n      or\n      swap1\n      sstore\n      pop\n        /* \"contracts/VotingSystem.sol\":6857:6866  uint256 i */\n      0x00\n        /* \"contracts/VotingSystem.sol\":6852:7683  for (uint256 i = 0; i < areaList.length; i++) {... */\n    tag_461:\n        /* \"contracts/VotingSystem.sol\":6876:6884  areaList */\n      0x07\n        /* \"contracts/VotingSystem.sol\":6876:6891  areaList.length */\n      dup1\n      sload\n      swap1\n      pop\n        /* \"contracts/VotingSystem.sol\":6872:6873  i */\n      dup2\n        /* \"contracts/VotingSystem.sol\":6872:6891  i < areaList.length */\n      lt\n        /* \"contracts/VotingSystem.sol\":6852:7683  for (uint256 i = 0; i < areaList.length; i++) {... */\n      iszero\n      tag_462\n      jumpi\n        /* \"contracts/VotingSystem.sol\":6913:6935  string memory areaName */\n      0x00\n        /* \"contracts/VotingSystem.sol\":6938:6946  areaList */\n      0x07\n        /* \"contracts/VotingSystem.sol\":6947:6948  i */\n      dup3\n        /* \"contracts/VotingSystem.sol\":6938:6949  areaList[i] */\n      dup2\n      sload\n      dup2\n      lt\n      tag_464\n      jumpi\n      tag_465\n      tag_122\n      jump\t// in\n    tag_465:\n    tag_464:\n      swap1\n      0x00\n      mstore\n      keccak256(0x00, 0x20)\n      add\n        /* \"contracts/VotingSystem.sol\":6913:6949  string memory areaName = areaList[i] */\n      dup1\n      sload\n      tag_467\n      swap1\n      tag_143\n      jump\t// in\n    tag_467:\n      dup1\n      0x1f\n      add\n      0x20\n      dup1\n      swap2\n      div\n      mul\n      0x20\n      add\n      mload(0x40)\n      swap1\n      dup2\n      add\n      0x40\n      mstore\n      dup1\n      swap3\n      swap2\n      swap1\n      dup2\n      dup2\n      mstore\n      0x20\n      add\n      dup3\n      dup1\n      sload\n      tag_468\n      swap1\n      tag_143\n      jump\t// in\n    tag_468:\n      dup1\n      iszero\n      tag_469\n      jumpi\n      dup1\n      0x1f\n      lt\n      tag_470\n      jumpi\n      0x0100\n      dup1\n      dup4\n      sload\n      div\n      mul\n      dup4\n      mstore\n      swap2\n      0x20\n      add\n      swap2\n      jump(tag_469)\n    tag_470:\n      dup3\n      add\n      swap2\n      swap1\n      0x00\n      mstore\n      keccak256(0x00, 0x20)\n      swap1\n    tag_471:\n      dup2\n      sload\n      dup2\n      mstore\n      swap1\n      0x01\n      add\n      swap1\n      0x20\n      add\n      dup1\n      dup4\n      gt\n      tag_471\n      jumpi\n      dup3\n      swap1\n      sub\n      0x1f\n      and\n      dup3\n      add\n      swap2\n    tag_469:\n      pop\n      pop\n      pop\n      pop\n      pop\n      swap1\n      pop\n        /* \"contracts/VotingSystem.sol\":6964:6978  address winner */\n      0x00\n        /* \"contracts/VotingSystem.sol\":7006:7026  uint256 highestVotes */\n      dup1\n        /* \"contracts/VotingSystem.sol\":7052:7061  uint256 j */\n      0x00\n        /* \"contracts/VotingSystem.sol\":7047:7607  for (uint256 j = 0; j < candidateList.length; j++) {... */\n    tag_472:\n        /* \"contracts/VotingSystem.sol\":7071:7084  candidateList */\n      0x06\n        /* \"contracts/VotingSystem.sol\":7071:7091  candidateList.length */\n      dup1\n      sload\n      swap1\n      pop\n        /* \"contracts/VotingSystem.sol\":7067:7068  j */\n      dup2\n        /* \"contracts/VotingSystem.sol\":7067:7091  j < candidateList.length */\n      lt\n        /* \"contracts/VotingSystem.sol\":7047:7607  for (uint256 j = 0; j < candidateList.length; j++) {... */\n      iszero\n      tag_473\n      jumpi\n        /* \"contracts/VotingSystem.sol\":7117:7138  address candidateAddr */\n      0x00\n        /* \"contracts/VotingSystem.sol\":7141:7154  candidateList */\n      0x06\n        /* \"contracts/VotingSystem.sol\":7155:7156  j */\n      dup3\n        /* \"contracts/VotingSystem.sol\":7141:7157  candidateList[j] */\n      dup2\n      sload\n      dup2\n      lt\n      tag_475\n      jumpi\n      tag_476\n      tag_122\n      jump\t// in\n    tag_476:\n    tag_475:\n      swap1\n      0x00\n      mstore\n      keccak256(0x00, 0x20)\n      add\n      0x00\n      swap1\n      sload\n      swap1\n      0x0100\n      exp\n      swap1\n      div\n      0xffffffffffffffffffffffffffffffffffffffff\n      and\n        /* \"contracts/VotingSystem.sol\":7117:7157  address candidateAddr = candidateList[j] */\n      swap1\n      pop\n        /* \"contracts/VotingSystem.sol\":7314:7322  areaName */\n      dup5\n        /* \"contracts/VotingSystem.sol\":7297:7323  abi.encodePacked(areaName) */\n      add(0x20, mload(0x40))\n      tag_478\n      swap2\n      swap1\n      tag_149\n      jump\t// in\n    tag_478:\n      mload(0x40)\n      0x20\n      dup2\n      dup4\n      sub\n      sub\n      dup2\n      mstore\n      swap1\n      0x40\n      mstore\n        /* \"contracts/VotingSystem.sol\":7287:7324  keccak256(abi.encodePacked(areaName)) */\n      dup1\n      mload\n      swap1\n      0x20\n      add\n      keccak256\n        /* \"contracts/VotingSystem.sol\":7229:7239  candidates */\n      0x03\n        /* \"contracts/VotingSystem.sol\":7229:7254  candidates[candidateAddr] */\n      0x00\n        /* \"contracts/VotingSystem.sol\":7240:7253  candidateAddr */\n      dup4\n        /* \"contracts/VotingSystem.sol\":7229:7254  candidates[candidateAddr] */\n      0xffffffffffffffffffffffffffffffffffffffff\n      and\n      0xffffffffffffffffffffffffffffffffffffffff\n      and\n      dup2\n      mstore\n      0x20\n      add\n      swap1\n      dup2\n      mstore\n      0x20\n      add\n      0x00\n      keccak256\n        /* \"contracts/VotingSystem.sol\":7229:7259  candidates[candidateAddr].area */\n      0x03\n      add\n        /* \"contracts/VotingSystem.sol\":7212:7260  abi.encodePacked(candidates[candidateAddr].area) */\n      add(0x20, mload(0x40))\n      tag_479\n      swap2\n      swap1\n      tag_233\n      jump\t// in\n    tag_479:\n      mload(0x40)\n      0x20\n      dup2\n      dup4\n      sub\n      sub\n      dup2\n      mstore\n      swap1\n      0x40\n      mstore\n        /* \"contracts/VotingSystem.sol\":7202:7261  keccak256(abi.encodePacked(candidates[candidateAddr].area)) */\n      dup1\n      mload\n      swap1\n      0x20\n      add\n      keccak256\n        /* \"contracts/VotingSystem.sol\":7202:7324  keccak256(abi.encodePacked(candidates[candidateAddr].area)) == ... */\n      sub\n        /* \"contracts/VotingSystem.sol\":7176:7592  if (... */\n      tag_480\n      jumpi\n        /* \"contracts/VotingSystem.sol\":7409:7421  highestVotes */\n      dup3\n        /* \"contracts/VotingSystem.sol\":7371:7381  candidates */\n      0x03\n        /* \"contracts/VotingSystem.sol\":7371:7396  candidates[candidateAddr] */\n      0x00\n        /* \"contracts/VotingSystem.sol\":7382:7395  candidateAddr */\n      dup4\n        /* \"contracts/VotingSystem.sol\":7371:7396  candidates[candidateAddr] */\n      0xffffffffffffffffffffffffffffffffffffffff\n      and\n      0xffffffffffffffffffffffffffffffffffffffff\n      and\n      dup2\n      mstore\n      0x20\n      add\n      swap1\n      dup2\n      mstore\n      0x20\n      add\n      0x00\n      keccak256\n        /* \"contracts/VotingSystem.sol\":7371:7406  candidates[candidateAddr].voteCount */\n      0x02\n      add\n      sload\n        /* \"contracts/VotingSystem.sol\":7371:7421  candidates[candidateAddr].voteCount > highestVotes */\n      gt\n        /* \"contracts/VotingSystem.sol\":7367:7573  if (candidates[candidateAddr].voteCount > highestVotes) {... */\n      iszero\n      tag_481\n      jumpi\n        /* \"contracts/VotingSystem.sol\":7465:7475  candidates */\n      0x03\n        /* \"contracts/VotingSystem.sol\":7465:7490  candidates[candidateAddr] */\n      0x00\n        /* \"contracts/VotingSystem.sol\":7476:7489  candidateAddr */\n      dup3\n        /* \"contracts/VotingSystem.sol\":7465:7490  candidates[candidateAddr] */\n      0xffffffffffffffffffffffffffffffffffffffff\n      and\n      0xffffffffffffffffffffffffffffffffffffffff\n      and\n      dup2\n      mstore\n      0x20\n      add\n      swap1\n      dup2\n      mstore\n      0x20\n      add\n      0x00\n      keccak256\n        /* \"contracts/VotingSystem.sol\":7465:7500  candidates[candidateAddr].voteCount */\n      0x02\n      add\n      sload\n        /* \"contracts/VotingSystem.sol\":7450:7500  highestVotes = candidates[candidateAddr].voteCount */\n      swap3\n      pop\n        /* \"contracts/VotingSystem.sol\":7536:7549  candidateAddr */\n      dup1\n        /* \"contracts/VotingSystem.sol\":7527:7549  winner = candidateAddr */\n      swap4\n      pop\n        /* \"contracts/VotingSystem.sol\":7367:7573  if (candidates[candidateAddr].voteCount > highestVotes) {... */\n    tag_481:\n        /* \"contracts/VotingSystem.sol\":7176:7592  if (... */\n    tag_480:\n        /* \"contracts/VotingSystem.sol\":7098:7607  {... */\n      pop\n        /* \"contracts/VotingSystem.sol\":7093:7096  j++ */\n      dup1\n      dup1\n      0x01\n      add\n      swap2\n      pop\n      pop\n        /* \"contracts/VotingSystem.sol\":7047:7607  for (uint256 j = 0; j < candidateList.length; j++) {... */\n      jump(tag_472)\n    tag_473:\n      pop\n        /* \"contracts/VotingSystem.sol\":7628:7671  VotingEnded(winner, highestVotes, areaName) */\n      0x3b281afe48905f20862f01b6e1bc6eaf6079665f84380a6022228a68c38308f0\n        /* \"contracts/VotingSystem.sol\":7640:7646  winner */\n      dup3\n        /* \"contracts/VotingSystem.sol\":7648:7660  highestVotes */\n      dup3\n        /* \"contracts/VotingSystem.sol\":7662:7670  areaName */\n      dup6\n        /* \"contracts/VotingSystem.sol\":7628:7671  VotingEnded(winner, highestVotes, areaName) */\n      mload(0x40)\n      tag_482\n      swap4\n      swap3\n      swap2\n      swap1\n      tag_483\n      jump\t// in\n    tag_482:\n      mload(0x40)\n      dup1\n      swap2\n      sub\n      swap1\n      log1\n        /* \"contracts/VotingSystem.sol\":6898:7683  {... */\n      pop\n      pop\n      pop\n        /* \"contracts/VotingSystem.sol\":6893:6896  i++ */\n      dup1\n      dup1\n      0x01\n      add\n      swap2\n      pop\n      pop\n        /* \"contracts/VotingSystem.sol\":6852:7683  for (uint256 i = 0; i < areaList.length; i++) {... */\n      jump(tag_461)\n    tag_462:\n      pop\n        /* \"contracts/VotingSystem.sol\":6725:7690  function endVoting() external onlyAdmin duringVoting {... */\n      jump\t// out\n        /* \"contracts/VotingSystem.sol\":1331:1367  mapping(string => Area) public areas */\n    tag_106:\n      0x05\n      dup2\n      dup1\n      mload\n      0x20\n      dup2\n      add\n      dup3\n      add\n      dup1\n      mload\n      dup5\n      dup3\n      mstore\n      0x20\n      dup4\n      add\n      0x20\n      dup6\n      add\n      keccak256\n      dup2\n      dup4\n      mstore\n      dup1\n      swap6\n      pop\n      pop\n      pop\n      pop\n      pop\n      pop\n      0x00\n      swap2\n      pop\n      swap1\n      pop\n      dup1\n      0x00\n      add\n      sload\n      swap1\n      dup1\n      0x01\n      add\n      sload\n      swap1\n      pop\n      dup3\n      jump\t// out\n        /* \"contracts/VotingSystem.sol\":186:206  address public admin */\n    tag_110:\n      0x00\n      dup1\n      sload\n      swap1\n      0x0100\n      exp\n      swap1\n      div\n      0xffffffffffffffffffffffffffffffffffffffff\n      and\n      dup2\n      jump\t// out\n    tag_125:\n      pop\n      dup1\n      sload\n      tag_484\n      swap1\n      tag_143\n      jump\t// in\n    tag_484:\n      0x00\n      dup3\n      sstore\n      dup1\n      0x1f\n      lt\n      tag_486\n      jumpi\n      pop\n      jump(tag_485)\n    tag_486:\n      0x1f\n      add\n      0x20\n      swap1\n      div\n      swap1\n      0x00\n      mstore\n      keccak256(0x00, 0x20)\n      swap1\n      dup2\n      add\n      swap1\n      tag_487\n      swap2\n      swap1\n      tag_488\n      jump\t// in\n    tag_487:\n    tag_485:\n      pop\n      jump\t// out\n    tag_151:\n      pop\n      dup1\n      sload\n      0x00\n      dup3\n      sstore\n      swap1\n      0x00\n      mstore\n      keccak256(0x00, 0x20)\n      swap1\n      dup2\n      add\n      swap1\n      tag_490\n      swap2\n      swap1\n      tag_488\n      jump\t// in\n    tag_490:\n      pop\n      jump\t// out\n    tag_488:\n    tag_491:\n      dup1\n      dup3\n      gt\n      iszero\n      tag_492\n      jumpi\n      0x00\n      dup2\n      0x00\n      swap1\n      sstore\n      pop\n      0x01\n      add\n      jump(tag_491)\n    tag_492:\n      pop\n      swap1\n      jump\t// out\n        /* \"#utility.yul\":7:131   */\n    tag_493:\n        /* \"#utility.yul\":84:90   */\n      0x00\n        /* \"#utility.yul\":118:123   */\n      dup2\n        /* \"#utility.yul\":112:124   */\n      mload\n        /* \"#utility.yul\":102:124   */\n      swap1\n      pop\n        /* \"#utility.yul\":7:131   */\n      swap2\n      swap1\n      pop\n      jump\t// out\n        /* \"#utility.yul\":137:331   */\n    tag_494:\n        /* \"#utility.yul\":246:257   */\n      0x00\n        /* \"#utility.yul\":280:286   */\n      dup3\n        /* \"#utility.yul\":275:278   */\n      dup3\n        /* \"#utility.yul\":268:287   */\n      mstore\n        /* \"#utility.yul\":320:324   */\n      0x20\n        /* \"#utility.yul\":315:318   */\n      dup3\n        /* \"#utility.yul\":311:325   */\n      add\n        /* \"#utility.yul\":296:325   */\n      swap1\n      pop\n        /* \"#utility.yul\":137:331   */\n      swap3\n      swap2\n      pop\n      pop\n      jump\t// out\n        /* \"#utility.yul\":337:479   */\n    tag_495:\n        /* \"#utility.yul\":414:418   */\n      0x00\n        /* \"#utility.yul\":437:440   */\n      dup2\n        /* \"#utility.yul\":429:440   */\n      swap1\n      pop\n        /* \"#utility.yul\":467:471   */\n      0x20\n        /* \"#utility.yul\":462:465   */\n      dup3\n        /* \"#utility.yul\":458:472   */\n      add\n        /* \"#utility.yul\":450:472   */\n      swap1\n      pop\n        /* \"#utility.yul\":337:479   */\n      swap2\n      swap1\n      pop\n      jump\t// out\n        /* \"#utility.yul\":485:584   */\n    tag_496:\n        /* \"#utility.yul\":537:543   */\n      0x00\n        /* \"#utility.yul\":571:576   */\n      dup2\n        /* \"#utility.yul\":565:577   */\n      mload\n        /* \"#utility.yul\":555:577   */\n      swap1\n      pop\n        /* \"#utility.yul\":485:584   */\n      swap2\n      swap1\n      pop\n      jump\t// out\n        /* \"#utility.yul\":590:749   */\n    tag_497:\n        /* \"#utility.yul\":664:675   */\n      0x00\n        /* \"#utility.yul\":698:704   */\n      dup3\n        /* \"#utility.yul\":693:696   */\n      dup3\n        /* \"#utility.yul\":686:705   */\n      mstore\n        /* \"#utility.yul\":738:742   */\n      0x20\n        /* \"#utility.yul\":733:736   */\n      dup3\n        /* \"#utility.yul\":729:743   */\n      add\n        /* \"#utility.yul\":714:743   */\n      swap1\n      pop\n        /* \"#utility.yul\":590:749   */\n      swap3\n      swap2\n      pop\n      pop\n      jump\t// out\n        /* \"#utility.yul\":755:894   */\n    tag_498:\n        /* \"#utility.yul\":844:850   */\n      dup3\n        /* \"#utility.yul\":839:842   */\n      dup2\n        /* \"#utility.yul\":834:837   */\n      dup4\n        /* \"#utility.yul\":828:851   */\n      mcopy\n        /* \"#utility.yul\":885:886   */\n      0x00\n        /* \"#utility.yul\":876:882   */\n      dup4\n        /* \"#utility.yul\":871:874   */\n      dup4\n        /* \"#utility.yul\":867:883   */\n      add\n        /* \"#utility.yul\":860:887   */\n      mstore\n        /* \"#utility.yul\":755:894   */\n      pop\n      pop\n      pop\n      jump\t// out\n        /* \"#utility.yul\":900:1002   */\n    tag_499:\n        /* \"#utility.yul\":941:947   */\n      0x00\n        /* \"#utility.yul\":992:994   */\n      0x1f\n        /* \"#utility.yul\":988:995   */\n      not\n        /* \"#utility.yul\":983:985   */\n      0x1f\n        /* \"#utility.yul\":976:981   */\n      dup4\n        /* \"#utility.yul\":972:986   */\n      add\n        /* \"#utility.yul\":968:996   */\n      and\n        /* \"#utility.yul\":958:996   */\n      swap1\n      pop\n        /* \"#utility.yul\":900:1002   */\n      swap2\n      swap1\n      pop\n      jump\t// out\n        /* \"#utility.yul\":1008:1365   */\n    tag_500:\n        /* \"#utility.yul\":1086:1089   */\n      0x00\n        /* \"#utility.yul\":1114:1153   */\n      tag_607\n        /* \"#utility.yul\":1147:1152   */\n      dup3\n        /* \"#utility.yul\":1114:1153   */\n      tag_496\n      jump\t// in\n    tag_607:\n        /* \"#utility.yul\":1169:1230   */\n      tag_608\n        /* \"#utility.yul\":1223:1229   */\n      dup2\n        /* \"#utility.yul\":1218:1221   */\n      dup6\n        /* \"#utility.yul\":1169:1230   */\n      tag_497\n      jump\t// in\n    tag_608:\n        /* \"#utility.yul\":1162:1230   */\n      swap4\n      pop\n        /* \"#utility.yul\":1239:1304   */\n      tag_609\n        /* \"#utility.yul\":1297:1303   */\n      dup2\n        /* \"#utility.yul\":1292:1295   */\n      dup6\n        /* \"#utility.yul\":1285:1289   */\n      0x20\n        /* \"#utility.yul\":1278:1283   */\n      dup7\n        /* \"#utility.yul\":1274:1290   */\n      add\n        /* \"#utility.yul\":1239:1304   */\n      tag_498\n      jump\t// in\n    tag_609:\n        /* \"#utility.yul\":1329:1358   */\n      tag_610\n        /* \"#utility.yul\":1351:1357   */\n      dup2\n        /* \"#utility.yul\":1329:1358   */\n      tag_499\n      jump\t// in\n    tag_610:\n        /* \"#utility.yul\":1324:1327   */\n      dup5\n        /* \"#utility.yul\":1320:1359   */\n      add\n        /* \"#utility.yul\":1313:1359   */\n      swap2\n      pop\n        /* \"#utility.yul\":1090:1365   */\n      pop\n        /* \"#utility.yul\":1008:1365   */\n      swap3\n      swap2\n      pop\n      pop\n      jump\t// out\n        /* \"#utility.yul\":1371:1567   */\n    tag_501:\n        /* \"#utility.yul\":1460:1470   */\n      0x00\n        /* \"#utility.yul\":1495:1561   */\n      tag_612\n        /* \"#utility.yul\":1557:1560   */\n      dup4\n        /* \"#utility.yul\":1549:1555   */\n      dup4\n        /* \"#utility.yul\":1495:1561   */\n      tag_500\n      jump\t// in\n    tag_612:\n        /* \"#utility.yul\":1481:1561   */\n      swap1\n      pop\n        /* \"#utility.yul\":1371:1567   */\n      swap3\n      swap2\n      pop\n      pop\n      jump\t// out\n        /* \"#utility.yul\":1573:1696   */\n    tag_502:\n        /* \"#utility.yul\":1653:1657   */\n      0x00\n        /* \"#utility.yul\":1685:1689   */\n      0x20\n        /* \"#utility.yul\":1680:1683   */\n      dup3\n        /* \"#utility.yul\":1676:1690   */\n      add\n        /* \"#utility.yul\":1668:1690   */\n      swap1\n      pop\n        /* \"#utility.yul\":1573:1696   */\n      swap2\n      swap1\n      pop\n      jump\t// out\n        /* \"#utility.yul\":1730:2721   */\n    tag_503:\n        /* \"#utility.yul\":1869:1872   */\n      0x00\n        /* \"#utility.yul\":1898:1962   */\n      tag_615\n        /* \"#utility.yul\":1956:1961   */\n      dup3\n        /* \"#utility.yul\":1898:1962   */\n      tag_493\n      jump\t// in\n    tag_615:\n        /* \"#utility.yul\":1978:2074   */\n      tag_616\n        /* \"#utility.yul\":2067:2073   */\n      dup2\n        /* \"#utility.yul\":2062:2065   */\n      dup6\n        /* \"#utility.yul\":1978:2074   */\n      tag_494\n      jump\t// in\n    tag_616:\n        /* \"#utility.yul\":1971:2074   */\n      swap4\n      pop\n        /* \"#utility.yul\":2100:2103   */\n      dup4\n        /* \"#utility.yul\":2145:2149   */\n      0x20\n        /* \"#utility.yul\":2137:2143   */\n      dup3\n        /* \"#utility.yul\":2133:2150   */\n      mul\n        /* \"#utility.yul\":2128:2131   */\n      dup6\n        /* \"#utility.yul\":2124:2151   */\n      add\n        /* \"#utility.yul\":2175:2241   */\n      tag_617\n        /* \"#utility.yul\":2235:2240   */\n      dup6\n        /* \"#utility.yul\":2175:2241   */\n      tag_495\n      jump\t// in\n    tag_617:\n        /* \"#utility.yul\":2264:2271   */\n      dup1\n        /* \"#utility.yul\":2295:2296   */\n      0x00\n        /* \"#utility.yul\":2280:2676   */\n    tag_618:\n        /* \"#utility.yul\":2305:2311   */\n      dup6\n        /* \"#utility.yul\":2302:2303   */\n      dup2\n        /* \"#utility.yul\":2299:2312   */\n      lt\n        /* \"#utility.yul\":2280:2676   */\n      iszero\n      tag_620\n      jumpi\n        /* \"#utility.yul\":2376:2385   */\n      dup5\n        /* \"#utility.yul\":2370:2374   */\n      dup5\n        /* \"#utility.yul\":2366:2386   */\n      sub\n        /* \"#utility.yul\":2361:2364   */\n      dup10\n        /* \"#utility.yul\":2354:2387   */\n      mstore\n        /* \"#utility.yul\":2427:2433   */\n      dup2\n        /* \"#utility.yul\":2421:2434   */\n      mload\n        /* \"#utility.yul\":2455:2539   */\n      tag_621\n        /* \"#utility.yul\":2534:2538   */\n      dup6\n        /* \"#utility.yul\":2519:2532   */\n      dup3\n        /* \"#utility.yul\":2455:2539   */\n      tag_501\n      jump\t// in\n    tag_621:\n        /* \"#utility.yul\":2447:2539   */\n      swap5\n      pop\n        /* \"#utility.yul\":2562:2632   */\n      tag_622\n        /* \"#utility.yul\":2625:2631   */\n      dup4\n        /* \"#utility.yul\":2562:2632   */\n      tag_502\n      jump\t// in\n    tag_622:\n        /* \"#utility.yul\":2552:2632   */\n      swap3\n      pop\n        /* \"#utility.yul\":2661:2665   */\n      0x20\n        /* \"#utility.yul\":2656:2659   */\n      dup11\n        /* \"#utility.yul\":2652:2666   */\n      add\n        /* \"#utility.yul\":2645:2666   */\n      swap10\n      pop\n        /* \"#utility.yul\":2340:2676   */\n      pop\n        /* \"#utility.yul\":2327:2328   */\n      0x01\n        /* \"#utility.yul\":2324:2325   */\n      dup2\n        /* \"#utility.yul\":2320:2329   */\n      add\n        /* \"#utility.yul\":2315:2329   */\n      swap1\n      pop\n        /* \"#utility.yul\":2280:2676   */\n      jump(tag_618)\n    tag_620:\n        /* \"#utility.yul\":2284:2298   */\n      pop\n        /* \"#utility.yul\":2692:2696   */\n      dup3\n        /* \"#utility.yul\":2685:2696   */\n      swap8\n      pop\n        /* \"#utility.yul\":2712:2715   */\n      dup8\n        /* \"#utility.yul\":2705:2715   */\n      swap6\n      pop\n        /* \"#utility.yul\":1874:2721   */\n      pop\n      pop\n      pop\n      pop\n      pop\n        /* \"#utility.yul\":1730:2721   */\n      swap3\n      swap2\n      pop\n      pop\n      jump\t// out\n        /* \"#utility.yul\":2727:3140   */\n    tag_32:\n        /* \"#utility.yul\":2890:2894   */\n      0x00\n        /* \"#utility.yul\":2928:2930   */\n      0x20\n        /* \"#utility.yul\":2917:2926   */\n      dup3\n        /* \"#utility.yul\":2913:2931   */\n      add\n        /* \"#utility.yul\":2905:2931   */\n      swap1\n      pop\n        /* \"#utility.yul\":2977:2986   */\n      dup2\n        /* \"#utility.yul\":2971:2975   */\n      dup2\n        /* \"#utility.yul\":2967:2987   */\n      sub\n        /* \"#utility.yul\":2963:2964   */\n      0x00\n        /* \"#utility.yul\":2952:2961   */\n      dup4\n        /* \"#utility.yul\":2948:2965   */\n      add\n        /* \"#utility.yul\":2941:2988   */\n      mstore\n        /* \"#utility.yul\":3005:3133   */\n      tag_624\n        /* \"#utility.yul\":3128:3132   */\n      dup2\n        /* \"#utility.yul\":3119:3125   */\n      dup5\n        /* \"#utility.yul\":3005:3133   */\n      tag_503\n      jump\t// in\n    tag_624:\n        /* \"#utility.yul\":2997:3133   */\n      swap1\n      pop\n        /* \"#utility.yul\":2727:3140   */\n      swap3\n      swap2\n      pop\n      pop\n      jump\t// out\n        /* \"#utility.yul\":3146:3221   */\n    tag_504:\n        /* \"#utility.yul\":3179:3185   */\n      0x00\n        /* \"#utility.yul\":3212:3214   */\n      0x40\n        /* \"#utility.yul\":3206:3215   */\n      mload\n        /* \"#utility.yul\":3196:3215   */\n      swap1\n      pop\n        /* \"#utility.yul\":3146:3221   */\n      swap1\n      jump\t// out\n        /* \"#utility.yul\":3227:3344   */\n    tag_505:\n        /* \"#utility.yul\":3336:3337   */\n      0x00\n        /* \"#utility.yul\":3333:3334   */\n      dup1\n        /* \"#utility.yul\":3326:3338   */\n      revert\n        /* \"#utility.yul\":3350:3467   */\n    tag_506:\n        /* \"#utility.yul\":3459:3460   */\n      0x00\n        /* \"#utility.yul\":3456:3457   */\n      dup1\n        /* \"#utility.yul\":3449:3461   */\n      revert\n        /* \"#utility.yul\":3473:3599   */\n    tag_507:\n        /* \"#utility.yul\":3510:3517   */\n      0x00\n        /* \"#utility.yul\":3550:3592   */\n      0xffffffffffffffffffffffffffffffffffffffff\n        /* \"#utility.yul\":3543:3548   */\n      dup3\n        /* \"#utility.yul\":3539:3593   */\n      and\n        /* \"#utility.yul\":3528:3593   */\n      swap1\n      pop\n        /* \"#utility.yul\":3473:3599   */\n      swap2\n      swap1\n      pop\n      jump\t// out\n        /* \"#utility.yul\":3605:3701   */\n    tag_508:\n        /* \"#utility.yul\":3642:3649   */\n      0x00\n        /* \"#utility.yul\":3671:3695   */\n      tag_630\n        /* \"#utility.yul\":3689:3694   */\n      dup3\n        /* \"#utility.yul\":3671:3695   */\n      tag_507\n      jump\t// in\n    tag_630:\n        /* \"#utility.yul\":3660:3695   */\n      swap1\n      pop\n        /* \"#utility.yul\":3605:3701   */\n      swap2\n      swap1\n      pop\n      jump\t// out\n        /* \"#utility.yul\":3707:3829   */\n    tag_509:\n        /* \"#utility.yul\":3780:3804   */\n      tag_632\n        /* \"#utility.yul\":3798:3803   */\n      dup2\n        /* \"#utility.yul\":3780:3804   */\n      tag_508\n      jump\t// in\n    tag_632:\n        /* \"#utility.yul\":3773:3778   */\n      dup2\n        /* \"#utility.yul\":3770:3805   */\n      eq\n        /* \"#utility.yul\":3760:3823   */\n      tag_633\n      jumpi\n        /* \"#utility.yul\":3819:3820   */\n      0x00\n        /* \"#utility.yul\":3816:3817   */\n      dup1\n        /* \"#utility.yul\":3809:3821   */\n      revert\n        /* \"#utility.yul\":3760:3823   */\n    tag_633:\n        /* \"#utility.yul\":3707:3829   */\n      pop\n      jump\t// out\n        /* \"#utility.yul\":3835:3974   */\n    tag_510:\n        /* \"#utility.yul\":3881:3886   */\n      0x00\n        /* \"#utility.yul\":3919:3925   */\n      dup2\n        /* \"#utility.yul\":3906:3926   */\n      calldataload\n        /* \"#utility.yul\":3897:3926   */\n      swap1\n      pop\n        /* \"#utility.yul\":3935:3968   */\n      tag_635\n        /* \"#utility.yul\":3962:3967   */\n      dup2\n        /* \"#utility.yul\":3935:3968   */\n      tag_509\n      jump\t// in\n    tag_635:\n        /* \"#utility.yul\":3835:3974   */\n      swap3\n      swap2\n      pop\n      pop\n      jump\t// out\n        /* \"#utility.yul\":3980:4097   */\n    tag_511:\n        /* \"#utility.yul\":4089:4090   */\n      0x00\n        /* \"#utility.yul\":4086:4087   */\n      dup1\n        /* \"#utility.yul\":4079:4091   */\n      revert\n        /* \"#utility.yul\":4103:4220   */\n    tag_512:\n        /* \"#utility.yul\":4212:4213   */\n      0x00\n        /* \"#utility.yul\":4209:4210   */\n      dup1\n        /* \"#utility.yul\":4202:4214   */\n      revert\n        /* \"#utility.yul\":4226:4406   */\n    tag_156:\n        /* \"#utility.yul\":4274:4351   */\n      0x4e487b7100000000000000000000000000000000000000000000000000000000\n        /* \"#utility.yul\":4271:4272   */\n      0x00\n        /* \"#utility.yul\":4264:4352   */\n      mstore\n        /* \"#utility.yul\":4371:4375   */\n      0x41\n        /* \"#utility.yul\":4368:4369   */\n      0x04\n        /* \"#utility.yul\":4361:4376   */\n      mstore\n        /* \"#utility.yul\":4395:4399   */\n      0x24\n        /* \"#utility.yul\":4392:4393   */\n      0x00\n        /* \"#utility.yul\":4385:4400   */\n      revert\n        /* \"#utility.yul\":4412:4693   */\n    tag_513:\n        /* \"#utility.yul\":4495:4522   */\n      tag_640\n        /* \"#utility.yul\":4517:4521   */\n      dup3\n        /* \"#utility.yul\":4495:4522   */\n      tag_499\n      jump\t// in\n    tag_640:\n        /* \"#utility.yul\":4487:4493   */\n      dup2\n        /* \"#utility.yul\":4483:4523   */\n      add\n        /* \"#utility.yul\":4625:4631   */\n      dup2\n        /* \"#utility.yul\":4613:4623   */\n      dup2\n        /* \"#utility.yul\":4610:4632   */\n      lt\n        /* \"#utility.yul\":4589:4607   */\n      0xffffffffffffffff\n        /* \"#utility.yul\":4577:4587   */\n      dup3\n        /* \"#utility.yul\":4574:4608   */\n      gt\n        /* \"#utility.yul\":4571:4633   */\n      or\n        /* \"#utility.yul\":4568:4656   */\n      iszero\n      tag_641\n      jumpi\n        /* \"#utility.yul\":4636:4654   */\n      tag_642\n      tag_156\n      jump\t// in\n    tag_642:\n        /* \"#utility.yul\":4568:4656   */\n    tag_641:\n        /* \"#utility.yul\":4676:4686   */\n      dup1\n        /* \"#utility.yul\":4672:4674   */\n      0x40\n        /* \"#utility.yul\":4665:4687   */\n      mstore\n        /* \"#utility.yul\":4455:4693   */\n      pop\n        /* \"#utility.yul\":4412:4693   */\n      pop\n      pop\n      jump\t// out\n        /* \"#utility.yul\":4699:4828   */\n    tag_514:\n        /* \"#utility.yul\":4733:4739   */\n      0x00\n        /* \"#utility.yul\":4760:4780   */\n      tag_644\n      tag_504\n      jump\t// in\n    tag_644:\n        /* \"#utility.yul\":4750:4780   */\n      swap1\n      pop\n        /* \"#utility.yul\":4789:4822   */\n      tag_645\n        /* \"#utility.yul\":4817:4821   */\n      dup3\n        /* \"#utility.yul\":4809:4815   */\n      dup3\n        /* \"#utility.yul\":4789:4822   */\n      tag_513\n      jump\t// in\n    tag_645:\n        /* \"#utility.yul\":4699:4828   */\n      swap2\n      swap1\n      pop\n      jump\t// out\n        /* \"#utility.yul\":4834:5142   */\n    tag_515:\n        /* \"#utility.yul\":4896:4900   */\n      0x00\n        /* \"#utility.yul\":4986:5004   */\n      0xffffffffffffffff\n        /* \"#utility.yul\":4978:4984   */\n      dup3\n        /* \"#utility.yul\":4975:5005   */\n      gt\n        /* \"#utility.yul\":4972:5028   */\n      iszero\n      tag_647\n      jumpi\n        /* \"#utility.yul\":5008:5026   */\n      tag_648\n      tag_156\n      jump\t// in\n    tag_648:\n        /* \"#utility.yul\":4972:5028   */\n    tag_647:\n        /* \"#utility.yul\":5046:5075   */\n      tag_649\n        /* \"#utility.yul\":5068:5074   */\n      dup3\n        /* \"#utility.yul\":5046:5075   */\n      tag_499\n      jump\t// in\n    tag_649:\n        /* \"#utility.yul\":5038:5075   */\n      swap1\n      pop\n        /* \"#utility.yul\":5130:5134   */\n      0x20\n        /* \"#utility.yul\":5124:5128   */\n      dup2\n        /* \"#utility.yul\":5120:5135   */\n      add\n        /* \"#utility.yul\":5112:5135   */\n      swap1\n      pop\n        /* \"#utility.yul\":4834:5142   */\n      swap2\n      swap1\n      pop\n      jump\t// out\n        /* \"#utility.yul\":5148:5296   */\n    tag_516:\n        /* \"#utility.yul\":5246:5252   */\n      dup3\n        /* \"#utility.yul\":5241:5244   */\n      dup2\n        /* \"#utility.yul\":5236:5239   */\n      dup4\n        /* \"#utility.yul\":5223:5253   */\n      calldatacopy\n        /* \"#utility.yul\":5287:5288   */\n      0x00\n        /* \"#utility.yul\":5278:5284   */\n      dup4\n        /* \"#utility.yul\":5273:5276   */\n      dup4\n        /* \"#utility.yul\":5269:5285   */\n      add\n        /* \"#utility.yul\":5262:5289   */\n      mstore\n        /* \"#utility.yul\":5148:5296   */\n      pop\n      pop\n      pop\n      jump\t// out\n        /* \"#utility.yul\":5302:5727   */\n    tag_517:\n        /* \"#utility.yul\":5380:5385   */\n      0x00\n        /* \"#utility.yul\":5405:5471   */\n      tag_652\n        /* \"#utility.yul\":5421:5470   */\n      tag_653\n        /* \"#utility.yul\":5463:5469   */\n      dup5\n        /* \"#utility.yul\":5421:5470   */\n      tag_515\n      jump\t// in\n    tag_653:\n        /* \"#utility.yul\":5405:5471   */\n      tag_514\n      jump\t// in\n    tag_652:\n        /* \"#utility.yul\":5396:5471   */\n      swap1\n      pop\n        /* \"#utility.yul\":5494:5500   */\n      dup3\n        /* \"#utility.yul\":5487:5492   */\n      dup2\n        /* \"#utility.yul\":5480:5501   */\n      mstore\n        /* \"#utility.yul\":5532:5536   */\n      0x20\n        /* \"#utility.yul\":5525:5530   */\n      dup2\n        /* \"#utility.yul\":5521:5537   */\n      add\n        /* \"#utility.yul\":5570:5573   */\n      dup5\n        /* \"#utility.yul\":5561:5567   */\n      dup5\n        /* \"#utility.yul\":5556:5559   */\n      dup5\n        /* \"#utility.yul\":5552:5568   */\n      add\n        /* \"#utility.yul\":5549:5574   */\n      gt\n        /* \"#utility.yul\":5546:5658   */\n      iszero\n      tag_654\n      jumpi\n        /* \"#utility.yul\":5577:5656   */\n      tag_655\n      tag_512\n      jump\t// in\n    tag_655:\n        /* \"#utility.yul\":5546:5658   */\n    tag_654:\n        /* \"#utility.yul\":5667:5721   */\n      tag_656\n        /* \"#utility.yul\":5714:5720   */\n      dup5\n        /* \"#utility.yul\":5709:5712   */\n      dup3\n        /* \"#utility.yul\":5704:5707   */\n      dup6\n        /* \"#utility.yul\":5667:5721   */\n      tag_516\n      jump\t// in\n    tag_656:\n        /* \"#utility.yul\":5386:5727   */\n      pop\n        /* \"#utility.yul\":5302:5727   */\n      swap4\n      swap3\n      pop\n      pop\n      pop\n      jump\t// out\n        /* \"#utility.yul\":5747:6087   */\n    tag_518:\n        /* \"#utility.yul\":5803:5808   */\n      0x00\n        /* \"#utility.yul\":5852:5855   */\n      dup3\n        /* \"#utility.yul\":5845:5849   */\n      0x1f\n        /* \"#utility.yul\":5837:5843   */\n      dup4\n        /* \"#utility.yul\":5833:5850   */\n      add\n        /* \"#utility.yul\":5829:5856   */\n      slt\n        /* \"#utility.yul\":5819:5941   */\n      tag_658\n      jumpi\n        /* \"#utility.yul\":5860:5939   */\n      tag_659\n      tag_511\n      jump\t// in\n    tag_659:\n        /* \"#utility.yul\":5819:5941   */\n    tag_658:\n        /* \"#utility.yul\":5977:5983   */\n      dup2\n        /* \"#utility.yul\":5964:5984   */\n      calldataload\n        /* \"#utility.yul\":6002:6081   */\n      tag_660\n        /* \"#utility.yul\":6077:6080   */\n      dup5\n        /* \"#utility.yul\":6069:6075   */\n      dup3\n        /* \"#utility.yul\":6062:6066   */\n      0x20\n        /* \"#utility.yul\":6054:6060   */\n      dup7\n        /* \"#utility.yul\":6050:6067   */\n      add\n        /* \"#utility.yul\":6002:6081   */\n      tag_517\n      jump\t// in\n    tag_660:\n        /* \"#utility.yul\":5993:6081   */\n      swap2\n      pop\n        /* \"#utility.yul\":5809:6087   */\n      pop\n        /* \"#utility.yul\":5747:6087   */\n      swap3\n      swap2\n      pop\n      pop\n      jump\t// out\n        /* \"#utility.yul\":6093:7398   */\n    tag_37:\n        /* \"#utility.yul\":6209:6215   */\n      0x00\n        /* \"#utility.yul\":6217:6223   */\n      dup1\n        /* \"#utility.yul\":6225:6231   */\n      0x00\n        /* \"#utility.yul\":6233:6239   */\n      dup1\n        /* \"#utility.yul\":6282:6285   */\n      0x80\n        /* \"#utility.yul\":6270:6279   */\n      dup6\n        /* \"#utility.yul\":6261:6268   */\n      dup8\n        /* \"#utility.yul\":6257:6280   */\n      sub\n        /* \"#utility.yul\":6253:6286   */\n      slt\n        /* \"#utility.yul\":6250:6370   */\n      iszero\n      tag_662\n      jumpi\n        /* \"#utility.yul\":6289:6368   */\n      tag_663\n      tag_505\n      jump\t// in\n    tag_663:\n        /* \"#utility.yul\":6250:6370   */\n    tag_662:\n        /* \"#utility.yul\":6409:6410   */\n      0x00\n        /* \"#utility.yul\":6434:6487   */\n      tag_664\n        /* \"#utility.yul\":6479:6486   */\n      dup8\n        /* \"#utility.yul\":6470:6476   */\n      dup3\n        /* \"#utility.yul\":6459:6468   */\n      dup9\n        /* \"#utility.yul\":6455:6477   */\n      add\n        /* \"#utility.yul\":6434:6487   */\n      tag_510\n      jump\t// in\n    tag_664:\n        /* \"#utility.yul\":6424:6487   */\n      swap5\n      pop\n        /* \"#utility.yul\":6380:6497   */\n      pop\n        /* \"#utility.yul\":6564:6566   */\n      0x20\n        /* \"#utility.yul\":6553:6562   */\n      dup6\n        /* \"#utility.yul\":6549:6567   */\n      add\n        /* \"#utility.yul\":6536:6568   */\n      calldataload\n        /* \"#utility.yul\":6595:6613   */\n      0xffffffffffffffff\n        /* \"#utility.yul\":6587:6593   */\n      dup2\n        /* \"#utility.yul\":6584:6614   */\n      gt\n        /* \"#utility.yul\":6581:6698   */\n      iszero\n      tag_665\n      jumpi\n        /* \"#utility.yul\":6617:6696   */\n      tag_666\n      tag_506\n      jump\t// in\n    tag_666:\n        /* \"#utility.yul\":6581:6698   */\n    tag_665:\n        /* \"#utility.yul\":6722:6785   */\n      tag_667\n        /* \"#utility.yul\":6777:6784   */\n      dup8\n        /* \"#utility.yul\":6768:6774   */\n      dup3\n        /* \"#utility.yul\":6757:6766   */\n      dup9\n        /* \"#utility.yul\":6753:6775   */\n      add\n        /* \"#utility.yul\":6722:6785   */\n      tag_518\n      jump\t// in\n    tag_667:\n        /* \"#utility.yul\":6712:6785   */\n      swap4\n      pop\n        /* \"#utility.yul\":6507:6795   */\n      pop\n        /* \"#utility.yul\":6862:6864   */\n      0x40\n        /* \"#utility.yul\":6851:6860   */\n      dup6\n        /* \"#utility.yul\":6847:6865   */\n      add\n        /* \"#utility.yul\":6834:6866   */\n      calldataload\n        /* \"#utility.yul\":6893:6911   */\n      0xffffffffffffffff\n        /* \"#utility.yul\":6885:6891   */\n      dup2\n        /* \"#utility.yul\":6882:6912   */\n      gt\n        /* \"#utility.yul\":6879:6996   */\n      iszero\n      tag_668\n      jumpi\n        /* \"#utility.yul\":6915:6994   */\n      tag_669\n      tag_506\n      jump\t// in\n    tag_669:\n        /* \"#utility.yul\":6879:6996   */\n    tag_668:\n        /* \"#utility.yul\":7020:7083   */\n      tag_670\n        /* \"#utility.yul\":7075:7082   */\n      dup8\n        /* \"#utility.yul\":7066:7072   */\n      dup3\n        /* \"#utility.yul\":7055:7064   */\n      dup9\n        /* \"#utility.yul\":7051:7073   */\n      add\n        /* \"#utility.yul\":7020:7083   */\n      tag_518\n      jump\t// in\n    tag_670:\n        /* \"#utility.yul\":7010:7083   */\n      swap3\n      pop\n        /* \"#utility.yul\":6805:7093   */\n      pop\n        /* \"#utility.yul\":7160:7162   */\n      0x60\n        /* \"#utility.yul\":7149:7158   */\n      dup6\n        /* \"#utility.yul\":7145:7163   */\n      add\n        /* \"#utility.yul\":7132:7164   */\n      calldataload\n        /* \"#utility.yul\":7191:7209   */\n      0xffffffffffffffff\n        /* \"#utility.yul\":7183:7189   */\n      dup2\n        /* \"#utility.yul\":7180:7210   */\n      gt\n        /* \"#utility.yul\":7177:7294   */\n      iszero\n      tag_671\n      jumpi\n        /* \"#utility.yul\":7213:7292   */\n      tag_672\n      tag_506\n      jump\t// in\n    tag_672:\n        /* \"#utility.yul\":7177:7294   */\n    tag_671:\n        /* \"#utility.yul\":7318:7381   */\n      tag_673\n        /* \"#utility.yul\":7373:7380   */\n      dup8\n        /* \"#utility.yul\":7364:7370   */\n      dup3\n        /* \"#utility.yul\":7353:7362   */\n      dup9\n        /* \"#utility.yul\":7349:7371   */\n      add\n        /* \"#utility.yul\":7318:7381   */\n      tag_518\n      jump\t// in\n    tag_673:\n        /* \"#utility.yul\":7308:7381   */\n      swap2\n      pop\n        /* \"#utility.yul\":7103:7391   */\n      pop\n        /* \"#utility.yul\":6093:7398   */\n      swap3\n      swap6\n      swap2\n      swap5\n      pop\n      swap3\n      pop\n      jump\t// out\n        /* \"#utility.yul\":7404:7481   */\n    tag_519:\n        /* \"#utility.yul\":7441:7448   */\n      0x00\n        /* \"#utility.yul\":7470:7475   */\n      dup2\n        /* \"#utility.yul\":7459:7475   */\n      swap1\n      pop\n        /* \"#utility.yul\":7404:7481   */\n      swap2\n      swap1\n      pop\n      jump\t// out\n        /* \"#utility.yul\":7487:7609   */\n    tag_520:\n        /* \"#utility.yul\":7560:7584   */\n      tag_676\n        /* \"#utility.yul\":7578:7583   */\n      dup2\n        /* \"#utility.yul\":7560:7584   */\n      tag_519\n      jump\t// in\n    tag_676:\n        /* \"#utility.yul\":7553:7558   */\n      dup2\n        /* \"#utility.yul\":7550:7585   */\n      eq\n        /* \"#utility.yul\":7540:7603   */\n      tag_677\n      jumpi\n        /* \"#utility.yul\":7599:7600   */\n      0x00\n        /* \"#utility.yul\":7596:7597   */\n      dup1\n        /* \"#utility.yul\":7589:7601   */\n      revert\n        /* \"#utility.yul\":7540:7603   */\n    tag_677:\n        /* \"#utility.yul\":7487:7609   */\n      pop\n      jump\t// out\n        /* \"#utility.yul\":7615:7754   */\n    tag_521:\n        /* \"#utility.yul\":7661:7666   */\n      0x00\n        /* \"#utility.yul\":7699:7705   */\n      dup2\n        /* \"#utility.yul\":7686:7706   */\n      calldataload\n        /* \"#utility.yul\":7677:7706   */\n      swap1\n      pop\n        /* \"#utility.yul\":7715:7748   */\n      tag_679\n        /* \"#utility.yul\":7742:7747   */\n      dup2\n        /* \"#utility.yul\":7715:7748   */\n      tag_520\n      jump\t// in\n    tag_679:\n        /* \"#utility.yul\":7615:7754   */\n      swap3\n      swap2\n      pop\n      pop\n      jump\t// out\n        /* \"#utility.yul\":7760:8089   */\n    tag_44:\n        /* \"#utility.yul\":7819:7825   */\n      0x00\n        /* \"#utility.yul\":7868:7870   */\n      0x20\n        /* \"#utility.yul\":7856:7865   */\n      dup3\n        /* \"#utility.yul\":7847:7854   */\n      dup5\n        /* \"#utility.yul\":7843:7866   */\n      sub\n        /* \"#utility.yul\":7839:7871   */\n      slt\n        /* \"#utility.yul\":7836:7955   */\n      iszero\n      tag_681\n      jumpi\n        /* \"#utility.yul\":7874:7953   */\n      tag_682\n      tag_505\n      jump\t// in\n    tag_682:\n        /* \"#utility.yul\":7836:7955   */\n    tag_681:\n        /* \"#utility.yul\":7994:7995   */\n      0x00\n        /* \"#utility.yul\":8019:8072   */\n      tag_683\n        /* \"#utility.yul\":8064:8071   */\n      dup5\n        /* \"#utility.yul\":8055:8061   */\n      dup3\n        /* \"#utility.yul\":8044:8053   */\n      dup6\n        /* \"#utility.yul\":8040:8062   */\n      add\n        /* \"#utility.yul\":8019:8072   */\n      tag_521\n      jump\t// in\n    tag_683:\n        /* \"#utility.yul\":8009:8072   */\n      swap2\n      pop\n        /* \"#utility.yul\":7965:8082   */\n      pop\n        /* \"#utility.yul\":7760:8089   */\n      swap3\n      swap2\n      pop\n      pop\n      jump\t// out\n        /* \"#utility.yul\":8095:8264   */\n    tag_522:\n        /* \"#utility.yul\":8179:8190   */\n      0x00\n        /* \"#utility.yul\":8213:8219   */\n      dup3\n        /* \"#utility.yul\":8208:8211   */\n      dup3\n        /* \"#utility.yul\":8201:8220   */\n      mstore\n        /* \"#utility.yul\":8253:8257   */\n      0x20\n        /* \"#utility.yul\":8248:8251   */\n      dup3\n        /* \"#utility.yul\":8244:8258   */\n      add\n        /* \"#utility.yul\":8229:8258   */\n      swap1\n      pop\n        /* \"#utility.yul\":8095:8264   */\n      swap3\n      swap2\n      pop\n      pop\n      jump\t// out\n        /* \"#utility.yul\":8270:8647   */\n    tag_523:\n        /* \"#utility.yul\":8358:8361   */\n      0x00\n        /* \"#utility.yul\":8386:8425   */\n      tag_686\n        /* \"#utility.yul\":8419:8424   */\n      dup3\n        /* \"#utility.yul\":8386:8425   */\n      tag_496\n      jump\t// in\n    tag_686:\n        /* \"#utility.yul\":8441:8512   */\n      tag_687\n        /* \"#utility.yul\":8505:8511   */\n      dup2\n        /* \"#utility.yul\":8500:8503   */\n      dup6\n        /* \"#utility.yul\":8441:8512   */\n      tag_522\n      jump\t// in\n    tag_687:\n        /* \"#utility.yul\":8434:8512   */\n      swap4\n      pop\n        /* \"#utility.yul\":8521:8586   */\n      tag_688\n        /* \"#utility.yul\":8579:8585   */\n      dup2\n        /* \"#utility.yul\":8574:8577   */\n      dup6\n        /* \"#utility.yul\":8567:8571   */\n      0x20\n        /* \"#utility.yul\":8560:8565   */\n      dup7\n        /* \"#utility.yul\":8556:8572   */\n      add\n        /* \"#utility.yul\":8521:8586   */\n      tag_498\n      jump\t// in\n    tag_688:\n        /* \"#utility.yul\":8611:8640   */\n      tag_689\n        /* \"#utility.yul\":8633:8639   */\n      dup2\n        /* \"#utility.yul\":8611:8640   */\n      tag_499\n      jump\t// in\n    tag_689:\n        /* \"#utility.yul\":8606:8609   */\n      dup5\n        /* \"#utility.yul\":8602:8641   */\n      add\n        /* \"#utility.yul\":8595:8641   */\n      swap2\n      pop\n        /* \"#utility.yul\":8362:8647   */\n      pop\n        /* \"#utility.yul\":8270:8647   */\n      swap3\n      swap2\n      pop\n      pop\n      jump\t// out\n        /* \"#utility.yul\":8653:8966   */\n    tag_47:\n        /* \"#utility.yul\":8766:8770   */\n      0x00\n        /* \"#utility.yul\":8804:8806   */\n      0x20\n        /* \"#utility.yul\":8793:8802   */\n      dup3\n        /* \"#utility.yul\":8789:8807   */\n      add\n        /* \"#utility.yul\":8781:8807   */\n      swap1\n      pop\n        /* \"#utility.yul\":8853:8862   */\n      dup2\n        /* \"#utility.yul\":8847:8851   */\n      dup2\n        /* \"#utility.yul\":8843:8863   */\n      sub\n        /* \"#utility.yul\":8839:8840   */\n      0x00\n        /* \"#utility.yul\":8828:8837   */\n      dup4\n        /* \"#utility.yul\":8824:8841   */\n      add\n        /* \"#utility.yul\":8817:8864   */\n      mstore\n        /* \"#utility.yul\":8881:8959   */\n      tag_691\n        /* \"#utility.yul\":8954:8958   */\n      dup2\n        /* \"#utility.yul\":8945:8951   */\n      dup5\n        /* \"#utility.yul\":8881:8959   */\n      tag_523\n      jump\t// in\n    tag_691:\n        /* \"#utility.yul\":8873:8959   */\n      swap1\n      pop\n        /* \"#utility.yul\":8653:8966   */\n      swap3\n      swap2\n      pop\n      pop\n      jump\t// out\n        /* \"#utility.yul\":8972:9481   */\n    tag_50:\n        /* \"#utility.yul\":9041:9047   */\n      0x00\n        /* \"#utility.yul\":9090:9092   */\n      0x20\n        /* \"#utility.yul\":9078:9087   */\n      dup3\n        /* \"#utility.yul\":9069:9076   */\n      dup5\n        /* \"#utility.yul\":9065:9088   */\n      sub\n        /* \"#utility.yul\":9061:9093   */\n      slt\n        /* \"#utility.yul\":9058:9177   */\n      iszero\n      tag_693\n      jumpi\n        /* \"#utility.yul\":9096:9175   */\n      tag_694\n      tag_505\n      jump\t// in\n    tag_694:\n        /* \"#utility.yul\":9058:9177   */\n    tag_693:\n        /* \"#utility.yul\":9244:9245   */\n      0x00\n        /* \"#utility.yul\":9233:9242   */\n      dup3\n        /* \"#utility.yul\":9229:9246   */\n      add\n        /* \"#utility.yul\":9216:9247   */\n      calldataload\n        /* \"#utility.yul\":9274:9292   */\n      0xffffffffffffffff\n        /* \"#utility.yul\":9266:9272   */\n      dup2\n        /* \"#utility.yul\":9263:9293   */\n      gt\n        /* \"#utility.yul\":9260:9377   */\n      iszero\n      tag_695\n      jumpi\n        /* \"#utility.yul\":9296:9375   */\n      tag_696\n      tag_506\n      jump\t// in\n    tag_696:\n        /* \"#utility.yul\":9260:9377   */\n    tag_695:\n        /* \"#utility.yul\":9401:9464   */\n      tag_697\n        /* \"#utility.yul\":9456:9463   */\n      dup5\n        /* \"#utility.yul\":9447:9453   */\n      dup3\n        /* \"#utility.yul\":9436:9445   */\n      dup6\n        /* \"#utility.yul\":9432:9454   */\n      add\n        /* \"#utility.yul\":9401:9464   */\n      tag_518\n      jump\t// in\n    tag_697:\n        /* \"#utility.yul\":9391:9464   */\n      swap2\n      pop\n        /* \"#utility.yul\":9187:9474   */\n      pop\n        /* \"#utility.yul\":8972:9481   */\n      swap3\n      swap2\n      pop\n      pop\n      jump\t// out\n        /* \"#utility.yul\":9487:9605   */\n    tag_524:\n        /* \"#utility.yul\":9574:9598   */\n      tag_699\n        /* \"#utility.yul\":9592:9597   */\n      dup2\n        /* \"#utility.yul\":9574:9598   */\n      tag_508\n      jump\t// in\n    tag_699:\n        /* \"#utility.yul\":9569:9572   */\n      dup3\n        /* \"#utility.yul\":9562:9599   */\n      mstore\n        /* \"#utility.yul\":9487:9605   */\n      pop\n      pop\n      jump\t// out\n        /* \"#utility.yul\":9611:9729   */\n    tag_525:\n        /* \"#utility.yul\":9698:9722   */\n      tag_701\n        /* \"#utility.yul\":9716:9721   */\n      dup2\n        /* \"#utility.yul\":9698:9722   */\n      tag_519\n      jump\t// in\n    tag_701:\n        /* \"#utility.yul\":9693:9696   */\n      dup3\n        /* \"#utility.yul\":9686:9723   */\n      mstore\n        /* \"#utility.yul\":9611:9729   */\n      pop\n      pop\n      jump\t// out\n        /* \"#utility.yul\":9735:10268   */\n    tag_53:\n        /* \"#utility.yul\":9904:9908   */\n      0x00\n        /* \"#utility.yul\":9942:9944   */\n      0x60\n        /* \"#utility.yul\":9931:9940   */\n      dup3\n        /* \"#utility.yul\":9927:9945   */\n      add\n        /* \"#utility.yul\":9919:9945   */\n      swap1\n      pop\n        /* \"#utility.yul\":9955:10026   */\n      tag_703\n        /* \"#utility.yul\":10023:10024   */\n      0x00\n        /* \"#utility.yul\":10012:10021   */\n      dup4\n        /* \"#utility.yul\":10008:10025   */\n      add\n        /* \"#utility.yul\":9999:10005   */\n      dup7\n        /* \"#utility.yul\":9955:10026   */\n      tag_524\n      jump\t// in\n    tag_703:\n        /* \"#utility.yul\":10073:10082   */\n      dup2\n        /* \"#utility.yul\":10067:10071   */\n      dup2\n        /* \"#utility.yul\":10063:10083   */\n      sub\n        /* \"#utility.yul\":10058:10060   */\n      0x20\n        /* \"#utility.yul\":10047:10056   */\n      dup4\n        /* \"#utility.yul\":10043:10061   */\n      add\n        /* \"#utility.yul\":10036:10084   */\n      mstore\n        /* \"#utility.yul\":10101:10179   */\n      tag_704\n        /* \"#utility.yul\":10174:10178   */\n      dup2\n        /* \"#utility.yul\":10165:10171   */\n      dup6\n        /* \"#utility.yul\":10101:10179   */\n      tag_523\n      jump\t// in\n    tag_704:\n        /* \"#utility.yul\":10093:10179   */\n      swap1\n      pop\n        /* \"#utility.yul\":10189:10261   */\n      tag_705\n        /* \"#utility.yul\":10257:10259   */\n      0x40\n        /* \"#utility.yul\":10246:10255   */\n      dup4\n        /* \"#utility.yul\":10242:10260   */\n      add\n        /* \"#utility.yul\":10233:10239   */\n      dup5\n        /* \"#utility.yul\":10189:10261   */\n      tag_525\n      jump\t// in\n    tag_705:\n        /* \"#utility.yul\":9735:10268   */\n      swap5\n      swap4\n      pop\n      pop\n      pop\n      pop\n      jump\t// out\n        /* \"#utility.yul\":10274:10388   */\n    tag_526:\n        /* \"#utility.yul\":10341:10347   */\n      0x00\n        /* \"#utility.yul\":10375:10380   */\n      dup2\n        /* \"#utility.yul\":10369:10381   */\n      mload\n        /* \"#utility.yul\":10359:10381   */\n      swap1\n      pop\n        /* \"#utility.yul\":10274:10388   */\n      swap2\n      swap1\n      pop\n      jump\t// out\n        /* \"#utility.yul\":10394:10578   */\n    tag_527:\n        /* \"#utility.yul\":10493:10504   */\n      0x00\n        /* \"#utility.yul\":10527:10533   */\n      dup3\n        /* \"#utility.yul\":10522:10525   */\n      dup3\n        /* \"#utility.yul\":10515:10534   */\n      mstore\n        /* \"#utility.yul\":10567:10571   */\n      0x20\n        /* \"#utility.yul\":10562:10565   */\n      dup3\n        /* \"#utility.yul\":10558:10572   */\n      add\n        /* \"#utility.yul\":10543:10572   */\n      swap1\n      pop\n        /* \"#utility.yul\":10394:10578   */\n      swap3\n      swap2\n      pop\n      pop\n      jump\t// out\n        /* \"#utility.yul\":10584:10716   */\n    tag_528:\n        /* \"#utility.yul\":10651:10655   */\n      0x00\n        /* \"#utility.yul\":10674:10677   */\n      dup2\n        /* \"#utility.yul\":10666:10677   */\n      swap1\n      pop\n        /* \"#utility.yul\":10704:10708   */\n      0x20\n        /* \"#utility.yul\":10699:10702   */\n      dup3\n        /* \"#utility.yul\":10695:10709   */\n      add\n        /* \"#utility.yul\":10687:10709   */\n      swap1\n      pop\n        /* \"#utility.yul\":10584:10716   */\n      swap2\n      swap1\n      pop\n      jump\t// out\n        /* \"#utility.yul\":10722:10830   */\n    tag_529:\n        /* \"#utility.yul\":10799:10823   */\n      tag_710\n        /* \"#utility.yul\":10817:10822   */\n      dup2\n        /* \"#utility.yul\":10799:10823   */\n      tag_508\n      jump\t// in\n    tag_710:\n        /* \"#utility.yul\":10794:10797   */\n      dup3\n        /* \"#utility.yul\":10787:10824   */\n      mstore\n        /* \"#utility.yul\":10722:10830   */\n      pop\n      pop\n      jump\t// out\n        /* \"#utility.yul\":10836:11015   */\n    tag_530:\n        /* \"#utility.yul\":10905:10915   */\n      0x00\n        /* \"#utility.yul\":10926:10972   */\n      tag_712\n        /* \"#utility.yul\":10968:10971   */\n      dup4\n        /* \"#utility.yul\":10960:10966   */\n      dup4\n        /* \"#utility.yul\":10926:10972   */\n      tag_529\n      jump\t// in\n    tag_712:\n        /* \"#utility.yul\":11004:11008   */\n      0x20\n        /* \"#utility.yul\":10999:11002   */\n      dup4\n        /* \"#utility.yul\":10995:11009   */\n      add\n        /* \"#utility.yul\":10981:11009   */\n      swap1\n      pop\n        /* \"#utility.yul\":10836:11015   */\n      swap3\n      swap2\n      pop\n      pop\n      jump\t// out\n        /* \"#utility.yul\":11021:11134   */\n    tag_531:\n        /* \"#utility.yul\":11091:11095   */\n      0x00\n        /* \"#utility.yul\":11123:11127   */\n      0x20\n        /* \"#utility.yul\":11118:11121   */\n      dup3\n        /* \"#utility.yul\":11114:11128   */\n      add\n        /* \"#utility.yul\":11106:11128   */\n      swap1\n      pop\n        /* \"#utility.yul\":11021:11134   */\n      swap2\n      swap1\n      pop\n      jump\t// out\n        /* \"#utility.yul\":11170:11902   */\n    tag_532:\n        /* \"#utility.yul\":11289:11292   */\n      0x00\n        /* \"#utility.yul\":11318:11372   */\n      tag_715\n        /* \"#utility.yul\":11366:11371   */\n      dup3\n        /* \"#utility.yul\":11318:11372   */\n      tag_526\n      jump\t// in\n    tag_715:\n        /* \"#utility.yul\":11388:11474   */\n      tag_716\n        /* \"#utility.yul\":11467:11473   */\n      dup2\n        /* \"#utility.yul\":11462:11465   */\n      dup6\n        /* \"#utility.yul\":11388:11474   */\n      tag_527\n      jump\t// in\n    tag_716:\n        /* \"#utility.yul\":11381:11474   */\n      swap4\n      pop\n        /* \"#utility.yul\":11498:11554   */\n      tag_717\n        /* \"#utility.yul\":11548:11553   */\n      dup4\n        /* \"#utility.yul\":11498:11554   */\n      tag_528\n      jump\t// in\n    tag_717:\n        /* \"#utility.yul\":11577:11584   */\n      dup1\n        /* \"#utility.yul\":11608:11609   */\n      0x00\n        /* \"#utility.yul\":11593:11877   */\n    tag_718:\n        /* \"#utility.yul\":11618:11624   */\n      dup4\n        /* \"#utility.yul\":11615:11616   */\n      dup2\n        /* \"#utility.yul\":11612:11625   */\n      lt\n        /* \"#utility.yul\":11593:11877   */\n      iszero\n      tag_720\n      jumpi\n        /* \"#utility.yul\":11694:11700   */\n      dup2\n        /* \"#utility.yul\":11688:11701   */\n      mload\n        /* \"#utility.yul\":11721:11784   */\n      tag_721\n        /* \"#utility.yul\":11780:11783   */\n      dup9\n        /* \"#utility.yul\":11765:11778   */\n      dup3\n        /* \"#utility.yul\":11721:11784   */\n      tag_530\n      jump\t// in\n    tag_721:\n        /* \"#utility.yul\":11714:11784   */\n      swap8\n      pop\n        /* \"#utility.yul\":11807:11867   */\n      tag_722\n        /* \"#utility.yul\":11860:11866   */\n      dup4\n        /* \"#utility.yul\":11807:11867   */\n      tag_531\n      jump\t// in\n    tag_722:\n        /* \"#utility.yul\":11797:11867   */\n      swap3\n      pop\n        /* \"#utility.yul\":11653:11877   */\n      pop\n        /* \"#utility.yul\":11640:11641   */\n      0x01\n        /* \"#utility.yul\":11637:11638   */\n      dup2\n        /* \"#utility.yul\":11633:11642   */\n      add\n        /* \"#utility.yul\":11628:11642   */\n      swap1\n      pop\n        /* \"#utility.yul\":11593:11877   */\n      jump(tag_718)\n    tag_720:\n        /* \"#utility.yul\":11597:11611   */\n      pop\n        /* \"#utility.yul\":11893:11896   */\n      dup6\n        /* \"#utility.yul\":11886:11896   */\n      swap4\n      pop\n        /* \"#utility.yul\":11294:11902   */\n      pop\n      pop\n      pop\n        /* \"#utility.yul\":11170:11902   */\n      swap3\n      swap2\n      pop\n      pop\n      jump\t// out\n        /* \"#utility.yul\":11908:12582   */\n    tag_58:\n        /* \"#utility.yul\":12149:12153   */\n      0x00\n        /* \"#utility.yul\":12187:12189   */\n      0x40\n        /* \"#utility.yul\":12176:12185   */\n      dup3\n        /* \"#utility.yul\":12172:12190   */\n      add\n        /* \"#utility.yul\":12164:12190   */\n      swap1\n      pop\n        /* \"#utility.yul\":12236:12245   */\n      dup2\n        /* \"#utility.yul\":12230:12234   */\n      dup2\n        /* \"#utility.yul\":12226:12246   */\n      sub\n        /* \"#utility.yul\":12222:12223   */\n      0x00\n        /* \"#utility.yul\":12211:12220   */\n      dup4\n        /* \"#utility.yul\":12207:12224   */\n      add\n        /* \"#utility.yul\":12200:12247   */\n      mstore\n        /* \"#utility.yul\":12264:12372   */\n      tag_724\n        /* \"#utility.yul\":12367:12371   */\n      dup2\n        /* \"#utility.yul\":12358:12364   */\n      dup6\n        /* \"#utility.yul\":12264:12372   */\n      tag_532\n      jump\t// in\n    tag_724:\n        /* \"#utility.yul\":12256:12372   */\n      swap1\n      pop\n        /* \"#utility.yul\":12419:12428   */\n      dup2\n        /* \"#utility.yul\":12413:12417   */\n      dup2\n        /* \"#utility.yul\":12409:12429   */\n      sub\n        /* \"#utility.yul\":12404:12406   */\n      0x20\n        /* \"#utility.yul\":12393:12402   */\n      dup4\n        /* \"#utility.yul\":12389:12407   */\n      add\n        /* \"#utility.yul\":12382:12430   */\n      mstore\n        /* \"#utility.yul\":12447:12575   */\n      tag_725\n        /* \"#utility.yul\":12570:12574   */\n      dup2\n        /* \"#utility.yul\":12561:12567   */\n      dup5\n        /* \"#utility.yul\":12447:12575   */\n      tag_503\n      jump\t// in\n    tag_725:\n        /* \"#utility.yul\":12439:12575   */\n      swap1\n      pop\n        /* \"#utility.yul\":11908:12582   */\n      swap4\n      swap3\n      pop\n      pop\n      pop\n      jump\t// out\n        /* \"#utility.yul\":12588:12810   */\n    tag_63:\n        /* \"#utility.yul\":12681:12685   */\n      0x00\n        /* \"#utility.yul\":12719:12721   */\n      0x20\n        /* \"#utility.yul\":12708:12717   */\n      dup3\n        /* \"#utility.yul\":12704:12722   */\n      add\n        /* \"#utility.yul\":12696:12722   */\n      swap1\n      pop\n        /* \"#utility.yul\":12732:12803   */\n      tag_727\n        /* \"#utility.yul\":12800:12801   */\n      0x00\n        /* \"#utility.yul\":12789:12798   */\n      dup4\n        /* \"#utility.yul\":12785:12802   */\n      add\n        /* \"#utility.yul\":12776:12782   */\n      dup5\n        /* \"#utility.yul\":12732:12803   */\n      tag_524\n      jump\t// in\n    tag_727:\n        /* \"#utility.yul\":12588:12810   */\n      swap3\n      swap2\n      pop\n      pop\n      jump\t// out\n        /* \"#utility.yul\":12816:12906   */\n    tag_533:\n        /* \"#utility.yul\":12850:12857   */\n      0x00\n        /* \"#utility.yul\":12893:12898   */\n      dup2\n        /* \"#utility.yul\":12886:12899   */\n      iszero\n        /* \"#utility.yul\":12879:12900   */\n      iszero\n        /* \"#utility.yul\":12868:12900   */\n      swap1\n      pop\n        /* \"#utility.yul\":12816:12906   */\n      swap2\n      swap1\n      pop\n      jump\t// out\n        /* \"#utility.yul\":12912:13021   */\n    tag_534:\n        /* \"#utility.yul\":12993:13014   */\n      tag_730\n        /* \"#utility.yul\":13008:13013   */\n      dup2\n        /* \"#utility.yul\":12993:13014   */\n      tag_533\n      jump\t// in\n    tag_730:\n        /* \"#utility.yul\":12988:12991   */\n      dup3\n        /* \"#utility.yul\":12981:13015   */\n      mstore\n        /* \"#utility.yul\":12912:13021   */\n      pop\n      pop\n      jump\t// out\n        /* \"#utility.yul\":13027:13237   */\n    tag_67:\n        /* \"#utility.yul\":13114:13118   */\n      0x00\n        /* \"#utility.yul\":13152:13154   */\n      0x20\n        /* \"#utility.yul\":13141:13150   */\n      dup3\n        /* \"#utility.yul\":13137:13155   */\n      add\n        /* \"#utility.yul\":13129:13155   */\n      swap1\n      pop\n        /* \"#utility.yul\":13165:13230   */\n      tag_732\n        /* \"#utility.yul\":13227:13228   */\n      0x00\n        /* \"#utility.yul\":13216:13225   */\n      dup4\n        /* \"#utility.yul\":13212:13229   */\n      add\n        /* \"#utility.yul\":13203:13209   */\n      dup5\n        /* \"#utility.yul\":13165:13230   */\n      tag_534\n      jump\t// in\n    tag_732:\n        /* \"#utility.yul\":13027:13237   */\n      swap3\n      swap2\n      pop\n      pop\n      jump\t// out\n        /* \"#utility.yul\":13243:13572   */\n    tag_70:\n        /* \"#utility.yul\":13302:13308   */\n      0x00\n        /* \"#utility.yul\":13351:13353   */\n      0x20\n        /* \"#utility.yul\":13339:13348   */\n      dup3\n        /* \"#utility.yul\":13330:13337   */\n      dup5\n        /* \"#utility.yul\":13326:13349   */\n      sub\n        /* \"#utility.yul\":13322:13354   */\n      slt\n        /* \"#utility.yul\":13319:13438   */\n      iszero\n      tag_734\n      jumpi\n        /* \"#utility.yul\":13357:13436   */\n      tag_735\n      tag_505\n      jump\t// in\n    tag_735:\n        /* \"#utility.yul\":13319:13438   */\n    tag_734:\n        /* \"#utility.yul\":13477:13478   */\n      0x00\n        /* \"#utility.yul\":13502:13555   */\n      tag_736\n        /* \"#utility.yul\":13547:13554   */\n      dup5\n        /* \"#utility.yul\":13538:13544   */\n      dup3\n        /* \"#utility.yul\":13527:13536   */\n      dup6\n        /* \"#utility.yul\":13523:13545   */\n      add\n        /* \"#utility.yul\":13502:13555   */\n      tag_510\n      jump\t// in\n    tag_736:\n        /* \"#utility.yul\":13492:13555   */\n      swap2\n      pop\n        /* \"#utility.yul\":13448:13565   */\n      pop\n        /* \"#utility.yul\":13243:13572   */\n      swap3\n      swap2\n      pop\n      pop\n      jump\t// out\n        /* \"#utility.yul\":13578:14515   */\n    tag_73:\n        /* \"#utility.yul\":13843:13847   */\n      0x00\n        /* \"#utility.yul\":13881:13884   */\n      0xa0\n        /* \"#utility.yul\":13870:13879   */\n      dup3\n        /* \"#utility.yul\":13866:13885   */\n      add\n        /* \"#utility.yul\":13858:13885   */\n      swap1\n      pop\n        /* \"#utility.yul\":13931:13940   */\n      dup2\n        /* \"#utility.yul\":13925:13929   */\n      dup2\n        /* \"#utility.yul\":13921:13941   */\n      sub\n        /* \"#utility.yul\":13917:13918   */\n      0x00\n        /* \"#utility.yul\":13906:13915   */\n      dup4\n        /* \"#utility.yul\":13902:13919   */\n      add\n        /* \"#utility.yul\":13895:13942   */\n      mstore\n        /* \"#utility.yul\":13959:14037   */\n      tag_738\n        /* \"#utility.yul\":14032:14036   */\n      dup2\n        /* \"#utility.yul\":14023:14029   */\n      dup9\n        /* \"#utility.yul\":13959:14037   */\n      tag_523\n      jump\t// in\n    tag_738:\n        /* \"#utility.yul\":13951:14037   */\n      swap1\n      pop\n        /* \"#utility.yul\":14047:14119   */\n      tag_739\n        /* \"#utility.yul\":14115:14117   */\n      0x20\n        /* \"#utility.yul\":14104:14113   */\n      dup4\n        /* \"#utility.yul\":14100:14118   */\n      add\n        /* \"#utility.yul\":14091:14097   */\n      dup8\n        /* \"#utility.yul\":14047:14119   */\n      tag_524\n      jump\t// in\n    tag_739:\n        /* \"#utility.yul\":14129:14201   */\n      tag_740\n        /* \"#utility.yul\":14197:14199   */\n      0x40\n        /* \"#utility.yul\":14186:14195   */\n      dup4\n        /* \"#utility.yul\":14182:14200   */\n      add\n        /* \"#utility.yul\":14173:14179   */\n      dup7\n        /* \"#utility.yul\":14129:14201   */\n      tag_525\n      jump\t// in\n    tag_740:\n        /* \"#utility.yul\":14248:14257   */\n      dup2\n        /* \"#utility.yul\":14242:14246   */\n      dup2\n        /* \"#utility.yul\":14238:14258   */\n      sub\n        /* \"#utility.yul\":14233:14235   */\n      0x60\n        /* \"#utility.yul\":14222:14231   */\n      dup4\n        /* \"#utility.yul\":14218:14236   */\n      add\n        /* \"#utility.yul\":14211:14259   */\n      mstore\n        /* \"#utility.yul\":14276:14354   */\n      tag_741\n        /* \"#utility.yul\":14349:14353   */\n      dup2\n        /* \"#utility.yul\":14340:14346   */\n      dup6\n        /* \"#utility.yul\":14276:14354   */\n      tag_523\n      jump\t// in\n    tag_741:\n        /* \"#utility.yul\":14268:14354   */\n      swap1\n      pop\n        /* \"#utility.yul\":14402:14411   */\n      dup2\n        /* \"#utility.yul\":14396:14400   */\n      dup2\n        /* \"#utility.yul\":14392:14412   */\n      sub\n        /* \"#utility.yul\":14386:14389   */\n      0x80\n        /* \"#utility.yul\":14375:14384   */\n      dup4\n        /* \"#utility.yul\":14371:14390   */\n      add\n        /* \"#utility.yul\":14364:14413   */\n      mstore\n        /* \"#utility.yul\":14430:14508   */\n      tag_742\n        /* \"#utility.yul\":14503:14507   */\n      dup2\n        /* \"#utility.yul\":14494:14500   */\n      dup5\n        /* \"#utility.yul\":14430:14508   */\n      tag_523\n      jump\t// in\n    tag_742:\n        /* \"#utility.yul\":14422:14508   */\n      swap1\n      pop\n        /* \"#utility.yul\":13578:14515   */\n      swap7\n      swap6\n      pop\n      pop\n      pop\n      pop\n      pop\n      pop\n      jump\t// out\n        /* \"#utility.yul\":14521:14635   */\n    tag_535:\n        /* \"#utility.yul\":14588:14594   */\n      0x00\n        /* \"#utility.yul\":14622:14627   */\n      dup2\n        /* \"#utility.yul\":14616:14628   */\n      mload\n        /* \"#utility.yul\":14606:14628   */\n      swap1\n      pop\n        /* \"#utility.yul\":14521:14635   */\n      swap2\n      swap1\n      pop\n      jump\t// out\n        /* \"#utility.yul\":14641:14825   */\n    tag_536:\n        /* \"#utility.yul\":14740:14751   */\n      0x00\n        /* \"#utility.yul\":14774:14780   */\n      dup3\n        /* \"#utility.yul\":14769:14772   */\n      dup3\n        /* \"#utility.yul\":14762:14781   */\n      mstore\n        /* \"#utility.yul\":14814:14818   */\n      0x20\n        /* \"#utility.yul\":14809:14812   */\n      dup3\n        /* \"#utility.yul\":14805:14819   */\n      add\n        /* \"#utility.yul\":14790:14819   */\n      swap1\n      pop\n        /* \"#utility.yul\":14641:14825   */\n      swap3\n      swap2\n      pop\n      pop\n      jump\t// out\n        /* \"#utility.yul\":14831:14963   */\n    tag_537:\n        /* \"#utility.yul\":14898:14902   */\n      0x00\n        /* \"#utility.yul\":14921:14924   */\n      dup2\n        /* \"#utility.yul\":14913:14924   */\n      swap1\n      pop\n        /* \"#utility.yul\":14951:14955   */\n      0x20\n        /* \"#utility.yul\":14946:14949   */\n      dup3\n        /* \"#utility.yul\":14942:14956   */\n      add\n        /* \"#utility.yul\":14934:14956   */\n      swap1\n      pop\n        /* \"#utility.yul\":14831:14963   */\n      swap2\n      swap1\n      pop\n      jump\t// out\n        /* \"#utility.yul\":14969:15077   */\n    tag_538:\n        /* \"#utility.yul\":15046:15070   */\n      tag_747\n        /* \"#utility.yul\":15064:15069   */\n      dup2\n        /* \"#utility.yul\":15046:15070   */\n      tag_519\n      jump\t// in\n    tag_747:\n        /* \"#utility.yul\":15041:15044   */\n      dup3\n        /* \"#utility.yul\":15034:15071   */\n      mstore\n        /* \"#utility.yul\":14969:15077   */\n      pop\n      pop\n      jump\t// out\n        /* \"#utility.yul\":15083:15262   */\n    tag_539:\n        /* \"#utility.yul\":15152:15162   */\n      0x00\n        /* \"#utility.yul\":15173:15219   */\n      tag_749\n        /* \"#utility.yul\":15215:15218   */\n      dup4\n        /* \"#utility.yul\":15207:15213   */\n      dup4\n        /* \"#utility.yul\":15173:15219   */\n      tag_538\n      jump\t// in\n    tag_749:\n        /* \"#utility.yul\":15251:15255   */\n      0x20\n        /* \"#utility.yul\":15246:15249   */\n      dup4\n        /* \"#utility.yul\":15242:15256   */\n      add\n        /* \"#utility.yul\":15228:15256   */\n      swap1\n      pop\n        /* \"#utility.yul\":15083:15262   */\n      swap3\n      swap2\n      pop\n      pop\n      jump\t// out\n        /* \"#utility.yul\":15268:15381   */\n    tag_540:\n        /* \"#utility.yul\":15338:15342   */\n      0x00\n        /* \"#utility.yul\":15370:15374   */\n      0x20\n        /* \"#utility.yul\":15365:15368   */\n      dup3\n        /* \"#utility.yul\":15361:15375   */\n      add\n        /* \"#utility.yul\":15353:15375   */\n      swap1\n      pop\n        /* \"#utility.yul\":15268:15381   */\n      swap2\n      swap1\n      pop\n      jump\t// out\n        /* \"#utility.yul\":15417:16149   */\n    tag_541:\n        /* \"#utility.yul\":15536:15539   */\n      0x00\n        /* \"#utility.yul\":15565:15619   */\n      tag_752\n        /* \"#utility.yul\":15613:15618   */\n      dup3\n        /* \"#utility.yul\":15565:15619   */\n      tag_535\n      jump\t// in\n    tag_752:\n        /* \"#utility.yul\":15635:15721   */\n      tag_753\n        /* \"#utility.yul\":15714:15720   */\n      dup2\n        /* \"#utility.yul\":15709:15712   */\n      dup6\n        /* \"#utility.yul\":15635:15721   */\n      tag_536\n      jump\t// in\n    tag_753:\n        /* \"#utility.yul\":15628:15721   */\n      swap4\n      pop\n        /* \"#utility.yul\":15745:15801   */\n      tag_754\n        /* \"#utility.yul\":15795:15800   */\n      dup4\n        /* \"#utility.yul\":15745:15801   */\n      tag_537\n      jump\t// in\n    tag_754:\n        /* \"#utility.yul\":15824:15831   */\n      dup1\n        /* \"#utility.yul\":15855:15856   */\n      0x00\n        /* \"#utility.yul\":15840:16124   */\n    tag_755:\n        /* \"#utility.yul\":15865:15871   */\n      dup4\n        /* \"#utility.yul\":15862:15863   */\n      dup2\n        /* \"#utility.yul\":15859:15872   */\n      lt\n        /* \"#utility.yul\":15840:16124   */\n      iszero\n      tag_757\n      jumpi\n        /* \"#utility.yul\":15941:15947   */\n      dup2\n        /* \"#utility.yul\":15935:15948   */\n      mload\n        /* \"#utility.yul\":15968:16031   */\n      tag_758\n        /* \"#utility.yul\":16027:16030   */\n      dup9\n        /* \"#utility.yul\":16012:16025   */\n      dup3\n        /* \"#utility.yul\":15968:16031   */\n      tag_539\n      jump\t// in\n    tag_758:\n        /* \"#utility.yul\":15961:16031   */\n      swap8\n      pop\n        /* \"#utility.yul\":16054:16114   */\n      tag_759\n        /* \"#utility.yul\":16107:16113   */\n      dup4\n        /* \"#utility.yul\":16054:16114   */\n      tag_540\n      jump\t// in\n    tag_759:\n        /* \"#utility.yul\":16044:16114   */\n      swap3\n      pop\n        /* \"#utility.yul\":15900:16124   */\n      pop\n        /* \"#utility.yul\":15887:15888   */\n      0x01\n        /* \"#utility.yul\":15884:15885   */\n      dup2\n        /* \"#utility.yul\":15880:15889   */\n      add\n        /* \"#utility.yul\":15875:15889   */\n      swap1\n      pop\n        /* \"#utility.yul\":15840:16124   */\n      jump(tag_755)\n    tag_757:\n        /* \"#utility.yul\":15844:15858   */\n      pop\n        /* \"#utility.yul\":16140:16143   */\n      dup6\n        /* \"#utility.yul\":16133:16143   */\n      swap4\n      pop\n        /* \"#utility.yul\":15541:16149   */\n      pop\n      pop\n      pop\n        /* \"#utility.yul\":15417:16149   */\n      swap3\n      swap2\n      pop\n      pop\n      jump\t// out\n        /* \"#utility.yul\":16155:16829   */\n    tag_77:\n        /* \"#utility.yul\":16396:16400   */\n      0x00\n        /* \"#utility.yul\":16434:16436   */\n      0x40\n        /* \"#utility.yul\":16423:16432   */\n      dup3\n        /* \"#utility.yul\":16419:16437   */\n      add\n        /* \"#utility.yul\":16411:16437   */\n      swap1\n      pop\n        /* \"#utility.yul\":16483:16492   */\n      dup2\n        /* \"#utility.yul\":16477:16481   */\n      dup2\n        /* \"#utility.yul\":16473:16493   */\n      sub\n        /* \"#utility.yul\":16469:16470   */\n      0x00\n        /* \"#utility.yul\":16458:16467   */\n      dup4\n        /* \"#utility.yul\":16454:16471   */\n      add\n        /* \"#utility.yul\":16447:16494   */\n      mstore\n        /* \"#utility.yul\":16511:16639   */\n      tag_761\n        /* \"#utility.yul\":16634:16638   */\n      dup2\n        /* \"#utility.yul\":16625:16631   */\n      dup6\n        /* \"#utility.yul\":16511:16639   */\n      tag_503\n      jump\t// in\n    tag_761:\n        /* \"#utility.yul\":16503:16639   */\n      swap1\n      pop\n        /* \"#utility.yul\":16686:16695   */\n      dup2\n        /* \"#utility.yul\":16680:16684   */\n      dup2\n        /* \"#utility.yul\":16676:16696   */\n      sub\n        /* \"#utility.yul\":16671:16673   */\n      0x20\n        /* \"#utility.yul\":16660:16669   */\n      dup4\n        /* \"#utility.yul\":16656:16674   */\n      add\n        /* \"#utility.yul\":16649:16697   */\n      mstore\n        /* \"#utility.yul\":16714:16822   */\n      tag_762\n        /* \"#utility.yul\":16817:16821   */\n      dup2\n        /* \"#utility.yul\":16808:16814   */\n      dup5\n        /* \"#utility.yul\":16714:16822   */\n      tag_541\n      jump\t// in\n    tag_762:\n        /* \"#utility.yul\":16706:16822   */\n      swap1\n      pop\n        /* \"#utility.yul\":16155:16829   */\n      swap4\n      swap3\n      pop\n      pop\n      pop\n      jump\t// out\n        /* \"#utility.yul\":16835:17994   */\n    tag_80:\n        /* \"#utility.yul\":16942:16948   */\n      0x00\n        /* \"#utility.yul\":16950:16956   */\n      dup1\n        /* \"#utility.yul\":16958:16964   */\n      0x00\n        /* \"#utility.yul\":17007:17009   */\n      0x60\n        /* \"#utility.yul\":16995:17004   */\n      dup5\n        /* \"#utility.yul\":16986:16993   */\n      dup7\n        /* \"#utility.yul\":16982:17005   */\n      sub\n        /* \"#utility.yul\":16978:17010   */\n      slt\n        /* \"#utility.yul\":16975:17094   */\n      iszero\n      tag_764\n      jumpi\n        /* \"#utility.yul\":17013:17092   */\n      tag_765\n      tag_505\n      jump\t// in\n    tag_765:\n        /* \"#utility.yul\":16975:17094   */\n    tag_764:\n        /* \"#utility.yul\":17161:17162   */\n      0x00\n        /* \"#utility.yul\":17150:17159   */\n      dup5\n        /* \"#utility.yul\":17146:17163   */\n      add\n        /* \"#utility.yul\":17133:17164   */\n      calldataload\n        /* \"#utility.yul\":17191:17209   */\n      0xffffffffffffffff\n        /* \"#utility.yul\":17183:17189   */\n      dup2\n        /* \"#utility.yul\":17180:17210   */\n      gt\n        /* \"#utility.yul\":17177:17294   */\n      iszero\n      tag_766\n      jumpi\n        /* \"#utility.yul\":17213:17292   */\n      tag_767\n      tag_506\n      jump\t// in\n    tag_767:\n        /* \"#utility.yul\":17177:17294   */\n    tag_766:\n        /* \"#utility.yul\":17318:17381   */\n      tag_768\n        /* \"#utility.yul\":17373:17380   */\n      dup7\n        /* \"#utility.yul\":17364:17370   */\n      dup3\n        /* \"#utility.yul\":17353:17362   */\n      dup8\n        /* \"#utility.yul\":17349:17371   */\n      add\n        /* \"#utility.yul\":17318:17381   */\n      tag_518\n      jump\t// in\n    tag_768:\n        /* \"#utility.yul\":17308:17381   */\n      swap4\n      pop\n        /* \"#utility.yul\":17104:17391   */\n      pop\n        /* \"#utility.yul\":17458:17460   */\n      0x20\n        /* \"#utility.yul\":17447:17456   */\n      dup5\n        /* \"#utility.yul\":17443:17461   */\n      add\n        /* \"#utility.yul\":17430:17462   */\n      calldataload\n        /* \"#utility.yul\":17489:17507   */\n      0xffffffffffffffff\n        /* \"#utility.yul\":17481:17487   */\n      dup2\n        /* \"#utility.yul\":17478:17508   */\n      gt\n        /* \"#utility.yul\":17475:17592   */\n      iszero\n      tag_769\n      jumpi\n        /* \"#utility.yul\":17511:17590   */\n      tag_770\n      tag_506\n      jump\t// in\n    tag_770:\n        /* \"#utility.yul\":17475:17592   */\n    tag_769:\n        /* \"#utility.yul\":17616:17679   */\n      tag_771\n        /* \"#utility.yul\":17671:17678   */\n      dup7\n        /* \"#utility.yul\":17662:17668   */\n      dup3\n        /* \"#utility.yul\":17651:17660   */\n      dup8\n        /* \"#utility.yul\":17647:17669   */\n      add\n        /* \"#utility.yul\":17616:17679   */\n      tag_518\n      jump\t// in\n    tag_771:\n        /* \"#utility.yul\":17606:17679   */\n      swap3\n      pop\n        /* \"#utility.yul\":17401:17689   */\n      pop\n        /* \"#utility.yul\":17756:17758   */\n      0x40\n        /* \"#utility.yul\":17745:17754   */\n      dup5\n        /* \"#utility.yul\":17741:17759   */\n      add\n        /* \"#utility.yul\":17728:17760   */\n      calldataload\n        /* \"#utility.yul\":17787:17805   */\n      0xffffffffffffffff\n        /* \"#utility.yul\":17779:17785   */\n      dup2\n        /* \"#utility.yul\":17776:17806   */\n      gt\n        /* \"#utility.yul\":17773:17890   */\n      iszero\n      tag_772\n      jumpi\n        /* \"#utility.yul\":17809:17888   */\n      tag_773\n      tag_506\n      jump\t// in\n    tag_773:\n        /* \"#utility.yul\":17773:17890   */\n    tag_772:\n        /* \"#utility.yul\":17914:17977   */\n      tag_774\n        /* \"#utility.yul\":17969:17976   */\n      dup7\n        /* \"#utility.yul\":17960:17966   */\n      dup3\n        /* \"#utility.yul\":17949:17958   */\n      dup8\n        /* \"#utility.yul\":17945:17967   */\n      add\n        /* \"#utility.yul\":17914:17977   */\n      tag_518\n      jump\t// in\n    tag_774:\n        /* \"#utility.yul\":17904:17977   */\n      swap2\n      pop\n        /* \"#utility.yul\":17699:17987   */\n      pop\n        /* \"#utility.yul\":16835:17994   */\n      swap3\n      pop\n      swap3\n      pop\n      swap3\n      jump\t// out\n        /* \"#utility.yul\":18000:18822   */\n    tag_89:\n        /* \"#utility.yul\":18233:18237   */\n      0x00\n        /* \"#utility.yul\":18271:18274   */\n      0xa0\n        /* \"#utility.yul\":18260:18269   */\n      dup3\n        /* \"#utility.yul\":18256:18275   */\n      add\n        /* \"#utility.yul\":18248:18275   */\n      swap1\n      pop\n        /* \"#utility.yul\":18285:18350   */\n      tag_776\n        /* \"#utility.yul\":18347:18348   */\n      0x00\n        /* \"#utility.yul\":18336:18345   */\n      dup4\n        /* \"#utility.yul\":18332:18349   */\n      add\n        /* \"#utility.yul\":18323:18329   */\n      dup9\n        /* \"#utility.yul\":18285:18350   */\n      tag_534\n      jump\t// in\n    tag_776:\n        /* \"#utility.yul\":18360:18426   */\n      tag_777\n        /* \"#utility.yul\":18422:18424   */\n      0x20\n        /* \"#utility.yul\":18411:18420   */\n      dup4\n        /* \"#utility.yul\":18407:18425   */\n      add\n        /* \"#utility.yul\":18398:18404   */\n      dup8\n        /* \"#utility.yul\":18360:18426   */\n      tag_534\n      jump\t// in\n    tag_777:\n        /* \"#utility.yul\":18436:18508   */\n      tag_778\n        /* \"#utility.yul\":18504:18506   */\n      0x40\n        /* \"#utility.yul\":18493:18502   */\n      dup4\n        /* \"#utility.yul\":18489:18507   */\n      add\n        /* \"#utility.yul\":18480:18486   */\n      dup7\n        /* \"#utility.yul\":18436:18508   */\n      tag_524\n      jump\t// in\n    tag_778:\n        /* \"#utility.yul\":18555:18564   */\n      dup2\n        /* \"#utility.yul\":18549:18553   */\n      dup2\n        /* \"#utility.yul\":18545:18565   */\n      sub\n        /* \"#utility.yul\":18540:18542   */\n      0x60\n        /* \"#utility.yul\":18529:18538   */\n      dup4\n        /* \"#utility.yul\":18525:18543   */\n      add\n        /* \"#utility.yul\":18518:18566   */\n      mstore\n        /* \"#utility.yul\":18583:18661   */\n      tag_779\n        /* \"#utility.yul\":18656:18660   */\n      dup2\n        /* \"#utility.yul\":18647:18653   */\n      dup6\n        /* \"#utility.yul\":18583:18661   */\n      tag_523\n      jump\t// in\n    tag_779:\n        /* \"#utility.yul\":18575:18661   */\n      swap1\n      pop\n        /* \"#utility.yul\":18709:18718   */\n      dup2\n        /* \"#utility.yul\":18703:18707   */\n      dup2\n        /* \"#utility.yul\":18699:18719   */\n      sub\n        /* \"#utility.yul\":18693:18696   */\n      0x80\n        /* \"#utility.yul\":18682:18691   */\n      dup4\n        /* \"#utility.yul\":18678:18697   */\n      add\n        /* \"#utility.yul\":18671:18720   */\n      mstore\n        /* \"#utility.yul\":18737:18815   */\n      tag_780\n        /* \"#utility.yul\":18810:18814   */\n      dup2\n        /* \"#utility.yul\":18801:18807   */\n      dup5\n        /* \"#utility.yul\":18737:18815   */\n      tag_523\n      jump\t// in\n    tag_780:\n        /* \"#utility.yul\":18729:18815   */\n      swap1\n      pop\n        /* \"#utility.yul\":18000:18822   */\n      swap7\n      swap6\n      pop\n      pop\n      pop\n      pop\n      pop\n      pop\n      jump\t// out\n        /* \"#utility.yul\":18828:19482   */\n    tag_92:\n        /* \"#utility.yul\":18906:18912   */\n      0x00\n        /* \"#utility.yul\":18914:18920   */\n      dup1\n        /* \"#utility.yul\":18963:18965   */\n      0x40\n        /* \"#utility.yul\":18951:18960   */\n      dup4\n        /* \"#utility.yul\":18942:18949   */\n      dup6\n        /* \"#utility.yul\":18938:18961   */\n      sub\n        /* \"#utility.yul\":18934:18966   */\n      slt\n        /* \"#utility.yul\":18931:19050   */\n      iszero\n      tag_782\n      jumpi\n        /* \"#utility.yul\":18969:19048   */\n      tag_783\n      tag_505\n      jump\t// in\n    tag_783:\n        /* \"#utility.yul\":18931:19050   */\n    tag_782:\n        /* \"#utility.yul\":19117:19118   */\n      0x00\n        /* \"#utility.yul\":19106:19115   */\n      dup4\n        /* \"#utility.yul\":19102:19119   */\n      add\n        /* \"#utility.yul\":19089:19120   */\n      calldataload\n        /* \"#utility.yul\":19147:19165   */\n      0xffffffffffffffff\n        /* \"#utility.yul\":19139:19145   */\n      dup2\n        /* \"#utility.yul\":19136:19166   */\n      gt\n        /* \"#utility.yul\":19133:19250   */\n      iszero\n      tag_784\n      jumpi\n        /* \"#utility.yul\":19169:19248   */\n      tag_785\n      tag_506\n      jump\t// in\n    tag_785:\n        /* \"#utility.yul\":19133:19250   */\n    tag_784:\n        /* \"#utility.yul\":19274:19337   */\n      tag_786\n        /* \"#utility.yul\":19329:19336   */\n      dup6\n        /* \"#utility.yul\":19320:19326   */\n      dup3\n        /* \"#utility.yul\":19309:19318   */\n      dup7\n        /* \"#utility.yul\":19305:19327   */\n      add\n        /* \"#utility.yul\":19274:19337   */\n      tag_518\n      jump\t// in\n    tag_786:\n        /* \"#utility.yul\":19264:19337   */\n      swap3\n      pop\n        /* \"#utility.yul\":19060:19347   */\n      pop\n        /* \"#utility.yul\":19386:19388   */\n      0x20\n        /* \"#utility.yul\":19412:19465   */\n      tag_787\n        /* \"#utility.yul\":19457:19464   */\n      dup6\n        /* \"#utility.yul\":19448:19454   */\n      dup3\n        /* \"#utility.yul\":19437:19446   */\n      dup7\n        /* \"#utility.yul\":19433:19455   */\n      add\n        /* \"#utility.yul\":19412:19465   */\n      tag_521\n      jump\t// in\n    tag_787:\n        /* \"#utility.yul\":19402:19465   */\n      swap2\n      pop\n        /* \"#utility.yul\":19357:19475   */\n      pop\n        /* \"#utility.yul\":18828:19482   */\n      swap3\n      pop\n      swap3\n      swap1\n      pop\n      jump\t// out\n        /* \"#utility.yul\":19488:20467   */\n    tag_100:\n        /* \"#utility.yul\":19585:19591   */\n      0x00\n        /* \"#utility.yul\":19593:19599   */\n      dup1\n        /* \"#utility.yul\":19601:19607   */\n      0x00\n        /* \"#utility.yul\":19650:19652   */\n      0x60\n        /* \"#utility.yul\":19638:19647   */\n      dup5\n        /* \"#utility.yul\":19629:19636   */\n      dup7\n        /* \"#utility.yul\":19625:19648   */\n      sub\n        /* \"#utility.yul\":19621:19653   */\n      slt\n        /* \"#utility.yul\":19618:19737   */\n      iszero\n      tag_789\n      jumpi\n        /* \"#utility.yul\":19656:19735   */\n      tag_790\n      tag_505\n      jump\t// in\n    tag_790:\n        /* \"#utility.yul\":19618:19737   */\n    tag_789:\n        /* \"#utility.yul\":19776:19777   */\n      0x00\n        /* \"#utility.yul\":19801:19854   */\n      tag_791\n        /* \"#utility.yul\":19846:19853   */\n      dup7\n        /* \"#utility.yul\":19837:19843   */\n      dup3\n        /* \"#utility.yul\":19826:19835   */\n      dup8\n        /* \"#utility.yul\":19822:19844   */\n      add\n        /* \"#utility.yul\":19801:19854   */\n      tag_510\n      jump\t// in\n    tag_791:\n        /* \"#utility.yul\":19791:19854   */\n      swap4\n      pop\n        /* \"#utility.yul\":19747:19864   */\n      pop\n        /* \"#utility.yul\":19931:19933   */\n      0x20\n        /* \"#utility.yul\":19920:19929   */\n      dup5\n        /* \"#utility.yul\":19916:19934   */\n      add\n        /* \"#utility.yul\":19903:19935   */\n      calldataload\n        /* \"#utility.yul\":19962:19980   */\n      0xffffffffffffffff\n        /* \"#utility.yul\":19954:19960   */\n      dup2\n        /* \"#utility.yul\":19951:19981   */\n      gt\n        /* \"#utility.yul\":19948:20065   */\n      iszero\n      tag_792\n      jumpi\n        /* \"#utility.yul\":19984:20063   */\n      tag_793\n      tag_506\n      jump\t// in\n    tag_793:\n        /* \"#utility.yul\":19948:20065   */\n    tag_792:\n        /* \"#utility.yul\":20089:20152   */\n      tag_794\n        /* \"#utility.yul\":20144:20151   */\n      dup7\n        /* \"#utility.yul\":20135:20141   */\n      dup3\n        /* \"#utility.yul\":20124:20133   */\n      dup8\n        /* \"#utility.yul\":20120:20142   */\n      add\n        /* \"#utility.yul\":20089:20152   */\n      tag_518\n      jump\t// in\n    tag_794:\n        /* \"#utility.yul\":20079:20152   */\n      swap3\n      pop\n        /* \"#utility.yul\":19874:20162   */\n      pop\n        /* \"#utility.yul\":20229:20231   */\n      0x40\n        /* \"#utility.yul\":20218:20227   */\n      dup5\n        /* \"#utility.yul\":20214:20232   */\n      add\n        /* \"#utility.yul\":20201:20233   */\n      calldataload\n        /* \"#utility.yul\":20260:20278   */\n      0xffffffffffffffff\n        /* \"#utility.yul\":20252:20258   */\n      dup2\n        /* \"#utility.yul\":20249:20279   */\n      gt\n        /* \"#utility.yul\":20246:20363   */\n      iszero\n      tag_795\n      jumpi\n        /* \"#utility.yul\":20282:20361   */\n      tag_796\n      tag_506\n      jump\t// in\n    tag_796:\n        /* \"#utility.yul\":20246:20363   */\n    tag_795:\n        /* \"#utility.yul\":20387:20450   */\n      tag_797\n        /* \"#utility.yul\":20442:20449   */\n      dup7\n        /* \"#utility.yul\":20433:20439   */\n      dup3\n        /* \"#utility.yul\":20422:20431   */\n      dup8\n        /* \"#utility.yul\":20418:20440   */\n      add\n        /* \"#utility.yul\":20387:20450   */\n      tag_518\n      jump\t// in\n    tag_797:\n        /* \"#utility.yul\":20377:20450   */\n      swap2\n      pop\n        /* \"#utility.yul\":20172:20460   */\n      pop\n        /* \"#utility.yul\":19488:20467   */\n      swap3\n      pop\n      swap3\n      pop\n      swap3\n      jump\t// out\n        /* \"#utility.yul\":20473:20805   */\n    tag_108:\n        /* \"#utility.yul\":20594:20598   */\n      0x00\n        /* \"#utility.yul\":20632:20634   */\n      0x40\n        /* \"#utility.yul\":20621:20630   */\n      dup3\n        /* \"#utility.yul\":20617:20635   */\n      add\n        /* \"#utility.yul\":20609:20635   */\n      swap1\n      pop\n        /* \"#utility.yul\":20645:20716   */\n      tag_799\n        /* \"#utility.yul\":20713:20714   */\n      0x00\n        /* \"#utility.yul\":20702:20711   */\n      dup4\n        /* \"#utility.yul\":20698:20715   */\n      add\n        /* \"#utility.yul\":20689:20695   */\n      dup6\n        /* \"#utility.yul\":20645:20716   */\n      tag_525\n      jump\t// in\n    tag_799:\n        /* \"#utility.yul\":20726:20798   */\n      tag_800\n        /* \"#utility.yul\":20794:20796   */\n      0x20\n        /* \"#utility.yul\":20783:20792   */\n      dup4\n        /* \"#utility.yul\":20779:20797   */\n      add\n        /* \"#utility.yul\":20770:20776   */\n      dup5\n        /* \"#utility.yul\":20726:20798   */\n      tag_525\n      jump\t// in\n    tag_800:\n        /* \"#utility.yul\":20473:20805   */\n      swap4\n      swap3\n      pop\n      pop\n      pop\n      jump\t// out\n        /* \"#utility.yul\":20811:21033   */\n    tag_542:\n        /* \"#utility.yul\":20951:20985   */\n      0x4f6e6c792061646d696e2063616e20706572666f726d20746869732061637469\n        /* \"#utility.yul\":20947:20948   */\n      0x00\n        /* \"#utility.yul\":20939:20945   */\n      dup3\n        /* \"#utility.yul\":20935:20949   */\n      add\n        /* \"#utility.yul\":20928:20986   */\n      mstore\n        /* \"#utility.yul\":21020:21025   */\n      0x6f6e2e0000000000000000000000000000000000000000000000000000000000\n        /* \"#utility.yul\":21015:21017   */\n      0x20\n        /* \"#utility.yul\":21007:21013   */\n      dup3\n        /* \"#utility.yul\":21003:21018   */\n      add\n        /* \"#utility.yul\":20996:21026   */\n      mstore\n        /* \"#utility.yul\":20811:21033   */\n      pop\n      jump\t// out\n        /* \"#utility.yul\":21039:21405   */\n    tag_543:\n        /* \"#utility.yul\":21181:21184   */\n      0x00\n        /* \"#utility.yul\":21202:21269   */\n      tag_803\n        /* \"#utility.yul\":21266:21268   */\n      0x23\n        /* \"#utility.yul\":21261:21264   */\n      dup4\n        /* \"#utility.yul\":21202:21269   */\n      tag_522\n      jump\t// in\n    tag_803:\n        /* \"#utility.yul\":21195:21269   */\n      swap2\n      pop\n        /* \"#utility.yul\":21278:21371   */\n      tag_804\n        /* \"#utility.yul\":21367:21370   */\n      dup3\n        /* \"#utility.yul\":21278:21371   */\n      tag_542\n      jump\t// in\n    tag_804:\n        /* \"#utility.yul\":21396:21398   */\n      0x40\n        /* \"#utility.yul\":21391:21394   */\n      dup3\n        /* \"#utility.yul\":21387:21399   */\n      add\n        /* \"#utility.yul\":21380:21399   */\n      swap1\n      pop\n        /* \"#utility.yul\":21039:21405   */\n      swap2\n      swap1\n      pop\n      jump\t// out\n        /* \"#utility.yul\":21411:21830   */\n    tag_115:\n        /* \"#utility.yul\":21577:21581   */\n      0x00\n        /* \"#utility.yul\":21615:21617   */\n      0x20\n        /* \"#utility.yul\":21604:21613   */\n      dup3\n        /* \"#utility.yul\":21600:21618   */\n      add\n        /* \"#utility.yul\":21592:21618   */\n      swap1\n      pop\n        /* \"#utility.yul\":21664:21673   */\n      dup2\n        /* \"#utility.yul\":21658:21662   */\n      dup2\n        /* \"#utility.yul\":21654:21674   */\n      sub\n        /* \"#utility.yul\":21650:21651   */\n      0x00\n        /* \"#utility.yul\":21639:21648   */\n      dup4\n        /* \"#utility.yul\":21635:21652   */\n      add\n        /* \"#utility.yul\":21628:21675   */\n      mstore\n        /* \"#utility.yul\":21692:21823   */\n      tag_806\n        /* \"#utility.yul\":21818:21822   */\n      dup2\n        /* \"#utility.yul\":21692:21823   */\n      tag_543\n      jump\t// in\n    tag_806:\n        /* \"#utility.yul\":21684:21823   */\n      swap1\n      pop\n        /* \"#utility.yul\":21411:21830   */\n      swap2\n      swap1\n      pop\n      jump\t// out\n        /* \"#utility.yul\":21836:22016   */\n    tag_122:\n        /* \"#utility.yul\":21884:21961   */\n      0x4e487b7100000000000000000000000000000000000000000000000000000000\n        /* \"#utility.yul\":21881:21882   */\n      0x00\n        /* \"#utility.yul\":21874:21962   */\n      mstore\n        /* \"#utility.yul\":21981:21985   */\n      0x32\n        /* \"#utility.yul\":21978:21979   */\n      0x04\n        /* \"#utility.yul\":21971:21986   */\n      mstore\n        /* \"#utility.yul\":22005:22009   */\n      0x24\n        /* \"#utility.yul\":22002:22003   */\n      0x00\n        /* \"#utility.yul\":21995:22010   */\n      revert\n        /* \"#utility.yul\":22022:22202   */\n    tag_544:\n        /* \"#utility.yul\":22070:22147   */\n      0x4e487b7100000000000000000000000000000000000000000000000000000000\n        /* \"#utility.yul\":22067:22068   */\n      0x00\n        /* \"#utility.yul\":22060:22148   */\n      mstore\n        /* \"#utility.yul\":22167:22171   */\n      0x22\n        /* \"#utility.yul\":22164:22165   */\n      0x04\n        /* \"#utility.yul\":22157:22172   */\n      mstore\n        /* \"#utility.yul\":22191:22195   */\n      0x24\n        /* \"#utility.yul\":22188:22189   */\n      0x00\n        /* \"#utility.yul\":22181:22196   */\n      revert\n        /* \"#utility.yul\":22208:22528   */\n    tag_143:\n        /* \"#utility.yul\":22252:22258   */\n      0x00\n        /* \"#utility.yul\":22289:22290   */\n      0x02\n        /* \"#utility.yul\":22283:22287   */\n      dup3\n        /* \"#utility.yul\":22279:22291   */\n      div\n        /* \"#utility.yul\":22269:22291   */\n      swap1\n      pop\n        /* \"#utility.yul\":22336:22337   */\n      0x01\n        /* \"#utility.yul\":22330:22334   */\n      dup3\n        /* \"#utility.yul\":22326:22338   */\n      and\n        /* \"#utility.yul\":22357:22375   */\n      dup1\n        /* \"#utility.yul\":22347:22428   */\n      tag_810\n      jumpi\n        /* \"#utility.yul\":22413:22417   */\n      0x7f\n        /* \"#utility.yul\":22405:22411   */\n      dup3\n        /* \"#utility.yul\":22401:22418   */\n      and\n        /* \"#utility.yul\":22391:22418   */\n      swap2\n      pop\n        /* \"#utility.yul\":22347:22428   */\n    tag_810:\n        /* \"#utility.yul\":22475:22477   */\n      0x20\n        /* \"#utility.yul\":22467:22473   */\n      dup3\n        /* \"#utility.yul\":22464:22478   */\n      lt\n        /* \"#utility.yul\":22444:22462   */\n      dup2\n        /* \"#utility.yul\":22441:22479   */\n      sub\n        /* \"#utility.yul\":22438:22522   */\n      tag_811\n      jumpi\n        /* \"#utility.yul\":22494:22512   */\n      tag_812\n      tag_544\n      jump\t// in\n    tag_812:\n        /* \"#utility.yul\":22438:22522   */\n    tag_811:\n        /* \"#utility.yul\":22259:22528   */\n      pop\n        /* \"#utility.yul\":22208:22528   */\n      swap2\n      swap1\n      pop\n      jump\t// out\n        /* \"#utility.yul\":22534:22682   */\n    tag_545:\n        /* \"#utility.yul\":22636:22647   */\n      0x00\n        /* \"#utility.yul\":22673:22676   */\n      dup2\n        /* \"#utility.yul\":22658:22676   */\n      swap1\n      pop\n        /* \"#utility.yul\":22534:22682   */\n      swap3\n      swap2\n      pop\n      pop\n      jump\t// out\n        /* \"#utility.yul\":22688:23078   */\n    tag_546:\n        /* \"#utility.yul\":22794:22797   */\n      0x00\n        /* \"#utility.yul\":22822:22861   */\n      tag_815\n        /* \"#utility.yul\":22855:22860   */\n      dup3\n        /* \"#utility.yul\":22822:22861   */\n      tag_496\n      jump\t// in\n    tag_815:\n        /* \"#utility.yul\":22877:22966   */\n      tag_816\n        /* \"#utility.yul\":22959:22965   */\n      dup2\n        /* \"#utility.yul\":22954:22957   */\n      dup6\n        /* \"#utility.yul\":22877:22966   */\n      tag_545\n      jump\t// in\n    tag_816:\n        /* \"#utility.yul\":22870:22966   */\n      swap4\n      pop\n        /* \"#utility.yul\":22975:23040   */\n      tag_817\n        /* \"#utility.yul\":23033:23039   */\n      dup2\n        /* \"#utility.yul\":23028:23031   */\n      dup6\n        /* \"#utility.yul\":23021:23025   */\n      0x20\n        /* \"#utility.yul\":23014:23019   */\n      dup7\n        /* \"#utility.yul\":23010:23026   */\n      add\n        /* \"#utility.yul\":22975:23040   */\n      tag_498\n      jump\t// in\n    tag_817:\n        /* \"#utility.yul\":23065:23071   */\n      dup1\n        /* \"#utility.yul\":23060:23063   */\n      dup5\n        /* \"#utility.yul\":23056:23072   */\n      add\n        /* \"#utility.yul\":23049:23072   */\n      swap2\n      pop\n        /* \"#utility.yul\":22798:23078   */\n      pop\n        /* \"#utility.yul\":22688:23078   */\n      swap3\n      swap2\n      pop\n      pop\n      jump\t// out\n        /* \"#utility.yul\":23084:23359   */\n    tag_149:\n        /* \"#utility.yul\":23216:23219   */\n      0x00\n        /* \"#utility.yul\":23238:23333   */\n      tag_819\n        /* \"#utility.yul\":23329:23332   */\n      dup3\n        /* \"#utility.yul\":23320:23326   */\n      dup5\n        /* \"#utility.yul\":23238:23333   */\n      tag_546\n      jump\t// in\n    tag_819:\n        /* \"#utility.yul\":23231:23333   */\n      swap2\n      pop\n        /* \"#utility.yul\":23350:23353   */\n      dup2\n        /* \"#utility.yul\":23343:23353   */\n      swap1\n      pop\n        /* \"#utility.yul\":23084:23359   */\n      swap3\n      swap2\n      pop\n      pop\n      jump\t// out\n        /* \"#utility.yul\":23365:23585   */\n    tag_547:\n        /* \"#utility.yul\":23505:23539   */\n      0x4174206c656173742074776f2063616e64696461746573207265717569726564\n        /* \"#utility.yul\":23501:23502   */\n      0x00\n        /* \"#utility.yul\":23493:23499   */\n      dup3\n        /* \"#utility.yul\":23489:23503   */\n      add\n        /* \"#utility.yul\":23482:23540   */\n      mstore\n        /* \"#utility.yul\":23574:23577   */\n      0x2e00000000000000000000000000000000000000000000000000000000000000\n        /* \"#utility.yul\":23569:23571   */\n      0x20\n        /* \"#utility.yul\":23561:23567   */\n      dup3\n        /* \"#utility.yul\":23557:23572   */\n      add\n        /* \"#utility.yul\":23550:23578   */\n      mstore\n        /* \"#utility.yul\":23365:23585   */\n      pop\n      jump\t// out\n        /* \"#utility.yul\":23591:23957   */\n    tag_548:\n        /* \"#utility.yul\":23733:23736   */\n      0x00\n        /* \"#utility.yul\":23754:23821   */\n      tag_822\n        /* \"#utility.yul\":23818:23820   */\n      0x21\n        /* \"#utility.yul\":23813:23816   */\n      dup4\n        /* \"#utility.yul\":23754:23821   */\n      tag_522\n      jump\t// in\n    tag_822:\n        /* \"#utility.yul\":23747:23821   */\n      swap2\n      pop\n        /* \"#utility.yul\":23830:23923   */\n      tag_823\n        /* \"#utility.yul\":23919:23922   */\n      dup3\n        /* \"#utility.yul\":23830:23923   */\n      tag_547\n      jump\t// in\n    tag_823:\n        /* \"#utility.yul\":23948:23950   */\n      0x40\n        /* \"#utility.yul\":23943:23946   */\n      dup3\n        /* \"#utility.yul\":23939:23951   */\n      add\n        /* \"#utility.yul\":23932:23951   */\n      swap1\n      pop\n        /* \"#utility.yul\":23591:23957   */\n      swap2\n      swap1\n      pop\n      jump\t// out\n        /* \"#utility.yul\":23963:24382   */\n    tag_178:\n        /* \"#utility.yul\":24129:24133   */\n      0x00\n        /* \"#utility.yul\":24167:24169   */\n      0x20\n        /* \"#utility.yul\":24156:24165   */\n      dup3\n        /* \"#utility.yul\":24152:24170   */\n      add\n        /* \"#utility.yul\":24144:24170   */\n      swap1\n      pop\n        /* \"#utility.yul\":24216:24225   */\n      dup2\n        /* \"#utility.yul\":24210:24214   */\n      dup2\n        /* \"#utility.yul\":24206:24226   */\n      sub\n        /* \"#utility.yul\":24202:24203   */\n      0x00\n        /* \"#utility.yul\":24191:24200   */\n      dup4\n        /* \"#utility.yul\":24187:24204   */\n      add\n        /* \"#utility.yul\":24180:24227   */\n      mstore\n        /* \"#utility.yul\":24244:24375   */\n      tag_825\n        /* \"#utility.yul\":24370:24374   */\n      dup2\n        /* \"#utility.yul\":24244:24375   */\n      tag_548\n      jump\t// in\n    tag_825:\n        /* \"#utility.yul\":24236:24375   */\n      swap1\n      pop\n        /* \"#utility.yul\":23963:24382   */\n      swap2\n      swap1\n      pop\n      jump\t// out\n        /* \"#utility.yul\":24388:24558   */\n    tag_549:\n        /* \"#utility.yul\":24528:24550   */\n      0x4172656120646f6573206e6f742065786973742e000000000000000000000000\n        /* \"#utility.yul\":24524:24525   */\n      0x00\n        /* \"#utility.yul\":24516:24522   */\n      dup3\n        /* \"#utility.yul\":24512:24526   */\n      add\n        /* \"#utility.yul\":24505:24551   */\n      mstore\n        /* \"#utility.yul\":24388:24558   */\n      pop\n      jump\t// out\n        /* \"#utility.yul\":24564:24930   */\n    tag_550:\n        /* \"#utility.yul\":24706:24709   */\n      0x00\n        /* \"#utility.yul\":24727:24794   */\n      tag_828\n        /* \"#utility.yul\":24791:24793   */\n      0x14\n        /* \"#utility.yul\":24786:24789   */\n      dup4\n        /* \"#utility.yul\":24727:24794   */\n      tag_522\n      jump\t// in\n    tag_828:\n        /* \"#utility.yul\":24720:24794   */\n      swap2\n      pop\n        /* \"#utility.yul\":24803:24896   */\n      tag_829\n        /* \"#utility.yul\":24892:24895   */\n      dup3\n        /* \"#utility.yul\":24803:24896   */\n      tag_549\n      jump\t// in\n    tag_829:\n        /* \"#utility.yul\":24921:24923   */\n      0x20\n        /* \"#utility.yul\":24916:24919   */\n      dup3\n        /* \"#utility.yul\":24912:24924   */\n      add\n        /* \"#utility.yul\":24905:24924   */\n      swap1\n      pop\n        /* \"#utility.yul\":24564:24930   */\n      swap2\n      swap1\n      pop\n      jump\t// out\n        /* \"#utility.yul\":24936:25355   */\n    tag_186:\n        /* \"#utility.yul\":25102:25106   */\n      0x00\n        /* \"#utility.yul\":25140:25142   */\n      0x20\n        /* \"#utility.yul\":25129:25138   */\n      dup3\n        /* \"#utility.yul\":25125:25143   */\n      add\n        /* \"#utility.yul\":25117:25143   */\n      swap1\n      pop\n        /* \"#utility.yul\":25189:25198   */\n      dup2\n        /* \"#utility.yul\":25183:25187   */\n      dup2\n        /* \"#utility.yul\":25179:25199   */\n      sub\n        /* \"#utility.yul\":25175:25176   */\n      0x00\n        /* \"#utility.yul\":25164:25173   */\n      dup4\n        /* \"#utility.yul\":25160:25177   */\n      add\n        /* \"#utility.yul\":25153:25200   */\n      mstore\n        /* \"#utility.yul\":25217:25348   */\n      tag_831\n        /* \"#utility.yul\":25343:25347   */\n      dup2\n        /* \"#utility.yul\":25217:25348   */\n      tag_550\n      jump\t// in\n    tag_831:\n        /* \"#utility.yul\":25209:25348   */\n      swap1\n      pop\n        /* \"#utility.yul\":24936:25355   */\n      swap2\n      swap1\n      pop\n      jump\t// out\n        /* \"#utility.yul\":25361:25542   */\n    tag_551:\n        /* \"#utility.yul\":25501:25534   */\n      0x43616e646964617465206e616d652063616e6e6f7420626520656d7074792e00\n        /* \"#utility.yul\":25497:25498   */\n      0x00\n        /* \"#utility.yul\":25489:25495   */\n      dup3\n        /* \"#utility.yul\":25485:25499   */\n      add\n        /* \"#utility.yul\":25478:25535   */\n      mstore\n        /* \"#utility.yul\":25361:25542   */\n      pop\n      jump\t// out\n        /* \"#utility.yul\":25548:25914   */\n    tag_552:\n        /* \"#utility.yul\":25690:25693   */\n      0x00\n        /* \"#utility.yul\":25711:25778   */\n      tag_834\n        /* \"#utility.yul\":25775:25777   */\n      0x1f\n        /* \"#utility.yul\":25770:25773   */\n      dup4\n        /* \"#utility.yul\":25711:25778   */\n      tag_522\n      jump\t// in\n    tag_834:\n        /* \"#utility.yul\":25704:25778   */\n      swap2\n      pop\n        /* \"#utility.yul\":25787:25880   */\n      tag_835\n        /* \"#utility.yul\":25876:25879   */\n      dup3\n        /* \"#utility.yul\":25787:25880   */\n      tag_551\n      jump\t// in\n    tag_835:\n        /* \"#utility.yul\":25905:25907   */\n      0x20\n        /* \"#utility.yul\":25900:25903   */\n      dup3\n        /* \"#utility.yul\":25896:25908   */\n      add\n        /* \"#utility.yul\":25889:25908   */\n      swap1\n      pop\n        /* \"#utility.yul\":25548:25914   */\n      swap2\n      swap1\n      pop\n      jump\t// out\n        /* \"#utility.yul\":25920:26339   */\n    tag_189:\n        /* \"#utility.yul\":26086:26090   */\n      0x00\n        /* \"#utility.yul\":26124:26126   */\n      0x20\n        /* \"#utility.yul\":26113:26122   */\n      dup3\n        /* \"#utility.yul\":26109:26127   */\n      add\n        /* \"#utility.yul\":26101:26127   */\n      swap1\n      pop\n        /* \"#utility.yul\":26173:26182   */\n      dup2\n        /* \"#utility.yul\":26167:26171   */\n      dup2\n        /* \"#utility.yul\":26163:26183   */\n      sub\n        /* \"#utility.yul\":26159:26160   */\n      0x00\n        /* \"#utility.yul\":26148:26157   */\n      dup4\n        /* \"#utility.yul\":26144:26161   */\n      add\n        /* \"#utility.yul\":26137:26184   */\n      mstore\n        /* \"#utility.yul\":26201:26332   */\n      tag_837\n        /* \"#utility.yul\":26327:26331   */\n      dup2\n        /* \"#utility.yul\":26201:26332   */\n      tag_552\n      jump\t// in\n    tag_837:\n        /* \"#utility.yul\":26193:26332   */\n      swap1\n      pop\n        /* \"#utility.yul\":25920:26339   */\n      swap2\n      swap1\n      pop\n      jump\t// out\n        /* \"#utility.yul\":26345:26524   */\n    tag_553:\n        /* \"#utility.yul\":26485:26516   */\n      0x43616e64696461746520616c726561647920726567697374657265642e000000\n        /* \"#utility.yul\":26481:26482   */\n      0x00\n        /* \"#utility.yul\":26473:26479   */\n      dup3\n        /* \"#utility.yul\":26469:26483   */\n      add\n        /* \"#utility.yul\":26462:26517   */\n      mstore\n        /* \"#utility.yul\":26345:26524   */\n      pop\n      jump\t// out\n        /* \"#utility.yul\":26530:26896   */\n    tag_554:\n        /* \"#utility.yul\":26672:26675   */\n      0x00\n        /* \"#utility.yul\":26693:26760   */\n      tag_840\n        /* \"#utility.yul\":26757:26759   */\n      0x1d\n        /* \"#utility.yul\":26752:26755   */\n      dup4\n        /* \"#utility.yul\":26693:26760   */\n      tag_522\n      jump\t// in\n    tag_840:\n        /* \"#utility.yul\":26686:26760   */\n      swap2\n      pop\n        /* \"#utility.yul\":26769:26862   */\n      tag_841\n        /* \"#utility.yul\":26858:26861   */\n      dup3\n        /* \"#utility.yul\":26769:26862   */\n      tag_553\n      jump\t// in\n    tag_841:\n        /* \"#utility.yul\":26887:26889   */\n      0x20\n        /* \"#utility.yul\":26882:26885   */\n      dup3\n        /* \"#utility.yul\":26878:26890   */\n      add\n        /* \"#utility.yul\":26871:26890   */\n      swap1\n      pop\n        /* \"#utility.yul\":26530:26896   */\n      swap2\n      swap1\n      pop\n      jump\t// out\n        /* \"#utility.yul\":26902:27321   */\n    tag_192:\n        /* \"#utility.yul\":27068:27072   */\n      0x00\n        /* \"#utility.yul\":27106:27108   */\n      0x20\n        /* \"#utility.yul\":27095:27104   */\n      dup3\n        /* \"#utility.yul\":27091:27109   */\n      add\n        /* \"#utility.yul\":27083:27109   */\n      swap1\n      pop\n        /* \"#utility.yul\":27155:27164   */\n      dup2\n        /* \"#utility.yul\":27149:27153   */\n      dup2\n        /* \"#utility.yul\":27145:27165   */\n      sub\n        /* \"#utility.yul\":27141:27142   */\n      0x00\n        /* \"#utility.yul\":27130:27139   */\n      dup4\n        /* \"#utility.yul\":27126:27143   */\n      add\n        /* \"#utility.yul\":27119:27166   */\n      mstore\n        /* \"#utility.yul\":27183:27314   */\n      tag_843\n        /* \"#utility.yul\":27309:27313   */\n      dup2\n        /* \"#utility.yul\":27183:27314   */\n      tag_554\n      jump\t// in\n    tag_843:\n        /* \"#utility.yul\":27175:27314   */\n      swap1\n      pop\n        /* \"#utility.yul\":26902:27321   */\n      swap2\n      swap1\n      pop\n      jump\t// out\n        /* \"#utility.yul\":27327:27508   */\n    tag_555:\n        /* \"#utility.yul\":27467:27500   */\n      0x4e6174696f6e616c20494420616c726561647920726567697374657265642e00\n        /* \"#utility.yul\":27463:27464   */\n      0x00\n        /* \"#utility.yul\":27455:27461   */\n      dup3\n        /* \"#utility.yul\":27451:27465   */\n      add\n        /* \"#utility.yul\":27444:27501   */\n      mstore\n        /* \"#utility.yul\":27327:27508   */\n      pop\n      jump\t// out\n        /* \"#utility.yul\":27514:27880   */\n    tag_556:\n        /* \"#utility.yul\":27656:27659   */\n      0x00\n        /* \"#utility.yul\":27677:27744   */\n      tag_846\n        /* \"#utility.yul\":27741:27743   */\n      0x1f\n        /* \"#utility.yul\":27736:27739   */\n      dup4\n        /* \"#utility.yul\":27677:27744   */\n      tag_522\n      jump\t// in\n    tag_846:\n        /* \"#utility.yul\":27670:27744   */\n      swap2\n      pop\n        /* \"#utility.yul\":27753:27846   */\n      tag_847\n        /* \"#utility.yul\":27842:27845   */\n      dup3\n        /* \"#utility.yul\":27753:27846   */\n      tag_555\n      jump\t// in\n    tag_847:\n        /* \"#utility.yul\":27871:27873   */\n      0x20\n        /* \"#utility.yul\":27866:27869   */\n      dup3\n        /* \"#utility.yul\":27862:27874   */\n      add\n        /* \"#utility.yul\":27855:27874   */\n      swap1\n      pop\n        /* \"#utility.yul\":27514:27880   */\n      swap2\n      swap1\n      pop\n      jump\t// out\n        /* \"#utility.yul\":27886:28305   */\n    tag_196:\n        /* \"#utility.yul\":28052:28056   */\n      0x00\n        /* \"#utility.yul\":28090:28092   */\n      0x20\n        /* \"#utility.yul\":28079:28088   */\n      dup3\n        /* \"#utility.yul\":28075:28093   */\n      add\n        /* \"#utility.yul\":28067:28093   */\n      swap1\n      pop\n        /* \"#utility.yul\":28139:28148   */\n      dup2\n        /* \"#utility.yul\":28133:28137   */\n      dup2\n        /* \"#utility.yul\":28129:28149   */\n      sub\n        /* \"#utility.yul\":28125:28126   */\n      0x00\n        /* \"#utility.yul\":28114:28123   */\n      dup4\n        /* \"#utility.yul\":28110:28127   */\n      add\n        /* \"#utility.yul\":28103:28150   */\n      mstore\n        /* \"#utility.yul\":28167:28298   */\n      tag_849\n        /* \"#utility.yul\":28293:28297   */\n      dup2\n        /* \"#utility.yul\":28167:28298   */\n      tag_556\n      jump\t// in\n    tag_849:\n        /* \"#utility.yul\":28159:28298   */\n      swap1\n      pop\n        /* \"#utility.yul\":27886:28305   */\n      swap2\n      swap1\n      pop\n      jump\t// out\n        /* \"#utility.yul\":28311:28452   */\n    tag_557:\n        /* \"#utility.yul\":28360:28364   */\n      0x00\n        /* \"#utility.yul\":28383:28386   */\n      dup2\n        /* \"#utility.yul\":28375:28386   */\n      swap1\n      pop\n        /* \"#utility.yul\":28406:28409   */\n      dup2\n        /* \"#utility.yul\":28403:28404   */\n      0x00\n        /* \"#utility.yul\":28396:28410   */\n      mstore\n        /* \"#utility.yul\":28440:28444   */\n      0x20\n        /* \"#utility.yul\":28437:28438   */\n      0x00\n        /* \"#utility.yul\":28427:28445   */\n      keccak256\n        /* \"#utility.yul\":28419:28445   */\n      swap1\n      pop\n        /* \"#utility.yul\":28311:28452   */\n      swap2\n      swap1\n      pop\n      jump\t// out\n        /* \"#utility.yul\":28458:28551   */\n    tag_558:\n        /* \"#utility.yul\":28495:28501   */\n      0x00\n        /* \"#utility.yul\":28542:28544   */\n      0x20\n        /* \"#utility.yul\":28537:28539   */\n      0x1f\n        /* \"#utility.yul\":28530:28535   */\n      dup4\n        /* \"#utility.yul\":28526:28540   */\n      add\n        /* \"#utility.yul\":28522:28545   */\n      div\n        /* \"#utility.yul\":28512:28545   */\n      swap1\n      pop\n        /* \"#utility.yul\":28458:28551   */\n      swap2\n      swap1\n      pop\n      jump\t// out\n        /* \"#utility.yul\":28557:28664   */\n    tag_559:\n        /* \"#utility.yul\":28601:28609   */\n      0x00\n        /* \"#utility.yul\":28651:28656   */\n      dup3\n        /* \"#utility.yul\":28645:28649   */\n      dup3\n        /* \"#utility.yul\":28641:28657   */\n      shl\n        /* \"#utility.yul\":28620:28657   */\n      swap1\n      pop\n        /* \"#utility.yul\":28557:28664   */\n      swap3\n      swap2\n      pop\n      pop\n      jump\t// out\n        /* \"#utility.yul\":28670:29063   */\n    tag_560:\n        /* \"#utility.yul\":28739:28745   */\n      0x00\n        /* \"#utility.yul\":28789:28790   */\n      0x08\n        /* \"#utility.yul\":28777:28787   */\n      dup4\n        /* \"#utility.yul\":28773:28791   */\n      mul\n        /* \"#utility.yul\":28812:28909   */\n      tag_854\n        /* \"#utility.yul\":28842:28908   */\n      0xffffffffffffffffffffffffffffffffffffffffffffffffffffffffffffffff\n        /* \"#utility.yul\":28831:28840   */\n      dup3\n        /* \"#utility.yul\":28812:28909   */\n      tag_559\n      jump\t// in\n    tag_854:\n        /* \"#utility.yul\":28930:28969   */\n      tag_855\n        /* \"#utility.yul\":28960:28968   */\n      dup7\n        /* \"#utility.yul\":28949:28958   */\n      dup4\n        /* \"#utility.yul\":28930:28969   */\n      tag_559\n      jump\t// in\n    tag_855:\n        /* \"#utility.yul\":28918:28969   */\n      swap6\n      pop\n        /* \"#utility.yul\":29002:29006   */\n      dup1\n        /* \"#utility.yul\":28998:29007   */\n      not\n        /* \"#utility.yul\":28991:28996   */\n      dup5\n        /* \"#utility.yul\":28987:29008   */\n      and\n        /* \"#utility.yul\":28978:29008   */\n      swap4\n      pop\n        /* \"#utility.yul\":29051:29055   */\n      dup1\n        /* \"#utility.yul\":29041:29049   */\n      dup7\n        /* \"#utility.yul\":29037:29056   */\n      and\n        /* \"#utility.yul\":29030:29035   */\n      dup5\n        /* \"#utility.yul\":29027:29057   */\n      or\n        /* \"#utility.yul\":29017:29057   */\n      swap3\n      pop\n        /* \"#utility.yul\":28746:29063   */\n      pop\n      pop\n        /* \"#utility.yul\":28670:29063   */\n      swap4\n      swap3\n      pop\n      pop\n      pop\n      jump\t// out\n        /* \"#utility.yul\":29069:29129   */\n    tag_561:\n        /* \"#utility.yul\":29097:29100   */\n      0x00\n        /* \"#utility.yul\":29118:29123   */\n      dup2\n        /* \"#utility.yul\":29111:29123   */\n      swap1\n      pop\n        /* \"#utility.yul\":29069:29129   */\n      swap2\n      swap1\n      pop\n      jump\t// out\n        /* \"#utility.yul\":29135:29277   */\n    tag_562:\n        /* \"#utility.yul\":29185:29194   */\n      0x00\n        /* \"#utility.yul\":29218:29271   */\n      tag_858\n        /* \"#utility.yul\":29236:29270   */\n      tag_859\n        /* \"#utility.yul\":29245:29269   */\n      tag_860\n        /* \"#utility.yul\":29263:29268   */\n      dup5\n        /* \"#utility.yul\":29245:29269   */\n      tag_519\n      jump\t// in\n    tag_860:\n        /* \"#utility.yul\":29236:29270   */\n      tag_561\n      jump\t// in\n    tag_859:\n        /* \"#utility.yul\":29218:29271   */\n      tag_519\n      jump\t// in\n    tag_858:\n        /* \"#utility.yul\":29205:29271   */\n      swap1\n      pop\n        /* \"#utility.yul\":29135:29277   */\n      swap2\n      swap1\n      pop\n      jump\t// out\n        /* \"#utility.yul\":29283:29358   */\n    tag_563:\n        /* \"#utility.yul\":29326:29329   */\n      0x00\n        /* \"#utility.yul\":29347:29352   */\n      dup2\n        /* \"#utility.yul\":29340:29352   */\n      swap1\n      pop\n        /* \"#utility.yul\":29283:29358   */\n      swap2\n      swap1\n      pop\n      jump\t// out\n        /* \"#utility.yul\":29364:29633   */\n    tag_564:\n        /* \"#utility.yul\":29474:29513   */\n      tag_863\n        /* \"#utility.yul\":29505:29512   */\n      dup4\n        /* \"#utility.yul\":29474:29513   */\n      tag_562\n      jump\t// in\n    tag_863:\n        /* \"#utility.yul\":29535:29626   */\n      tag_864\n        /* \"#utility.yul\":29584:29625   */\n      tag_865\n        /* \"#utility.yul\":29608:29624   */\n      dup3\n        /* \"#utility.yul\":29584:29625   */\n      tag_563\n      jump\t// in\n    tag_865:\n        /* \"#utility.yul\":29576:29582   */\n      dup5\n        /* \"#utility.yul\":29569:29573   */\n      dup5\n        /* \"#utility.yul\":29563:29574   */\n      sload\n        /* \"#utility.yul\":29535:29626   */\n      tag_560\n      jump\t// in\n    tag_864:\n        /* \"#utility.yul\":29529:29533   */\n      dup3\n        /* \"#utility.yul\":29522:29627   */\n      sstore\n        /* \"#utility.yul\":29440:29633   */\n      pop\n        /* \"#utility.yul\":29364:29633   */\n      pop\n      pop\n      pop\n      jump\t// out\n        /* \"#utility.yul\":29639:29712   */\n    tag_565:\n        /* \"#utility.yul\":29684:29687   */\n      0x00\n        /* \"#utility.yul\":29639:29712   */\n      swap1\n      jump\t// out\n        /* \"#utility.yul\":29718:29907   */\n    tag_566:\n        /* \"#utility.yul\":29795:29827   */\n      tag_868\n      tag_565\n      jump\t// in\n    tag_868:\n        /* \"#utility.yul\":29836:29901   */\n      tag_869\n        /* \"#utility.yul\":29894:29900   */\n      dup2\n        /* \"#utility.yul\":29886:29892   */\n      dup5\n        /* \"#utility.yul\":29880:29884   */\n      dup5\n        /* \"#utility.yul\":29836:29901   */\n      tag_564\n      jump\t// in\n    tag_869:\n        /* \"#utility.yul\":29771:29907   */\n      pop\n        /* \"#utility.yul\":29718:29907   */\n      pop\n      pop\n      jump\t// out\n        /* \"#utility.yul\":29913:30099   */\n    tag_567:\n        /* \"#utility.yul\":29973:30093   */\n    tag_871:\n        /* \"#utility.yul\":29990:29993   */\n      dup2\n        /* \"#utility.yul\":29983:29988   */\n      dup2\n        /* \"#utility.yul\":29980:29994   */\n      lt\n        /* \"#utility.yul\":29973:30093   */\n      iszero\n      tag_873\n      jumpi\n        /* \"#utility.yul\":30044:30083   */\n      tag_874\n        /* \"#utility.yul\":30081:30082   */\n      0x00\n        /* \"#utility.yul\":30074:30079   */\n      dup3\n        /* \"#utility.yul\":30044:30083   */\n      tag_566\n      jump\t// in\n    tag_874:\n        /* \"#utility.yul\":30017:30018   */\n      0x01\n        /* \"#utility.yul\":30010:30015   */\n      dup2\n        /* \"#utility.yul\":30006:30019   */\n      add\n        /* \"#utility.yul\":29997:30019   */\n      swap1\n      pop\n        /* \"#utility.yul\":29973:30093   */\n      jump(tag_871)\n    tag_873:\n        /* \"#utility.yul\":29913:30099   */\n      pop\n      pop\n      jump\t// out\n        /* \"#utility.yul\":30105:30648   */\n    tag_568:\n        /* \"#utility.yul\":30206:30208   */\n      0x1f\n        /* \"#utility.yul\":30201:30204   */\n      dup3\n        /* \"#utility.yul\":30198:30209   */\n      gt\n        /* \"#utility.yul\":30195:30641   */\n      iszero\n      tag_876\n      jumpi\n        /* \"#utility.yul\":30240:30278   */\n      tag_877\n        /* \"#utility.yul\":30272:30277   */\n      dup2\n        /* \"#utility.yul\":30240:30278   */\n      tag_557\n      jump\t// in\n    tag_877:\n        /* \"#utility.yul\":30324:30353   */\n      tag_878\n        /* \"#utility.yul\":30342:30352   */\n      dup5\n        /* \"#utility.yul\":30324:30353   */\n      tag_558\n      jump\t// in\n    tag_878:\n        /* \"#utility.yul\":30314:30322   */\n      dup2\n        /* \"#utility.yul\":30310:30354   */\n      add\n        /* \"#utility.yul\":30507:30509   */\n      0x20\n        /* \"#utility.yul\":30495:30505   */\n      dup6\n        /* \"#utility.yul\":30492:30510   */\n      lt\n        /* \"#utility.yul\":30489:30538   */\n      iszero\n      tag_879\n      jumpi\n        /* \"#utility.yul\":30528:30536   */\n      dup2\n        /* \"#utility.yul\":30513:30536   */\n      swap1\n      pop\n        /* \"#utility.yul\":30489:30538   */\n    tag_879:\n        /* \"#utility.yul\":30551:30631   */\n      tag_880\n        /* \"#utility.yul\":30607:30629   */\n      tag_881\n        /* \"#utility.yul\":30625:30628   */\n      dup6\n        /* \"#utility.yul\":30607:30629   */\n      tag_558\n      jump\t// in\n    tag_881:\n        /* \"#utility.yul\":30597:30605   */\n      dup4\n        /* \"#utility.yul\":30593:30630   */\n      add\n        /* \"#utility.yul\":30580:30591   */\n      dup3\n        /* \"#utility.yul\":30551:30631   */\n      tag_567\n      jump\t// in\n    tag_880:\n        /* \"#utility.yul\":30210:30641   */\n      pop\n      pop\n        /* \"#utility.yul\":30195:30641   */\n    tag_876:\n        /* \"#utility.yul\":30105:30648   */\n      pop\n      pop\n      pop\n      jump\t// out\n        /* \"#utility.yul\":30654:30771   */\n    tag_569:\n        /* \"#utility.yul\":30708:30716   */\n      0x00\n        /* \"#utility.yul\":30758:30763   */\n      dup3\n        /* \"#utility.yul\":30752:30756   */\n      dup3\n        /* \"#utility.yul\":30748:30764   */\n      shr\n        /* \"#utility.yul\":30727:30764   */\n      swap1\n      pop\n        /* \"#utility.yul\":30654:30771   */\n      swap3\n      swap2\n      pop\n      pop\n      jump\t// out\n        /* \"#utility.yul\":30777:30946   */\n    tag_570:\n        /* \"#utility.yul\":30821:30827   */\n      0x00\n        /* \"#utility.yul\":30854:30905   */\n      tag_884\n        /* \"#utility.yul\":30902:30903   */\n      0x00\n        /* \"#utility.yul\":30898:30904   */\n      not\n        /* \"#utility.yul\":30890:30895   */\n      dup5\n        /* \"#utility.yul\":30887:30888   */\n      0x08\n        /* \"#utility.yul\":30883:30896   */\n      mul\n        /* \"#utility.yul\":30854:30905   */\n      tag_569\n      jump\t// in\n    tag_884:\n        /* \"#utility.yul\":30850:30906   */\n      not\n        /* \"#utility.yul\":30935:30939   */\n      dup1\n        /* \"#utility.yul\":30929:30933   */\n      dup4\n        /* \"#utility.yul\":30925:30940   */\n      and\n        /* \"#utility.yul\":30915:30940   */\n      swap2\n      pop\n        /* \"#utility.yul\":30828:30946   */\n      pop\n        /* \"#utility.yul\":30777:30946   */\n      swap3\n      swap2\n      pop\n      pop\n      jump\t// out\n        /* \"#utility.yul\":30951:31246   */\n    tag_571:\n        /* \"#utility.yul\":31027:31031   */\n      0x00\n        /* \"#utility.yul\":31173:31202   */\n      tag_886\n        /* \"#utility.yul\":31198:31201   */\n      dup4\n        /* \"#utility.yul\":31192:31196   */\n      dup4\n        /* \"#utility.yul\":31173:31202   */\n      tag_570\n      jump\t// in\n    tag_886:\n        /* \"#utility.yul\":31165:31202   */\n      swap2\n      pop\n        /* \"#utility.yul\":31235:31238   */\n      dup3\n        /* \"#utility.yul\":31232:31233   */\n      0x02\n        /* \"#utility.yul\":31228:31239   */\n      mul\n        /* \"#utility.yul\":31222:31226   */\n      dup3\n        /* \"#utility.yul\":31219:31240   */\n      or\n        /* \"#utility.yul\":31211:31240   */\n      swap1\n      pop\n        /* \"#utility.yul\":30951:31246   */\n      swap3\n      swap2\n      pop\n      pop\n      jump\t// out\n        /* \"#utility.yul\":31251:32646   */\n    tag_198:\n        /* \"#utility.yul\":31368:31405   */\n      tag_888\n        /* \"#utility.yul\":31401:31404   */\n      dup3\n        /* \"#utility.yul\":31368:31405   */\n      tag_496\n      jump\t// in\n    tag_888:\n        /* \"#utility.yul\":31470:31488   */\n      0xffffffffffffffff\n        /* \"#utility.yul\":31462:31468   */\n      dup2\n        /* \"#utility.yul\":31459:31489   */\n      gt\n        /* \"#utility.yul\":31456:31512   */\n      iszero\n      tag_889\n      jumpi\n        /* \"#utility.yul\":31492:31510   */\n      tag_890\n      tag_156\n      jump\t// in\n    tag_890:\n        /* \"#utility.yul\":31456:31512   */\n    tag_889:\n        /* \"#utility.yul\":31536:31574   */\n      tag_891\n        /* \"#utility.yul\":31568:31572   */\n      dup3\n        /* \"#utility.yul\":31562:31573   */\n      sload\n        /* \"#utility.yul\":31536:31574   */\n      tag_143\n      jump\t// in\n    tag_891:\n        /* \"#utility.yul\":31621:31688   */\n      tag_892\n        /* \"#utility.yul\":31681:31687   */\n      dup3\n        /* \"#utility.yul\":31673:31679   */\n      dup3\n        /* \"#utility.yul\":31667:31671   */\n      dup6\n        /* \"#utility.yul\":31621:31688   */\n      tag_568\n      jump\t// in\n    tag_892:\n        /* \"#utility.yul\":31715:31716   */\n      0x00\n        /* \"#utility.yul\":31739:31743   */\n      0x20\n        /* \"#utility.yul\":31726:31743   */\n      swap1\n      pop\n        /* \"#utility.yul\":31771:31773   */\n      0x1f\n        /* \"#utility.yul\":31763:31769   */\n      dup4\n        /* \"#utility.yul\":31760:31774   */\n      gt\n        /* \"#utility.yul\":31788:31789   */\n      0x01\n        /* \"#utility.yul\":31783:32401   */\n      dup2\n      eq\n      tag_894\n      jumpi\n        /* \"#utility.yul\":32445:32446   */\n      0x00\n        /* \"#utility.yul\":32462:32468   */\n      dup5\n        /* \"#utility.yul\":32459:32536   */\n      iszero\n      tag_895\n      jumpi\n        /* \"#utility.yul\":32511:32520   */\n      dup3\n        /* \"#utility.yul\":32506:32509   */\n      dup8\n        /* \"#utility.yul\":32502:32521   */\n      add\n        /* \"#utility.yul\":32496:32522   */\n      mload\n        /* \"#utility.yul\":32487:32522   */\n      swap1\n      pop\n        /* \"#utility.yul\":32459:32536   */\n    tag_895:\n        /* \"#utility.yul\":32562:32629   */\n      tag_896\n        /* \"#utility.yul\":32622:32628   */\n      dup6\n        /* \"#utility.yul\":32615:32620   */\n      dup3\n        /* \"#utility.yul\":32562:32629   */\n      tag_571\n      jump\t// in\n    tag_896:\n        /* \"#utility.yul\":32556:32560   */\n      dup7\n        /* \"#utility.yul\":32549:32630   */\n      sstore\n        /* \"#utility.yul\":32418:32640   */\n      pop\n        /* \"#utility.yul\":31753:32640   */\n      jump(tag_893)\n        /* \"#utility.yul\":31783:32401   */\n    tag_894:\n        /* \"#utility.yul\":31835:31839   */\n      0x1f\n        /* \"#utility.yul\":31831:31840   */\n      not\n        /* \"#utility.yul\":31823:31829   */\n      dup5\n        /* \"#utility.yul\":31819:31841   */\n      and\n        /* \"#utility.yul\":31869:31906   */\n      tag_897\n        /* \"#utility.yul\":31901:31905   */\n      dup7\n        /* \"#utility.yul\":31869:31906   */\n      tag_557\n      jump\t// in\n    tag_897:\n        /* \"#utility.yul\":31928:31929   */\n      0x00\n        /* \"#utility.yul\":31942:32150   */\n    tag_898:\n        /* \"#utility.yul\":31956:31963   */\n      dup3\n        /* \"#utility.yul\":31953:31954   */\n      dup2\n        /* \"#utility.yul\":31950:31964   */\n      lt\n        /* \"#utility.yul\":31942:32150   */\n      iszero\n      tag_900\n      jumpi\n        /* \"#utility.yul\":32035:32044   */\n      dup5\n        /* \"#utility.yul\":32030:32033   */\n      dup10\n        /* \"#utility.yul\":32026:32045   */\n      add\n        /* \"#utility.yul\":32020:32046   */\n      mload\n        /* \"#utility.yul\":32012:32018   */\n      dup3\n        /* \"#utility.yul\":32005:32047   */\n      sstore\n        /* \"#utility.yul\":32086:32087   */\n      0x01\n        /* \"#utility.yul\":32078:32084   */\n      dup3\n        /* \"#utility.yul\":32074:32088   */\n      add\n        /* \"#utility.yul\":32064:32088   */\n      swap2\n      pop\n        /* \"#utility.yul\":32133:32135   */\n      0x20\n        /* \"#utility.yul\":32122:32131   */\n      dup6\n        /* \"#utility.yul\":32118:32136   */\n      add\n        /* \"#utility.yul\":32105:32136   */\n      swap5\n      pop\n        /* \"#utility.yul\":31979:31983   */\n      0x20\n        /* \"#utility.yul\":31976:31977   */\n      dup2\n        /* \"#utility.yul\":31972:31984   */\n      add\n        /* \"#utility.yul\":31967:31984   */\n      swap1\n      pop\n        /* \"#utility.yul\":31942:32150   */\n      jump(tag_898)\n    tag_900:\n        /* \"#utility.yul\":32178:32184   */\n      dup7\n        /* \"#utility.yul\":32169:32176   */\n      dup4\n        /* \"#utility.yul\":32166:32185   */\n      lt\n        /* \"#utility.yul\":32163:32342   */\n      iszero\n      tag_901\n      jumpi\n        /* \"#utility.yul\":32236:32245   */\n      dup5\n        /* \"#utility.yul\":32231:32234   */\n      dup10\n        /* \"#utility.yul\":32227:32246   */\n      add\n        /* \"#utility.yul\":32221:32247   */\n      mload\n        /* \"#utility.yul\":32279:32327   */\n      tag_902\n        /* \"#utility.yul\":32321:32325   */\n      0x1f\n        /* \"#utility.yul\":32313:32319   */\n      dup10\n        /* \"#utility.yul\":32309:32326   */\n      and\n        /* \"#utility.yul\":32298:32307   */\n      dup3\n        /* \"#utility.yul\":32279:32327   */\n      tag_570\n      jump\t// in\n    tag_902:\n        /* \"#utility.yul\":32271:32277   */\n      dup4\n        /* \"#utility.yul\":32264:32328   */\n      sstore\n        /* \"#utility.yul\":32186:32342   */\n      pop\n        /* \"#utility.yul\":32163:32342   */\n    tag_901:\n        /* \"#utility.yul\":32388:32389   */\n      0x01\n        /* \"#utility.yul\":32384:32385   */\n      0x02\n        /* \"#utility.yul\":32376:32382   */\n      dup9\n        /* \"#utility.yul\":32372:32386   */\n      mul\n        /* \"#utility.yul\":32368:32390   */\n      add\n        /* \"#utility.yul\":32362:32366   */\n      dup9\n        /* \"#utility.yul\":32355:32391   */\n      sstore\n        /* \"#utility.yul\":31790:32401   */\n      pop\n      pop\n      pop\n        /* \"#utility.yul\":31753:32640   */\n    tag_893:\n      pop\n        /* \"#utility.yul\":31343:32646   */\n      pop\n      pop\n      pop\n        /* \"#utility.yul\":31251:32646   */\n      pop\n      pop\n      jump\t// out\n        /* \"#utility.yul\":32652:33478   */\n    tag_204:\n        /* \"#utility.yul\":32889:32893   */\n      0x00\n        /* \"#utility.yul\":32927:32930   */\n      0x80\n        /* \"#utility.yul\":32916:32925   */\n      dup3\n        /* \"#utility.yul\":32912:32931   */\n      add\n        /* \"#utility.yul\":32904:32931   */\n      swap1\n      pop\n        /* \"#utility.yul\":32941:33012   */\n      tag_904\n        /* \"#utility.yul\":33009:33010   */\n      0x00\n        /* \"#utility.yul\":32998:33007   */\n      dup4\n        /* \"#utility.yul\":32994:33011   */\n      add\n        /* \"#utility.yul\":32985:32991   */\n      dup8\n        /* \"#utility.yul\":32941:33012   */\n      tag_524\n      jump\t// in\n    tag_904:\n        /* \"#utility.yul\":33059:33068   */\n      dup2\n        /* \"#utility.yul\":33053:33057   */\n      dup2\n        /* \"#utility.yul\":33049:33069   */\n      sub\n        /* \"#utility.yul\":33044:33046   */\n      0x20\n        /* \"#utility.yul\":33033:33042   */\n      dup4\n        /* \"#utility.yul\":33029:33047   */\n      add\n        /* \"#utility.yul\":33022:33070   */\n      mstore\n        /* \"#utility.yul\":33087:33165   */\n      tag_905\n        /* \"#utility.yul\":33160:33164   */\n      dup2\n        /* \"#utility.yul\":33151:33157   */\n      dup7\n        /* \"#utility.yul\":33087:33165   */\n      tag_523\n      jump\t// in\n    tag_905:\n        /* \"#utility.yul\":33079:33165   */\n      swap1\n      pop\n        /* \"#utility.yul\":33212:33221   */\n      dup2\n        /* \"#utility.yul\":33206:33210   */\n      dup2\n        /* \"#utility.yul\":33202:33222   */\n      sub\n        /* \"#utility.yul\":33197:33199   */\n      0x40\n        /* \"#utility.yul\":33186:33195   */\n      dup4\n        /* \"#utility.yul\":33182:33200   */\n      add\n        /* \"#utility.yul\":33175:33223   */\n      mstore\n        /* \"#utility.yul\":33240:33318   */\n      tag_906\n        /* \"#utility.yul\":33313:33317   */\n      dup2\n        /* \"#utility.yul\":33304:33310   */\n      dup6\n        /* \"#utility.yul\":33240:33318   */\n      tag_523\n      jump\t// in\n    tag_906:\n        /* \"#utility.yul\":33232:33318   */\n      swap1\n      pop\n        /* \"#utility.yul\":33365:33374   */\n      dup2\n        /* \"#utility.yul\":33359:33363   */\n      dup2\n        /* \"#utility.yul\":33355:33375   */\n      sub\n        /* \"#utility.yul\":33350:33352   */\n      0x60\n        /* \"#utility.yul\":33339:33348   */\n      dup4\n        /* \"#utility.yul\":33335:33353   */\n      add\n        /* \"#utility.yul\":33328:33376   */\n      mstore\n        /* \"#utility.yul\":33393:33471   */\n      tag_907\n        /* \"#utility.yul\":33466:33470   */\n      dup2\n        /* \"#utility.yul\":33457:33463   */\n      dup5\n        /* \"#utility.yul\":33393:33471   */\n      tag_523\n      jump\t// in\n    tag_907:\n        /* \"#utility.yul\":33385:33471   */\n      swap1\n      pop\n        /* \"#utility.yul\":32652:33478   */\n      swap6\n      swap5\n      pop\n      pop\n      pop\n      pop\n      pop\n      jump\t// out\n        /* \"#utility.yul\":33508:34382   */\n    tag_572:\n        /* \"#utility.yul\":33611:33614   */\n      0x00\n        /* \"#utility.yul\":33648:33653   */\n      dup2\n        /* \"#utility.yul\":33642:33654   */\n      sload\n        /* \"#utility.yul\":33677:33713   */\n      tag_909\n        /* \"#utility.yul\":33703:33712   */\n      dup2\n        /* \"#utility.yul\":33677:33713   */\n      tag_143\n      jump\t// in\n    tag_909:\n        /* \"#utility.yul\":33729:33818   */\n      tag_910\n        /* \"#utility.yul\":33811:33817   */\n      dup2\n        /* \"#utility.yul\":33806:33809   */\n      dup7\n        /* \"#utility.yul\":33729:33818   */\n      tag_545\n      jump\t// in\n    tag_910:\n        /* \"#utility.yul\":33722:33818   */\n      swap5\n      pop\n        /* \"#utility.yul\":33849:33850   */\n      0x01\n        /* \"#utility.yul\":33838:33847   */\n      dup3\n        /* \"#utility.yul\":33834:33851   */\n      and\n        /* \"#utility.yul\":33865:33866   */\n      0x00\n        /* \"#utility.yul\":33860:34026   */\n      dup2\n      eq\n      tag_912\n      jumpi\n        /* \"#utility.yul\":34040:34041   */\n      0x01\n        /* \"#utility.yul\":34035:34376   */\n      dup2\n      eq\n      tag_913\n      jumpi\n        /* \"#utility.yul\":33827:34376   */\n      jump(tag_911)\n        /* \"#utility.yul\":33860:34026   */\n    tag_912:\n        /* \"#utility.yul\":33944:33948   */\n      0xff\n        /* \"#utility.yul\":33940:33949   */\n      not\n        /* \"#utility.yul\":33929:33938   */\n      dup4\n        /* \"#utility.yul\":33925:33950   */\n      and\n        /* \"#utility.yul\":33920:33923   */\n      dup7\n        /* \"#utility.yul\":33913:33951   */\n      mstore\n        /* \"#utility.yul\":34006:34012   */\n      dup2\n        /* \"#utility.yul\":33999:34013   */\n      iszero\n        /* \"#utility.yul\":33992:34014   */\n      iszero\n        /* \"#utility.yul\":33984:33990   */\n      dup3\n        /* \"#utility.yul\":33980:34015   */\n      mul\n        /* \"#utility.yul\":33975:33978   */\n      dup7\n        /* \"#utility.yul\":33971:34016   */\n      add\n        /* \"#utility.yul\":33964:34016   */\n      swap4\n      pop\n        /* \"#utility.yul\":33860:34026   */\n      jump(tag_911)\n        /* \"#utility.yul\":34035:34376   */\n    tag_913:\n        /* \"#utility.yul\":34102:34140   */\n      tag_914\n        /* \"#utility.yul\":34134:34139   */\n      dup6\n        /* \"#utility.yul\":34102:34140   */\n      tag_557\n      jump\t// in\n    tag_914:\n        /* \"#utility.yul\":34162:34163   */\n      0x00\n        /* \"#utility.yul\":34176:34330   */\n    tag_915:\n        /* \"#utility.yul\":34190:34196   */\n      dup4\n        /* \"#utility.yul\":34187:34188   */\n      dup2\n        /* \"#utility.yul\":34184:34197   */\n      lt\n        /* \"#utility.yul\":34176:34330   */\n      iszero\n      tag_917\n      jumpi\n        /* \"#utility.yul\":34264:34271   */\n      dup2\n        /* \"#utility.yul\":34258:34272   */\n      sload\n        /* \"#utility.yul\":34254:34255   */\n      dup2\n        /* \"#utility.yul\":34249:34252   */\n      dup10\n        /* \"#utility.yul\":34245:34256   */\n      add\n        /* \"#utility.yul\":34238:34273   */\n      mstore\n        /* \"#utility.yul\":34314:34315   */\n      0x01\n        /* \"#utility.yul\":34305:34312   */\n      dup3\n        /* \"#utility.yul\":34301:34316   */\n      add\n        /* \"#utility.yul\":34290:34316   */\n      swap2\n      pop\n        /* \"#utility.yul\":34212:34216   */\n      0x20\n        /* \"#utility.yul\":34209:34210   */\n      dup2\n        /* \"#utility.yul\":34205:34217   */\n      add\n        /* \"#utility.yul\":34200:34217   */\n      swap1\n      pop\n        /* \"#utility.yul\":34176:34330   */\n      jump(tag_915)\n    tag_917:\n        /* \"#utility.yul\":34359:34365   */\n      dup4\n        /* \"#utility.yul\":34354:34357   */\n      dup9\n        /* \"#utility.yul\":34350:34366   */\n      add\n        /* \"#utility.yul\":34343:34366   */\n      swap6\n      pop\n        /* \"#utility.yul\":34042:34376   */\n      pop\n      pop\n        /* \"#utility.yul\":33827:34376   */\n    tag_911:\n      pop\n        /* \"#utility.yul\":33615:34382   */\n      pop\n      pop\n        /* \"#utility.yul\":33508:34382   */\n      swap3\n      swap2\n      pop\n      pop\n      jump\t// out\n        /* \"#utility.yul\":34388:34657   */\n    tag_233:\n        /* \"#utility.yul\":34517:34520   */\n      0x00\n        /* \"#utility.yul\":34539:34631   */\n      tag_919\n        /* \"#utility.yul\":34627:34630   */\n      dup3\n        /* \"#utility.yul\":34618:34624   */\n      dup5\n        /* \"#utility.yul\":34539:34631   */\n      tag_572\n      jump\t// in\n    tag_919:\n        /* \"#utility.yul\":34532:34631   */\n      swap2\n      pop\n        /* \"#utility.yul\":34648:34651   */\n      dup2\n        /* \"#utility.yul\":34641:34651   */\n      swap1\n      pop\n        /* \"#utility.yul\":34388:34657   */\n      swap3\n      swap2\n      pop\n      pop\n      jump\t// out\n        /* \"#utility.yul\":34663:34843   */\n    tag_573:\n        /* \"#utility.yul\":34711:34788   */\n      0x4e487b7100000000000000000000000000000000000000000000000000000000\n        /* \"#utility.yul\":34708:34709   */\n      0x00\n        /* \"#utility.yul\":34701:34789   */\n      mstore\n        /* \"#utility.yul\":34808:34812   */\n      0x11\n        /* \"#utility.yul\":34805:34806   */\n      0x04\n        /* \"#utility.yul\":34798:34813   */\n      mstore\n        /* \"#utility.yul\":34832:34836   */\n      0x24\n        /* \"#utility.yul\":34829:34830   */\n      0x00\n        /* \"#utility.yul\":34822:34837   */\n      revert\n        /* \"#utility.yul\":34849:35082   */\n    tag_267:\n        /* \"#utility.yul\":34888:34891   */\n      0x00\n        /* \"#utility.yul\":34911:34935   */\n      tag_922\n        /* \"#utility.yul\":34929:34934   */\n      dup3\n        /* \"#utility.yul\":34911:34935   */\n      tag_519\n      jump\t// in\n    tag_922:\n        /* \"#utility.yul\":34902:34935   */\n      swap2\n      pop\n        /* \"#utility.yul\":34957:35023   */\n      0xffffffffffffffffffffffffffffffffffffffffffffffffffffffffffffffff\n        /* \"#utility.yul\":34950:34955   */\n      dup3\n        /* \"#utility.yul\":34947:35024   */\n      sub\n        /* \"#utility.yul\":34944:35047   */\n      tag_923\n      jumpi\n        /* \"#utility.yul\":35027:35045   */\n      tag_924\n      tag_573\n      jump\t// in\n    tag_924:\n        /* \"#utility.yul\":34944:35047   */\n    tag_923:\n        /* \"#utility.yul\":35074:35075   */\n      0x01\n        /* \"#utility.yul\":35067:35072   */\n      dup3\n        /* \"#utility.yul\":35063:35076   */\n      add\n        /* \"#utility.yul\":35056:35076   */\n      swap1\n      pop\n        /* \"#utility.yul\":34849:35082   */\n      swap2\n      swap1\n      pop\n      jump\t// out\n        /* \"#utility.yul\":35088:35259   */\n    tag_574:\n        /* \"#utility.yul\":35228:35251   */\n      0x566f74696e67206973206e6f74206163746976652e0000000000000000000000\n        /* \"#utility.yul\":35224:35225   */\n      0x00\n        /* \"#utility.yul\":35216:35222   */\n      dup3\n        /* \"#utility.yul\":35212:35226   */\n      add\n        /* \"#utility.yul\":35205:35252   */\n      mstore\n        /* \"#utility.yul\":35088:35259   */\n      pop\n      jump\t// out\n        /* \"#utility.yul\":35265:35631   */\n    tag_575:\n        /* \"#utility.yul\":35407:35410   */\n      0x00\n        /* \"#utility.yul\":35428:35495   */\n      tag_927\n        /* \"#utility.yul\":35492:35494   */\n      0x15\n        /* \"#utility.yul\":35487:35490   */\n      dup4\n        /* \"#utility.yul\":35428:35495   */\n      tag_522\n      jump\t// in\n    tag_927:\n        /* \"#utility.yul\":35421:35495   */\n      swap2\n      pop\n        /* \"#utility.yul\":35504:35597   */\n      tag_928\n        /* \"#utility.yul\":35593:35596   */\n      dup3\n        /* \"#utility.yul\":35504:35597   */\n      tag_574\n      jump\t// in\n    tag_928:\n        /* \"#utility.yul\":35622:35624   */\n      0x20\n        /* \"#utility.yul\":35617:35620   */\n      dup3\n        /* \"#utility.yul\":35613:35625   */\n      add\n        /* \"#utility.yul\":35606:35625   */\n      swap1\n      pop\n        /* \"#utility.yul\":35265:35631   */\n      swap2\n      swap1\n      pop\n      jump\t// out\n        /* \"#utility.yul\":35637:36056   */\n    tag_358:\n        /* \"#utility.yul\":35803:35807   */\n      0x00\n        /* \"#utility.yul\":35841:35843   */\n      0x20\n        /* \"#utility.yul\":35830:35839   */\n      dup3\n        /* \"#utility.yul\":35826:35844   */\n      add\n        /* \"#utility.yul\":35818:35844   */\n      swap1\n      pop\n        /* \"#utility.yul\":35890:35899   */\n      dup2\n        /* \"#utility.yul\":35884:35888   */\n      dup2\n        /* \"#utility.yul\":35880:35900   */\n      sub\n        /* \"#utility.yul\":35876:35877   */\n      0x00\n        /* \"#utility.yul\":35865:35874   */\n      dup4\n        /* \"#utility.yul\":35861:35878   */\n      add\n        /* \"#utility.yul\":35854:35901   */\n      mstore\n        /* \"#utility.yul\":35918:36049   */\n      tag_930\n        /* \"#utility.yul\":36044:36048   */\n      dup2\n        /* \"#utility.yul\":35918:36049   */\n      tag_575\n      jump\t// in\n    tag_930:\n        /* \"#utility.yul\":35910:36049   */\n      swap1\n      pop\n        /* \"#utility.yul\":35637:36056   */\n      swap2\n      swap1\n      pop\n      jump\t// out\n        /* \"#utility.yul\":36062:36243   */\n    tag_576:\n        /* \"#utility.yul\":36202:36235   */\n      0x596f7520617265206e6f74207265676973746572656420746f20766f74652e00\n        /* \"#utility.yul\":36198:36199   */\n      0x00\n        /* \"#utility.yul\":36190:36196   */\n      dup3\n        /* \"#utility.yul\":36186:36200   */\n      add\n        /* \"#utility.yul\":36179:36236   */\n      mstore\n        /* \"#utility.yul\":36062:36243   */\n      pop\n      jump\t// out\n        /* \"#utility.yul\":36249:36615   */\n    tag_577:\n        /* \"#utility.yul\":36391:36394   */\n      0x00\n        /* \"#utility.yul\":36412:36479   */\n      tag_933\n        /* \"#utility.yul\":36476:36478   */\n      0x1f\n        /* \"#utility.yul\":36471:36474   */\n      dup4\n        /* \"#utility.yul\":36412:36479   */\n      tag_522\n      jump\t// in\n    tag_933:\n        /* \"#utility.yul\":36405:36479   */\n      swap2\n      pop\n        /* \"#utility.yul\":36488:36581   */\n      tag_934\n        /* \"#utility.yul\":36577:36580   */\n      dup3\n        /* \"#utility.yul\":36488:36581   */\n      tag_576\n      jump\t// in\n    tag_934:\n        /* \"#utility.yul\":36606:36608   */\n      0x20\n        /* \"#utility.yul\":36601:36604   */\n      dup3\n        /* \"#utility.yul\":36597:36609   */\n      add\n        /* \"#utility.yul\":36590:36609   */\n      swap1\n      pop\n        /* \"#utility.yul\":36249:36615   */\n      swap2\n      swap1\n      pop\n      jump\t// out\n        /* \"#utility.yul\":36621:37040   */\n    tag_362:\n        /* \"#utility.yul\":36787:36791   */\n      0x00\n        /* \"#utility.yul\":36825:36827   */\n      0x20\n        /* \"#utility.yul\":36814:36823   */\n      dup3\n        /* \"#utility.yul\":36810:36828   */\n      add\n        /* \"#utility.yul\":36802:36828   */\n      swap1\n      pop\n        /* \"#utility.yul\":36874:36883   */\n      dup2\n        /* \"#utility.yul\":36868:36872   */\n      dup2\n        /* \"#utility.yul\":36864:36884   */\n      sub\n        /* \"#utility.yul\":36860:36861   */\n      0x00\n        /* \"#utility.yul\":36849:36858   */\n      dup4\n        /* \"#utility.yul\":36845:36862   */\n      add\n        /* \"#utility.yul\":36838:36885   */\n      mstore\n        /* \"#utility.yul\":36902:37033   */\n      tag_936\n        /* \"#utility.yul\":37028:37032   */\n      dup2\n        /* \"#utility.yul\":36902:37033   */\n      tag_577\n      jump\t// in\n    tag_936:\n        /* \"#utility.yul\":36894:37033   */\n      swap1\n      pop\n        /* \"#utility.yul\":36621:37040   */\n      swap2\n      swap1\n      pop\n      jump\t// out\n        /* \"#utility.yul\":37046:37219   */\n    tag_578:\n        /* \"#utility.yul\":37186:37211   */\n      0x596f75206861766520616c726561647920766f7465642e000000000000000000\n        /* \"#utility.yul\":37182:37183   */\n      0x00\n        /* \"#utility.yul\":37174:37180   */\n      dup3\n        /* \"#utility.yul\":37170:37184   */\n      add\n        /* \"#utility.yul\":37163:37212   */\n      mstore\n        /* \"#utility.yul\":37046:37219   */\n      pop\n      jump\t// out\n        /* \"#utility.yul\":37225:37591   */\n    tag_579:\n        /* \"#utility.yul\":37367:37370   */\n      0x00\n        /* \"#utility.yul\":37388:37455   */\n      tag_939\n        /* \"#utility.yul\":37452:37454   */\n      0x17\n        /* \"#utility.yul\":37447:37450   */\n      dup4\n        /* \"#utility.yul\":37388:37455   */\n      tag_522\n      jump\t// in\n    tag_939:\n        /* \"#utility.yul\":37381:37455   */\n      swap2\n      pop\n        /* \"#utility.yul\":37464:37557   */\n      tag_940\n        /* \"#utility.yul\":37553:37556   */\n      dup3\n        /* \"#utility.yul\":37464:37557   */\n      tag_578\n      jump\t// in\n    tag_940:\n        /* \"#utility.yul\":37582:37584   */\n      0x20\n        /* \"#utility.yul\":37577:37580   */\n      dup3\n        /* \"#utility.yul\":37573:37585   */\n      add\n        /* \"#utility.yul\":37566:37585   */\n      swap1\n      pop\n        /* \"#utility.yul\":37225:37591   */\n      swap2\n      swap1\n      pop\n      jump\t// out\n        /* \"#utility.yul\":37597:38016   */\n    tag_365:\n        /* \"#utility.yul\":37763:37767   */\n      0x00\n        /* \"#utility.yul\":37801:37803   */\n      0x20\n        /* \"#utility.yul\":37790:37799   */\n      dup3\n        /* \"#utility.yul\":37786:37804   */\n      add\n        /* \"#utility.yul\":37778:37804   */\n      swap1\n      pop\n        /* \"#utility.yul\":37850:37859   */\n      dup2\n        /* \"#utility.yul\":37844:37848   */\n      dup2\n        /* \"#utility.yul\":37840:37860   */\n      sub\n        /* \"#utility.yul\":37836:37837   */\n      0x00\n        /* \"#utility.yul\":37825:37834   */\n      dup4\n        /* \"#utility.yul\":37821:37838   */\n      add\n        /* \"#utility.yul\":37814:37861   */\n      mstore\n        /* \"#utility.yul\":37878:38009   */\n      tag_942\n        /* \"#utility.yul\":38004:38008   */\n      dup2\n        /* \"#utility.yul\":37878:38009   */\n      tag_579\n      jump\t// in\n    tag_942:\n        /* \"#utility.yul\":37870:38009   */\n      swap1\n      pop\n        /* \"#utility.yul\":37597:38016   */\n      swap2\n      swap1\n      pop\n      jump\t// out\n        /* \"#utility.yul\":38022:38199   */\n    tag_580:\n        /* \"#utility.yul\":38162:38191   */\n      0x4e6174696f6e616c20494420646f6573206e6f74206d617463682e0000000000\n        /* \"#utility.yul\":38158:38159   */\n      0x00\n        /* \"#utility.yul\":38150:38156   */\n      dup3\n        /* \"#utility.yul\":38146:38160   */\n      add\n        /* \"#utility.yul\":38139:38192   */\n      mstore\n        /* \"#utility.yul\":38022:38199   */\n      pop\n      jump\t// out\n        /* \"#utility.yul\":38205:38571   */\n    tag_581:\n        /* \"#utility.yul\":38347:38350   */\n      0x00\n        /* \"#utility.yul\":38368:38435   */\n      tag_945\n        /* \"#utility.yul\":38432:38434   */\n      0x1b\n        /* \"#utility.yul\":38427:38430   */\n      dup4\n        /* \"#utility.yul\":38368:38435   */\n      tag_522\n      jump\t// in\n    tag_945:\n        /* \"#utility.yul\":38361:38435   */\n      swap2\n      pop\n        /* \"#utility.yul\":38444:38537   */\n      tag_946\n        /* \"#utility.yul\":38533:38536   */\n      dup3\n        /* \"#utility.yul\":38444:38537   */\n      tag_580\n      jump\t// in\n    tag_946:\n        /* \"#utility.yul\":38562:38564   */\n      0x20\n        /* \"#utility.yul\":38557:38560   */\n      dup3\n        /* \"#utility.yul\":38553:38565   */\n      add\n        /* \"#utility.yul\":38546:38565   */\n      swap1\n      pop\n        /* \"#utility.yul\":38205:38571   */\n      swap2\n      swap1\n      pop\n      jump\t// out\n        /* \"#utility.yul\":38577:38996   */\n    tag_370:\n        /* \"#utility.yul\":38743:38747   */\n      0x00\n        /* \"#utility.yul\":38781:38783   */\n      0x20\n        /* \"#utility.yul\":38770:38779   */\n      dup3\n        /* \"#utility.yul\":38766:38784   */\n      add\n        /* \"#utility.yul\":38758:38784   */\n      swap1\n      pop\n        /* \"#utility.yul\":38830:38839   */\n      dup2\n        /* \"#utility.yul\":38824:38828   */\n      dup2\n        /* \"#utility.yul\":38820:38840   */\n      sub\n        /* \"#utility.yul\":38816:38817   */\n      0x00\n        /* \"#utility.yul\":38805:38814   */\n      dup4\n        /* \"#utility.yul\":38801:38818   */\n      add\n        /* \"#utility.yul\":38794:38841   */\n      mstore\n        /* \"#utility.yul\":38858:38989   */\n      tag_948\n        /* \"#utility.yul\":38984:38988   */\n      dup2\n        /* \"#utility.yul\":38858:38989   */\n      tag_581\n      jump\t// in\n    tag_948:\n        /* \"#utility.yul\":38850:38989   */\n      swap1\n      pop\n        /* \"#utility.yul\":38577:38996   */\n      swap2\n      swap1\n      pop\n      jump\t// out\n        /* \"#utility.yul\":39002:39237   */\n    tag_582:\n        /* \"#utility.yul\":39142:39176   */\n      0x4172656120646f6573206e6f74206d617463682074686520766f746572277320\n        /* \"#utility.yul\":39138:39139   */\n      0x00\n        /* \"#utility.yul\":39130:39136   */\n      dup3\n        /* \"#utility.yul\":39126:39140   */\n      add\n        /* \"#utility.yul\":39119:39177   */\n      mstore\n        /* \"#utility.yul\":39211:39229   */\n      0x7265676973746572656420617265612e00000000000000000000000000000000\n        /* \"#utility.yul\":39206:39208   */\n      0x20\n        /* \"#utility.yul\":39198:39204   */\n      dup3\n        /* \"#utility.yul\":39194:39209   */\n      add\n        /* \"#utility.yul\":39187:39230   */\n      mstore\n        /* \"#utility.yul\":39002:39237   */\n      pop\n      jump\t// out\n        /* \"#utility.yul\":39243:39609   */\n    tag_583:\n        /* \"#utility.yul\":39385:39388   */\n      0x00\n        /* \"#utility.yul\":39406:39473   */\n      tag_951\n        /* \"#utility.yul\":39470:39472   */\n      0x30\n        /* \"#utility.yul\":39465:39468   */\n      dup4\n        /* \"#utility.yul\":39406:39473   */\n      tag_522\n      jump\t// in\n    tag_951:\n        /* \"#utility.yul\":39399:39473   */\n      swap2\n      pop\n        /* \"#utility.yul\":39482:39575   */\n      tag_952\n        /* \"#utility.yul\":39571:39574   */\n      dup3\n        /* \"#utility.yul\":39482:39575   */\n      tag_582\n      jump\t// in\n    tag_952:\n        /* \"#utility.yul\":39600:39602   */\n      0x40\n        /* \"#utility.yul\":39595:39598   */\n      dup3\n        /* \"#utility.yul\":39591:39603   */\n      add\n        /* \"#utility.yul\":39584:39603   */\n      swap1\n      pop\n        /* \"#utility.yul\":39243:39609   */\n      swap2\n      swap1\n      pop\n      jump\t// out\n        /* \"#utility.yul\":39615:40034   */\n    tag_375:\n        /* \"#utility.yul\":39781:39785   */\n      0x00\n        /* \"#utility.yul\":39819:39821   */\n      0x20\n        /* \"#utility.yul\":39808:39817   */\n      dup3\n        /* \"#utility.yul\":39804:39822   */\n      add\n        /* \"#utility.yul\":39796:39822   */\n      swap1\n      pop\n        /* \"#utility.yul\":39868:39877   */\n      dup2\n        /* \"#utility.yul\":39862:39866   */\n      dup2\n        /* \"#utility.yul\":39858:39878   */\n      sub\n        /* \"#utility.yul\":39854:39855   */\n      0x00\n        /* \"#utility.yul\":39843:39852   */\n      dup4\n        /* \"#utility.yul\":39839:39856   */\n      add\n        /* \"#utility.yul\":39832:39879   */\n      mstore\n        /* \"#utility.yul\":39896:40027   */\n      tag_954\n        /* \"#utility.yul\":40022:40026   */\n      dup2\n        /* \"#utility.yul\":39896:40027   */\n      tag_583\n      jump\t// in\n    tag_954:\n        /* \"#utility.yul\":39888:40027   */\n      swap1\n      pop\n        /* \"#utility.yul\":39615:40034   */\n      swap2\n      swap1\n      pop\n      jump\t// out\n        /* \"#utility.yul\":40040:40213   */\n    tag_584:\n        /* \"#utility.yul\":40180:40205   */\n      0x496e76616c69642063616e646964617465206e616d652e000000000000000000\n        /* \"#utility.yul\":40176:40177   */\n      0x00\n        /* \"#utility.yul\":40168:40174   */\n      dup3\n        /* \"#utility.yul\":40164:40178   */\n      add\n        /* \"#utility.yul\":40157:40206   */\n      mstore\n        /* \"#utility.yul\":40040:40213   */\n      pop\n      jump\t// out\n        /* \"#utility.yul\":40219:40585   */\n    tag_585:\n        /* \"#utility.yul\":40361:40364   */\n      0x00\n        /* \"#utility.yul\":40382:40449   */\n      tag_957\n        /* \"#utility.yul\":40446:40448   */\n      0x17\n        /* \"#utility.yul\":40441:40444   */\n      dup4\n        /* \"#utility.yul\":40382:40449   */\n      tag_522\n      jump\t// in\n    tag_957:\n        /* \"#utility.yul\":40375:40449   */\n      swap2\n      pop\n        /* \"#utility.yul\":40458:40551   */\n      tag_958\n        /* \"#utility.yul\":40547:40550   */\n      dup3\n        /* \"#utility.yul\":40458:40551   */\n      tag_584\n      jump\t// in\n    tag_958:\n        /* \"#utility.yul\":40576:40578   */\n      0x20\n        /* \"#utility.yul\":40571:40574   */\n      dup3\n        /* \"#utility.yul\":40567:40579   */\n      add\n        /* \"#utility.yul\":40560:40579   */\n      swap1\n      pop\n        /* \"#utility.yul\":40219:40585   */\n      swap2\n      swap1\n      pop\n      jump\t// out\n        /* \"#utility.yul\":40591:41010   */\n    tag_390:\n        /* \"#utility.yul\":40757:40761   */\n      0x00\n        /* \"#utility.yul\":40795:40797   */\n      0x20\n        /* \"#utility.yul\":40784:40793   */\n      dup3\n        /* \"#utility.yul\":40780:40798   */\n      add\n        /* \"#utility.yul\":40772:40798   */\n      swap1\n      pop\n        /* \"#utility.yul\":40844:40853   */\n      dup2\n        /* \"#utility.yul\":40838:40842   */\n      dup2\n        /* \"#utility.yul\":40834:40854   */\n      sub\n        /* \"#utility.yul\":40830:40831   */\n      0x00\n        /* \"#utility.yul\":40819:40828   */\n      dup4\n        /* \"#utility.yul\":40815:40832   */\n      add\n        /* \"#utility.yul\":40808:40855   */\n      mstore\n        /* \"#utility.yul\":40872:41003   */\n      tag_960\n        /* \"#utility.yul\":40998:41002   */\n      dup2\n        /* \"#utility.yul\":40872:41003   */\n      tag_585\n      jump\t// in\n    tag_960:\n        /* \"#utility.yul\":40864:41003   */\n      swap1\n      pop\n        /* \"#utility.yul\":40591:41010   */\n      swap2\n      swap1\n      pop\n      jump\t// out\n        /* \"#utility.yul\":41016:41248   */\n    tag_586:\n        /* \"#utility.yul\":41156:41190   */\n      0x43616e64696461746520616e6420766f746572206d75737420626520696e2074\n        /* \"#utility.yul\":41152:41153   */\n      0x00\n        /* \"#utility.yul\":41144:41150   */\n      dup3\n        /* \"#utility.yul\":41140:41154   */\n      add\n        /* \"#utility.yul\":41133:41191   */\n      mstore\n        /* \"#utility.yul\":41225:41240   */\n      0x68652073616d6520617265612e00000000000000000000000000000000000000\n        /* \"#utility.yul\":41220:41222   */\n      0x20\n        /* \"#utility.yul\":41212:41218   */\n      dup3\n        /* \"#utility.yul\":41208:41223   */\n      add\n        /* \"#utility.yul\":41201:41241   */\n      mstore\n        /* \"#utility.yul\":41016:41248   */\n      pop\n      jump\t// out\n        /* \"#utility.yul\":41254:41620   */\n    tag_587:\n        /* \"#utility.yul\":41396:41399   */\n      0x00\n        /* \"#utility.yul\":41417:41484   */\n      tag_963\n        /* \"#utility.yul\":41481:41483   */\n      0x2d\n        /* \"#utility.yul\":41476:41479   */\n      dup4\n        /* \"#utility.yul\":41417:41484   */\n      tag_522\n      jump\t// in\n    tag_963:\n        /* \"#utility.yul\":41410:41484   */\n      swap2\n      pop\n        /* \"#utility.yul\":41493:41586   */\n      tag_964\n        /* \"#utility.yul\":41582:41585   */\n      dup3\n        /* \"#utility.yul\":41493:41586   */\n      tag_586\n      jump\t// in\n    tag_964:\n        /* \"#utility.yul\":41611:41613   */\n      0x40\n        /* \"#utility.yul\":41606:41609   */\n      dup3\n        /* \"#utility.yul\":41602:41614   */\n      add\n        /* \"#utility.yul\":41595:41614   */\n      swap1\n      pop\n        /* \"#utility.yul\":41254:41620   */\n      swap2\n      swap1\n      pop\n      jump\t// out\n        /* \"#utility.yul\":41626:42045   */\n    tag_395:\n        /* \"#utility.yul\":41792:41796   */\n      0x00\n        /* \"#utility.yul\":41830:41832   */\n      0x20\n        /* \"#utility.yul\":41819:41828   */\n      dup3\n        /* \"#utility.yul\":41815:41833   */\n      add\n        /* \"#utility.yul\":41807:41833   */\n      swap1\n      pop\n        /* \"#utility.yul\":41879:41888   */\n      dup2\n        /* \"#utility.yul\":41873:41877   */\n      dup2\n        /* \"#utility.yul\":41869:41889   */\n      sub\n        /* \"#utility.yul\":41865:41866   */\n      0x00\n        /* \"#utility.yul\":41854:41863   */\n      dup4\n        /* \"#utility.yul\":41850:41867   */\n      add\n        /* \"#utility.yul\":41843:41890   */\n      mstore\n        /* \"#utility.yul\":41907:42038   */\n      tag_966\n        /* \"#utility.yul\":42033:42037   */\n      dup2\n        /* \"#utility.yul\":41907:42038   */\n      tag_587\n      jump\t// in\n    tag_966:\n        /* \"#utility.yul\":41899:42038   */\n      swap1\n      pop\n        /* \"#utility.yul\":41626:42045   */\n      swap2\n      swap1\n      pop\n      jump\t// out\n        /* \"#utility.yul\":42051:42282   */\n    tag_588:\n        /* \"#utility.yul\":42191:42225   */\n      0x566f74696e67206c696d697420666f7220746869732061726561206861732062\n        /* \"#utility.yul\":42187:42188   */\n      0x00\n        /* \"#utility.yul\":42179:42185   */\n      dup3\n        /* \"#utility.yul\":42175:42189   */\n      add\n        /* \"#utility.yul\":42168:42226   */\n      mstore\n        /* \"#utility.yul\":42260:42274   */\n      0x65656e20726561636865642e0000000000000000000000000000000000000000\n        /* \"#utility.yul\":42255:42257   */\n      0x20\n        /* \"#utility.yul\":42247:42253   */\n      dup3\n        /* \"#utility.yul\":42243:42258   */\n      add\n        /* \"#utility.yul\":42236:42275   */\n      mstore\n        /* \"#utility.yul\":42051:42282   */\n      pop\n      jump\t// out\n        /* \"#utility.yul\":42288:42654   */\n    tag_589:\n        /* \"#utility.yul\":42430:42433   */\n      0x00\n        /* \"#utility.yul\":42451:42518   */\n      tag_969\n        /* \"#utility.yul\":42515:42517   */\n      0x2c\n        /* \"#utility.yul\":42510:42513   */\n      dup4\n        /* \"#utility.yul\":42451:42518   */\n      tag_522\n      jump\t// in\n    tag_969:\n        /* \"#utility.yul\":42444:42518   */\n      swap2\n      pop\n        /* \"#utility.yul\":42527:42620   */\n      tag_970\n        /* \"#utility.yul\":42616:42619   */\n      dup3\n        /* \"#utility.yul\":42527:42620   */\n      tag_588\n      jump\t// in\n    tag_970:\n        /* \"#utility.yul\":42645:42647   */\n      0x40\n        /* \"#utility.yul\":42640:42643   */\n      dup3\n        /* \"#utility.yul\":42636:42648   */\n      add\n        /* \"#utility.yul\":42629:42648   */\n      swap1\n      pop\n        /* \"#utility.yul\":42288:42654   */\n      swap2\n      swap1\n      pop\n      jump\t// out\n        /* \"#utility.yul\":42660:43079   */\n    tag_399:\n        /* \"#utility.yul\":42826:42830   */\n      0x00\n        /* \"#utility.yul\":42864:42866   */\n      0x20\n        /* \"#utility.yul\":42853:42862   */\n      dup3\n        /* \"#utility.yul\":42849:42867   */\n      add\n        /* \"#utility.yul\":42841:42867   */\n      swap1\n      pop\n        /* \"#utility.yul\":42913:42922   */\n      dup2\n        /* \"#utility.yul\":42907:42911   */\n      dup2\n        /* \"#utility.yul\":42903:42923   */\n      sub\n        /* \"#utility.yul\":42899:42900   */\n      0x00\n        /* \"#utility.yul\":42888:42897   */\n      dup4\n        /* \"#utility.yul\":42884:42901   */\n      add\n        /* \"#utility.yul\":42877:42924   */\n      mstore\n        /* \"#utility.yul\":42941:43072   */\n      tag_972\n        /* \"#utility.yul\":43067:43071   */\n      dup2\n        /* \"#utility.yul\":42941:43072   */\n      tag_589\n      jump\t// in\n    tag_972:\n        /* \"#utility.yul\":42933:43072   */\n      swap1\n      pop\n        /* \"#utility.yul\":42660:43079   */\n      swap2\n      swap1\n      pop\n      jump\t// out\n        /* \"#utility.yul\":43085:43276   */\n    tag_401:\n        /* \"#utility.yul\":43125:43128   */\n      0x00\n        /* \"#utility.yul\":43144:43164   */\n      tag_974\n        /* \"#utility.yul\":43162:43163   */\n      dup3\n        /* \"#utility.yul\":43144:43164   */\n      tag_519\n      jump\t// in\n    tag_974:\n        /* \"#utility.yul\":43139:43164   */\n      swap2\n      pop\n        /* \"#utility.yul\":43178:43198   */\n      tag_975\n        /* \"#utility.yul\":43196:43197   */\n      dup4\n        /* \"#utility.yul\":43178:43198   */\n      tag_519\n      jump\t// in\n    tag_975:\n        /* \"#utility.yul\":43173:43198   */\n      swap3\n      pop\n        /* \"#utility.yul\":43221:43222   */\n      dup3\n        /* \"#utility.yul\":43218:43219   */\n      dup3\n        /* \"#utility.yul\":43214:43223   */\n      add\n        /* \"#utility.yul\":43207:43223   */\n      swap1\n      pop\n        /* \"#utility.yul\":43242:43245   */\n      dup1\n        /* \"#utility.yul\":43239:43240   */\n      dup3\n        /* \"#utility.yul\":43236:43246   */\n      gt\n        /* \"#utility.yul\":43233:43269   */\n      iszero\n      tag_976\n      jumpi\n        /* \"#utility.yul\":43249:43267   */\n      tag_977\n      tag_573\n      jump\t// in\n    tag_977:\n        /* \"#utility.yul\":43233:43269   */\n    tag_976:\n        /* \"#utility.yul\":43085:43276   */\n      swap3\n      swap2\n      pop\n      pop\n      jump\t// out\n        /* \"#utility.yul\":43282:43815   */\n    tag_404:\n        /* \"#utility.yul\":43451:43455   */\n      0x00\n        /* \"#utility.yul\":43489:43491   */\n      0x60\n        /* \"#utility.yul\":43478:43487   */\n      dup3\n        /* \"#utility.yul\":43474:43492   */\n      add\n        /* \"#utility.yul\":43466:43492   */\n      swap1\n      pop\n        /* \"#utility.yul\":43502:43573   */\n      tag_979\n        /* \"#utility.yul\":43570:43571   */\n      0x00\n        /* \"#utility.yul\":43559:43568   */\n      dup4\n        /* \"#utility.yul\":43555:43572   */\n      add\n        /* \"#utility.yul\":43546:43552   */\n      dup7\n        /* \"#utility.yul\":43502:43573   */\n      tag_524\n      jump\t// in\n    tag_979:\n        /* \"#utility.yul\":43583:43655   */\n      tag_980\n        /* \"#utility.yul\":43651:43653   */\n      0x20\n        /* \"#utility.yul\":43640:43649   */\n      dup4\n        /* \"#utility.yul\":43636:43654   */\n      add\n        /* \"#utility.yul\":43627:43633   */\n      dup6\n        /* \"#utility.yul\":43583:43655   */\n      tag_524\n      jump\t// in\n    tag_980:\n        /* \"#utility.yul\":43702:43711   */\n      dup2\n        /* \"#utility.yul\":43696:43700   */\n      dup2\n        /* \"#utility.yul\":43692:43712   */\n      sub\n        /* \"#utility.yul\":43687:43689   */\n      0x40\n        /* \"#utility.yul\":43676:43685   */\n      dup4\n        /* \"#utility.yul\":43672:43690   */\n      add\n        /* \"#utility.yul\":43665:43713   */\n      mstore\n        /* \"#utility.yul\":43730:43808   */\n      tag_981\n        /* \"#utility.yul\":43803:43807   */\n      dup2\n        /* \"#utility.yul\":43794:43800   */\n      dup5\n        /* \"#utility.yul\":43730:43808   */\n      tag_523\n      jump\t// in\n    tag_981:\n        /* \"#utility.yul\":43722:43808   */\n      swap1\n      pop\n        /* \"#utility.yul\":43282:43815   */\n      swap5\n      swap4\n      pop\n      pop\n      pop\n      pop\n      jump\t// out\n        /* \"#utility.yul\":43821:43997   */\n    tag_590:\n        /* \"#utility.yul\":43961:43989   */\n      0x41726561206e616d652063616e6e6f7420626520656d7074792e000000000000\n        /* \"#utility.yul\":43957:43958   */\n      0x00\n        /* \"#utility.yul\":43949:43955   */\n      dup3\n        /* \"#utility.yul\":43945:43959   */\n      add\n        /* \"#utility.yul\":43938:43990   */\n      mstore\n        /* \"#utility.yul\":43821:43997   */\n      pop\n      jump\t// out\n        /* \"#utility.yul\":44003:44369   */\n    tag_591:\n        /* \"#utility.yul\":44145:44148   */\n      0x00\n        /* \"#utility.yul\":44166:44233   */\n      tag_984\n        /* \"#utility.yul\":44230:44232   */\n      0x1a\n        /* \"#utility.yul\":44225:44228   */\n      dup4\n        /* \"#utility.yul\":44166:44233   */\n      tag_522\n      jump\t// in\n    tag_984:\n        /* \"#utility.yul\":44159:44233   */\n      swap2\n      pop\n        /* \"#utility.yul\":44242:44335   */\n      tag_985\n        /* \"#utility.yul\":44331:44334   */\n      dup3\n        /* \"#utility.yul\":44242:44335   */\n      tag_590\n      jump\t// in\n    tag_985:\n        /* \"#utility.yul\":44360:44362   */\n      0x20\n        /* \"#utility.yul\":44355:44358   */\n      dup3\n        /* \"#utility.yul\":44351:44363   */\n      add\n        /* \"#utility.yul\":44344:44363   */\n      swap1\n      pop\n        /* \"#utility.yul\":44003:44369   */\n      swap2\n      swap1\n      pop\n      jump\t// out\n        /* \"#utility.yul\":44375:44794   */\n    tag_421:\n        /* \"#utility.yul\":44541:44545   */\n      0x00\n        /* \"#utility.yul\":44579:44581   */\n      0x20\n        /* \"#utility.yul\":44568:44577   */\n      dup3\n        /* \"#utility.yul\":44564:44582   */\n      add\n        /* \"#utility.yul\":44556:44582   */\n      swap1\n      pop\n        /* \"#utility.yul\":44628:44637   */\n      dup2\n        /* \"#utility.yul\":44622:44626   */\n      dup2\n        /* \"#utility.yul\":44618:44638   */\n      sub\n        /* \"#utility.yul\":44614:44615   */\n      0x00\n        /* \"#utility.yul\":44603:44612   */\n      dup4\n        /* \"#utility.yul\":44599:44616   */\n      add\n        /* \"#utility.yul\":44592:44639   */\n      mstore\n        /* \"#utility.yul\":44656:44787   */\n      tag_987\n        /* \"#utility.yul\":44782:44786   */\n      dup2\n        /* \"#utility.yul\":44656:44787   */\n      tag_591\n      jump\t// in\n    tag_987:\n        /* \"#utility.yul\":44648:44787   */\n      swap1\n      pop\n        /* \"#utility.yul\":44375:44794   */\n      swap2\n      swap1\n      pop\n      jump\t// out\n        /* \"#utility.yul\":44800:45020   */\n    tag_592:\n        /* \"#utility.yul\":44940:44974   */\n      0x41726561206d7573742068617665207265676973746572656420766f74657273\n        /* \"#utility.yul\":44936:44937   */\n      0x00\n        /* \"#utility.yul\":44928:44934   */\n      dup3\n        /* \"#utility.yul\":44924:44938   */\n      add\n        /* \"#utility.yul\":44917:44975   */\n      mstore\n        /* \"#utility.yul\":45009:45012   */\n      0x2e00000000000000000000000000000000000000000000000000000000000000\n        /* \"#utility.yul\":45004:45006   */\n      0x20\n        /* \"#utility.yul\":44996:45002   */\n      dup3\n        /* \"#utility.yul\":44992:45007   */\n      add\n        /* \"#utility.yul\":44985:45013   */\n      mstore\n        /* \"#utility.yul\":44800:45020   */\n      pop\n      jump\t// out\n        /* \"#utility.yul\":45026:45392   */\n    tag_593:\n        /* \"#utility.yul\":45168:45171   */\n      0x00\n        /* \"#utility.yul\":45189:45256   */\n      tag_990\n        /* \"#utility.yul\":45253:45255   */\n      0x21\n        /* \"#utility.yul\":45248:45251   */\n      dup4\n        /* \"#utility.yul\":45189:45256   */\n      tag_522\n      jump\t// in\n    tag_990:\n        /* \"#utility.yul\":45182:45256   */\n      swap2\n      pop\n        /* \"#utility.yul\":45265:45358   */\n      tag_991\n        /* \"#utility.yul\":45354:45357   */\n      dup3\n        /* \"#utility.yul\":45265:45358   */\n      tag_592\n      jump\t// in\n    tag_991:\n        /* \"#utility.yul\":45383:45385   */\n      0x40\n        /* \"#utility.yul\":45378:45381   */\n      dup3\n        /* \"#utility.yul\":45374:45386   */\n      add\n        /* \"#utility.yul\":45367:45386   */\n      swap1\n      pop\n        /* \"#utility.yul\":45026:45392   */\n      swap2\n      swap1\n      pop\n      jump\t// out\n        /* \"#utility.yul\":45398:45817   */\n    tag_424:\n        /* \"#utility.yul\":45564:45568   */\n      0x00\n        /* \"#utility.yul\":45602:45604   */\n      0x20\n        /* \"#utility.yul\":45591:45600   */\n      dup3\n        /* \"#utility.yul\":45587:45605   */\n      add\n        /* \"#utility.yul\":45579:45605   */\n      swap1\n      pop\n        /* \"#utility.yul\":45651:45660   */\n      dup2\n        /* \"#utility.yul\":45645:45649   */\n      dup2\n        /* \"#utility.yul\":45641:45661   */\n      sub\n        /* \"#utility.yul\":45637:45638   */\n      0x00\n        /* \"#utility.yul\":45626:45635   */\n      dup4\n        /* \"#utility.yul\":45622:45639   */\n      add\n        /* \"#utility.yul\":45615:45662   */\n      mstore\n        /* \"#utility.yul\":45679:45810   */\n      tag_993\n        /* \"#utility.yul\":45805:45809   */\n      dup2\n        /* \"#utility.yul\":45679:45810   */\n      tag_593\n      jump\t// in\n    tag_993:\n        /* \"#utility.yul\":45671:45810   */\n      swap1\n      pop\n        /* \"#utility.yul\":45398:45817   */\n      swap2\n      swap1\n      pop\n      jump\t// out\n        /* \"#utility.yul\":45823:45993   */\n    tag_594:\n        /* \"#utility.yul\":45963:45985   */\n      0x4172656120616c7265616479206578697374732e000000000000000000000000\n        /* \"#utility.yul\":45959:45960   */\n      0x00\n        /* \"#utility.yul\":45951:45957   */\n      dup3\n        /* \"#utility.yul\":45947:45961   */\n      add\n        /* \"#utility.yul\":45940:45986   */\n      mstore\n        /* \"#utility.yul\":45823:45993   */\n      pop\n      jump\t// out\n        /* \"#utility.yul\":45999:46365   */\n    tag_595:\n        /* \"#utility.yul\":46141:46144   */\n      0x00\n        /* \"#utility.yul\":46162:46229   */\n      tag_996\n        /* \"#utility.yul\":46226:46228   */\n      0x14\n        /* \"#utility.yul\":46221:46224   */\n      dup4\n        /* \"#utility.yul\":46162:46229   */\n      tag_522\n      jump\t// in\n    tag_996:\n        /* \"#utility.yul\":46155:46229   */\n      swap2\n      pop\n        /* \"#utility.yul\":46238:46331   */\n      tag_997\n        /* \"#utility.yul\":46327:46330   */\n      dup3\n        /* \"#utility.yul\":46238:46331   */\n      tag_594\n      jump\t// in\n    tag_997:\n        /* \"#utility.yul\":46356:46358   */\n      0x20\n        /* \"#utility.yul\":46351:46354   */\n      dup3\n        /* \"#utility.yul\":46347:46359   */\n      add\n        /* \"#utility.yul\":46340:46359   */\n      swap1\n      pop\n        /* \"#utility.yul\":45999:46365   */\n      swap2\n      swap1\n      pop\n      jump\t// out\n        /* \"#utility.yul\":46371:46790   */\n    tag_428:\n        /* \"#utility.yul\":46537:46541   */\n      0x00\n        /* \"#utility.yul\":46575:46577   */\n      0x20\n        /* \"#utility.yul\":46564:46573   */\n      dup3\n        /* \"#utility.yul\":46560:46578   */\n      add\n        /* \"#utility.yul\":46552:46578   */\n      swap1\n      pop\n        /* \"#utility.yul\":46624:46633   */\n      dup2\n        /* \"#utility.yul\":46618:46622   */\n      dup2\n        /* \"#utility.yul\":46614:46634   */\n      sub\n        /* \"#utility.yul\":46610:46611   */\n      0x00\n        /* \"#utility.yul\":46599:46608   */\n      dup4\n        /* \"#utility.yul\":46595:46612   */\n      add\n        /* \"#utility.yul\":46588:46635   */\n      mstore\n        /* \"#utility.yul\":46652:46783   */\n      tag_999\n        /* \"#utility.yul\":46778:46782   */\n      dup2\n        /* \"#utility.yul\":46652:46783   */\n      tag_595\n      jump\t// in\n    tag_999:\n        /* \"#utility.yul\":46644:46783   */\n      swap1\n      pop\n        /* \"#utility.yul\":46371:46790   */\n      swap2\n      swap1\n      pop\n      jump\t// out\n        /* \"#utility.yul\":46796:46971   */\n    tag_596:\n        /* \"#utility.yul\":46936:46963   */\n      0x566f74657220616c726561647920726567697374657265642e00000000000000\n        /* \"#utility.yul\":46932:46933   */\n      0x00\n        /* \"#utility.yul\":46924:46930   */\n      dup3\n        /* \"#utility.yul\":46920:46934   */\n      add\n        /* \"#utility.yul\":46913:46964   */\n      mstore\n        /* \"#utility.yul\":46796:46971   */\n      pop\n      jump\t// out\n        /* \"#utility.yul\":46977:47343   */\n    tag_597:\n        /* \"#utility.yul\":47119:47122   */\n      0x00\n        /* \"#utility.yul\":47140:47207   */\n      tag_1002\n        /* \"#utility.yul\":47204:47206   */\n      0x19\n        /* \"#utility.yul\":47199:47202   */\n      dup4\n        /* \"#utility.yul\":47140:47207   */\n      tag_522\n      jump\t// in\n    tag_1002:\n        /* \"#utility.yul\":47133:47207   */\n      swap2\n      pop\n        /* \"#utility.yul\":47216:47309   */\n      tag_1003\n        /* \"#utility.yul\":47305:47308   */\n      dup3\n        /* \"#utility.yul\":47216:47309   */\n      tag_596\n      jump\t// in\n    tag_1003:\n        /* \"#utility.yul\":47334:47336   */\n      0x20\n        /* \"#utility.yul\":47329:47332   */\n      dup3\n        /* \"#utility.yul\":47325:47337   */\n      add\n        /* \"#utility.yul\":47318:47337   */\n      swap1\n      pop\n        /* \"#utility.yul\":46977:47343   */\n      swap2\n      swap1\n      pop\n      jump\t// out\n        /* \"#utility.yul\":47349:47768   */\n    tag_443:\n        /* \"#utility.yul\":47515:47519   */\n      0x00\n        /* \"#utility.yul\":47553:47555   */\n      0x20\n        /* \"#utility.yul\":47542:47551   */\n      dup3\n        /* \"#utility.yul\":47538:47556   */\n      add\n        /* \"#utility.yul\":47530:47556   */\n      swap1\n      pop\n        /* \"#utility.yul\":47602:47611   */\n      dup2\n        /* \"#utility.yul\":47596:47600   */\n      dup2\n        /* \"#utility.yul\":47592:47612   */\n      sub\n        /* \"#utility.yul\":47588:47589   */\n      0x00\n        /* \"#utility.yul\":47577:47586   */\n      dup4\n        /* \"#utility.yul\":47573:47590   */\n      add\n        /* \"#utility.yul\":47566:47613   */\n      mstore\n        /* \"#utility.yul\":47630:47761   */\n      tag_1005\n        /* \"#utility.yul\":47756:47760   */\n      dup2\n        /* \"#utility.yul\":47630:47761   */\n      tag_597\n      jump\t// in\n    tag_1005:\n        /* \"#utility.yul\":47622:47761   */\n      swap1\n      pop\n        /* \"#utility.yul\":47349:47768   */\n      swap2\n      swap1\n      pop\n      jump\t// out\n        /* \"#utility.yul\":47774:48398   */\n    tag_452:\n        /* \"#utility.yul\":47963:47967   */\n      0x00\n        /* \"#utility.yul\":48001:48003   */\n      0x60\n        /* \"#utility.yul\":47990:47999   */\n      dup3\n        /* \"#utility.yul\":47986:48004   */\n      add\n        /* \"#utility.yul\":47978:48004   */\n      swap1\n      pop\n        /* \"#utility.yul\":48014:48085   */\n      tag_1007\n        /* \"#utility.yul\":48082:48083   */\n      0x00\n        /* \"#utility.yul\":48071:48080   */\n      dup4\n        /* \"#utility.yul\":48067:48084   */\n      add\n        /* \"#utility.yul\":48058:48064   */\n      dup7\n        /* \"#utility.yul\":48014:48085   */\n      tag_524\n      jump\t// in\n    tag_1007:\n        /* \"#utility.yul\":48132:48141   */\n      dup2\n        /* \"#utility.yul\":48126:48130   */\n      dup2\n        /* \"#utility.yul\":48122:48142   */\n      sub\n        /* \"#utility.yul\":48117:48119   */\n      0x20\n        /* \"#utility.yul\":48106:48115   */\n      dup4\n        /* \"#utility.yul\":48102:48120   */\n      add\n        /* \"#utility.yul\":48095:48143   */\n      mstore\n        /* \"#utility.yul\":48160:48238   */\n      tag_1008\n        /* \"#utility.yul\":48233:48237   */\n      dup2\n        /* \"#utility.yul\":48224:48230   */\n      dup6\n        /* \"#utility.yul\":48160:48238   */\n      tag_523\n      jump\t// in\n    tag_1008:\n        /* \"#utility.yul\":48152:48238   */\n      swap1\n      pop\n        /* \"#utility.yul\":48285:48294   */\n      dup2\n        /* \"#utility.yul\":48279:48283   */\n      dup2\n        /* \"#utility.yul\":48275:48295   */\n      sub\n        /* \"#utility.yul\":48270:48272   */\n      0x40\n        /* \"#utility.yul\":48259:48268   */\n      dup4\n        /* \"#utility.yul\":48255:48273   */\n      add\n        /* \"#utility.yul\":48248:48296   */\n      mstore\n        /* \"#utility.yul\":48313:48391   */\n      tag_1009\n        /* \"#utility.yul\":48386:48390   */\n      dup2\n        /* \"#utility.yul\":48377:48383   */\n      dup5\n        /* \"#utility.yul\":48313:48391   */\n      tag_523\n      jump\t// in\n    tag_1009:\n        /* \"#utility.yul\":48305:48391   */\n      swap1\n      pop\n        /* \"#utility.yul\":47774:48398   */\n      swap5\n      swap4\n      pop\n      pop\n      pop\n      pop\n      jump\t// out\n        /* \"#utility.yul\":48404:48937   */\n    tag_483:\n        /* \"#utility.yul\":48573:48577   */\n      0x00\n        /* \"#utility.yul\":48611:48613   */\n      0x60\n        /* \"#utility.yul\":48600:48609   */\n      dup3\n        /* \"#utility.yul\":48596:48614   */\n      add\n        /* \"#utility.yul\":48588:48614   */\n      swap1\n      pop\n        /* \"#utility.yul\":48624:48695   */\n      tag_1011\n        /* \"#utility.yul\":48692:48693   */\n      0x00\n        /* \"#utility.yul\":48681:48690   */\n      dup4\n        /* \"#utility.yul\":48677:48694   */\n      add\n        /* \"#utility.yul\":48668:48674   */\n      dup7\n        /* \"#utility.yul\":48624:48695   */\n      tag_524\n      jump\t// in\n    tag_1011:\n        /* \"#utility.yul\":48705:48777   */\n      tag_1012\n        /* \"#utility.yul\":48773:48775   */\n      0x20\n        /* \"#utility.yul\":48762:48771   */\n      dup4\n        /* \"#utility.yul\":48758:48776   */\n      add\n        /* \"#utility.yul\":48749:48755   */\n      dup6\n        /* \"#utility.yul\":48705:48777   */\n      tag_525\n      jump\t// in\n    tag_1012:\n        /* \"#utility.yul\":48824:48833   */\n      dup2\n        /* \"#utility.yul\":48818:48822   */\n      dup2\n        /* \"#utility.yul\":48814:48834   */\n      sub\n        /* \"#utility.yul\":48809:48811   */\n      0x40\n        /* \"#utility.yul\":48798:48807   */\n      dup4\n        /* \"#utility.yul\":48794:48812   */\n      add\n        /* \"#utility.yul\":48787:48835   */\n      mstore\n        /* \"#utility.yul\":48852:48930   */\n      tag_1013\n        /* \"#utility.yul\":48925:48929   */\n      dup2\n        /* \"#utility.yul\":48916:48922   */\n      dup5\n        /* \"#utility.yul\":48852:48930   */\n      tag_523\n      jump\t// in\n    tag_1013:\n        /* \"#utility.yul\":48844:48930   */\n      swap1\n      pop\n        /* \"#utility.yul\":48404:48937   */\n      swap5\n      swap4\n      pop\n      pop\n      pop\n      pop\n      jump\t// out\n\n    auxdata: 0xa26469706673582212204f97e6c6701688fa321749fdf4d1375778921d4942daa144c7e9030e9603e47964736f6c634300081a0033\n}\n",
				"bytecode": {
					"linkReferences": {},
					"object": "6080604052348015600e575f80fd5b50335f806101000a81548173ffffffffffffffffffffffffffffffffffffffff021916908373ffffffffffffffffffffffffffffffffffffffff16021790555061482d8061005b5f395ff3fe608060405234801561000f575f80fd5b5060043610610135575f3560e01c80638ab66a90116100b6578063ac6ba3c31161007a578063ac6ba3c314610347578063b13c744b14610363578063bb8fab8e14610393578063c3403ddf146103af578063d4a7de3e146103b9578063f851a440146103ea57610135565b80638ab66a90146102865780638dfba9ac146102ba57806395f59fe1146102d95780639d5a0529146102f5578063a3ec138d1461031357610135565b80633e46d279116100fd5780633e46d279146101a5578063432dea47146101d5578063438aabdc1461020757806350e2e8af1461023857806383d948b71461026857610135565b806303b2b7f01461013957806306a49fce146101435780631ec6b60a1461016157806321b3f5281461016b5780632ea3981a14610187575b5f80fd5b610141610408565b005b61014b6107c3565b6040516101589190613196565b60405180910390f35b61016961095e565b005b6101856004803603810190610180919061334d565b610a6a565b005b61018f610eb9565b60405161019c9190613196565b60405180910390f35b6101bf60048036038101906101ba9190613438565b610f8d565b6040516101cc91906134ab565b60405180910390f35b6101ef60048036038101906101ea91906134cb565b611033565b6040516101fe93929190613530565b60405180910390f35b610221600480360381019061021c91906134cb565b6113de565b60405161022f929190613623565b60405180910390f35b610252600480360381019061024d9190613438565b61188b565b60405161025f9190613658565b60405180910390f35b6102706118c6565b60405161027d919061368b565b60405180910390f35b6102a0600480360381019061029b91906136a4565b6118d8565b6040516102b19594939291906136cf565b60405180910390f35b6102c2611abb565b6040516102d09291906137ec565b60405180910390f35b6102f360048036038101906102ee9190613821565b611dff565b005b6102fd61244d565b60405161030a919061368b565b60405180910390f35b61032d600480360381019061032891906136a4565b612460565b60405161033e9594939291906138c5565b60405180910390f35b610361600480360381019061035c9190613924565b6125d5565b005b61037d60048036038101906103789190613438565b6127c7565b60405161038a9190613658565b60405180910390f35b6103ad60048036038101906103a8919061397e565b612802565b005b6103b7612bee565b005b6103d360048036038101906103ce91906134cb565b612f9a565b6040516103e1929190613a06565b60405180910390f35b6103f2612fd2565b6040516103ff9190613658565b60405180910390f35b5f8054906101000a900473ffffffffffffffffffffffffffffffffffffffff1673ffffffffffffffffffffffffffffffffffffffff163373ffffffffffffffffffffffffffffffffffffffff1614610495576040517f08c379a000000000000000000000000000000000000000000000000000000000815260040161048c90613a9d565b60405180910390fd5b5f5b60088054905081101561059a575f600882815481106104b9576104b8613abb565b5b905f5260205f20015f9054906101000a900473ffffffffffffffffffffffffffffffffffffffff16905060015f8273ffffffffffffffffffffffffffffffffffffffff1673ffffffffffffffffffffffffffffffffffffffff1681526020019081526020015f205f8082015f6101000a81549060ff02191690555f820160016101000a81549060ff02191690555f820160026101000a81549073ffffffffffffffffffffffffffffffffffffffff0219169055600182015f61057b9190612ff5565b600282015f61058a9190612ff5565b5050508080600101915050610497565b505f5b600680549050811015610690575f600682815481106105bf576105be613abb565b5b905f5260205f20015f9054906101000a900473ffffffffffffffffffffffffffffffffffffffff16905060035f8273ffffffffffffffffffffffffffffffffffffffff1673ffffffffffffffffffffffffffffffffffffffff1681526020019081526020015f205f8082015f6106359190612ff5565b600182015f6101000a81549073ffffffffffffffffffffffffffffffffffffffff0219169055600282015f9055600382015f6106719190612ff5565b600482015f6106809190612ff5565b505050808060010191505061059d565b505f5b60078054905081101561077a575f600782815481106106b5576106b4613abb565b5b905f5260205f200180546106c890613b15565b80601f01602080910402602001604051908101604052809291908181526020018280546106f490613b15565b801561073f5780601f106107165761010080835404028352916020019161073f565b820191905f5260205f20905b81548152906001019060200180831161072257829003601f168201915b505050505090505f6005826040516107579190613b7f565b908152602001604051809103902060010181905550508080600101915050610693565b5060085f6107889190613032565b60065f6107959190613032565b7f0bf08627280db28f838829bac111b71826df049e015888aaa3d0429d21b897b760405160405180910390a1565b60605f60068054905067ffffffffffffffff8111156107e5576107e4613229565b5b60405190808252806020026020018201604052801561081857816020015b60608152602001906001900390816108035790505b5090505f5b6006805490508110156109565760035f6006838154811061084157610840613abb565b5b905f5260205f20015f9054906101000a900473ffffffffffffffffffffffffffffffffffffffff1673ffffffffffffffffffffffffffffffffffffffff1673ffffffffffffffffffffffffffffffffffffffff1681526020019081526020015f205f0180546108af90613b15565b80601f01602080910402602001604051908101604052809291908181526020018280546108db90613b15565b80156109265780601f106108fd57610100808354040283529160200191610926565b820191905f5260205f20905b81548152906001019060200180831161090957829003601f168201915b505050505082828151811061093e5761093d613abb565b5b6020026020010181905250808060010191505061081d565b508091505090565b5f8054906101000a900473ffffffffffffffffffffffffffffffffffffffff1673ffffffffffffffffffffffffffffffffffffffff163373ffffffffffffffffffffffffffffffffffffffff16146109eb576040517f08c379a00000000000000000000000000000000000000000000000000000000081526004016109e290613a9d565b60405180910390fd5b60026006805490501015610a34576040517f08c379a0000000000000000000000000000000000000000000000000000000008152600401610a2b90613c05565b60405180910390fd5b600160095f6101000a81548160ff0219169083151502179055505f600960016101000a81548160ff021916908315150217905550565b5f8054906101000a900473ffffffffffffffffffffffffffffffffffffffff1673ffffffffffffffffffffffffffffffffffffffff163373ffffffffffffffffffffffffffffffffffffffff1614610af7576040517f08c379a0000000000000000000000000000000000000000000000000000000008152600401610aee90613a9d565b60405180910390fd5b5f600582604051610b089190613b7f565b90815260200160405180910390205f015411610b59576040517f08c379a0000000000000000000000000000000000000000000000000000000008152600401610b5090613c6d565b60405180910390fd5b5f835111610b9c576040517f08c379a0000000000000000000000000000000000000000000000000000000008152600401610b9390613cd5565b60405180910390fd5b5f73ffffffffffffffffffffffffffffffffffffffff1660035f8673ffffffffffffffffffffffffffffffffffffffff1673ffffffffffffffffffffffffffffffffffffffff1681526020019081526020015f206001015f9054906101000a900473ffffffffffffffffffffffffffffffffffffffff1673ffffffffffffffffffffffffffffffffffffffff1614610c69576040517f08c379a0000000000000000000000000000000000000000000000000000000008152600401610c6090613d3d565b60405180910390fd5b600482604051610c799190613b7f565b90815260200160405180910390205f9054906101000a900460ff1615610cd4576040517f08c379a0000000000000000000000000000000000000000000000000000000008152600401610ccb90613da5565b60405180910390fd5b6040518060a001604052808481526020018573ffffffffffffffffffffffffffffffffffffffff1681526020015f81526020018281526020018381525060035f8673ffffffffffffffffffffffffffffffffffffffff1673ffffffffffffffffffffffffffffffffffffffff1681526020019081526020015f205f820151815f019081610d619190613f60565b506020820151816001015f6101000a81548173ffffffffffffffffffffffffffffffffffffffff021916908373ffffffffffffffffffffffffffffffffffffffff160217905550604082015181600201556060820151816003019081610dc79190613f60565b506080820151816004019081610ddd9190613f60565b509050506001600483604051610df39190613b7f565b90815260200160405180910390205f6101000a81548160ff021916908315150217905550600684908060018154018082558091505060019003905f5260205f20015f9091909190916101000a81548173ffffffffffffffffffffffffffffffffffffffff021916908373ffffffffffffffffffffffffffffffffffffffff1602179055507ed6fea68f71a20d8149f227f87e8cf7e6ad320b2dad4b45465b14599b80ee0984848484604051610eab949392919061402f565b60405180910390a150505050565b60606007805480602002602001604051908101604052809291908181526020015f905b82821015610f84578382905f5260205f20018054610ef990613b15565b80601f0160208091040260200160405190810160405280929190818152602001828054610f2590613b15565b8015610f705780601f10610f4757610100808354040283529160200191610f70565b820191905f5260205f20905b815481529060010190602001808311610f5357829003601f168201915b505050505081526020019060010190610edc565b50505050905090565b60078181548110610f9c575f80fd5b905f5260205f20015f915090508054610fb490613b15565b80601f0160208091040260200160405190810160405280929190818152602001828054610fe090613b15565b801561102b5780601f106110025761010080835404028352916020019161102b565b820191905f5260205f20905b81548152906001019060200180831161100e57829003601f168201915b505050505081565b5f60605f806005856040516110489190613b7f565b90815260200160405180910390205f015411611099576040517f08c379a000000000000000000000000000000000000000000000000000000000815260040161109090613c6d565b60405180910390fd5b5f8060605f5b6006805490508110156113ca57876040516020016110bd9190613b7f565b6040516020818303038152906040528051906020012060035f600684815481106110ea576110e9613abb565b5b905f5260205f20015f9054906101000a900473ffffffffffffffffffffffffffffffffffffffff1673ffffffffffffffffffffffffffffffffffffffff1673ffffffffffffffffffffffffffffffffffffffff1681526020019081526020015f2060030160405160200161115e9190614107565b60405160208183030381529060405280519060200120036113bd578260035f6006848154811061119157611190613abb565b5b905f5260205f20015f9054906101000a900473ffffffffffffffffffffffffffffffffffffffff1673ffffffffffffffffffffffffffffffffffffffff1673ffffffffffffffffffffffffffffffffffffffff1681526020019081526020015f206002015411156113bc5760035f6006838154811061121357611212613abb565b5b905f5260205f20015f9054906101000a900473ffffffffffffffffffffffffffffffffffffffff1673ffffffffffffffffffffffffffffffffffffffff1673ffffffffffffffffffffffffffffffffffffffff1681526020019081526020015f206002015492506006818154811061128e5761128d613abb565b5b905f5260205f20015f9054906101000a900473ffffffffffffffffffffffffffffffffffffffff16935060035f600683815481106112cf576112ce613abb565b5b905f5260205f20015f9054906101000a900473ffffffffffffffffffffffffffffffffffffffff1673ffffffffffffffffffffffffffffffffffffffff1673ffffffffffffffffffffffffffffffffffffffff1681526020019081526020015f205f01805461133d90613b15565b80601f016020809104026020016040519081016040528092919081815260200182805461136990613b15565b80156113b45780601f1061138b576101008083540402835291602001916113b4565b820191905f5260205f20905b81548152906001019060200180831161139757829003601f168201915b505050505091505b5b808060010191505061109f565b508281839550955095505050509193909250565b6060805f6005846040516113f29190613b7f565b90815260200160405180910390205f015411611443576040517f08c379a000000000000000000000000000000000000000000000000000000000815260040161143a90613c6d565b60405180910390fd5b5f805b60068054905081101561153c57846040516020016114649190613b7f565b6040516020818303038152906040528051906020012060035f6006848154811061149157611490613abb565b5b905f5260205f20015f9054906101000a900473ffffffffffffffffffffffffffffffffffffffff1673ffffffffffffffffffffffffffffffffffffffff1673ffffffffffffffffffffffffffffffffffffffff1681526020019081526020015f206003016040516020016115059190614107565b604051602081830303815290604052805190602001200361152f57818061152b9061414a565b9250505b8080600101915050611446565b505f8167ffffffffffffffff81111561155857611557613229565b5b6040519080825280602002602001820160405280156115865781602001602082028036833780820191505090505b5090505f8267ffffffffffffffff8111156115a4576115a3613229565b5b6040519080825280602002602001820160405280156115d757816020015b60608152602001906001900390816115c25790505b5090505f805b60068054905081101561187b57876040516020016115fb9190613b7f565b6040516020818303038152906040528051906020012060035f6006848154811061162857611627613abb565b5b905f5260205f20015f9054906101000a900473ffffffffffffffffffffffffffffffffffffffff1673ffffffffffffffffffffffffffffffffffffffff1673ffffffffffffffffffffffffffffffffffffffff1681526020019081526020015f2060030160405160200161169c9190614107565b604051602081830303815290604052805190602001200361186e57600681815481106116cb576116ca613abb565b5b905f5260205f20015f9054906101000a900473ffffffffffffffffffffffffffffffffffffffff1684838151811061170657611705613abb565b5b602002602001019073ffffffffffffffffffffffffffffffffffffffff16908173ffffffffffffffffffffffffffffffffffffffff168152505060035f6006838154811061175757611756613abb565b5b905f5260205f20015f9054906101000a900473ffffffffffffffffffffffffffffffffffffffff1673ffffffffffffffffffffffffffffffffffffffff1673ffffffffffffffffffffffffffffffffffffffff1681526020019081526020015f205f0180546117c590613b15565b80601f01602080910402602001604051908101604052809291908181526020018280546117f190613b15565b801561183c5780601f106118135761010080835404028352916020019161183c565b820191905f5260205f20905b81548152906001019060200180831161181f57829003601f168201915b505050505083838151811061185457611853613abb565b5b6020026020010181905250818061186a9061414a565b9250505b80806001019150506115dd565b5082829550955050505050915091565b6008818154811061189a575f80fd5b905f5260205f20015f915054906101000a900473ffffffffffffffffffffffffffffffffffffffff1681565b60095f9054906101000a900460ff1681565b6003602052805f5260405f205f91509050805f0180546118f790613b15565b80601f016020809104026020016040519081016040528092919081815260200182805461192390613b15565b801561196e5780601f106119455761010080835404028352916020019161196e565b820191905f5260205f20905b81548152906001019060200180831161195157829003601f168201915b505050505090806001015f9054906101000a900473ffffffffffffffffffffffffffffffffffffffff16908060020154908060030180546119ae90613b15565b80601f01602080910402602001604051908101604052809291908181526020018280546119da90613b15565b8015611a255780601f106119fc57610100808354040283529160200191611a25565b820191905f5260205f20905b815481529060010190602001808311611a0857829003601f168201915b505050505090806004018054611a3a90613b15565b80601f0160208091040260200160405190810160405280929190818152602001828054611a6690613b15565b8015611ab15780601f10611a8857610100808354040283529160200191611ab1565b820191905f5260205f20905b815481529060010190602001808311611a9457829003601f168201915b5050505050905085565b6060805f60078054905067ffffffffffffffff811115611ade57611add613229565b5b604051908082528060200260200182016040528015611b1157816020015b6060815260200190600190039081611afc5790505b5090505f60078054905067ffffffffffffffff811115611b3457611b33613229565b5b604051908082528060200260200182016040528015611b625781602001602082028036833780820191505090505b5090505f5b600780549050811015611df2575f8060078381548110611b8a57611b89613abb565b5b905f5260205f20018054611b9d90613b15565b80601f0160208091040260200160405190810160405280929190818152602001828054611bc990613b15565b8015611c145780601f10611beb57610100808354040283529160200191611c14565b820191905f5260205f20905b815481529060010190602001808311611bf757829003601f168201915b505050505090505f5b600880549050811015611da35760015f60088381548110611c4157611c40613abb565b5b905f5260205f20015f9054906101000a900473ffffffffffffffffffffffffffffffffffffffff1673ffffffffffffffffffffffffffffffffffffffff1673ffffffffffffffffffffffffffffffffffffffff1681526020019081526020015f205f015f9054906101000a900460ff168015611d82575081604051602001611cc99190613b7f565b6040516020818303038152906040528051906020012060015f60088481548110611cf657611cf5613abb565b5b905f5260205f20015f9054906101000a900473ffffffffffffffffffffffffffffffffffffffff1673ffffffffffffffffffffffffffffffffffffffff1673ffffffffffffffffffffffffffffffffffffffff1681526020019081526020015f20600101604051602001611d6a9190614107565b60405160208183030381529060405280519060200120145b15611d96578280611d929061414a565b9350505b8080600101915050611c1d565b5080858481518110611db857611db7613abb565b5b602002602001018190525081848481518110611dd757611dd6613abb565b5b60200260200101818152505050508080600101915050611b67565b5081819350935050509091565b60095f9054906101000a900460ff168015611e275750600960019054906101000a900460ff16155b611e66576040517f08c379a0000000000000000000000000000000000000000000000000000000008152600401611e5d906141db565b60405180910390fd5b5f60015f3373ffffffffffffffffffffffffffffffffffffffff1673ffffffffffffffffffffffffffffffffffffffff1681526020019081526020015f209050805f015f9054906101000a900460ff16611ef5576040517f08c379a0000000000000000000000000000000000000000000000000000000008152600401611eec90614243565b60405180910390fd5b805f0160019054906101000a900460ff1615611f46576040517f08c379a0000000000000000000000000000000000000000000000000000000008152600401611f3d906142ab565b60405180910390fd5b82604051602001611f579190613b7f565b6040516020818303038152906040528051906020012081600201604051602001611f819190614107565b6040516020818303038152906040528051906020012014611fd7576040517f08c379a0000000000000000000000000000000000000000000000000000000008152600401611fce90614313565b60405180910390fd5b81604051602001611fe89190613b7f565b60405160208183030381529060405280519060200120816001016040516020016120129190614107565b6040516020818303038152906040528051906020012014612068576040517f08c379a000000000000000000000000000000000000000000000000000000000815260040161205f906143a1565b60405180910390fd5b5f805b60068054905081101561219457856040516020016120899190613b7f565b6040516020818303038152906040528051906020012060035f600684815481106120b6576120b5613abb565b5b905f5260205f20015f9054906101000a900473ffffffffffffffffffffffffffffffffffffffff1673ffffffffffffffffffffffffffffffffffffffff1673ffffffffffffffffffffffffffffffffffffffff1681526020019081526020015f205f016040516020016121299190614107565b6040516020818303038152906040528051906020012003612187576006818154811061215857612157613abb565b5b905f5260205f20015f9054906101000a900473ffffffffffffffffffffffffffffffffffffffff169150612194565b808060010191505061206b565b505f73ffffffffffffffffffffffffffffffffffffffff168173ffffffffffffffffffffffffffffffffffffffff1603612203576040517f08c379a00000000000000000000000000000000000000000000000000000000081526004016121fa90614409565b60405180910390fd5b826040516020016122149190613b7f565b6040516020818303038152906040528051906020012060035f8373ffffffffffffffffffffffffffffffffffffffff1673ffffffffffffffffffffffffffffffffffffffff1681526020019081526020015f2060030160405160200161227a9190614107565b60405160208183030381529060405280519060200120146122d0576040517f08c379a00000000000000000000000000000000000000000000000000000000081526004016122c790614497565b60405180910390fd5b5f6005846040516122e19190613b7f565b90815260200160405180910390209050805f015481600101541061233a576040517f08c379a000000000000000000000000000000000000000000000000000000000815260040161233190614525565b60405180910390fd5b6001835f0160016101000a81548160ff02191690831515021790555081835f0160026101000a81548173ffffffffffffffffffffffffffffffffffffffff021916908373ffffffffffffffffffffffffffffffffffffffff160217905550600160035f8473ffffffffffffffffffffffffffffffffffffffff1673ffffffffffffffffffffffffffffffffffffffff1681526020019081526020015f206002015f8282546123e89190614543565b925050819055506001816001015f8282546124039190614543565b925050819055507f8d1cfb67c4b6ddfa4950ade9b8090e8da23fb82114fea7fd43c4cbbe2c2367b333838660405161243d93929190614576565b60405180910390a1505050505050565b600960019054906101000a900460ff1681565b6001602052805f5260405f205f91509050805f015f9054906101000a900460ff1690805f0160019054906101000a900460ff1690805f0160029054906101000a900473ffffffffffffffffffffffffffffffffffffffff16908060010180546124c890613b15565b80601f01602080910402602001604051908101604052809291908181526020018280546124f490613b15565b801561253f5780601f106125165761010080835404028352916020019161253f565b820191905f5260205f20905b81548152906001019060200180831161252257829003601f168201915b50505050509080600201805461255490613b15565b80601f016020809104026020016040519081016040528092919081815260200182805461258090613b15565b80156125cb5780601f106125a2576101008083540402835291602001916125cb565b820191905f5260205f20905b8154815290600101906020018083116125ae57829003601f168201915b5050505050905085565b5f8054906101000a900473ffffffffffffffffffffffffffffffffffffffff1673ffffffffffffffffffffffffffffffffffffffff163373ffffffffffffffffffffffffffffffffffffffff1614612662576040517f08c379a000000000000000000000000000000000000000000000000000000000815260040161265990613a9d565b60405180910390fd5b5f8251116126a5576040517f08c379a000000000000000000000000000000000000000000000000000000000815260040161269c906145fc565b60405180910390fd5b5f81116126e7576040517f08c379a00000000000000000000000000000000000000000000000000000000081526004016126de9061468a565b60405180910390fd5b5f6005836040516126f89190613b7f565b90815260200160405180910390205f015414612749576040517f08c379a0000000000000000000000000000000000000000000000000000000008152600401612740906146f2565b60405180910390fd5b60405180604001604052808281526020015f81525060058360405161276e9190613b7f565b90815260200160405180910390205f820151815f015560208201518160010155905050600782908060018154018082558091505060019003905f5260205f20015f9091909190915090816127c29190613f60565b505050565b600681815481106127d6575f80fd5b905f5260205f20015f915054906101000a900473ffffffffffffffffffffffffffffffffffffffff1681565b5f8054906101000a900473ffffffffffffffffffffffffffffffffffffffff1673ffffffffffffffffffffffffffffffffffffffff163373ffffffffffffffffffffffffffffffffffffffff161461288f576040517f08c379a000000000000000000000000000000000000000000000000000000000815260040161288690613a9d565b60405180910390fd5b5f6005826040516128a09190613b7f565b90815260200160405180910390205f0154116128f1576040517f08c379a00000000000000000000000000000000000000000000000000000000081526004016128e890613c6d565b60405180910390fd5b60015f8473ffffffffffffffffffffffffffffffffffffffff1673ffffffffffffffffffffffffffffffffffffffff1681526020019081526020015f205f015f9054906101000a900460ff161561297d576040517f08c379a00000000000000000000000000000000000000000000000000000000081526004016129749061475a565b60405180910390fd5b60028260405161298d9190613b7f565b90815260200160405180910390205f9054906101000a900460ff16156129e8576040517f08c379a00000000000000000000000000000000000000000000000000000000081526004016129df90613da5565b60405180910390fd5b6040518060a001604052806001151581526020015f151581526020015f73ffffffffffffffffffffffffffffffffffffffff1681526020018281526020018381525060015f8573ffffffffffffffffffffffffffffffffffffffff1673ffffffffffffffffffffffffffffffffffffffff1681526020019081526020015f205f820151815f015f6101000a81548160ff0219169083151502179055506020820151815f0160016101000a81548160ff0219169083151502179055506040820151815f0160026101000a81548173ffffffffffffffffffffffffffffffffffffffff021916908373ffffffffffffffffffffffffffffffffffffffff1602179055506060820151816001019081612afe9190613f60565b506080820151816002019081612b149190613f60565b509050506001600283604051612b2a9190613b7f565b90815260200160405180910390205f6101000a81548160ff021916908315150217905550600883908060018154018082558091505060019003905f5260205f20015f9091909190916101000a81548173ffffffffffffffffffffffffffffffffffffffff021916908373ffffffffffffffffffffffffffffffffffffffff1602179055507f96ac7a421360a2bd773d747b2f64b40a916821c4906dbfdebf787c292e741f7d838383604051612be193929190614778565b60405180910390a1505050565b5f8054906101000a900473ffffffffffffffffffffffffffffffffffffffff1673ffffffffffffffffffffffffffffffffffffffff163373ffffffffffffffffffffffffffffffffffffffff1614612c7b576040517f08c379a0000000000000000000000000000000000000000000000000000000008152600401612c7290613a9d565b60405180910390fd5b60095f9054906101000a900460ff168015612ca35750600960019054906101000a900460ff16155b612ce2576040517f08c379a0000000000000000000000000000000000000000000000000000000008152600401612cd9906141db565b60405180910390fd5b6001600960016101000a81548160ff0219169083151502179055505f60095f6101000a81548160ff0219169083151502179055505f5b600780549050811015612f97575f60078281548110612d3a57612d39613abb565b5b905f5260205f20018054612d4d90613b15565b80601f0160208091040260200160405190810160405280929190818152602001828054612d7990613b15565b8015612dc45780601f10612d9b57610100808354040283529160200191612dc4565b820191905f5260205f20905b815481529060010190602001808311612da757829003601f168201915b505050505090505f805f5b600680549050811015612f4b575f60068281548110612df157612df0613abb565b5b905f5260205f20015f9054906101000a900473ffffffffffffffffffffffffffffffffffffffff16905084604051602001612e2c9190613b7f565b6040516020818303038152906040528051906020012060035f8373ffffffffffffffffffffffffffffffffffffffff1673ffffffffffffffffffffffffffffffffffffffff1681526020019081526020015f20600301604051602001612e929190614107565b6040516020818303038152906040528051906020012003612f3d578260035f8373ffffffffffffffffffffffffffffffffffffffff1673ffffffffffffffffffffffffffffffffffffffff1681526020019081526020015f20600201541115612f3c5760035f8273ffffffffffffffffffffffffffffffffffffffff1673ffffffffffffffffffffffffffffffffffffffff1681526020019081526020015f206002015492508093505b5b508080600101915050612dcf565b507f3b281afe48905f20862f01b6e1bc6eaf6079665f84380a6022228a68c38308f0828285604051612f7f939291906147bb565b60405180910390a15050508080600101915050612d18565b50565b6005818051602081018201805184825260208301602085012081835280955050505050505f91509050805f0154908060010154905082565b5f8054906101000a900473ffffffffffffffffffffffffffffffffffffffff1681565b50805461300190613b15565b5f825580601f10613012575061302f565b601f0160209004905f5260205f209081019061302e9190613050565b5b50565b5080545f8255905f5260205f209081019061304d9190613050565b50565b5b80821115613067575f815f905550600101613051565b5090565b5f81519050919050565b5f82825260208201905092915050565b5f819050602082019050919050565b5f81519050919050565b5f82825260208201905092915050565b8281835e5f83830152505050565b5f601f19601f8301169050919050565b5f6130d682613094565b6130e0818561309e565b93506130f08185602086016130ae565b6130f9816130bc565b840191505092915050565b5f61310f83836130cc565b905092915050565b5f602082019050919050565b5f61312d8261306b565b6131378185613075565b93508360208202850161314985613085565b805f5b8581101561318457848403895281516131658582613104565b945061317083613117565b925060208a0199505060018101905061314c565b50829750879550505050505092915050565b5f6020820190508181035f8301526131ae8184613123565b905092915050565b5f604051905090565b5f80fd5b5f80fd5b5f73ffffffffffffffffffffffffffffffffffffffff82169050919050565b5f6131f0826131c7565b9050919050565b613200816131e6565b811461320a575f80fd5b50565b5f8135905061321b816131f7565b92915050565b5f80fd5b5f80fd5b7f4e487b71000000000000000000000000000000000000000000000000000000005f52604160045260245ffd5b61325f826130bc565b810181811067ffffffffffffffff8211171561327e5761327d613229565b5b80604052505050565b5f6132906131b6565b905061329c8282613256565b919050565b5f67ffffffffffffffff8211156132bb576132ba613229565b5b6132c4826130bc565b9050602081019050919050565b828183375f83830152505050565b5f6132f16132ec846132a1565b613287565b90508281526020810184848401111561330d5761330c613225565b5b6133188482856132d1565b509392505050565b5f82601f83011261333457613333613221565b5b81356133448482602086016132df565b91505092915050565b5f805f8060808587031215613365576133646131bf565b5b5f6133728782880161320d565b945050602085013567ffffffffffffffff811115613393576133926131c3565b5b61339f87828801613320565b935050604085013567ffffffffffffffff8111156133c0576133bf6131c3565b5b6133cc87828801613320565b925050606085013567ffffffffffffffff8111156133ed576133ec6131c3565b5b6133f987828801613320565b91505092959194509250565b5f819050919050565b61341781613405565b8114613421575f80fd5b50565b5f813590506134328161340e565b92915050565b5f6020828403121561344d5761344c6131bf565b5b5f61345a84828501613424565b91505092915050565b5f82825260208201905092915050565b5f61347d82613094565b6134878185613463565b93506134978185602086016130ae565b6134a0816130bc565b840191505092915050565b5f6020820190508181035f8301526134c38184613473565b905092915050565b5f602082840312156134e0576134df6131bf565b5b5f82013567ffffffffffffffff8111156134fd576134fc6131c3565b5b61350984828501613320565b91505092915050565b61351b816131e6565b82525050565b61352a81613405565b82525050565b5f6060820190506135435f830186613512565b81810360208301526135558185613473565b90506135646040830184613521565b949350505050565b5f81519050919050565b5f82825260208201905092915050565b5f819050602082019050919050565b61359e816131e6565b82525050565b5f6135af8383613595565b60208301905092915050565b5f602082019050919050565b5f6135d18261356c565b6135db8185613576565b93506135e683613586565b805f5b838110156136165781516135fd88826135a4565b9750613608836135bb565b9250506001810190506135e9565b5085935050505092915050565b5f6040820190508181035f83015261363b81856135c7565b9050818103602083015261364f8184613123565b90509392505050565b5f60208201905061366b5f830184613512565b92915050565b5f8115159050919050565b61368581613671565b82525050565b5f60208201905061369e5f83018461367c565b92915050565b5f602082840312156136b9576136b86131bf565b5b5f6136c68482850161320d565b91505092915050565b5f60a0820190508181035f8301526136e78188613473565b90506136f66020830187613512565b6137036040830186613521565b81810360608301526137158185613473565b905081810360808301526137298184613473565b90509695505050505050565b5f81519050919050565b5f82825260208201905092915050565b5f819050602082019050919050565b61376781613405565b82525050565b5f613778838361375e565b60208301905092915050565b5f602082019050919050565b5f61379a82613735565b6137a4818561373f565b93506137af8361374f565b805f5b838110156137df5781516137c6888261376d565b97506137d183613784565b9250506001810190506137b2565b5085935050505092915050565b5f6040820190508181035f8301526138048185613123565b905081810360208301526138188184613790565b90509392505050565b5f805f60608486031215613838576138376131bf565b5b5f84013567ffffffffffffffff811115613855576138546131c3565b5b61386186828701613320565b935050602084013567ffffffffffffffff811115613882576138816131c3565b5b61388e86828701613320565b925050604084013567ffffffffffffffff8111156138af576138ae6131c3565b5b6138bb86828701613320565b9150509250925092565b5f60a0820190506138d85f83018861367c565b6138e5602083018761367c565b6138f26040830186613512565b81810360608301526139048185613473565b905081810360808301526139188184613473565b90509695505050505050565b5f806040838503121561393a576139396131bf565b5b5f83013567ffffffffffffffff811115613957576139566131c3565b5b61396385828601613320565b925050602061397485828601613424565b9150509250929050565b5f805f60608486031215613995576139946131bf565b5b5f6139a28682870161320d565b935050602084013567ffffffffffffffff8111156139c3576139c26131c3565b5b6139cf86828701613320565b925050604084013567ffffffffffffffff8111156139f0576139ef6131c3565b5b6139fc86828701613320565b9150509250925092565b5f604082019050613a195f830185613521565b613a266020830184613521565b9392505050565b7f4f6e6c792061646d696e2063616e20706572666f726d207468697320616374695f8201527f6f6e2e0000000000000000000000000000000000000000000000000000000000602082015250565b5f613a87602383613463565b9150613a9282613a2d565b604082019050919050565b5f6020820190508181035f830152613ab481613a7b565b9050919050565b7f4e487b71000000000000000000000000000000000000000000000000000000005f52603260045260245ffd5b7f4e487b71000000000000000000000000000000000000000000000000000000005f52602260045260245ffd5b5f6002820490506001821680613b2c57607f821691505b602082108103613b3f57613b3e613ae8565b5b50919050565b5f81905092915050565b5f613b5982613094565b613b638185613b45565b9350613b738185602086016130ae565b80840191505092915050565b5f613b8a8284613b4f565b915081905092915050565b7f4174206c656173742074776f2063616e646964617465732072657175697265645f8201527f2e00000000000000000000000000000000000000000000000000000000000000602082015250565b5f613bef602183613463565b9150613bfa82613b95565b604082019050919050565b5f6020820190508181035f830152613c1c81613be3565b9050919050565b7f4172656120646f6573206e6f742065786973742e0000000000000000000000005f82015250565b5f613c57601483613463565b9150613c6282613c23565b602082019050919050565b5f6020820190508181035f830152613c8481613c4b565b9050919050565b7f43616e646964617465206e616d652063616e6e6f7420626520656d7074792e005f82015250565b5f613cbf601f83613463565b9150613cca82613c8b565b602082019050919050565b5f6020820190508181035f830152613cec81613cb3565b9050919050565b7f43616e64696461746520616c726561647920726567697374657265642e0000005f82015250565b5f613d27601d83613463565b9150613d3282613cf3565b602082019050919050565b5f6020820190508181035f830152613d5481613d1b565b9050919050565b7f4e6174696f6e616c20494420616c726561647920726567697374657265642e005f82015250565b5f613d8f601f83613463565b9150613d9a82613d5b565b602082019050919050565b5f6020820190508181035f830152613dbc81613d83565b9050919050565b5f819050815f5260205f209050919050565b5f6020601f8301049050919050565b5f82821b905092915050565b5f60088302613e1f7fffffffffffffffffffffffffffffffffffffffffffffffffffffffffffffffff82613de4565b613e298683613de4565b95508019841693508086168417925050509392505050565b5f819050919050565b5f613e64613e5f613e5a84613405565b613e41565b613405565b9050919050565b5f819050919050565b613e7d83613e4a565b613e91613e8982613e6b565b848454613df0565b825550505050565b5f90565b613ea5613e99565b613eb0818484613e74565b505050565b5b81811015613ed357613ec85f82613e9d565b600181019050613eb6565b5050565b601f821115613f1857613ee981613dc3565b613ef284613dd5565b81016020851015613f01578190505b613f15613f0d85613dd5565b830182613eb5565b50505b505050565b5f82821c905092915050565b5f613f385f1984600802613f1d565b1980831691505092915050565b5f613f508383613f29565b9150826002028217905092915050565b613f6982613094565b67ffffffffffffffff811115613f8257613f81613229565b5b613f8c8254613b15565b613f97828285613ed7565b5f60209050601f831160018114613fc8575f8415613fb6578287015190505b613fc08582613f45565b865550614027565b601f198416613fd686613dc3565b5f5b82811015613ffd57848901518255600182019150602085019450602081019050613fd8565b8683101561401a5784890151614016601f891682613f29565b8355505b6001600288020188555050505b505050505050565b5f6080820190506140425f830187613512565b81810360208301526140548186613473565b905081810360408301526140688185613473565b9050818103606083015261407c8184613473565b905095945050505050565b5f815461409381613b15565b61409d8186613b45565b9450600182165f81146140b757600181146140cc576140fe565b60ff19831686528115158202860193506140fe565b6140d585613dc3565b5f5b838110156140f6578154818901526001820191506020810190506140d7565b838801955050505b50505092915050565b5f6141128284614087565b915081905092915050565b7f4e487b71000000000000000000000000000000000000000000000000000000005f52601160045260245ffd5b5f61415482613405565b91507fffffffffffffffffffffffffffffffffffffffffffffffffffffffffffffffff82036141865761418561411d565b5b600182019050919050565b7f566f74696e67206973206e6f74206163746976652e00000000000000000000005f82015250565b5f6141c5601583613463565b91506141d082614191565b602082019050919050565b5f6020820190508181035f8301526141f2816141b9565b9050919050565b7f596f7520617265206e6f74207265676973746572656420746f20766f74652e005f82015250565b5f61422d601f83613463565b9150614238826141f9565b602082019050919050565b5f6020820190508181035f83015261425a81614221565b9050919050565b7f596f75206861766520616c726561647920766f7465642e0000000000000000005f82015250565b5f614295601783613463565b91506142a082614261565b602082019050919050565b5f6020820190508181035f8301526142c281614289565b9050919050565b7f4e6174696f6e616c20494420646f6573206e6f74206d617463682e00000000005f82015250565b5f6142fd601b83613463565b9150614308826142c9565b602082019050919050565b5f6020820190508181035f83015261432a816142f1565b9050919050565b7f4172656120646f6573206e6f74206d617463682074686520766f7465722773205f8201527f7265676973746572656420617265612e00000000000000000000000000000000602082015250565b5f61438b603083613463565b915061439682614331565b604082019050919050565b5f6020820190508181035f8301526143b88161437f565b9050919050565b7f496e76616c69642063616e646964617465206e616d652e0000000000000000005f82015250565b5f6143f3601783613463565b91506143fe826143bf565b602082019050919050565b5f6020820190508181035f830152614420816143e7565b9050919050565b7f43616e64696461746520616e6420766f746572206d75737420626520696e20745f8201527f68652073616d6520617265612e00000000000000000000000000000000000000602082015250565b5f614481602d83613463565b915061448c82614427565b604082019050919050565b5f6020820190508181035f8301526144ae81614475565b9050919050565b7f566f74696e67206c696d697420666f72207468697320617265612068617320625f8201527f65656e20726561636865642e0000000000000000000000000000000000000000602082015250565b5f61450f602c83613463565b915061451a826144b5565b604082019050919050565b5f6020820190508181035f83015261453c81614503565b9050919050565b5f61454d82613405565b915061455883613405565b92508282019050808211156145705761456f61411d565b5b92915050565b5f6060820190506145895f830186613512565b6145966020830185613512565b81810360408301526145a88184613473565b9050949350505050565b7f41726561206e616d652063616e6e6f7420626520656d7074792e0000000000005f82015250565b5f6145e6601a83613463565b91506145f1826145b2565b602082019050919050565b5f6020820190508181035f830152614613816145da565b9050919050565b7f41726561206d7573742068617665207265676973746572656420766f746572735f8201527f2e00000000000000000000000000000000000000000000000000000000000000602082015250565b5f614674602183613463565b915061467f8261461a565b604082019050919050565b5f6020820190508181035f8301526146a181614668565b9050919050565b7f4172656120616c7265616479206578697374732e0000000000000000000000005f82015250565b5f6146dc601483613463565b91506146e7826146a8565b602082019050919050565b5f6020820190508181035f830152614709816146d0565b9050919050565b7f566f74657220616c726561647920726567697374657265642e000000000000005f82015250565b5f614744601983613463565b915061474f82614710565b602082019050919050565b5f6020820190508181035f83015261477181614738565b9050919050565b5f60608201905061478b5f830186613512565b818103602083015261479d8185613473565b905081810360408301526147b18184613473565b9050949350505050565b5f6060820190506147ce5f830186613512565b6147db6020830185613521565b81810360408301526147ed8184613473565b905094935050505056fea26469706673582212204f97e6c6701688fa321749fdf4d1375778921d4942daa144c7e9030e9603e47964736f6c634300081a0033",
					"opcodes": "PUSH1 0x80 PUSH1 0x40 MSTORE CALLVALUE DUP1 ISZERO PUSH1 0xE JUMPI PUSH0 DUP1 REVERT JUMPDEST POP CALLER PUSH0 DUP1 PUSH2 0x100 EXP DUP2 SLOAD DUP2 PUSH20 0xFFFFFFFFFFFFFFFFFFFFFFFFFFFFFFFFFFFFFFFF MUL NOT AND SWAP1 DUP4 PUSH20 0xFFFFFFFFFFFFFFFFFFFFFFFFFFFFFFFFFFFFFFFF AND MUL OR SWAP1 SSTORE POP PUSH2 0x482D DUP1 PUSH2 0x5B PUSH0 CODECOPY PUSH0 RETURN INVALID PUSH1 0x80 PUSH1 0x40 MSTORE CALLVALUE DUP1 ISZERO PUSH2 0xF JUMPI PUSH0 DUP1 REVERT JUMPDEST POP PUSH1 0x4 CALLDATASIZE LT PUSH2 0x135 JUMPI PUSH0 CALLDATALOAD PUSH1 0xE0 SHR DUP1 PUSH4 0x8AB66A90 GT PUSH2 0xB6 JUMPI DUP1 PUSH4 0xAC6BA3C3 GT PUSH2 0x7A JUMPI DUP1 PUSH4 0xAC6BA3C3 EQ PUSH2 0x347 JUMPI DUP1 PUSH4 0xB13C744B EQ PUSH2 0x363 JUMPI DUP1 PUSH4 0xBB8FAB8E EQ PUSH2 0x393 JUMPI DUP1 PUSH4 0xC3403DDF EQ PUSH2 0x3AF JUMPI DUP1 PUSH4 0xD4A7DE3E EQ PUSH2 0x3B9 JUMPI DUP1 PUSH4 0xF851A440 EQ PUSH2 0x3EA JUMPI PUSH2 0x135 JUMP JUMPDEST DUP1 PUSH4 0x8AB66A90 EQ PUSH2 0x286 JUMPI DUP1 PUSH4 0x8DFBA9AC EQ PUSH2 0x2BA JUMPI DUP1 PUSH4 0x95F59FE1 EQ PUSH2 0x2D9 JUMPI DUP1 PUSH4 0x9D5A0529 EQ PUSH2 0x2F5 JUMPI DUP1 PUSH4 0xA3EC138D EQ PUSH2 0x313 JUMPI PUSH2 0x135 JUMP JUMPDEST DUP1 PUSH4 0x3E46D279 GT PUSH2 0xFD JUMPI DUP1 PUSH4 0x3E46D279 EQ PUSH2 0x1A5 JUMPI DUP1 PUSH4 0x432DEA47 EQ PUSH2 0x1D5 JUMPI DUP1 PUSH4 0x438AABDC EQ PUSH2 0x207 JUMPI DUP1 PUSH4 0x50E2E8AF EQ PUSH2 0x238 JUMPI DUP1 PUSH4 0x83D948B7 EQ PUSH2 0x268 JUMPI PUSH2 0x135 JUMP JUMPDEST DUP1 PUSH4 0x3B2B7F0 EQ PUSH2 0x139 JUMPI DUP1 PUSH4 0x6A49FCE EQ PUSH2 0x143 JUMPI DUP1 PUSH4 0x1EC6B60A EQ PUSH2 0x161 JUMPI DUP1 PUSH4 0x21B3F528 EQ PUSH2 0x16B JUMPI DUP1 PUSH4 0x2EA3981A EQ PUSH2 0x187 JUMPI JUMPDEST PUSH0 DUP1 REVERT JUMPDEST PUSH2 0x141 PUSH2 0x408 JUMP JUMPDEST STOP JUMPDEST PUSH2 0x14B PUSH2 0x7C3 JUMP JUMPDEST PUSH1 0x40 MLOAD PUSH2 0x158 SWAP2 SWAP1 PUSH2 0x3196 JUMP JUMPDEST PUSH1 0x40 MLOAD DUP1 SWAP2 SUB SWAP1 RETURN JUMPDEST PUSH2 0x169 PUSH2 0x95E JUMP JUMPDEST STOP JUMPDEST PUSH2 0x185 PUSH1 0x4 DUP1 CALLDATASIZE SUB DUP2 ADD SWAP1 PUSH2 0x180 SWAP2 SWAP1 PUSH2 0x334D JUMP JUMPDEST PUSH2 0xA6A JUMP JUMPDEST STOP JUMPDEST PUSH2 0x18F PUSH2 0xEB9 JUMP JUMPDEST PUSH1 0x40 MLOAD PUSH2 0x19C SWAP2 SWAP1 PUSH2 0x3196 JUMP JUMPDEST PUSH1 0x40 MLOAD DUP1 SWAP2 SUB SWAP1 RETURN JUMPDEST PUSH2 0x1BF PUSH1 0x4 DUP1 CALLDATASIZE SUB DUP2 ADD SWAP1 PUSH2 0x1BA SWAP2 SWAP1 PUSH2 0x3438 JUMP JUMPDEST PUSH2 0xF8D JUMP JUMPDEST PUSH1 0x40 MLOAD PUSH2 0x1CC SWAP2 SWAP1 PUSH2 0x34AB JUMP JUMPDEST PUSH1 0x40 MLOAD DUP1 SWAP2 SUB SWAP1 RETURN JUMPDEST PUSH2 0x1EF PUSH1 0x4 DUP1 CALLDATASIZE SUB DUP2 ADD SWAP1 PUSH2 0x1EA SWAP2 SWAP1 PUSH2 0x34CB JUMP JUMPDEST PUSH2 0x1033 JUMP JUMPDEST PUSH1 0x40 MLOAD PUSH2 0x1FE SWAP4 SWAP3 SWAP2 SWAP1 PUSH2 0x3530 JUMP JUMPDEST PUSH1 0x40 MLOAD DUP1 SWAP2 SUB SWAP1 RETURN JUMPDEST PUSH2 0x221 PUSH1 0x4 DUP1 CALLDATASIZE SUB DUP2 ADD SWAP1 PUSH2 0x21C SWAP2 SWAP1 PUSH2 0x34CB JUMP JUMPDEST PUSH2 0x13DE JUMP JUMPDEST PUSH1 0x40 MLOAD PUSH2 0x22F SWAP3 SWAP2 SWAP1 PUSH2 0x3623 JUMP JUMPDEST PUSH1 0x40 MLOAD DUP1 SWAP2 SUB SWAP1 RETURN JUMPDEST PUSH2 0x252 PUSH1 0x4 DUP1 CALLDATASIZE SUB DUP2 ADD SWAP1 PUSH2 0x24D SWAP2 SWAP1 PUSH2 0x3438 JUMP JUMPDEST PUSH2 0x188B JUMP JUMPDEST PUSH1 0x40 MLOAD PUSH2 0x25F SWAP2 SWAP1 PUSH2 0x3658 JUMP JUMPDEST PUSH1 0x40 MLOAD DUP1 SWAP2 SUB SWAP1 RETURN JUMPDEST PUSH2 0x270 PUSH2 0x18C6 JUMP JUMPDEST PUSH1 0x40 MLOAD PUSH2 0x27D SWAP2 SWAP1 PUSH2 0x368B JUMP JUMPDEST PUSH1 0x40 MLOAD DUP1 SWAP2 SUB SWAP1 RETURN JUMPDEST PUSH2 0x2A0 PUSH1 0x4 DUP1 CALLDATASIZE SUB DUP2 ADD SWAP1 PUSH2 0x29B SWAP2 SWAP1 PUSH2 0x36A4 JUMP JUMPDEST PUSH2 0x18D8 JUMP JUMPDEST PUSH1 0x40 MLOAD PUSH2 0x2B1 SWAP6 SWAP5 SWAP4 SWAP3 SWAP2 SWAP1 PUSH2 0x36CF JUMP JUMPDEST PUSH1 0x40 MLOAD DUP1 SWAP2 SUB SWAP1 RETURN JUMPDEST PUSH2 0x2C2 PUSH2 0x1ABB JUMP JUMPDEST PUSH1 0x40 MLOAD PUSH2 0x2D0 SWAP3 SWAP2 SWAP1 PUSH2 0x37EC JUMP JUMPDEST PUSH1 0x40 MLOAD DUP1 SWAP2 SUB SWAP1 RETURN JUMPDEST PUSH2 0x2F3 PUSH1 0x4 DUP1 CALLDATASIZE SUB DUP2 ADD SWAP1 PUSH2 0x2EE SWAP2 SWAP1 PUSH2 0x3821 JUMP JUMPDEST PUSH2 0x1DFF JUMP JUMPDEST STOP JUMPDEST PUSH2 0x2FD PUSH2 0x244D JUMP JUMPDEST PUSH1 0x40 MLOAD PUSH2 0x30A SWAP2 SWAP1 PUSH2 0x368B JUMP JUMPDEST PUSH1 0x40 MLOAD DUP1 SWAP2 SUB SWAP1 RETURN JUMPDEST PUSH2 0x32D PUSH1 0x4 DUP1 CALLDATASIZE SUB DUP2 ADD SWAP1 PUSH2 0x328 SWAP2 SWAP1 PUSH2 0x36A4 JUMP JUMPDEST PUSH2 0x2460 JUMP JUMPDEST PUSH1 0x40 MLOAD PUSH2 0x33E SWAP6 SWAP5 SWAP4 SWAP3 SWAP2 SWAP1 PUSH2 0x38C5 JUMP JUMPDEST PUSH1 0x40 MLOAD DUP1 SWAP2 SUB SWAP1 RETURN JUMPDEST PUSH2 0x361 PUSH1 0x4 DUP1 CALLDATASIZE SUB DUP2 ADD SWAP1 PUSH2 0x35C SWAP2 SWAP1 PUSH2 0x3924 JUMP JUMPDEST PUSH2 0x25D5 JUMP JUMPDEST STOP JUMPDEST PUSH2 0x37D PUSH1 0x4 DUP1 CALLDATASIZE SUB DUP2 ADD SWAP1 PUSH2 0x378 SWAP2 SWAP1 PUSH2 0x3438 JUMP JUMPDEST PUSH2 0x27C7 JUMP JUMPDEST PUSH1 0x40 MLOAD PUSH2 0x38A SWAP2 SWAP1 PUSH2 0x3658 JUMP JUMPDEST PUSH1 0x40 MLOAD DUP1 SWAP2 SUB SWAP1 RETURN JUMPDEST PUSH2 0x3AD PUSH1 0x4 DUP1 CALLDATASIZE SUB DUP2 ADD SWAP1 PUSH2 0x3A8 SWAP2 SWAP1 PUSH2 0x397E JUMP JUMPDEST PUSH2 0x2802 JUMP JUMPDEST STOP JUMPDEST PUSH2 0x3B7 PUSH2 0x2BEE JUMP JUMPDEST STOP JUMPDEST PUSH2 0x3D3 PUSH1 0x4 DUP1 CALLDATASIZE SUB DUP2 ADD SWAP1 PUSH2 0x3CE SWAP2 SWAP1 PUSH2 0x34CB JUMP JUMPDEST PUSH2 0x2F9A JUMP JUMPDEST PUSH1 0x40 MLOAD PUSH2 0x3E1 SWAP3 SWAP2 SWAP1 PUSH2 0x3A06 JUMP JUMPDEST PUSH1 0x40 MLOAD DUP1 SWAP2 SUB SWAP1 RETURN JUMPDEST PUSH2 0x3F2 PUSH2 0x2FD2 JUMP JUMPDEST PUSH1 0x40 MLOAD PUSH2 0x3FF SWAP2 SWAP1 PUSH2 0x3658 JUMP JUMPDEST PUSH1 0x40 MLOAD DUP1 SWAP2 SUB SWAP1 RETURN JUMPDEST PUSH0 DUP1 SLOAD SWAP1 PUSH2 0x100 EXP SWAP1 DIV PUSH20 0xFFFFFFFFFFFFFFFFFFFFFFFFFFFFFFFFFFFFFFFF AND PUSH20 0xFFFFFFFFFFFFFFFFFFFFFFFFFFFFFFFFFFFFFFFF AND CALLER PUSH20 0xFFFFFFFFFFFFFFFFFFFFFFFFFFFFFFFFFFFFFFFF AND EQ PUSH2 0x495 JUMPI PUSH1 0x40 MLOAD PUSH32 0x8C379A000000000000000000000000000000000000000000000000000000000 DUP2 MSTORE PUSH1 0x4 ADD PUSH2 0x48C SWAP1 PUSH2 0x3A9D JUMP JUMPDEST PUSH1 0x40 MLOAD DUP1 SWAP2 SUB SWAP1 REVERT JUMPDEST PUSH0 JUMPDEST PUSH1 0x8 DUP1 SLOAD SWAP1 POP DUP2 LT ISZERO PUSH2 0x59A JUMPI PUSH0 PUSH1 0x8 DUP3 DUP2 SLOAD DUP2 LT PUSH2 0x4B9 JUMPI PUSH2 0x4B8 PUSH2 0x3ABB JUMP JUMPDEST JUMPDEST SWAP1 PUSH0 MSTORE PUSH1 0x20 PUSH0 KECCAK256 ADD PUSH0 SWAP1 SLOAD SWAP1 PUSH2 0x100 EXP SWAP1 DIV PUSH20 0xFFFFFFFFFFFFFFFFFFFFFFFFFFFFFFFFFFFFFFFF AND SWAP1 POP PUSH1 0x1 PUSH0 DUP3 PUSH20 0xFFFFFFFFFFFFFFFFFFFFFFFFFFFFFFFFFFFFFFFF AND PUSH20 0xFFFFFFFFFFFFFFFFFFFFFFFFFFFFFFFFFFFFFFFF AND DUP2 MSTORE PUSH1 0x20 ADD SWAP1 DUP2 MSTORE PUSH1 0x20 ADD PUSH0 KECCAK256 PUSH0 DUP1 DUP3 ADD PUSH0 PUSH2 0x100 EXP DUP2 SLOAD SWAP1 PUSH1 0xFF MUL NOT AND SWAP1 SSTORE PUSH0 DUP3 ADD PUSH1 0x1 PUSH2 0x100 EXP DUP2 SLOAD SWAP1 PUSH1 0xFF MUL NOT AND SWAP1 SSTORE PUSH0 DUP3 ADD PUSH1 0x2 PUSH2 0x100 EXP DUP2 SLOAD SWAP1 PUSH20 0xFFFFFFFFFFFFFFFFFFFFFFFFFFFFFFFFFFFFFFFF MUL NOT AND SWAP1 SSTORE PUSH1 0x1 DUP3 ADD PUSH0 PUSH2 0x57B SWAP2 SWAP1 PUSH2 0x2FF5 JUMP JUMPDEST PUSH1 0x2 DUP3 ADD PUSH0 PUSH2 0x58A SWAP2 SWAP1 PUSH2 0x2FF5 JUMP JUMPDEST POP POP POP DUP1 DUP1 PUSH1 0x1 ADD SWAP2 POP POP PUSH2 0x497 JUMP JUMPDEST POP PUSH0 JUMPDEST PUSH1 0x6 DUP1 SLOAD SWAP1 POP DUP2 LT ISZERO PUSH2 0x690 JUMPI PUSH0 PUSH1 0x6 DUP3 DUP2 SLOAD DUP2 LT PUSH2 0x5BF JUMPI PUSH2 0x5BE PUSH2 0x3ABB JUMP JUMPDEST JUMPDEST SWAP1 PUSH0 MSTORE PUSH1 0x20 PUSH0 KECCAK256 ADD PUSH0 SWAP1 SLOAD SWAP1 PUSH2 0x100 EXP SWAP1 DIV PUSH20 0xFFFFFFFFFFFFFFFFFFFFFFFFFFFFFFFFFFFFFFFF AND SWAP1 POP PUSH1 0x3 PUSH0 DUP3 PUSH20 0xFFFFFFFFFFFFFFFFFFFFFFFFFFFFFFFFFFFFFFFF AND PUSH20 0xFFFFFFFFFFFFFFFFFFFFFFFFFFFFFFFFFFFFFFFF AND DUP2 MSTORE PUSH1 0x20 ADD SWAP1 DUP2 MSTORE PUSH1 0x20 ADD PUSH0 KECCAK256 PUSH0 DUP1 DUP3 ADD PUSH0 PUSH2 0x635 SWAP2 SWAP1 PUSH2 0x2FF5 JUMP JUMPDEST PUSH1 0x1 DUP3 ADD PUSH0 PUSH2 0x100 EXP DUP2 SLOAD SWAP1 PUSH20 0xFFFFFFFFFFFFFFFFFFFFFFFFFFFFFFFFFFFFFFFF MUL NOT AND SWAP1 SSTORE PUSH1 0x2 DUP3 ADD PUSH0 SWAP1 SSTORE PUSH1 0x3 DUP3 ADD PUSH0 PUSH2 0x671 SWAP2 SWAP1 PUSH2 0x2FF5 JUMP JUMPDEST PUSH1 0x4 DUP3 ADD PUSH0 PUSH2 0x680 SWAP2 SWAP1 PUSH2 0x2FF5 JUMP JUMPDEST POP POP POP DUP1 DUP1 PUSH1 0x1 ADD SWAP2 POP POP PUSH2 0x59D JUMP JUMPDEST POP PUSH0 JUMPDEST PUSH1 0x7 DUP1 SLOAD SWAP1 POP DUP2 LT ISZERO PUSH2 0x77A JUMPI PUSH0 PUSH1 0x7 DUP3 DUP2 SLOAD DUP2 LT PUSH2 0x6B5 JUMPI PUSH2 0x6B4 PUSH2 0x3ABB JUMP JUMPDEST JUMPDEST SWAP1 PUSH0 MSTORE PUSH1 0x20 PUSH0 KECCAK256 ADD DUP1 SLOAD PUSH2 0x6C8 SWAP1 PUSH2 0x3B15 JUMP JUMPDEST DUP1 PUSH1 0x1F ADD PUSH1 0x20 DUP1 SWAP2 DIV MUL PUSH1 0x20 ADD PUSH1 0x40 MLOAD SWAP1 DUP2 ADD PUSH1 0x40 MSTORE DUP1 SWAP3 SWAP2 SWAP1 DUP2 DUP2 MSTORE PUSH1 0x20 ADD DUP3 DUP1 SLOAD PUSH2 0x6F4 SWAP1 PUSH2 0x3B15 JUMP JUMPDEST DUP1 ISZERO PUSH2 0x73F JUMPI DUP1 PUSH1 0x1F LT PUSH2 0x716 JUMPI PUSH2 0x100 DUP1 DUP4 SLOAD DIV MUL DUP4 MSTORE SWAP2 PUSH1 0x20 ADD SWAP2 PUSH2 0x73F JUMP JUMPDEST DUP3 ADD SWAP2 SWAP1 PUSH0 MSTORE PUSH1 0x20 PUSH0 KECCAK256 SWAP1 JUMPDEST DUP2 SLOAD DUP2 MSTORE SWAP1 PUSH1 0x1 ADD SWAP1 PUSH1 0x20 ADD DUP1 DUP4 GT PUSH2 0x722 JUMPI DUP3 SWAP1 SUB PUSH1 0x1F AND DUP3 ADD SWAP2 JUMPDEST POP POP POP POP POP SWAP1 POP PUSH0 PUSH1 0x5 DUP3 PUSH1 0x40 MLOAD PUSH2 0x757 SWAP2 SWAP1 PUSH2 0x3B7F JUMP JUMPDEST SWAP1 DUP2 MSTORE PUSH1 0x20 ADD PUSH1 0x40 MLOAD DUP1 SWAP2 SUB SWAP1 KECCAK256 PUSH1 0x1 ADD DUP2 SWAP1 SSTORE POP POP DUP1 DUP1 PUSH1 0x1 ADD SWAP2 POP POP PUSH2 0x693 JUMP JUMPDEST POP PUSH1 0x8 PUSH0 PUSH2 0x788 SWAP2 SWAP1 PUSH2 0x3032 JUMP JUMPDEST PUSH1 0x6 PUSH0 PUSH2 0x795 SWAP2 SWAP1 PUSH2 0x3032 JUMP JUMPDEST PUSH32 0xBF08627280DB28F838829BAC111B71826DF049E015888AAA3D0429D21B897B7 PUSH1 0x40 MLOAD PUSH1 0x40 MLOAD DUP1 SWAP2 SUB SWAP1 LOG1 JUMP JUMPDEST PUSH1 0x60 PUSH0 PUSH1 0x6 DUP1 SLOAD SWAP1 POP PUSH8 0xFFFFFFFFFFFFFFFF DUP2 GT ISZERO PUSH2 0x7E5 JUMPI PUSH2 0x7E4 PUSH2 0x3229 JUMP JUMPDEST JUMPDEST PUSH1 0x40 MLOAD SWAP1 DUP1 DUP3 MSTORE DUP1 PUSH1 0x20 MUL PUSH1 0x20 ADD DUP3 ADD PUSH1 0x40 MSTORE DUP1 ISZERO PUSH2 0x818 JUMPI DUP2 PUSH1 0x20 ADD JUMPDEST PUSH1 0x60 DUP2 MSTORE PUSH1 0x20 ADD SWAP1 PUSH1 0x1 SWAP1 SUB SWAP1 DUP2 PUSH2 0x803 JUMPI SWAP1 POP JUMPDEST POP SWAP1 POP PUSH0 JUMPDEST PUSH1 0x6 DUP1 SLOAD SWAP1 POP DUP2 LT ISZERO PUSH2 0x956 JUMPI PUSH1 0x3 PUSH0 PUSH1 0x6 DUP4 DUP2 SLOAD DUP2 LT PUSH2 0x841 JUMPI PUSH2 0x840 PUSH2 0x3ABB JUMP JUMPDEST JUMPDEST SWAP1 PUSH0 MSTORE PUSH1 0x20 PUSH0 KECCAK256 ADD PUSH0 SWAP1 SLOAD SWAP1 PUSH2 0x100 EXP SWAP1 DIV PUSH20 0xFFFFFFFFFFFFFFFFFFFFFFFFFFFFFFFFFFFFFFFF AND PUSH20 0xFFFFFFFFFFFFFFFFFFFFFFFFFFFFFFFFFFFFFFFF AND PUSH20 0xFFFFFFFFFFFFFFFFFFFFFFFFFFFFFFFFFFFFFFFF AND DUP2 MSTORE PUSH1 0x20 ADD SWAP1 DUP2 MSTORE PUSH1 0x20 ADD PUSH0 KECCAK256 PUSH0 ADD DUP1 SLOAD PUSH2 0x8AF SWAP1 PUSH2 0x3B15 JUMP JUMPDEST DUP1 PUSH1 0x1F ADD PUSH1 0x20 DUP1 SWAP2 DIV MUL PUSH1 0x20 ADD PUSH1 0x40 MLOAD SWAP1 DUP2 ADD PUSH1 0x40 MSTORE DUP1 SWAP3 SWAP2 SWAP1 DUP2 DUP2 MSTORE PUSH1 0x20 ADD DUP3 DUP1 SLOAD PUSH2 0x8DB SWAP1 PUSH2 0x3B15 JUMP JUMPDEST DUP1 ISZERO PUSH2 0x926 JUMPI DUP1 PUSH1 0x1F LT PUSH2 0x8FD JUMPI PUSH2 0x100 DUP1 DUP4 SLOAD DIV MUL DUP4 MSTORE SWAP2 PUSH1 0x20 ADD SWAP2 PUSH2 0x926 JUMP JUMPDEST DUP3 ADD SWAP2 SWAP1 PUSH0 MSTORE PUSH1 0x20 PUSH0 KECCAK256 SWAP1 JUMPDEST DUP2 SLOAD DUP2 MSTORE SWAP1 PUSH1 0x1 ADD SWAP1 PUSH1 0x20 ADD DUP1 DUP4 GT PUSH2 0x909 JUMPI DUP3 SWAP1 SUB PUSH1 0x1F AND DUP3 ADD SWAP2 JUMPDEST POP POP POP POP POP DUP3 DUP3 DUP2 MLOAD DUP2 LT PUSH2 0x93E JUMPI PUSH2 0x93D PUSH2 0x3ABB JUMP JUMPDEST JUMPDEST PUSH1 0x20 MUL PUSH1 0x20 ADD ADD DUP2 SWAP1 MSTORE POP DUP1 DUP1 PUSH1 0x1 ADD SWAP2 POP POP PUSH2 0x81D JUMP JUMPDEST POP DUP1 SWAP2 POP POP SWAP1 JUMP JUMPDEST PUSH0 DUP1 SLOAD SWAP1 PUSH2 0x100 EXP SWAP1 DIV PUSH20 0xFFFFFFFFFFFFFFFFFFFFFFFFFFFFFFFFFFFFFFFF AND PUSH20 0xFFFFFFFFFFFFFFFFFFFFFFFFFFFFFFFFFFFFFFFF AND CALLER PUSH20 0xFFFFFFFFFFFFFFFFFFFFFFFFFFFFFFFFFFFFFFFF AND EQ PUSH2 0x9EB JUMPI PUSH1 0x40 MLOAD PUSH32 0x8C379A000000000000000000000000000000000000000000000000000000000 DUP2 MSTORE PUSH1 0x4 ADD PUSH2 0x9E2 SWAP1 PUSH2 0x3A9D JUMP JUMPDEST PUSH1 0x40 MLOAD DUP1 SWAP2 SUB SWAP1 REVERT JUMPDEST PUSH1 0x2 PUSH1 0x6 DUP1 SLOAD SWAP1 POP LT ISZERO PUSH2 0xA34 JUMPI PUSH1 0x40 MLOAD PUSH32 0x8C379A000000000000000000000000000000000000000000000000000000000 DUP2 MSTORE PUSH1 0x4 ADD PUSH2 0xA2B SWAP1 PUSH2 0x3C05 JUMP JUMPDEST PUSH1 0x40 MLOAD DUP1 SWAP2 SUB SWAP1 REVERT JUMPDEST PUSH1 0x1 PUSH1 0x9 PUSH0 PUSH2 0x100 EXP DUP2 SLOAD DUP2 PUSH1 0xFF MUL NOT AND SWAP1 DUP4 ISZERO ISZERO MUL OR SWAP1 SSTORE POP PUSH0 PUSH1 0x9 PUSH1 0x1 PUSH2 0x100 EXP DUP2 SLOAD DUP2 PUSH1 0xFF MUL NOT AND SWAP1 DUP4 ISZERO ISZERO MUL OR SWAP1 SSTORE POP JUMP JUMPDEST PUSH0 DUP1 SLOAD SWAP1 PUSH2 0x100 EXP SWAP1 DIV PUSH20 0xFFFFFFFFFFFFFFFFFFFFFFFFFFFFFFFFFFFFFFFF AND PUSH20 0xFFFFFFFFFFFFFFFFFFFFFFFFFFFFFFFFFFFFFFFF AND CALLER PUSH20 0xFFFFFFFFFFFFFFFFFFFFFFFFFFFFFFFFFFFFFFFF AND EQ PUSH2 0xAF7 JUMPI PUSH1 0x40 MLOAD PUSH32 0x8C379A000000000000000000000000000000000000000000000000000000000 DUP2 MSTORE PUSH1 0x4 ADD PUSH2 0xAEE SWAP1 PUSH2 0x3A9D JUMP JUMPDEST PUSH1 0x40 MLOAD DUP1 SWAP2 SUB SWAP1 REVERT JUMPDEST PUSH0 PUSH1 0x5 DUP3 PUSH1 0x40 MLOAD PUSH2 0xB08 SWAP2 SWAP1 PUSH2 0x3B7F JUMP JUMPDEST SWAP1 DUP2 MSTORE PUSH1 0x20 ADD PUSH1 0x40 MLOAD DUP1 SWAP2 SUB SWAP1 KECCAK256 PUSH0 ADD SLOAD GT PUSH2 0xB59 JUMPI PUSH1 0x40 MLOAD PUSH32 0x8C379A000000000000000000000000000000000000000000000000000000000 DUP2 MSTORE PUSH1 0x4 ADD PUSH2 0xB50 SWAP1 PUSH2 0x3C6D JUMP JUMPDEST PUSH1 0x40 MLOAD DUP1 SWAP2 SUB SWAP1 REVERT JUMPDEST PUSH0 DUP4 MLOAD GT PUSH2 0xB9C JUMPI PUSH1 0x40 MLOAD PUSH32 0x8C379A000000000000000000000000000000000000000000000000000000000 DUP2 MSTORE PUSH1 0x4 ADD PUSH2 0xB93 SWAP1 PUSH2 0x3CD5 JUMP JUMPDEST PUSH1 0x40 MLOAD DUP1 SWAP2 SUB SWAP1 REVERT JUMPDEST PUSH0 PUSH20 0xFFFFFFFFFFFFFFFFFFFFFFFFFFFFFFFFFFFFFFFF AND PUSH1 0x3 PUSH0 DUP7 PUSH20 0xFFFFFFFFFFFFFFFFFFFFFFFFFFFFFFFFFFFFFFFF AND PUSH20 0xFFFFFFFFFFFFFFFFFFFFFFFFFFFFFFFFFFFFFFFF AND DUP2 MSTORE PUSH1 0x20 ADD SWAP1 DUP2 MSTORE PUSH1 0x20 ADD PUSH0 KECCAK256 PUSH1 0x1 ADD PUSH0 SWAP1 SLOAD SWAP1 PUSH2 0x100 EXP SWAP1 DIV PUSH20 0xFFFFFFFFFFFFFFFFFFFFFFFFFFFFFFFFFFFFFFFF AND PUSH20 0xFFFFFFFFFFFFFFFFFFFFFFFFFFFFFFFFFFFFFFFF AND EQ PUSH2 0xC69 JUMPI PUSH1 0x40 MLOAD PUSH32 0x8C379A000000000000000000000000000000000000000000000000000000000 DUP2 MSTORE PUSH1 0x4 ADD PUSH2 0xC60 SWAP1 PUSH2 0x3D3D JUMP JUMPDEST PUSH1 0x40 MLOAD DUP1 SWAP2 SUB SWAP1 REVERT JUMPDEST PUSH1 0x4 DUP3 PUSH1 0x40 MLOAD PUSH2 0xC79 SWAP2 SWAP1 PUSH2 0x3B7F JUMP JUMPDEST SWAP1 DUP2 MSTORE PUSH1 0x20 ADD PUSH1 0x40 MLOAD DUP1 SWAP2 SUB SWAP1 KECCAK256 PUSH0 SWAP1 SLOAD SWAP1 PUSH2 0x100 EXP SWAP1 DIV PUSH1 0xFF AND ISZERO PUSH2 0xCD4 JUMPI PUSH1 0x40 MLOAD PUSH32 0x8C379A000000000000000000000000000000000000000000000000000000000 DUP2 MSTORE PUSH1 0x4 ADD PUSH2 0xCCB SWAP1 PUSH2 0x3DA5 JUMP JUMPDEST PUSH1 0x40 MLOAD DUP1 SWAP2 SUB SWAP1 REVERT JUMPDEST PUSH1 0x40 MLOAD DUP1 PUSH1 0xA0 ADD PUSH1 0x40 MSTORE DUP1 DUP5 DUP2 MSTORE PUSH1 0x20 ADD DUP6 PUSH20 0xFFFFFFFFFFFFFFFFFFFFFFFFFFFFFFFFFFFFFFFF AND DUP2 MSTORE PUSH1 0x20 ADD PUSH0 DUP2 MSTORE PUSH1 0x20 ADD DUP3 DUP2 MSTORE PUSH1 0x20 ADD DUP4 DUP2 MSTORE POP PUSH1 0x3 PUSH0 DUP7 PUSH20 0xFFFFFFFFFFFFFFFFFFFFFFFFFFFFFFFFFFFFFFFF AND PUSH20 0xFFFFFFFFFFFFFFFFFFFFFFFFFFFFFFFFFFFFFFFF AND DUP2 MSTORE PUSH1 0x20 ADD SWAP1 DUP2 MSTORE PUSH1 0x20 ADD PUSH0 KECCAK256 PUSH0 DUP3 ADD MLOAD DUP2 PUSH0 ADD SWAP1 DUP2 PUSH2 0xD61 SWAP2 SWAP1 PUSH2 0x3F60 JUMP JUMPDEST POP PUSH1 0x20 DUP3 ADD MLOAD DUP2 PUSH1 0x1 ADD PUSH0 PUSH2 0x100 EXP DUP2 SLOAD DUP2 PUSH20 0xFFFFFFFFFFFFFFFFFFFFFFFFFFFFFFFFFFFFFFFF MUL NOT AND SWAP1 DUP4 PUSH20 0xFFFFFFFFFFFFFFFFFFFFFFFFFFFFFFFFFFFFFFFF AND MUL OR SWAP1 SSTORE POP PUSH1 0x40 DUP3 ADD MLOAD DUP2 PUSH1 0x2 ADD SSTORE PUSH1 0x60 DUP3 ADD MLOAD DUP2 PUSH1 0x3 ADD SWAP1 DUP2 PUSH2 0xDC7 SWAP2 SWAP1 PUSH2 0x3F60 JUMP JUMPDEST POP PUSH1 0x80 DUP3 ADD MLOAD DUP2 PUSH1 0x4 ADD SWAP1 DUP2 PUSH2 0xDDD SWAP2 SWAP1 PUSH2 0x3F60 JUMP JUMPDEST POP SWAP1 POP POP PUSH1 0x1 PUSH1 0x4 DUP4 PUSH1 0x40 MLOAD PUSH2 0xDF3 SWAP2 SWAP1 PUSH2 0x3B7F JUMP JUMPDEST SWAP1 DUP2 MSTORE PUSH1 0x20 ADD PUSH1 0x40 MLOAD DUP1 SWAP2 SUB SWAP1 KECCAK256 PUSH0 PUSH2 0x100 EXP DUP2 SLOAD DUP2 PUSH1 0xFF MUL NOT AND SWAP1 DUP4 ISZERO ISZERO MUL OR SWAP1 SSTORE POP PUSH1 0x6 DUP5 SWAP1 DUP1 PUSH1 0x1 DUP2 SLOAD ADD DUP1 DUP3 SSTORE DUP1 SWAP2 POP POP PUSH1 0x1 SWAP1 SUB SWAP1 PUSH0 MSTORE PUSH1 0x20 PUSH0 KECCAK256 ADD PUSH0 SWAP1 SWAP2 SWAP1 SWAP2 SWAP1 SWAP2 PUSH2 0x100 EXP DUP2 SLOAD DUP2 PUSH20 0xFFFFFFFFFFFFFFFFFFFFFFFFFFFFFFFFFFFFFFFF MUL NOT AND SWAP1 DUP4 PUSH20 0xFFFFFFFFFFFFFFFFFFFFFFFFFFFFFFFFFFFFFFFF AND MUL OR SWAP1 SSTORE POP PUSH31 0xD6FEA68F71A20D8149F227F87E8CF7E6AD320B2DAD4B45465B14599B80EE09 DUP5 DUP5 DUP5 DUP5 PUSH1 0x40 MLOAD PUSH2 0xEAB SWAP5 SWAP4 SWAP3 SWAP2 SWAP1 PUSH2 0x402F JUMP JUMPDEST PUSH1 0x40 MLOAD DUP1 SWAP2 SUB SWAP1 LOG1 POP POP POP POP JUMP JUMPDEST PUSH1 0x60 PUSH1 0x7 DUP1 SLOAD DUP1 PUSH1 0x20 MUL PUSH1 0x20 ADD PUSH1 0x40 MLOAD SWAP1 DUP2 ADD PUSH1 0x40 MSTORE DUP1 SWAP3 SWAP2 SWAP1 DUP2 DUP2 MSTORE PUSH1 0x20 ADD PUSH0 SWAP1 JUMPDEST DUP3 DUP3 LT ISZERO PUSH2 0xF84 JUMPI DUP4 DUP3 SWAP1 PUSH0 MSTORE PUSH1 0x20 PUSH0 KECCAK256 ADD DUP1 SLOAD PUSH2 0xEF9 SWAP1 PUSH2 0x3B15 JUMP JUMPDEST DUP1 PUSH1 0x1F ADD PUSH1 0x20 DUP1 SWAP2 DIV MUL PUSH1 0x20 ADD PUSH1 0x40 MLOAD SWAP1 DUP2 ADD PUSH1 0x40 MSTORE DUP1 SWAP3 SWAP2 SWAP1 DUP2 DUP2 MSTORE PUSH1 0x20 ADD DUP3 DUP1 SLOAD PUSH2 0xF25 SWAP1 PUSH2 0x3B15 JUMP JUMPDEST DUP1 ISZERO PUSH2 0xF70 JUMPI DUP1 PUSH1 0x1F LT PUSH2 0xF47 JUMPI PUSH2 0x100 DUP1 DUP4 SLOAD DIV MUL DUP4 MSTORE SWAP2 PUSH1 0x20 ADD SWAP2 PUSH2 0xF70 JUMP JUMPDEST DUP3 ADD SWAP2 SWAP1 PUSH0 MSTORE PUSH1 0x20 PUSH0 KECCAK256 SWAP1 JUMPDEST DUP2 SLOAD DUP2 MSTORE SWAP1 PUSH1 0x1 ADD SWAP1 PUSH1 0x20 ADD DUP1 DUP4 GT PUSH2 0xF53 JUMPI DUP3 SWAP1 SUB PUSH1 0x1F AND DUP3 ADD SWAP2 JUMPDEST POP POP POP POP POP DUP2 MSTORE PUSH1 0x20 ADD SWAP1 PUSH1 0x1 ADD SWAP1 PUSH2 0xEDC JUMP JUMPDEST POP POP POP POP SWAP1 POP SWAP1 JUMP JUMPDEST PUSH1 0x7 DUP2 DUP2 SLOAD DUP2 LT PUSH2 0xF9C JUMPI PUSH0 DUP1 REVERT JUMPDEST SWAP1 PUSH0 MSTORE PUSH1 0x20 PUSH0 KECCAK256 ADD PUSH0 SWAP2 POP SWAP1 POP DUP1 SLOAD PUSH2 0xFB4 SWAP1 PUSH2 0x3B15 JUMP JUMPDEST DUP1 PUSH1 0x1F ADD PUSH1 0x20 DUP1 SWAP2 DIV MUL PUSH1 0x20 ADD PUSH1 0x40 MLOAD SWAP1 DUP2 ADD PUSH1 0x40 MSTORE DUP1 SWAP3 SWAP2 SWAP1 DUP2 DUP2 MSTORE PUSH1 0x20 ADD DUP3 DUP1 SLOAD PUSH2 0xFE0 SWAP1 PUSH2 0x3B15 JUMP JUMPDEST DUP1 ISZERO PUSH2 0x102B JUMPI DUP1 PUSH1 0x1F LT PUSH2 0x1002 JUMPI PUSH2 0x100 DUP1 DUP4 SLOAD DIV MUL DUP4 MSTORE SWAP2 PUSH1 0x20 ADD SWAP2 PUSH2 0x102B JUMP JUMPDEST DUP3 ADD SWAP2 SWAP1 PUSH0 MSTORE PUSH1 0x20 PUSH0 KECCAK256 SWAP1 JUMPDEST DUP2 SLOAD DUP2 MSTORE SWAP1 PUSH1 0x1 ADD SWAP1 PUSH1 0x20 ADD DUP1 DUP4 GT PUSH2 0x100E JUMPI DUP3 SWAP1 SUB PUSH1 0x1F AND DUP3 ADD SWAP2 JUMPDEST POP POP POP POP POP DUP2 JUMP JUMPDEST PUSH0 PUSH1 0x60 PUSH0 DUP1 PUSH1 0x5 DUP6 PUSH1 0x40 MLOAD PUSH2 0x1048 SWAP2 SWAP1 PUSH2 0x3B7F JUMP JUMPDEST SWAP1 DUP2 MSTORE PUSH1 0x20 ADD PUSH1 0x40 MLOAD DUP1 SWAP2 SUB SWAP1 KECCAK256 PUSH0 ADD SLOAD GT PUSH2 0x1099 JUMPI PUSH1 0x40 MLOAD PUSH32 0x8C379A000000000000000000000000000000000000000000000000000000000 DUP2 MSTORE PUSH1 0x4 ADD PUSH2 0x1090 SWAP1 PUSH2 0x3C6D JUMP JUMPDEST PUSH1 0x40 MLOAD DUP1 SWAP2 SUB SWAP1 REVERT JUMPDEST PUSH0 DUP1 PUSH1 0x60 PUSH0 JUMPDEST PUSH1 0x6 DUP1 SLOAD SWAP1 POP DUP2 LT ISZERO PUSH2 0x13CA JUMPI DUP8 PUSH1 0x40 MLOAD PUSH1 0x20 ADD PUSH2 0x10BD SWAP2 SWAP1 PUSH2 0x3B7F JUMP JUMPDEST PUSH1 0x40 MLOAD PUSH1 0x20 DUP2 DUP4 SUB SUB DUP2 MSTORE SWAP1 PUSH1 0x40 MSTORE DUP1 MLOAD SWAP1 PUSH1 0x20 ADD KECCAK256 PUSH1 0x3 PUSH0 PUSH1 0x6 DUP5 DUP2 SLOAD DUP2 LT PUSH2 0x10EA JUMPI PUSH2 0x10E9 PUSH2 0x3ABB JUMP JUMPDEST JUMPDEST SWAP1 PUSH0 MSTORE PUSH1 0x20 PUSH0 KECCAK256 ADD PUSH0 SWAP1 SLOAD SWAP1 PUSH2 0x100 EXP SWAP1 DIV PUSH20 0xFFFFFFFFFFFFFFFFFFFFFFFFFFFFFFFFFFFFFFFF AND PUSH20 0xFFFFFFFFFFFFFFFFFFFFFFFFFFFFFFFFFFFFFFFF AND PUSH20 0xFFFFFFFFFFFFFFFFFFFFFFFFFFFFFFFFFFFFFFFF AND DUP2 MSTORE PUSH1 0x20 ADD SWAP1 DUP2 MSTORE PUSH1 0x20 ADD PUSH0 KECCAK256 PUSH1 0x3 ADD PUSH1 0x40 MLOAD PUSH1 0x20 ADD PUSH2 0x115E SWAP2 SWAP1 PUSH2 0x4107 JUMP JUMPDEST PUSH1 0x40 MLOAD PUSH1 0x20 DUP2 DUP4 SUB SUB DUP2 MSTORE SWAP1 PUSH1 0x40 MSTORE DUP1 MLOAD SWAP1 PUSH1 0x20 ADD KECCAK256 SUB PUSH2 0x13BD JUMPI DUP3 PUSH1 0x3 PUSH0 PUSH1 0x6 DUP5 DUP2 SLOAD DUP2 LT PUSH2 0x1191 JUMPI PUSH2 0x1190 PUSH2 0x3ABB JUMP JUMPDEST JUMPDEST SWAP1 PUSH0 MSTORE PUSH1 0x20 PUSH0 KECCAK256 ADD PUSH0 SWAP1 SLOAD SWAP1 PUSH2 0x100 EXP SWAP1 DIV PUSH20 0xFFFFFFFFFFFFFFFFFFFFFFFFFFFFFFFFFFFFFFFF AND PUSH20 0xFFFFFFFFFFFFFFFFFFFFFFFFFFFFFFFFFFFFFFFF AND PUSH20 0xFFFFFFFFFFFFFFFFFFFFFFFFFFFFFFFFFFFFFFFF AND DUP2 MSTORE PUSH1 0x20 ADD SWAP1 DUP2 MSTORE PUSH1 0x20 ADD PUSH0 KECCAK256 PUSH1 0x2 ADD SLOAD GT ISZERO PUSH2 0x13BC JUMPI PUSH1 0x3 PUSH0 PUSH1 0x6 DUP4 DUP2 SLOAD DUP2 LT PUSH2 0x1213 JUMPI PUSH2 0x1212 PUSH2 0x3ABB JUMP JUMPDEST JUMPDEST SWAP1 PUSH0 MSTORE PUSH1 0x20 PUSH0 KECCAK256 ADD PUSH0 SWAP1 SLOAD SWAP1 PUSH2 0x100 EXP SWAP1 DIV PUSH20 0xFFFFFFFFFFFFFFFFFFFFFFFFFFFFFFFFFFFFFFFF AND PUSH20 0xFFFFFFFFFFFFFFFFFFFFFFFFFFFFFFFFFFFFFFFF AND PUSH20 0xFFFFFFFFFFFFFFFFFFFFFFFFFFFFFFFFFFFFFFFF AND DUP2 MSTORE PUSH1 0x20 ADD SWAP1 DUP2 MSTORE PUSH1 0x20 ADD PUSH0 KECCAK256 PUSH1 0x2 ADD SLOAD SWAP3 POP PUSH1 0x6 DUP2 DUP2 SLOAD DUP2 LT PUSH2 0x128E JUMPI PUSH2 0x128D PUSH2 0x3ABB JUMP JUMPDEST JUMPDEST SWAP1 PUSH0 MSTORE PUSH1 0x20 PUSH0 KECCAK256 ADD PUSH0 SWAP1 SLOAD SWAP1 PUSH2 0x100 EXP SWAP1 DIV PUSH20 0xFFFFFFFFFFFFFFFFFFFFFFFFFFFFFFFFFFFFFFFF AND SWAP4 POP PUSH1 0x3 PUSH0 PUSH1 0x6 DUP4 DUP2 SLOAD DUP2 LT PUSH2 0x12CF JUMPI PUSH2 0x12CE PUSH2 0x3ABB JUMP JUMPDEST JUMPDEST SWAP1 PUSH0 MSTORE PUSH1 0x20 PUSH0 KECCAK256 ADD PUSH0 SWAP1 SLOAD SWAP1 PUSH2 0x100 EXP SWAP1 DIV PUSH20 0xFFFFFFFFFFFFFFFFFFFFFFFFFFFFFFFFFFFFFFFF AND PUSH20 0xFFFFFFFFFFFFFFFFFFFFFFFFFFFFFFFFFFFFFFFF AND PUSH20 0xFFFFFFFFFFFFFFFFFFFFFFFFFFFFFFFFFFFFFFFF AND DUP2 MSTORE PUSH1 0x20 ADD SWAP1 DUP2 MSTORE PUSH1 0x20 ADD PUSH0 KECCAK256 PUSH0 ADD DUP1 SLOAD PUSH2 0x133D SWAP1 PUSH2 0x3B15 JUMP JUMPDEST DUP1 PUSH1 0x1F ADD PUSH1 0x20 DUP1 SWAP2 DIV MUL PUSH1 0x20 ADD PUSH1 0x40 MLOAD SWAP1 DUP2 ADD PUSH1 0x40 MSTORE DUP1 SWAP3 SWAP2 SWAP1 DUP2 DUP2 MSTORE PUSH1 0x20 ADD DUP3 DUP1 SLOAD PUSH2 0x1369 SWAP1 PUSH2 0x3B15 JUMP JUMPDEST DUP1 ISZERO PUSH2 0x13B4 JUMPI DUP1 PUSH1 0x1F LT PUSH2 0x138B JUMPI PUSH2 0x100 DUP1 DUP4 SLOAD DIV MUL DUP4 MSTORE SWAP2 PUSH1 0x20 ADD SWAP2 PUSH2 0x13B4 JUMP JUMPDEST DUP3 ADD SWAP2 SWAP1 PUSH0 MSTORE PUSH1 0x20 PUSH0 KECCAK256 SWAP1 JUMPDEST DUP2 SLOAD DUP2 MSTORE SWAP1 PUSH1 0x1 ADD SWAP1 PUSH1 0x20 ADD DUP1 DUP4 GT PUSH2 0x1397 JUMPI DUP3 SWAP1 SUB PUSH1 0x1F AND DUP3 ADD SWAP2 JUMPDEST POP POP POP POP POP SWAP2 POP JUMPDEST JUMPDEST DUP1 DUP1 PUSH1 0x1 ADD SWAP2 POP POP PUSH2 0x109F JUMP JUMPDEST POP DUP3 DUP2 DUP4 SWAP6 POP SWAP6 POP SWAP6 POP POP POP POP SWAP2 SWAP4 SWAP1 SWAP3 POP JUMP JUMPDEST PUSH1 0x60 DUP1 PUSH0 PUSH1 0x5 DUP5 PUSH1 0x40 MLOAD PUSH2 0x13F2 SWAP2 SWAP1 PUSH2 0x3B7F JUMP JUMPDEST SWAP1 DUP2 MSTORE PUSH1 0x20 ADD PUSH1 0x40 MLOAD DUP1 SWAP2 SUB SWAP1 KECCAK256 PUSH0 ADD SLOAD GT PUSH2 0x1443 JUMPI PUSH1 0x40 MLOAD PUSH32 0x8C379A000000000000000000000000000000000000000000000000000000000 DUP2 MSTORE PUSH1 0x4 ADD PUSH2 0x143A SWAP1 PUSH2 0x3C6D JUMP JUMPDEST PUSH1 0x40 MLOAD DUP1 SWAP2 SUB SWAP1 REVERT JUMPDEST PUSH0 DUP1 JUMPDEST PUSH1 0x6 DUP1 SLOAD SWAP1 POP DUP2 LT ISZERO PUSH2 0x153C JUMPI DUP5 PUSH1 0x40 MLOAD PUSH1 0x20 ADD PUSH2 0x1464 SWAP2 SWAP1 PUSH2 0x3B7F JUMP JUMPDEST PUSH1 0x40 MLOAD PUSH1 0x20 DUP2 DUP4 SUB SUB DUP2 MSTORE SWAP1 PUSH1 0x40 MSTORE DUP1 MLOAD SWAP1 PUSH1 0x20 ADD KECCAK256 PUSH1 0x3 PUSH0 PUSH1 0x6 DUP5 DUP2 SLOAD DUP2 LT PUSH2 0x1491 JUMPI PUSH2 0x1490 PUSH2 0x3ABB JUMP JUMPDEST JUMPDEST SWAP1 PUSH0 MSTORE PUSH1 0x20 PUSH0 KECCAK256 ADD PUSH0 SWAP1 SLOAD SWAP1 PUSH2 0x100 EXP SWAP1 DIV PUSH20 0xFFFFFFFFFFFFFFFFFFFFFFFFFFFFFFFFFFFFFFFF AND PUSH20 0xFFFFFFFFFFFFFFFFFFFFFFFFFFFFFFFFFFFFFFFF AND PUSH20 0xFFFFFFFFFFFFFFFFFFFFFFFFFFFFFFFFFFFFFFFF AND DUP2 MSTORE PUSH1 0x20 ADD SWAP1 DUP2 MSTORE PUSH1 0x20 ADD PUSH0 KECCAK256 PUSH1 0x3 ADD PUSH1 0x40 MLOAD PUSH1 0x20 ADD PUSH2 0x1505 SWAP2 SWAP1 PUSH2 0x4107 JUMP JUMPDEST PUSH1 0x40 MLOAD PUSH1 0x20 DUP2 DUP4 SUB SUB DUP2 MSTORE SWAP1 PUSH1 0x40 MSTORE DUP1 MLOAD SWAP1 PUSH1 0x20 ADD KECCAK256 SUB PUSH2 0x152F JUMPI DUP2 DUP1 PUSH2 0x152B SWAP1 PUSH2 0x414A JUMP JUMPDEST SWAP3 POP POP JUMPDEST DUP1 DUP1 PUSH1 0x1 ADD SWAP2 POP POP PUSH2 0x1446 JUMP JUMPDEST POP PUSH0 DUP2 PUSH8 0xFFFFFFFFFFFFFFFF DUP2 GT ISZERO PUSH2 0x1558 JUMPI PUSH2 0x1557 PUSH2 0x3229 JUMP JUMPDEST JUMPDEST PUSH1 0x40 MLOAD SWAP1 DUP1 DUP3 MSTORE DUP1 PUSH1 0x20 MUL PUSH1 0x20 ADD DUP3 ADD PUSH1 0x40 MSTORE DUP1 ISZERO PUSH2 0x1586 JUMPI DUP2 PUSH1 0x20 ADD PUSH1 0x20 DUP3 MUL DUP1 CALLDATASIZE DUP4 CALLDATACOPY DUP1 DUP3 ADD SWAP2 POP POP SWAP1 POP JUMPDEST POP SWAP1 POP PUSH0 DUP3 PUSH8 0xFFFFFFFFFFFFFFFF DUP2 GT ISZERO PUSH2 0x15A4 JUMPI PUSH2 0x15A3 PUSH2 0x3229 JUMP JUMPDEST JUMPDEST PUSH1 0x40 MLOAD SWAP1 DUP1 DUP3 MSTORE DUP1 PUSH1 0x20 MUL PUSH1 0x20 ADD DUP3 ADD PUSH1 0x40 MSTORE DUP1 ISZERO PUSH2 0x15D7 JUMPI DUP2 PUSH1 0x20 ADD JUMPDEST PUSH1 0x60 DUP2 MSTORE PUSH1 0x20 ADD SWAP1 PUSH1 0x1 SWAP1 SUB SWAP1 DUP2 PUSH2 0x15C2 JUMPI SWAP1 POP JUMPDEST POP SWAP1 POP PUSH0 DUP1 JUMPDEST PUSH1 0x6 DUP1 SLOAD SWAP1 POP DUP2 LT ISZERO PUSH2 0x187B JUMPI DUP8 PUSH1 0x40 MLOAD PUSH1 0x20 ADD PUSH2 0x15FB SWAP2 SWAP1 PUSH2 0x3B7F JUMP JUMPDEST PUSH1 0x40 MLOAD PUSH1 0x20 DUP2 DUP4 SUB SUB DUP2 MSTORE SWAP1 PUSH1 0x40 MSTORE DUP1 MLOAD SWAP1 PUSH1 0x20 ADD KECCAK256 PUSH1 0x3 PUSH0 PUSH1 0x6 DUP5 DUP2 SLOAD DUP2 LT PUSH2 0x1628 JUMPI PUSH2 0x1627 PUSH2 0x3ABB JUMP JUMPDEST JUMPDEST SWAP1 PUSH0 MSTORE PUSH1 0x20 PUSH0 KECCAK256 ADD PUSH0 SWAP1 SLOAD SWAP1 PUSH2 0x100 EXP SWAP1 DIV PUSH20 0xFFFFFFFFFFFFFFFFFFFFFFFFFFFFFFFFFFFFFFFF AND PUSH20 0xFFFFFFFFFFFFFFFFFFFFFFFFFFFFFFFFFFFFFFFF AND PUSH20 0xFFFFFFFFFFFFFFFFFFFFFFFFFFFFFFFFFFFFFFFF AND DUP2 MSTORE PUSH1 0x20 ADD SWAP1 DUP2 MSTORE PUSH1 0x20 ADD PUSH0 KECCAK256 PUSH1 0x3 ADD PUSH1 0x40 MLOAD PUSH1 0x20 ADD PUSH2 0x169C SWAP2 SWAP1 PUSH2 0x4107 JUMP JUMPDEST PUSH1 0x40 MLOAD PUSH1 0x20 DUP2 DUP4 SUB SUB DUP2 MSTORE SWAP1 PUSH1 0x40 MSTORE DUP1 MLOAD SWAP1 PUSH1 0x20 ADD KECCAK256 SUB PUSH2 0x186E JUMPI PUSH1 0x6 DUP2 DUP2 SLOAD DUP2 LT PUSH2 0x16CB JUMPI PUSH2 0x16CA PUSH2 0x3ABB JUMP JUMPDEST JUMPDEST SWAP1 PUSH0 MSTORE PUSH1 0x20 PUSH0 KECCAK256 ADD PUSH0 SWAP1 SLOAD SWAP1 PUSH2 0x100 EXP SWAP1 DIV PUSH20 0xFFFFFFFFFFFFFFFFFFFFFFFFFFFFFFFFFFFFFFFF AND DUP5 DUP4 DUP2 MLOAD DUP2 LT PUSH2 0x1706 JUMPI PUSH2 0x1705 PUSH2 0x3ABB JUMP JUMPDEST JUMPDEST PUSH1 0x20 MUL PUSH1 0x20 ADD ADD SWAP1 PUSH20 0xFFFFFFFFFFFFFFFFFFFFFFFFFFFFFFFFFFFFFFFF AND SWAP1 DUP2 PUSH20 0xFFFFFFFFFFFFFFFFFFFFFFFFFFFFFFFFFFFFFFFF AND DUP2 MSTORE POP POP PUSH1 0x3 PUSH0 PUSH1 0x6 DUP4 DUP2 SLOAD DUP2 LT PUSH2 0x1757 JUMPI PUSH2 0x1756 PUSH2 0x3ABB JUMP JUMPDEST JUMPDEST SWAP1 PUSH0 MSTORE PUSH1 0x20 PUSH0 KECCAK256 ADD PUSH0 SWAP1 SLOAD SWAP1 PUSH2 0x100 EXP SWAP1 DIV PUSH20 0xFFFFFFFFFFFFFFFFFFFFFFFFFFFFFFFFFFFFFFFF AND PUSH20 0xFFFFFFFFFFFFFFFFFFFFFFFFFFFFFFFFFFFFFFFF AND PUSH20 0xFFFFFFFFFFFFFFFFFFFFFFFFFFFFFFFFFFFFFFFF AND DUP2 MSTORE PUSH1 0x20 ADD SWAP1 DUP2 MSTORE PUSH1 0x20 ADD PUSH0 KECCAK256 PUSH0 ADD DUP1 SLOAD PUSH2 0x17C5 SWAP1 PUSH2 0x3B15 JUMP JUMPDEST DUP1 PUSH1 0x1F ADD PUSH1 0x20 DUP1 SWAP2 DIV MUL PUSH1 0x20 ADD PUSH1 0x40 MLOAD SWAP1 DUP2 ADD PUSH1 0x40 MSTORE DUP1 SWAP3 SWAP2 SWAP1 DUP2 DUP2 MSTORE PUSH1 0x20 ADD DUP3 DUP1 SLOAD PUSH2 0x17F1 SWAP1 PUSH2 0x3B15 JUMP JUMPDEST DUP1 ISZERO PUSH2 0x183C JUMPI DUP1 PUSH1 0x1F LT PUSH2 0x1813 JUMPI PUSH2 0x100 DUP1 DUP4 SLOAD DIV MUL DUP4 MSTORE SWAP2 PUSH1 0x20 ADD SWAP2 PUSH2 0x183C JUMP JUMPDEST DUP3 ADD SWAP2 SWAP1 PUSH0 MSTORE PUSH1 0x20 PUSH0 KECCAK256 SWAP1 JUMPDEST DUP2 SLOAD DUP2 MSTORE SWAP1 PUSH1 0x1 ADD SWAP1 PUSH1 0x20 ADD DUP1 DUP4 GT PUSH2 0x181F JUMPI DUP3 SWAP1 SUB PUSH1 0x1F AND DUP3 ADD SWAP2 JUMPDEST POP POP POP POP POP DUP4 DUP4 DUP2 MLOAD DUP2 LT PUSH2 0x1854 JUMPI PUSH2 0x1853 PUSH2 0x3ABB JUMP JUMPDEST JUMPDEST PUSH1 0x20 MUL PUSH1 0x20 ADD ADD DUP2 SWAP1 MSTORE POP DUP2 DUP1 PUSH2 0x186A SWAP1 PUSH2 0x414A JUMP JUMPDEST SWAP3 POP POP JUMPDEST DUP1 DUP1 PUSH1 0x1 ADD SWAP2 POP POP PUSH2 0x15DD JUMP JUMPDEST POP DUP3 DUP3 SWAP6 POP SWAP6 POP POP POP POP POP SWAP2 POP SWAP2 JUMP JUMPDEST PUSH1 0x8 DUP2 DUP2 SLOAD DUP2 LT PUSH2 0x189A JUMPI PUSH0 DUP1 REVERT JUMPDEST SWAP1 PUSH0 MSTORE PUSH1 0x20 PUSH0 KECCAK256 ADD PUSH0 SWAP2 POP SLOAD SWAP1 PUSH2 0x100 EXP SWAP1 DIV PUSH20 0xFFFFFFFFFFFFFFFFFFFFFFFFFFFFFFFFFFFFFFFF AND DUP2 JUMP JUMPDEST PUSH1 0x9 PUSH0 SWAP1 SLOAD SWAP1 PUSH2 0x100 EXP SWAP1 DIV PUSH1 0xFF AND DUP2 JUMP JUMPDEST PUSH1 0x3 PUSH1 0x20 MSTORE DUP1 PUSH0 MSTORE PUSH1 0x40 PUSH0 KECCAK256 PUSH0 SWAP2 POP SWAP1 POP DUP1 PUSH0 ADD DUP1 SLOAD PUSH2 0x18F7 SWAP1 PUSH2 0x3B15 JUMP JUMPDEST DUP1 PUSH1 0x1F ADD PUSH1 0x20 DUP1 SWAP2 DIV MUL PUSH1 0x20 ADD PUSH1 0x40 MLOAD SWAP1 DUP2 ADD PUSH1 0x40 MSTORE DUP1 SWAP3 SWAP2 SWAP1 DUP2 DUP2 MSTORE PUSH1 0x20 ADD DUP3 DUP1 SLOAD PUSH2 0x1923 SWAP1 PUSH2 0x3B15 JUMP JUMPDEST DUP1 ISZERO PUSH2 0x196E JUMPI DUP1 PUSH1 0x1F LT PUSH2 0x1945 JUMPI PUSH2 0x100 DUP1 DUP4 SLOAD DIV MUL DUP4 MSTORE SWAP2 PUSH1 0x20 ADD SWAP2 PUSH2 0x196E JUMP JUMPDEST DUP3 ADD SWAP2 SWAP1 PUSH0 MSTORE PUSH1 0x20 PUSH0 KECCAK256 SWAP1 JUMPDEST DUP2 SLOAD DUP2 MSTORE SWAP1 PUSH1 0x1 ADD SWAP1 PUSH1 0x20 ADD DUP1 DUP4 GT PUSH2 0x1951 JUMPI DUP3 SWAP1 SUB PUSH1 0x1F AND DUP3 ADD SWAP2 JUMPDEST POP POP POP POP POP SWAP1 DUP1 PUSH1 0x1 ADD PUSH0 SWAP1 SLOAD SWAP1 PUSH2 0x100 EXP SWAP1 DIV PUSH20 0xFFFFFFFFFFFFFFFFFFFFFFFFFFFFFFFFFFFFFFFF AND SWAP1 DUP1 PUSH1 0x2 ADD SLOAD SWAP1 DUP1 PUSH1 0x3 ADD DUP1 SLOAD PUSH2 0x19AE SWAP1 PUSH2 0x3B15 JUMP JUMPDEST DUP1 PUSH1 0x1F ADD PUSH1 0x20 DUP1 SWAP2 DIV MUL PUSH1 0x20 ADD PUSH1 0x40 MLOAD SWAP1 DUP2 ADD PUSH1 0x40 MSTORE DUP1 SWAP3 SWAP2 SWAP1 DUP2 DUP2 MSTORE PUSH1 0x20 ADD DUP3 DUP1 SLOAD PUSH2 0x19DA SWAP1 PUSH2 0x3B15 JUMP JUMPDEST DUP1 ISZERO PUSH2 0x1A25 JUMPI DUP1 PUSH1 0x1F LT PUSH2 0x19FC JUMPI PUSH2 0x100 DUP1 DUP4 SLOAD DIV MUL DUP4 MSTORE SWAP2 PUSH1 0x20 ADD SWAP2 PUSH2 0x1A25 JUMP JUMPDEST DUP3 ADD SWAP2 SWAP1 PUSH0 MSTORE PUSH1 0x20 PUSH0 KECCAK256 SWAP1 JUMPDEST DUP2 SLOAD DUP2 MSTORE SWAP1 PUSH1 0x1 ADD SWAP1 PUSH1 0x20 ADD DUP1 DUP4 GT PUSH2 0x1A08 JUMPI DUP3 SWAP1 SUB PUSH1 0x1F AND DUP3 ADD SWAP2 JUMPDEST POP POP POP POP POP SWAP1 DUP1 PUSH1 0x4 ADD DUP1 SLOAD PUSH2 0x1A3A SWAP1 PUSH2 0x3B15 JUMP JUMPDEST DUP1 PUSH1 0x1F ADD PUSH1 0x20 DUP1 SWAP2 DIV MUL PUSH1 0x20 ADD PUSH1 0x40 MLOAD SWAP1 DUP2 ADD PUSH1 0x40 MSTORE DUP1 SWAP3 SWAP2 SWAP1 DUP2 DUP2 MSTORE PUSH1 0x20 ADD DUP3 DUP1 SLOAD PUSH2 0x1A66 SWAP1 PUSH2 0x3B15 JUMP JUMPDEST DUP1 ISZERO PUSH2 0x1AB1 JUMPI DUP1 PUSH1 0x1F LT PUSH2 0x1A88 JUMPI PUSH2 0x100 DUP1 DUP4 SLOAD DIV MUL DUP4 MSTORE SWAP2 PUSH1 0x20 ADD SWAP2 PUSH2 0x1AB1 JUMP JUMPDEST DUP3 ADD SWAP2 SWAP1 PUSH0 MSTORE PUSH1 0x20 PUSH0 KECCAK256 SWAP1 JUMPDEST DUP2 SLOAD DUP2 MSTORE SWAP1 PUSH1 0x1 ADD SWAP1 PUSH1 0x20 ADD DUP1 DUP4 GT PUSH2 0x1A94 JUMPI DUP3 SWAP1 SUB PUSH1 0x1F AND DUP3 ADD SWAP2 JUMPDEST POP POP POP POP POP SWAP1 POP DUP6 JUMP JUMPDEST PUSH1 0x60 DUP1 PUSH0 PUSH1 0x7 DUP1 SLOAD SWAP1 POP PUSH8 0xFFFFFFFFFFFFFFFF DUP2 GT ISZERO PUSH2 0x1ADE JUMPI PUSH2 0x1ADD PUSH2 0x3229 JUMP JUMPDEST JUMPDEST PUSH1 0x40 MLOAD SWAP1 DUP1 DUP3 MSTORE DUP1 PUSH1 0x20 MUL PUSH1 0x20 ADD DUP3 ADD PUSH1 0x40 MSTORE DUP1 ISZERO PUSH2 0x1B11 JUMPI DUP2 PUSH1 0x20 ADD JUMPDEST PUSH1 0x60 DUP2 MSTORE PUSH1 0x20 ADD SWAP1 PUSH1 0x1 SWAP1 SUB SWAP1 DUP2 PUSH2 0x1AFC JUMPI SWAP1 POP JUMPDEST POP SWAP1 POP PUSH0 PUSH1 0x7 DUP1 SLOAD SWAP1 POP PUSH8 0xFFFFFFFFFFFFFFFF DUP2 GT ISZERO PUSH2 0x1B34 JUMPI PUSH2 0x1B33 PUSH2 0x3229 JUMP JUMPDEST JUMPDEST PUSH1 0x40 MLOAD SWAP1 DUP1 DUP3 MSTORE DUP1 PUSH1 0x20 MUL PUSH1 0x20 ADD DUP3 ADD PUSH1 0x40 MSTORE DUP1 ISZERO PUSH2 0x1B62 JUMPI DUP2 PUSH1 0x20 ADD PUSH1 0x20 DUP3 MUL DUP1 CALLDATASIZE DUP4 CALLDATACOPY DUP1 DUP3 ADD SWAP2 POP POP SWAP1 POP JUMPDEST POP SWAP1 POP PUSH0 JUMPDEST PUSH1 0x7 DUP1 SLOAD SWAP1 POP DUP2 LT ISZERO PUSH2 0x1DF2 JUMPI PUSH0 DUP1 PUSH1 0x7 DUP4 DUP2 SLOAD DUP2 LT PUSH2 0x1B8A JUMPI PUSH2 0x1B89 PUSH2 0x3ABB JUMP JUMPDEST JUMPDEST SWAP1 PUSH0 MSTORE PUSH1 0x20 PUSH0 KECCAK256 ADD DUP1 SLOAD PUSH2 0x1B9D SWAP1 PUSH2 0x3B15 JUMP JUMPDEST DUP1 PUSH1 0x1F ADD PUSH1 0x20 DUP1 SWAP2 DIV MUL PUSH1 0x20 ADD PUSH1 0x40 MLOAD SWAP1 DUP2 ADD PUSH1 0x40 MSTORE DUP1 SWAP3 SWAP2 SWAP1 DUP2 DUP2 MSTORE PUSH1 0x20 ADD DUP3 DUP1 SLOAD PUSH2 0x1BC9 SWAP1 PUSH2 0x3B15 JUMP JUMPDEST DUP1 ISZERO PUSH2 0x1C14 JUMPI DUP1 PUSH1 0x1F LT PUSH2 0x1BEB JUMPI PUSH2 0x100 DUP1 DUP4 SLOAD DIV MUL DUP4 MSTORE SWAP2 PUSH1 0x20 ADD SWAP2 PUSH2 0x1C14 JUMP JUMPDEST DUP3 ADD SWAP2 SWAP1 PUSH0 MSTORE PUSH1 0x20 PUSH0 KECCAK256 SWAP1 JUMPDEST DUP2 SLOAD DUP2 MSTORE SWAP1 PUSH1 0x1 ADD SWAP1 PUSH1 0x20 ADD DUP1 DUP4 GT PUSH2 0x1BF7 JUMPI DUP3 SWAP1 SUB PUSH1 0x1F AND DUP3 ADD SWAP2 JUMPDEST POP POP POP POP POP SWAP1 POP PUSH0 JUMPDEST PUSH1 0x8 DUP1 SLOAD SWAP1 POP DUP2 LT ISZERO PUSH2 0x1DA3 JUMPI PUSH1 0x1 PUSH0 PUSH1 0x8 DUP4 DUP2 SLOAD DUP2 LT PUSH2 0x1C41 JUMPI PUSH2 0x1C40 PUSH2 0x3ABB JUMP JUMPDEST JUMPDEST SWAP1 PUSH0 MSTORE PUSH1 0x20 PUSH0 KECCAK256 ADD PUSH0 SWAP1 SLOAD SWAP1 PUSH2 0x100 EXP SWAP1 DIV PUSH20 0xFFFFFFFFFFFFFFFFFFFFFFFFFFFFFFFFFFFFFFFF AND PUSH20 0xFFFFFFFFFFFFFFFFFFFFFFFFFFFFFFFFFFFFFFFF AND PUSH20 0xFFFFFFFFFFFFFFFFFFFFFFFFFFFFFFFFFFFFFFFF AND DUP2 MSTORE PUSH1 0x20 ADD SWAP1 DUP2 MSTORE PUSH1 0x20 ADD PUSH0 KECCAK256 PUSH0 ADD PUSH0 SWAP1 SLOAD SWAP1 PUSH2 0x100 EXP SWAP1 DIV PUSH1 0xFF AND DUP1 ISZERO PUSH2 0x1D82 JUMPI POP DUP2 PUSH1 0x40 MLOAD PUSH1 0x20 ADD PUSH2 0x1CC9 SWAP2 SWAP1 PUSH2 0x3B7F JUMP JUMPDEST PUSH1 0x40 MLOAD PUSH1 0x20 DUP2 DUP4 SUB SUB DUP2 MSTORE SWAP1 PUSH1 0x40 MSTORE DUP1 MLOAD SWAP1 PUSH1 0x20 ADD KECCAK256 PUSH1 0x1 PUSH0 PUSH1 0x8 DUP5 DUP2 SLOAD DUP2 LT PUSH2 0x1CF6 JUMPI PUSH2 0x1CF5 PUSH2 0x3ABB JUMP JUMPDEST JUMPDEST SWAP1 PUSH0 MSTORE PUSH1 0x20 PUSH0 KECCAK256 ADD PUSH0 SWAP1 SLOAD SWAP1 PUSH2 0x100 EXP SWAP1 DIV PUSH20 0xFFFFFFFFFFFFFFFFFFFFFFFFFFFFFFFFFFFFFFFF AND PUSH20 0xFFFFFFFFFFFFFFFFFFFFFFFFFFFFFFFFFFFFFFFF AND PUSH20 0xFFFFFFFFFFFFFFFFFFFFFFFFFFFFFFFFFFFFFFFF AND DUP2 MSTORE PUSH1 0x20 ADD SWAP1 DUP2 MSTORE PUSH1 0x20 ADD PUSH0 KECCAK256 PUSH1 0x1 ADD PUSH1 0x40 MLOAD PUSH1 0x20 ADD PUSH2 0x1D6A SWAP2 SWAP1 PUSH2 0x4107 JUMP JUMPDEST PUSH1 0x40 MLOAD PUSH1 0x20 DUP2 DUP4 SUB SUB DUP2 MSTORE SWAP1 PUSH1 0x40 MSTORE DUP1 MLOAD SWAP1 PUSH1 0x20 ADD KECCAK256 EQ JUMPDEST ISZERO PUSH2 0x1D96 JUMPI DUP3 DUP1 PUSH2 0x1D92 SWAP1 PUSH2 0x414A JUMP JUMPDEST SWAP4 POP POP JUMPDEST DUP1 DUP1 PUSH1 0x1 ADD SWAP2 POP POP PUSH2 0x1C1D JUMP JUMPDEST POP DUP1 DUP6 DUP5 DUP2 MLOAD DUP2 LT PUSH2 0x1DB8 JUMPI PUSH2 0x1DB7 PUSH2 0x3ABB JUMP JUMPDEST JUMPDEST PUSH1 0x20 MUL PUSH1 0x20 ADD ADD DUP2 SWAP1 MSTORE POP DUP2 DUP5 DUP5 DUP2 MLOAD DUP2 LT PUSH2 0x1DD7 JUMPI PUSH2 0x1DD6 PUSH2 0x3ABB JUMP JUMPDEST JUMPDEST PUSH1 0x20 MUL PUSH1 0x20 ADD ADD DUP2 DUP2 MSTORE POP POP POP POP DUP1 DUP1 PUSH1 0x1 ADD SWAP2 POP POP PUSH2 0x1B67 JUMP JUMPDEST POP DUP2 DUP2 SWAP4 POP SWAP4 POP POP POP SWAP1 SWAP2 JUMP JUMPDEST PUSH1 0x9 PUSH0 SWAP1 SLOAD SWAP1 PUSH2 0x100 EXP SWAP1 DIV PUSH1 0xFF AND DUP1 ISZERO PUSH2 0x1E27 JUMPI POP PUSH1 0x9 PUSH1 0x1 SWAP1 SLOAD SWAP1 PUSH2 0x100 EXP SWAP1 DIV PUSH1 0xFF AND ISZERO JUMPDEST PUSH2 0x1E66 JUMPI PUSH1 0x40 MLOAD PUSH32 0x8C379A000000000000000000000000000000000000000000000000000000000 DUP2 MSTORE PUSH1 0x4 ADD PUSH2 0x1E5D SWAP1 PUSH2 0x41DB JUMP JUMPDEST PUSH1 0x40 MLOAD DUP1 SWAP2 SUB SWAP1 REVERT JUMPDEST PUSH0 PUSH1 0x1 PUSH0 CALLER PUSH20 0xFFFFFFFFFFFFFFFFFFFFFFFFFFFFFFFFFFFFFFFF AND PUSH20 0xFFFFFFFFFFFFFFFFFFFFFFFFFFFFFFFFFFFFFFFF AND DUP2 MSTORE PUSH1 0x20 ADD SWAP1 DUP2 MSTORE PUSH1 0x20 ADD PUSH0 KECCAK256 SWAP1 POP DUP1 PUSH0 ADD PUSH0 SWAP1 SLOAD SWAP1 PUSH2 0x100 EXP SWAP1 DIV PUSH1 0xFF AND PUSH2 0x1EF5 JUMPI PUSH1 0x40 MLOAD PUSH32 0x8C379A000000000000000000000000000000000000000000000000000000000 DUP2 MSTORE PUSH1 0x4 ADD PUSH2 0x1EEC SWAP1 PUSH2 0x4243 JUMP JUMPDEST PUSH1 0x40 MLOAD DUP1 SWAP2 SUB SWAP1 REVERT JUMPDEST DUP1 PUSH0 ADD PUSH1 0x1 SWAP1 SLOAD SWAP1 PUSH2 0x100 EXP SWAP1 DIV PUSH1 0xFF AND ISZERO PUSH2 0x1F46 JUMPI PUSH1 0x40 MLOAD PUSH32 0x8C379A000000000000000000000000000000000000000000000000000000000 DUP2 MSTORE PUSH1 0x4 ADD PUSH2 0x1F3D SWAP1 PUSH2 0x42AB JUMP JUMPDEST PUSH1 0x40 MLOAD DUP1 SWAP2 SUB SWAP1 REVERT JUMPDEST DUP3 PUSH1 0x40 MLOAD PUSH1 0x20 ADD PUSH2 0x1F57 SWAP2 SWAP1 PUSH2 0x3B7F JUMP JUMPDEST PUSH1 0x40 MLOAD PUSH1 0x20 DUP2 DUP4 SUB SUB DUP2 MSTORE SWAP1 PUSH1 0x40 MSTORE DUP1 MLOAD SWAP1 PUSH1 0x20 ADD KECCAK256 DUP2 PUSH1 0x2 ADD PUSH1 0x40 MLOAD PUSH1 0x20 ADD PUSH2 0x1F81 SWAP2 SWAP1 PUSH2 0x4107 JUMP JUMPDEST PUSH1 0x40 MLOAD PUSH1 0x20 DUP2 DUP4 SUB SUB DUP2 MSTORE SWAP1 PUSH1 0x40 MSTORE DUP1 MLOAD SWAP1 PUSH1 0x20 ADD KECCAK256 EQ PUSH2 0x1FD7 JUMPI PUSH1 0x40 MLOAD PUSH32 0x8C379A000000000000000000000000000000000000000000000000000000000 DUP2 MSTORE PUSH1 0x4 ADD PUSH2 0x1FCE SWAP1 PUSH2 0x4313 JUMP JUMPDEST PUSH1 0x40 MLOAD DUP1 SWAP2 SUB SWAP1 REVERT JUMPDEST DUP2 PUSH1 0x40 MLOAD PUSH1 0x20 ADD PUSH2 0x1FE8 SWAP2 SWAP1 PUSH2 0x3B7F JUMP JUMPDEST PUSH1 0x40 MLOAD PUSH1 0x20 DUP2 DUP4 SUB SUB DUP2 MSTORE SWAP1 PUSH1 0x40 MSTORE DUP1 MLOAD SWAP1 PUSH1 0x20 ADD KECCAK256 DUP2 PUSH1 0x1 ADD PUSH1 0x40 MLOAD PUSH1 0x20 ADD PUSH2 0x2012 SWAP2 SWAP1 PUSH2 0x4107 JUMP JUMPDEST PUSH1 0x40 MLOAD PUSH1 0x20 DUP2 DUP4 SUB SUB DUP2 MSTORE SWAP1 PUSH1 0x40 MSTORE DUP1 MLOAD SWAP1 PUSH1 0x20 ADD KECCAK256 EQ PUSH2 0x2068 JUMPI PUSH1 0x40 MLOAD PUSH32 0x8C379A000000000000000000000000000000000000000000000000000000000 DUP2 MSTORE PUSH1 0x4 ADD PUSH2 0x205F SWAP1 PUSH2 0x43A1 JUMP JUMPDEST PUSH1 0x40 MLOAD DUP1 SWAP2 SUB SWAP1 REVERT JUMPDEST PUSH0 DUP1 JUMPDEST PUSH1 0x6 DUP1 SLOAD SWAP1 POP DUP2 LT ISZERO PUSH2 0x2194 JUMPI DUP6 PUSH1 0x40 MLOAD PUSH1 0x20 ADD PUSH2 0x2089 SWAP2 SWAP1 PUSH2 0x3B7F JUMP JUMPDEST PUSH1 0x40 MLOAD PUSH1 0x20 DUP2 DUP4 SUB SUB DUP2 MSTORE SWAP1 PUSH1 0x40 MSTORE DUP1 MLOAD SWAP1 PUSH1 0x20 ADD KECCAK256 PUSH1 0x3 PUSH0 PUSH1 0x6 DUP5 DUP2 SLOAD DUP2 LT PUSH2 0x20B6 JUMPI PUSH2 0x20B5 PUSH2 0x3ABB JUMP JUMPDEST JUMPDEST SWAP1 PUSH0 MSTORE PUSH1 0x20 PUSH0 KECCAK256 ADD PUSH0 SWAP1 SLOAD SWAP1 PUSH2 0x100 EXP SWAP1 DIV PUSH20 0xFFFFFFFFFFFFFFFFFFFFFFFFFFFFFFFFFFFFFFFF AND PUSH20 0xFFFFFFFFFFFFFFFFFFFFFFFFFFFFFFFFFFFFFFFF AND PUSH20 0xFFFFFFFFFFFFFFFFFFFFFFFFFFFFFFFFFFFFFFFF AND DUP2 MSTORE PUSH1 0x20 ADD SWAP1 DUP2 MSTORE PUSH1 0x20 ADD PUSH0 KECCAK256 PUSH0 ADD PUSH1 0x40 MLOAD PUSH1 0x20 ADD PUSH2 0x2129 SWAP2 SWAP1 PUSH2 0x4107 JUMP JUMPDEST PUSH1 0x40 MLOAD PUSH1 0x20 DUP2 DUP4 SUB SUB DUP2 MSTORE SWAP1 PUSH1 0x40 MSTORE DUP1 MLOAD SWAP1 PUSH1 0x20 ADD KECCAK256 SUB PUSH2 0x2187 JUMPI PUSH1 0x6 DUP2 DUP2 SLOAD DUP2 LT PUSH2 0x2158 JUMPI PUSH2 0x2157 PUSH2 0x3ABB JUMP JUMPDEST JUMPDEST SWAP1 PUSH0 MSTORE PUSH1 0x20 PUSH0 KECCAK256 ADD PUSH0 SWAP1 SLOAD SWAP1 PUSH2 0x100 EXP SWAP1 DIV PUSH20 0xFFFFFFFFFFFFFFFFFFFFFFFFFFFFFFFFFFFFFFFF AND SWAP2 POP PUSH2 0x2194 JUMP JUMPDEST DUP1 DUP1 PUSH1 0x1 ADD SWAP2 POP POP PUSH2 0x206B JUMP JUMPDEST POP PUSH0 PUSH20 0xFFFFFFFFFFFFFFFFFFFFFFFFFFFFFFFFFFFFFFFF AND DUP2 PUSH20 0xFFFFFFFFFFFFFFFFFFFFFFFFFFFFFFFFFFFFFFFF AND SUB PUSH2 0x2203 JUMPI PUSH1 0x40 MLOAD PUSH32 0x8C379A000000000000000000000000000000000000000000000000000000000 DUP2 MSTORE PUSH1 0x4 ADD PUSH2 0x21FA SWAP1 PUSH2 0x4409 JUMP JUMPDEST PUSH1 0x40 MLOAD DUP1 SWAP2 SUB SWAP1 REVERT JUMPDEST DUP3 PUSH1 0x40 MLOAD PUSH1 0x20 ADD PUSH2 0x2214 SWAP2 SWAP1 PUSH2 0x3B7F JUMP JUMPDEST PUSH1 0x40 MLOAD PUSH1 0x20 DUP2 DUP4 SUB SUB DUP2 MSTORE SWAP1 PUSH1 0x40 MSTORE DUP1 MLOAD SWAP1 PUSH1 0x20 ADD KECCAK256 PUSH1 0x3 PUSH0 DUP4 PUSH20 0xFFFFFFFFFFFFFFFFFFFFFFFFFFFFFFFFFFFFFFFF AND PUSH20 0xFFFFFFFFFFFFFFFFFFFFFFFFFFFFFFFFFFFFFFFF AND DUP2 MSTORE PUSH1 0x20 ADD SWAP1 DUP2 MSTORE PUSH1 0x20 ADD PUSH0 KECCAK256 PUSH1 0x3 ADD PUSH1 0x40 MLOAD PUSH1 0x20 ADD PUSH2 0x227A SWAP2 SWAP1 PUSH2 0x4107 JUMP JUMPDEST PUSH1 0x40 MLOAD PUSH1 0x20 DUP2 DUP4 SUB SUB DUP2 MSTORE SWAP1 PUSH1 0x40 MSTORE DUP1 MLOAD SWAP1 PUSH1 0x20 ADD KECCAK256 EQ PUSH2 0x22D0 JUMPI PUSH1 0x40 MLOAD PUSH32 0x8C379A000000000000000000000000000000000000000000000000000000000 DUP2 MSTORE PUSH1 0x4 ADD PUSH2 0x22C7 SWAP1 PUSH2 0x4497 JUMP JUMPDEST PUSH1 0x40 MLOAD DUP1 SWAP2 SUB SWAP1 REVERT JUMPDEST PUSH0 PUSH1 0x5 DUP5 PUSH1 0x40 MLOAD PUSH2 0x22E1 SWAP2 SWAP1 PUSH2 0x3B7F JUMP JUMPDEST SWAP1 DUP2 MSTORE PUSH1 0x20 ADD PUSH1 0x40 MLOAD DUP1 SWAP2 SUB SWAP1 KECCAK256 SWAP1 POP DUP1 PUSH0 ADD SLOAD DUP2 PUSH1 0x1 ADD SLOAD LT PUSH2 0x233A JUMPI PUSH1 0x40 MLOAD PUSH32 0x8C379A000000000000000000000000000000000000000000000000000000000 DUP2 MSTORE PUSH1 0x4 ADD PUSH2 0x2331 SWAP1 PUSH2 0x4525 JUMP JUMPDEST PUSH1 0x40 MLOAD DUP1 SWAP2 SUB SWAP1 REVERT JUMPDEST PUSH1 0x1 DUP4 PUSH0 ADD PUSH1 0x1 PUSH2 0x100 EXP DUP2 SLOAD DUP2 PUSH1 0xFF MUL NOT AND SWAP1 DUP4 ISZERO ISZERO MUL OR SWAP1 SSTORE POP DUP2 DUP4 PUSH0 ADD PUSH1 0x2 PUSH2 0x100 EXP DUP2 SLOAD DUP2 PUSH20 0xFFFFFFFFFFFFFFFFFFFFFFFFFFFFFFFFFFFFFFFF MUL NOT AND SWAP1 DUP4 PUSH20 0xFFFFFFFFFFFFFFFFFFFFFFFFFFFFFFFFFFFFFFFF AND MUL OR SWAP1 SSTORE POP PUSH1 0x1 PUSH1 0x3 PUSH0 DUP5 PUSH20 0xFFFFFFFFFFFFFFFFFFFFFFFFFFFFFFFFFFFFFFFF AND PUSH20 0xFFFFFFFFFFFFFFFFFFFFFFFFFFFFFFFFFFFFFFFF AND DUP2 MSTORE PUSH1 0x20 ADD SWAP1 DUP2 MSTORE PUSH1 0x20 ADD PUSH0 KECCAK256 PUSH1 0x2 ADD PUSH0 DUP3 DUP3 SLOAD PUSH2 0x23E8 SWAP2 SWAP1 PUSH2 0x4543 JUMP JUMPDEST SWAP3 POP POP DUP2 SWAP1 SSTORE POP PUSH1 0x1 DUP2 PUSH1 0x1 ADD PUSH0 DUP3 DUP3 SLOAD PUSH2 0x2403 SWAP2 SWAP1 PUSH2 0x4543 JUMP JUMPDEST SWAP3 POP POP DUP2 SWAP1 SSTORE POP PUSH32 0x8D1CFB67C4B6DDFA4950ADE9B8090E8DA23FB82114FEA7FD43C4CBBE2C2367B3 CALLER DUP4 DUP7 PUSH1 0x40 MLOAD PUSH2 0x243D SWAP4 SWAP3 SWAP2 SWAP1 PUSH2 0x4576 JUMP JUMPDEST PUSH1 0x40 MLOAD DUP1 SWAP2 SUB SWAP1 LOG1 POP POP POP POP POP POP JUMP JUMPDEST PUSH1 0x9 PUSH1 0x1 SWAP1 SLOAD SWAP1 PUSH2 0x100 EXP SWAP1 DIV PUSH1 0xFF AND DUP2 JUMP JUMPDEST PUSH1 0x1 PUSH1 0x20 MSTORE DUP1 PUSH0 MSTORE PUSH1 0x40 PUSH0 KECCAK256 PUSH0 SWAP2 POP SWAP1 POP DUP1 PUSH0 ADD PUSH0 SWAP1 SLOAD SWAP1 PUSH2 0x100 EXP SWAP1 DIV PUSH1 0xFF AND SWAP1 DUP1 PUSH0 ADD PUSH1 0x1 SWAP1 SLOAD SWAP1 PUSH2 0x100 EXP SWAP1 DIV PUSH1 0xFF AND SWAP1 DUP1 PUSH0 ADD PUSH1 0x2 SWAP1 SLOAD SWAP1 PUSH2 0x100 EXP SWAP1 DIV PUSH20 0xFFFFFFFFFFFFFFFFFFFFFFFFFFFFFFFFFFFFFFFF AND SWAP1 DUP1 PUSH1 0x1 ADD DUP1 SLOAD PUSH2 0x24C8 SWAP1 PUSH2 0x3B15 JUMP JUMPDEST DUP1 PUSH1 0x1F ADD PUSH1 0x20 DUP1 SWAP2 DIV MUL PUSH1 0x20 ADD PUSH1 0x40 MLOAD SWAP1 DUP2 ADD PUSH1 0x40 MSTORE DUP1 SWAP3 SWAP2 SWAP1 DUP2 DUP2 MSTORE PUSH1 0x20 ADD DUP3 DUP1 SLOAD PUSH2 0x24F4 SWAP1 PUSH2 0x3B15 JUMP JUMPDEST DUP1 ISZERO PUSH2 0x253F JUMPI DUP1 PUSH1 0x1F LT PUSH2 0x2516 JUMPI PUSH2 0x100 DUP1 DUP4 SLOAD DIV MUL DUP4 MSTORE SWAP2 PUSH1 0x20 ADD SWAP2 PUSH2 0x253F JUMP JUMPDEST DUP3 ADD SWAP2 SWAP1 PUSH0 MSTORE PUSH1 0x20 PUSH0 KECCAK256 SWAP1 JUMPDEST DUP2 SLOAD DUP2 MSTORE SWAP1 PUSH1 0x1 ADD SWAP1 PUSH1 0x20 ADD DUP1 DUP4 GT PUSH2 0x2522 JUMPI DUP3 SWAP1 SUB PUSH1 0x1F AND DUP3 ADD SWAP2 JUMPDEST POP POP POP POP POP SWAP1 DUP1 PUSH1 0x2 ADD DUP1 SLOAD PUSH2 0x2554 SWAP1 PUSH2 0x3B15 JUMP JUMPDEST DUP1 PUSH1 0x1F ADD PUSH1 0x20 DUP1 SWAP2 DIV MUL PUSH1 0x20 ADD PUSH1 0x40 MLOAD SWAP1 DUP2 ADD PUSH1 0x40 MSTORE DUP1 SWAP3 SWAP2 SWAP1 DUP2 DUP2 MSTORE PUSH1 0x20 ADD DUP3 DUP1 SLOAD PUSH2 0x2580 SWAP1 PUSH2 0x3B15 JUMP JUMPDEST DUP1 ISZERO PUSH2 0x25CB JUMPI DUP1 PUSH1 0x1F LT PUSH2 0x25A2 JUMPI PUSH2 0x100 DUP1 DUP4 SLOAD DIV MUL DUP4 MSTORE SWAP2 PUSH1 0x20 ADD SWAP2 PUSH2 0x25CB JUMP JUMPDEST DUP3 ADD SWAP2 SWAP1 PUSH0 MSTORE PUSH1 0x20 PUSH0 KECCAK256 SWAP1 JUMPDEST DUP2 SLOAD DUP2 MSTORE SWAP1 PUSH1 0x1 ADD SWAP1 PUSH1 0x20 ADD DUP1 DUP4 GT PUSH2 0x25AE JUMPI DUP3 SWAP1 SUB PUSH1 0x1F AND DUP3 ADD SWAP2 JUMPDEST POP POP POP POP POP SWAP1 POP DUP6 JUMP JUMPDEST PUSH0 DUP1 SLOAD SWAP1 PUSH2 0x100 EXP SWAP1 DIV PUSH20 0xFFFFFFFFFFFFFFFFFFFFFFFFFFFFFFFFFFFFFFFF AND PUSH20 0xFFFFFFFFFFFFFFFFFFFFFFFFFFFFFFFFFFFFFFFF AND CALLER PUSH20 0xFFFFFFFFFFFFFFFFFFFFFFFFFFFFFFFFFFFFFFFF AND EQ PUSH2 0x2662 JUMPI PUSH1 0x40 MLOAD PUSH32 0x8C379A000000000000000000000000000000000000000000000000000000000 DUP2 MSTORE PUSH1 0x4 ADD PUSH2 0x2659 SWAP1 PUSH2 0x3A9D JUMP JUMPDEST PUSH1 0x40 MLOAD DUP1 SWAP2 SUB SWAP1 REVERT JUMPDEST PUSH0 DUP3 MLOAD GT PUSH2 0x26A5 JUMPI PUSH1 0x40 MLOAD PUSH32 0x8C379A000000000000000000000000000000000000000000000000000000000 DUP2 MSTORE PUSH1 0x4 ADD PUSH2 0x269C SWAP1 PUSH2 0x45FC JUMP JUMPDEST PUSH1 0x40 MLOAD DUP1 SWAP2 SUB SWAP1 REVERT JUMPDEST PUSH0 DUP2 GT PUSH2 0x26E7 JUMPI PUSH1 0x40 MLOAD PUSH32 0x8C379A000000000000000000000000000000000000000000000000000000000 DUP2 MSTORE PUSH1 0x4 ADD PUSH2 0x26DE SWAP1 PUSH2 0x468A JUMP JUMPDEST PUSH1 0x40 MLOAD DUP1 SWAP2 SUB SWAP1 REVERT JUMPDEST PUSH0 PUSH1 0x5 DUP4 PUSH1 0x40 MLOAD PUSH2 0x26F8 SWAP2 SWAP1 PUSH2 0x3B7F JUMP JUMPDEST SWAP1 DUP2 MSTORE PUSH1 0x20 ADD PUSH1 0x40 MLOAD DUP1 SWAP2 SUB SWAP1 KECCAK256 PUSH0 ADD SLOAD EQ PUSH2 0x2749 JUMPI PUSH1 0x40 MLOAD PUSH32 0x8C379A000000000000000000000000000000000000000000000000000000000 DUP2 MSTORE PUSH1 0x4 ADD PUSH2 0x2740 SWAP1 PUSH2 0x46F2 JUMP JUMPDEST PUSH1 0x40 MLOAD DUP1 SWAP2 SUB SWAP1 REVERT JUMPDEST PUSH1 0x40 MLOAD DUP1 PUSH1 0x40 ADD PUSH1 0x40 MSTORE DUP1 DUP3 DUP2 MSTORE PUSH1 0x20 ADD PUSH0 DUP2 MSTORE POP PUSH1 0x5 DUP4 PUSH1 0x40 MLOAD PUSH2 0x276E SWAP2 SWAP1 PUSH2 0x3B7F JUMP JUMPDEST SWAP1 DUP2 MSTORE PUSH1 0x20 ADD PUSH1 0x40 MLOAD DUP1 SWAP2 SUB SWAP1 KECCAK256 PUSH0 DUP3 ADD MLOAD DUP2 PUSH0 ADD SSTORE PUSH1 0x20 DUP3 ADD MLOAD DUP2 PUSH1 0x1 ADD SSTORE SWAP1 POP POP PUSH1 0x7 DUP3 SWAP1 DUP1 PUSH1 0x1 DUP2 SLOAD ADD DUP1 DUP3 SSTORE DUP1 SWAP2 POP POP PUSH1 0x1 SWAP1 SUB SWAP1 PUSH0 MSTORE PUSH1 0x20 PUSH0 KECCAK256 ADD PUSH0 SWAP1 SWAP2 SWAP1 SWAP2 SWAP1 SWAP2 POP SWAP1 DUP2 PUSH2 0x27C2 SWAP2 SWAP1 PUSH2 0x3F60 JUMP JUMPDEST POP POP POP JUMP JUMPDEST PUSH1 0x6 DUP2 DUP2 SLOAD DUP2 LT PUSH2 0x27D6 JUMPI PUSH0 DUP1 REVERT JUMPDEST SWAP1 PUSH0 MSTORE PUSH1 0x20 PUSH0 KECCAK256 ADD PUSH0 SWAP2 POP SLOAD SWAP1 PUSH2 0x100 EXP SWAP1 DIV PUSH20 0xFFFFFFFFFFFFFFFFFFFFFFFFFFFFFFFFFFFFFFFF AND DUP2 JUMP JUMPDEST PUSH0 DUP1 SLOAD SWAP1 PUSH2 0x100 EXP SWAP1 DIV PUSH20 0xFFFFFFFFFFFFFFFFFFFFFFFFFFFFFFFFFFFFFFFF AND PUSH20 0xFFFFFFFFFFFFFFFFFFFFFFFFFFFFFFFFFFFFFFFF AND CALLER PUSH20 0xFFFFFFFFFFFFFFFFFFFFFFFFFFFFFFFFFFFFFFFF AND EQ PUSH2 0x288F JUMPI PUSH1 0x40 MLOAD PUSH32 0x8C379A000000000000000000000000000000000000000000000000000000000 DUP2 MSTORE PUSH1 0x4 ADD PUSH2 0x2886 SWAP1 PUSH2 0x3A9D JUMP JUMPDEST PUSH1 0x40 MLOAD DUP1 SWAP2 SUB SWAP1 REVERT JUMPDEST PUSH0 PUSH1 0x5 DUP3 PUSH1 0x40 MLOAD PUSH2 0x28A0 SWAP2 SWAP1 PUSH2 0x3B7F JUMP JUMPDEST SWAP1 DUP2 MSTORE PUSH1 0x20 ADD PUSH1 0x40 MLOAD DUP1 SWAP2 SUB SWAP1 KECCAK256 PUSH0 ADD SLOAD GT PUSH2 0x28F1 JUMPI PUSH1 0x40 MLOAD PUSH32 0x8C379A000000000000000000000000000000000000000000000000000000000 DUP2 MSTORE PUSH1 0x4 ADD PUSH2 0x28E8 SWAP1 PUSH2 0x3C6D JUMP JUMPDEST PUSH1 0x40 MLOAD DUP1 SWAP2 SUB SWAP1 REVERT JUMPDEST PUSH1 0x1 PUSH0 DUP5 PUSH20 0xFFFFFFFFFFFFFFFFFFFFFFFFFFFFFFFFFFFFFFFF AND PUSH20 0xFFFFFFFFFFFFFFFFFFFFFFFFFFFFFFFFFFFFFFFF AND DUP2 MSTORE PUSH1 0x20 ADD SWAP1 DUP2 MSTORE PUSH1 0x20 ADD PUSH0 KECCAK256 PUSH0 ADD PUSH0 SWAP1 SLOAD SWAP1 PUSH2 0x100 EXP SWAP1 DIV PUSH1 0xFF AND ISZERO PUSH2 0x297D JUMPI PUSH1 0x40 MLOAD PUSH32 0x8C379A000000000000000000000000000000000000000000000000000000000 DUP2 MSTORE PUSH1 0x4 ADD PUSH2 0x2974 SWAP1 PUSH2 0x475A JUMP JUMPDEST PUSH1 0x40 MLOAD DUP1 SWAP2 SUB SWAP1 REVERT JUMPDEST PUSH1 0x2 DUP3 PUSH1 0x40 MLOAD PUSH2 0x298D SWAP2 SWAP1 PUSH2 0x3B7F JUMP JUMPDEST SWAP1 DUP2 MSTORE PUSH1 0x20 ADD PUSH1 0x40 MLOAD DUP1 SWAP2 SUB SWAP1 KECCAK256 PUSH0 SWAP1 SLOAD SWAP1 PUSH2 0x100 EXP SWAP1 DIV PUSH1 0xFF AND ISZERO PUSH2 0x29E8 JUMPI PUSH1 0x40 MLOAD PUSH32 0x8C379A000000000000000000000000000000000000000000000000000000000 DUP2 MSTORE PUSH1 0x4 ADD PUSH2 0x29DF SWAP1 PUSH2 0x3DA5 JUMP JUMPDEST PUSH1 0x40 MLOAD DUP1 SWAP2 SUB SWAP1 REVERT JUMPDEST PUSH1 0x40 MLOAD DUP1 PUSH1 0xA0 ADD PUSH1 0x40 MSTORE DUP1 PUSH1 0x1 ISZERO ISZERO DUP2 MSTORE PUSH1 0x20 ADD PUSH0 ISZERO ISZERO DUP2 MSTORE PUSH1 0x20 ADD PUSH0 PUSH20 0xFFFFFFFFFFFFFFFFFFFFFFFFFFFFFFFFFFFFFFFF AND DUP2 MSTORE PUSH1 0x20 ADD DUP3 DUP2 MSTORE PUSH1 0x20 ADD DUP4 DUP2 MSTORE POP PUSH1 0x1 PUSH0 DUP6 PUSH20 0xFFFFFFFFFFFFFFFFFFFFFFFFFFFFFFFFFFFFFFFF AND PUSH20 0xFFFFFFFFFFFFFFFFFFFFFFFFFFFFFFFFFFFFFFFF AND DUP2 MSTORE PUSH1 0x20 ADD SWAP1 DUP2 MSTORE PUSH1 0x20 ADD PUSH0 KECCAK256 PUSH0 DUP3 ADD MLOAD DUP2 PUSH0 ADD PUSH0 PUSH2 0x100 EXP DUP2 SLOAD DUP2 PUSH1 0xFF MUL NOT AND SWAP1 DUP4 ISZERO ISZERO MUL OR SWAP1 SSTORE POP PUSH1 0x20 DUP3 ADD MLOAD DUP2 PUSH0 ADD PUSH1 0x1 PUSH2 0x100 EXP DUP2 SLOAD DUP2 PUSH1 0xFF MUL NOT AND SWAP1 DUP4 ISZERO ISZERO MUL OR SWAP1 SSTORE POP PUSH1 0x40 DUP3 ADD MLOAD DUP2 PUSH0 ADD PUSH1 0x2 PUSH2 0x100 EXP DUP2 SLOAD DUP2 PUSH20 0xFFFFFFFFFFFFFFFFFFFFFFFFFFFFFFFFFFFFFFFF MUL NOT AND SWAP1 DUP4 PUSH20 0xFFFFFFFFFFFFFFFFFFFFFFFFFFFFFFFFFFFFFFFF AND MUL OR SWAP1 SSTORE POP PUSH1 0x60 DUP3 ADD MLOAD DUP2 PUSH1 0x1 ADD SWAP1 DUP2 PUSH2 0x2AFE SWAP2 SWAP1 PUSH2 0x3F60 JUMP JUMPDEST POP PUSH1 0x80 DUP3 ADD MLOAD DUP2 PUSH1 0x2 ADD SWAP1 DUP2 PUSH2 0x2B14 SWAP2 SWAP1 PUSH2 0x3F60 JUMP JUMPDEST POP SWAP1 POP POP PUSH1 0x1 PUSH1 0x2 DUP4 PUSH1 0x40 MLOAD PUSH2 0x2B2A SWAP2 SWAP1 PUSH2 0x3B7F JUMP JUMPDEST SWAP1 DUP2 MSTORE PUSH1 0x20 ADD PUSH1 0x40 MLOAD DUP1 SWAP2 SUB SWAP1 KECCAK256 PUSH0 PUSH2 0x100 EXP DUP2 SLOAD DUP2 PUSH1 0xFF MUL NOT AND SWAP1 DUP4 ISZERO ISZERO MUL OR SWAP1 SSTORE POP PUSH1 0x8 DUP4 SWAP1 DUP1 PUSH1 0x1 DUP2 SLOAD ADD DUP1 DUP3 SSTORE DUP1 SWAP2 POP POP PUSH1 0x1 SWAP1 SUB SWAP1 PUSH0 MSTORE PUSH1 0x20 PUSH0 KECCAK256 ADD PUSH0 SWAP1 SWAP2 SWAP1 SWAP2 SWAP1 SWAP2 PUSH2 0x100 EXP DUP2 SLOAD DUP2 PUSH20 0xFFFFFFFFFFFFFFFFFFFFFFFFFFFFFFFFFFFFFFFF MUL NOT AND SWAP1 DUP4 PUSH20 0xFFFFFFFFFFFFFFFFFFFFFFFFFFFFFFFFFFFFFFFF AND MUL OR SWAP1 SSTORE POP PUSH32 0x96AC7A421360A2BD773D747B2F64B40A916821C4906DBFDEBF787C292E741F7D DUP4 DUP4 DUP4 PUSH1 0x40 MLOAD PUSH2 0x2BE1 SWAP4 SWAP3 SWAP2 SWAP1 PUSH2 0x4778 JUMP JUMPDEST PUSH1 0x40 MLOAD DUP1 SWAP2 SUB SWAP1 LOG1 POP POP POP JUMP JUMPDEST PUSH0 DUP1 SLOAD SWAP1 PUSH2 0x100 EXP SWAP1 DIV PUSH20 0xFFFFFFFFFFFFFFFFFFFFFFFFFFFFFFFFFFFFFFFF AND PUSH20 0xFFFFFFFFFFFFFFFFFFFFFFFFFFFFFFFFFFFFFFFF AND CALLER PUSH20 0xFFFFFFFFFFFFFFFFFFFFFFFFFFFFFFFFFFFFFFFF AND EQ PUSH2 0x2C7B JUMPI PUSH1 0x40 MLOAD PUSH32 0x8C379A000000000000000000000000000000000000000000000000000000000 DUP2 MSTORE PUSH1 0x4 ADD PUSH2 0x2C72 SWAP1 PUSH2 0x3A9D JUMP JUMPDEST PUSH1 0x40 MLOAD DUP1 SWAP2 SUB SWAP1 REVERT JUMPDEST PUSH1 0x9 PUSH0 SWAP1 SLOAD SWAP1 PUSH2 0x100 EXP SWAP1 DIV PUSH1 0xFF AND DUP1 ISZERO PUSH2 0x2CA3 JUMPI POP PUSH1 0x9 PUSH1 0x1 SWAP1 SLOAD SWAP1 PUSH2 0x100 EXP SWAP1 DIV PUSH1 0xFF AND ISZERO JUMPDEST PUSH2 0x2CE2 JUMPI PUSH1 0x40 MLOAD PUSH32 0x8C379A000000000000000000000000000000000000000000000000000000000 DUP2 MSTORE PUSH1 0x4 ADD PUSH2 0x2CD9 SWAP1 PUSH2 0x41DB JUMP JUMPDEST PUSH1 0x40 MLOAD DUP1 SWAP2 SUB SWAP1 REVERT JUMPDEST PUSH1 0x1 PUSH1 0x9 PUSH1 0x1 PUSH2 0x100 EXP DUP2 SLOAD DUP2 PUSH1 0xFF MUL NOT AND SWAP1 DUP4 ISZERO ISZERO MUL OR SWAP1 SSTORE POP PUSH0 PUSH1 0x9 PUSH0 PUSH2 0x100 EXP DUP2 SLOAD DUP2 PUSH1 0xFF MUL NOT AND SWAP1 DUP4 ISZERO ISZERO MUL OR SWAP1 SSTORE POP PUSH0 JUMPDEST PUSH1 0x7 DUP1 SLOAD SWAP1 POP DUP2 LT ISZERO PUSH2 0x2F97 JUMPI PUSH0 PUSH1 0x7 DUP3 DUP2 SLOAD DUP2 LT PUSH2 0x2D3A JUMPI PUSH2 0x2D39 PUSH2 0x3ABB JUMP JUMPDEST JUMPDEST SWAP1 PUSH0 MSTORE PUSH1 0x20 PUSH0 KECCAK256 ADD DUP1 SLOAD PUSH2 0x2D4D SWAP1 PUSH2 0x3B15 JUMP JUMPDEST DUP1 PUSH1 0x1F ADD PUSH1 0x20 DUP1 SWAP2 DIV MUL PUSH1 0x20 ADD PUSH1 0x40 MLOAD SWAP1 DUP2 ADD PUSH1 0x40 MSTORE DUP1 SWAP3 SWAP2 SWAP1 DUP2 DUP2 MSTORE PUSH1 0x20 ADD DUP3 DUP1 SLOAD PUSH2 0x2D79 SWAP1 PUSH2 0x3B15 JUMP JUMPDEST DUP1 ISZERO PUSH2 0x2DC4 JUMPI DUP1 PUSH1 0x1F LT PUSH2 0x2D9B JUMPI PUSH2 0x100 DUP1 DUP4 SLOAD DIV MUL DUP4 MSTORE SWAP2 PUSH1 0x20 ADD SWAP2 PUSH2 0x2DC4 JUMP JUMPDEST DUP3 ADD SWAP2 SWAP1 PUSH0 MSTORE PUSH1 0x20 PUSH0 KECCAK256 SWAP1 JUMPDEST DUP2 SLOAD DUP2 MSTORE SWAP1 PUSH1 0x1 ADD SWAP1 PUSH1 0x20 ADD DUP1 DUP4 GT PUSH2 0x2DA7 JUMPI DUP3 SWAP1 SUB PUSH1 0x1F AND DUP3 ADD SWAP2 JUMPDEST POP POP POP POP POP SWAP1 POP PUSH0 DUP1 PUSH0 JUMPDEST PUSH1 0x6 DUP1 SLOAD SWAP1 POP DUP2 LT ISZERO PUSH2 0x2F4B JUMPI PUSH0 PUSH1 0x6 DUP3 DUP2 SLOAD DUP2 LT PUSH2 0x2DF1 JUMPI PUSH2 0x2DF0 PUSH2 0x3ABB JUMP JUMPDEST JUMPDEST SWAP1 PUSH0 MSTORE PUSH1 0x20 PUSH0 KECCAK256 ADD PUSH0 SWAP1 SLOAD SWAP1 PUSH2 0x100 EXP SWAP1 DIV PUSH20 0xFFFFFFFFFFFFFFFFFFFFFFFFFFFFFFFFFFFFFFFF AND SWAP1 POP DUP5 PUSH1 0x40 MLOAD PUSH1 0x20 ADD PUSH2 0x2E2C SWAP2 SWAP1 PUSH2 0x3B7F JUMP JUMPDEST PUSH1 0x40 MLOAD PUSH1 0x20 DUP2 DUP4 SUB SUB DUP2 MSTORE SWAP1 PUSH1 0x40 MSTORE DUP1 MLOAD SWAP1 PUSH1 0x20 ADD KECCAK256 PUSH1 0x3 PUSH0 DUP4 PUSH20 0xFFFFFFFFFFFFFFFFFFFFFFFFFFFFFFFFFFFFFFFF AND PUSH20 0xFFFFFFFFFFFFFFFFFFFFFFFFFFFFFFFFFFFFFFFF AND DUP2 MSTORE PUSH1 0x20 ADD SWAP1 DUP2 MSTORE PUSH1 0x20 ADD PUSH0 KECCAK256 PUSH1 0x3 ADD PUSH1 0x40 MLOAD PUSH1 0x20 ADD PUSH2 0x2E92 SWAP2 SWAP1 PUSH2 0x4107 JUMP JUMPDEST PUSH1 0x40 MLOAD PUSH1 0x20 DUP2 DUP4 SUB SUB DUP2 MSTORE SWAP1 PUSH1 0x40 MSTORE DUP1 MLOAD SWAP1 PUSH1 0x20 ADD KECCAK256 SUB PUSH2 0x2F3D JUMPI DUP3 PUSH1 0x3 PUSH0 DUP4 PUSH20 0xFFFFFFFFFFFFFFFFFFFFFFFFFFFFFFFFFFFFFFFF AND PUSH20 0xFFFFFFFFFFFFFFFFFFFFFFFFFFFFFFFFFFFFFFFF AND DUP2 MSTORE PUSH1 0x20 ADD SWAP1 DUP2 MSTORE PUSH1 0x20 ADD PUSH0 KECCAK256 PUSH1 0x2 ADD SLOAD GT ISZERO PUSH2 0x2F3C JUMPI PUSH1 0x3 PUSH0 DUP3 PUSH20 0xFFFFFFFFFFFFFFFFFFFFFFFFFFFFFFFFFFFFFFFF AND PUSH20 0xFFFFFFFFFFFFFFFFFFFFFFFFFFFFFFFFFFFFFFFF AND DUP2 MSTORE PUSH1 0x20 ADD SWAP1 DUP2 MSTORE PUSH1 0x20 ADD PUSH0 KECCAK256 PUSH1 0x2 ADD SLOAD SWAP3 POP DUP1 SWAP4 POP JUMPDEST JUMPDEST POP DUP1 DUP1 PUSH1 0x1 ADD SWAP2 POP POP PUSH2 0x2DCF JUMP JUMPDEST POP PUSH32 0x3B281AFE48905F20862F01B6E1BC6EAF6079665F84380A6022228A68C38308F0 DUP3 DUP3 DUP6 PUSH1 0x40 MLOAD PUSH2 0x2F7F SWAP4 SWAP3 SWAP2 SWAP1 PUSH2 0x47BB JUMP JUMPDEST PUSH1 0x40 MLOAD DUP1 SWAP2 SUB SWAP1 LOG1 POP POP POP DUP1 DUP1 PUSH1 0x1 ADD SWAP2 POP POP PUSH2 0x2D18 JUMP JUMPDEST POP JUMP JUMPDEST PUSH1 0x5 DUP2 DUP1 MLOAD PUSH1 0x20 DUP2 ADD DUP3 ADD DUP1 MLOAD DUP5 DUP3 MSTORE PUSH1 0x20 DUP4 ADD PUSH1 0x20 DUP6 ADD KECCAK256 DUP2 DUP4 MSTORE DUP1 SWAP6 POP POP POP POP POP POP PUSH0 SWAP2 POP SWAP1 POP DUP1 PUSH0 ADD SLOAD SWAP1 DUP1 PUSH1 0x1 ADD SLOAD SWAP1 POP DUP3 JUMP JUMPDEST PUSH0 DUP1 SLOAD SWAP1 PUSH2 0x100 EXP SWAP1 DIV PUSH20 0xFFFFFFFFFFFFFFFFFFFFFFFFFFFFFFFFFFFFFFFF AND DUP2 JUMP JUMPDEST POP DUP1 SLOAD PUSH2 0x3001 SWAP1 PUSH2 0x3B15 JUMP JUMPDEST PUSH0 DUP3 SSTORE DUP1 PUSH1 0x1F LT PUSH2 0x3012 JUMPI POP PUSH2 0x302F JUMP JUMPDEST PUSH1 0x1F ADD PUSH1 0x20 SWAP1 DIV SWAP1 PUSH0 MSTORE PUSH1 0x20 PUSH0 KECCAK256 SWAP1 DUP2 ADD SWAP1 PUSH2 0x302E SWAP2 SWAP1 PUSH2 0x3050 JUMP JUMPDEST JUMPDEST POP JUMP JUMPDEST POP DUP1 SLOAD PUSH0 DUP3 SSTORE SWAP1 PUSH0 MSTORE PUSH1 0x20 PUSH0 KECCAK256 SWAP1 DUP2 ADD SWAP1 PUSH2 0x304D SWAP2 SWAP1 PUSH2 0x3050 JUMP JUMPDEST POP JUMP JUMPDEST JUMPDEST DUP1 DUP3 GT ISZERO PUSH2 0x3067 JUMPI PUSH0 DUP2 PUSH0 SWAP1 SSTORE POP PUSH1 0x1 ADD PUSH2 0x3051 JUMP JUMPDEST POP SWAP1 JUMP JUMPDEST PUSH0 DUP2 MLOAD SWAP1 POP SWAP2 SWAP1 POP JUMP JUMPDEST PUSH0 DUP3 DUP3 MSTORE PUSH1 0x20 DUP3 ADD SWAP1 POP SWAP3 SWAP2 POP POP JUMP JUMPDEST PUSH0 DUP2 SWAP1 POP PUSH1 0x20 DUP3 ADD SWAP1 POP SWAP2 SWAP1 POP JUMP JUMPDEST PUSH0 DUP2 MLOAD SWAP1 POP SWAP2 SWAP1 POP JUMP JUMPDEST PUSH0 DUP3 DUP3 MSTORE PUSH1 0x20 DUP3 ADD SWAP1 POP SWAP3 SWAP2 POP POP JUMP JUMPDEST DUP3 DUP2 DUP4 MCOPY PUSH0 DUP4 DUP4 ADD MSTORE POP POP POP JUMP JUMPDEST PUSH0 PUSH1 0x1F NOT PUSH1 0x1F DUP4 ADD AND SWAP1 POP SWAP2 SWAP1 POP JUMP JUMPDEST PUSH0 PUSH2 0x30D6 DUP3 PUSH2 0x3094 JUMP JUMPDEST PUSH2 0x30E0 DUP2 DUP6 PUSH2 0x309E JUMP JUMPDEST SWAP4 POP PUSH2 0x30F0 DUP2 DUP6 PUSH1 0x20 DUP7 ADD PUSH2 0x30AE JUMP JUMPDEST PUSH2 0x30F9 DUP2 PUSH2 0x30BC JUMP JUMPDEST DUP5 ADD SWAP2 POP POP SWAP3 SWAP2 POP POP JUMP JUMPDEST PUSH0 PUSH2 0x310F DUP4 DUP4 PUSH2 0x30CC JUMP JUMPDEST SWAP1 POP SWAP3 SWAP2 POP POP JUMP JUMPDEST PUSH0 PUSH1 0x20 DUP3 ADD SWAP1 POP SWAP2 SWAP1 POP JUMP JUMPDEST PUSH0 PUSH2 0x312D DUP3 PUSH2 0x306B JUMP JUMPDEST PUSH2 0x3137 DUP2 DUP6 PUSH2 0x3075 JUMP JUMPDEST SWAP4 POP DUP4 PUSH1 0x20 DUP3 MUL DUP6 ADD PUSH2 0x3149 DUP6 PUSH2 0x3085 JUMP JUMPDEST DUP1 PUSH0 JUMPDEST DUP6 DUP2 LT ISZERO PUSH2 0x3184 JUMPI DUP5 DUP5 SUB DUP10 MSTORE DUP2 MLOAD PUSH2 0x3165 DUP6 DUP3 PUSH2 0x3104 JUMP JUMPDEST SWAP5 POP PUSH2 0x3170 DUP4 PUSH2 0x3117 JUMP JUMPDEST SWAP3 POP PUSH1 0x20 DUP11 ADD SWAP10 POP POP PUSH1 0x1 DUP2 ADD SWAP1 POP PUSH2 0x314C JUMP JUMPDEST POP DUP3 SWAP8 POP DUP8 SWAP6 POP POP POP POP POP POP SWAP3 SWAP2 POP POP JUMP JUMPDEST PUSH0 PUSH1 0x20 DUP3 ADD SWAP1 POP DUP2 DUP2 SUB PUSH0 DUP4 ADD MSTORE PUSH2 0x31AE DUP2 DUP5 PUSH2 0x3123 JUMP JUMPDEST SWAP1 POP SWAP3 SWAP2 POP POP JUMP JUMPDEST PUSH0 PUSH1 0x40 MLOAD SWAP1 POP SWAP1 JUMP JUMPDEST PUSH0 DUP1 REVERT JUMPDEST PUSH0 DUP1 REVERT JUMPDEST PUSH0 PUSH20 0xFFFFFFFFFFFFFFFFFFFFFFFFFFFFFFFFFFFFFFFF DUP3 AND SWAP1 POP SWAP2 SWAP1 POP JUMP JUMPDEST PUSH0 PUSH2 0x31F0 DUP3 PUSH2 0x31C7 JUMP JUMPDEST SWAP1 POP SWAP2 SWAP1 POP JUMP JUMPDEST PUSH2 0x3200 DUP2 PUSH2 0x31E6 JUMP JUMPDEST DUP2 EQ PUSH2 0x320A JUMPI PUSH0 DUP1 REVERT JUMPDEST POP JUMP JUMPDEST PUSH0 DUP2 CALLDATALOAD SWAP1 POP PUSH2 0x321B DUP2 PUSH2 0x31F7 JUMP JUMPDEST SWAP3 SWAP2 POP POP JUMP JUMPDEST PUSH0 DUP1 REVERT JUMPDEST PUSH0 DUP1 REVERT JUMPDEST PUSH32 0x4E487B7100000000000000000000000000000000000000000000000000000000 PUSH0 MSTORE PUSH1 0x41 PUSH1 0x4 MSTORE PUSH1 0x24 PUSH0 REVERT JUMPDEST PUSH2 0x325F DUP3 PUSH2 0x30BC JUMP JUMPDEST DUP2 ADD DUP2 DUP2 LT PUSH8 0xFFFFFFFFFFFFFFFF DUP3 GT OR ISZERO PUSH2 0x327E JUMPI PUSH2 0x327D PUSH2 0x3229 JUMP JUMPDEST JUMPDEST DUP1 PUSH1 0x40 MSTORE POP POP POP JUMP JUMPDEST PUSH0 PUSH2 0x3290 PUSH2 0x31B6 JUMP JUMPDEST SWAP1 POP PUSH2 0x329C DUP3 DUP3 PUSH2 0x3256 JUMP JUMPDEST SWAP2 SWAP1 POP JUMP JUMPDEST PUSH0 PUSH8 0xFFFFFFFFFFFFFFFF DUP3 GT ISZERO PUSH2 0x32BB JUMPI PUSH2 0x32BA PUSH2 0x3229 JUMP JUMPDEST JUMPDEST PUSH2 0x32C4 DUP3 PUSH2 0x30BC JUMP JUMPDEST SWAP1 POP PUSH1 0x20 DUP2 ADD SWAP1 POP SWAP2 SWAP1 POP JUMP JUMPDEST DUP3 DUP2 DUP4 CALLDATACOPY PUSH0 DUP4 DUP4 ADD MSTORE POP POP POP JUMP JUMPDEST PUSH0 PUSH2 0x32F1 PUSH2 0x32EC DUP5 PUSH2 0x32A1 JUMP JUMPDEST PUSH2 0x3287 JUMP JUMPDEST SWAP1 POP DUP3 DUP2 MSTORE PUSH1 0x20 DUP2 ADD DUP5 DUP5 DUP5 ADD GT ISZERO PUSH2 0x330D JUMPI PUSH2 0x330C PUSH2 0x3225 JUMP JUMPDEST JUMPDEST PUSH2 0x3318 DUP5 DUP3 DUP6 PUSH2 0x32D1 JUMP JUMPDEST POP SWAP4 SWAP3 POP POP POP JUMP JUMPDEST PUSH0 DUP3 PUSH1 0x1F DUP4 ADD SLT PUSH2 0x3334 JUMPI PUSH2 0x3333 PUSH2 0x3221 JUMP JUMPDEST JUMPDEST DUP2 CALLDATALOAD PUSH2 0x3344 DUP5 DUP3 PUSH1 0x20 DUP7 ADD PUSH2 0x32DF JUMP JUMPDEST SWAP2 POP POP SWAP3 SWAP2 POP POP JUMP JUMPDEST PUSH0 DUP1 PUSH0 DUP1 PUSH1 0x80 DUP6 DUP8 SUB SLT ISZERO PUSH2 0x3365 JUMPI PUSH2 0x3364 PUSH2 0x31BF JUMP JUMPDEST JUMPDEST PUSH0 PUSH2 0x3372 DUP8 DUP3 DUP9 ADD PUSH2 0x320D JUMP JUMPDEST SWAP5 POP POP PUSH1 0x20 DUP6 ADD CALLDATALOAD PUSH8 0xFFFFFFFFFFFFFFFF DUP2 GT ISZERO PUSH2 0x3393 JUMPI PUSH2 0x3392 PUSH2 0x31C3 JUMP JUMPDEST JUMPDEST PUSH2 0x339F DUP8 DUP3 DUP9 ADD PUSH2 0x3320 JUMP JUMPDEST SWAP4 POP POP PUSH1 0x40 DUP6 ADD CALLDATALOAD PUSH8 0xFFFFFFFFFFFFFFFF DUP2 GT ISZERO PUSH2 0x33C0 JUMPI PUSH2 0x33BF PUSH2 0x31C3 JUMP JUMPDEST JUMPDEST PUSH2 0x33CC DUP8 DUP3 DUP9 ADD PUSH2 0x3320 JUMP JUMPDEST SWAP3 POP POP PUSH1 0x60 DUP6 ADD CALLDATALOAD PUSH8 0xFFFFFFFFFFFFFFFF DUP2 GT ISZERO PUSH2 0x33ED JUMPI PUSH2 0x33EC PUSH2 0x31C3 JUMP JUMPDEST JUMPDEST PUSH2 0x33F9 DUP8 DUP3 DUP9 ADD PUSH2 0x3320 JUMP JUMPDEST SWAP2 POP POP SWAP3 SWAP6 SWAP2 SWAP5 POP SWAP3 POP JUMP JUMPDEST PUSH0 DUP2 SWAP1 POP SWAP2 SWAP1 POP JUMP JUMPDEST PUSH2 0x3417 DUP2 PUSH2 0x3405 JUMP JUMPDEST DUP2 EQ PUSH2 0x3421 JUMPI PUSH0 DUP1 REVERT JUMPDEST POP JUMP JUMPDEST PUSH0 DUP2 CALLDATALOAD SWAP1 POP PUSH2 0x3432 DUP2 PUSH2 0x340E JUMP JUMPDEST SWAP3 SWAP2 POP POP JUMP JUMPDEST PUSH0 PUSH1 0x20 DUP3 DUP5 SUB SLT ISZERO PUSH2 0x344D JUMPI PUSH2 0x344C PUSH2 0x31BF JUMP JUMPDEST JUMPDEST PUSH0 PUSH2 0x345A DUP5 DUP3 DUP6 ADD PUSH2 0x3424 JUMP JUMPDEST SWAP2 POP POP SWAP3 SWAP2 POP POP JUMP JUMPDEST PUSH0 DUP3 DUP3 MSTORE PUSH1 0x20 DUP3 ADD SWAP1 POP SWAP3 SWAP2 POP POP JUMP JUMPDEST PUSH0 PUSH2 0x347D DUP3 PUSH2 0x3094 JUMP JUMPDEST PUSH2 0x3487 DUP2 DUP6 PUSH2 0x3463 JUMP JUMPDEST SWAP4 POP PUSH2 0x3497 DUP2 DUP6 PUSH1 0x20 DUP7 ADD PUSH2 0x30AE JUMP JUMPDEST PUSH2 0x34A0 DUP2 PUSH2 0x30BC JUMP JUMPDEST DUP5 ADD SWAP2 POP POP SWAP3 SWAP2 POP POP JUMP JUMPDEST PUSH0 PUSH1 0x20 DUP3 ADD SWAP1 POP DUP2 DUP2 SUB PUSH0 DUP4 ADD MSTORE PUSH2 0x34C3 DUP2 DUP5 PUSH2 0x3473 JUMP JUMPDEST SWAP1 POP SWAP3 SWAP2 POP POP JUMP JUMPDEST PUSH0 PUSH1 0x20 DUP3 DUP5 SUB SLT ISZERO PUSH2 0x34E0 JUMPI PUSH2 0x34DF PUSH2 0x31BF JUMP JUMPDEST JUMPDEST PUSH0 DUP3 ADD CALLDATALOAD PUSH8 0xFFFFFFFFFFFFFFFF DUP2 GT ISZERO PUSH2 0x34FD JUMPI PUSH2 0x34FC PUSH2 0x31C3 JUMP JUMPDEST JUMPDEST PUSH2 0x3509 DUP5 DUP3 DUP6 ADD PUSH2 0x3320 JUMP JUMPDEST SWAP2 POP POP SWAP3 SWAP2 POP POP JUMP JUMPDEST PUSH2 0x351B DUP2 PUSH2 0x31E6 JUMP JUMPDEST DUP3 MSTORE POP POP JUMP JUMPDEST PUSH2 0x352A DUP2 PUSH2 0x3405 JUMP JUMPDEST DUP3 MSTORE POP POP JUMP JUMPDEST PUSH0 PUSH1 0x60 DUP3 ADD SWAP1 POP PUSH2 0x3543 PUSH0 DUP4 ADD DUP7 PUSH2 0x3512 JUMP JUMPDEST DUP2 DUP2 SUB PUSH1 0x20 DUP4 ADD MSTORE PUSH2 0x3555 DUP2 DUP6 PUSH2 0x3473 JUMP JUMPDEST SWAP1 POP PUSH2 0x3564 PUSH1 0x40 DUP4 ADD DUP5 PUSH2 0x3521 JUMP JUMPDEST SWAP5 SWAP4 POP POP POP POP JUMP JUMPDEST PUSH0 DUP2 MLOAD SWAP1 POP SWAP2 SWAP1 POP JUMP JUMPDEST PUSH0 DUP3 DUP3 MSTORE PUSH1 0x20 DUP3 ADD SWAP1 POP SWAP3 SWAP2 POP POP JUMP JUMPDEST PUSH0 DUP2 SWAP1 POP PUSH1 0x20 DUP3 ADD SWAP1 POP SWAP2 SWAP1 POP JUMP JUMPDEST PUSH2 0x359E DUP2 PUSH2 0x31E6 JUMP JUMPDEST DUP3 MSTORE POP POP JUMP JUMPDEST PUSH0 PUSH2 0x35AF DUP4 DUP4 PUSH2 0x3595 JUMP JUMPDEST PUSH1 0x20 DUP4 ADD SWAP1 POP SWAP3 SWAP2 POP POP JUMP JUMPDEST PUSH0 PUSH1 0x20 DUP3 ADD SWAP1 POP SWAP2 SWAP1 POP JUMP JUMPDEST PUSH0 PUSH2 0x35D1 DUP3 PUSH2 0x356C JUMP JUMPDEST PUSH2 0x35DB DUP2 DUP6 PUSH2 0x3576 JUMP JUMPDEST SWAP4 POP PUSH2 0x35E6 DUP4 PUSH2 0x3586 JUMP JUMPDEST DUP1 PUSH0 JUMPDEST DUP4 DUP2 LT ISZERO PUSH2 0x3616 JUMPI DUP2 MLOAD PUSH2 0x35FD DUP9 DUP3 PUSH2 0x35A4 JUMP JUMPDEST SWAP8 POP PUSH2 0x3608 DUP4 PUSH2 0x35BB JUMP JUMPDEST SWAP3 POP POP PUSH1 0x1 DUP2 ADD SWAP1 POP PUSH2 0x35E9 JUMP JUMPDEST POP DUP6 SWAP4 POP POP POP POP SWAP3 SWAP2 POP POP JUMP JUMPDEST PUSH0 PUSH1 0x40 DUP3 ADD SWAP1 POP DUP2 DUP2 SUB PUSH0 DUP4 ADD MSTORE PUSH2 0x363B DUP2 DUP6 PUSH2 0x35C7 JUMP JUMPDEST SWAP1 POP DUP2 DUP2 SUB PUSH1 0x20 DUP4 ADD MSTORE PUSH2 0x364F DUP2 DUP5 PUSH2 0x3123 JUMP JUMPDEST SWAP1 POP SWAP4 SWAP3 POP POP POP JUMP JUMPDEST PUSH0 PUSH1 0x20 DUP3 ADD SWAP1 POP PUSH2 0x366B PUSH0 DUP4 ADD DUP5 PUSH2 0x3512 JUMP JUMPDEST SWAP3 SWAP2 POP POP JUMP JUMPDEST PUSH0 DUP2 ISZERO ISZERO SWAP1 POP SWAP2 SWAP1 POP JUMP JUMPDEST PUSH2 0x3685 DUP2 PUSH2 0x3671 JUMP JUMPDEST DUP3 MSTORE POP POP JUMP JUMPDEST PUSH0 PUSH1 0x20 DUP3 ADD SWAP1 POP PUSH2 0x369E PUSH0 DUP4 ADD DUP5 PUSH2 0x367C JUMP JUMPDEST SWAP3 SWAP2 POP POP JUMP JUMPDEST PUSH0 PUSH1 0x20 DUP3 DUP5 SUB SLT ISZERO PUSH2 0x36B9 JUMPI PUSH2 0x36B8 PUSH2 0x31BF JUMP JUMPDEST JUMPDEST PUSH0 PUSH2 0x36C6 DUP5 DUP3 DUP6 ADD PUSH2 0x320D JUMP JUMPDEST SWAP2 POP POP SWAP3 SWAP2 POP POP JUMP JUMPDEST PUSH0 PUSH1 0xA0 DUP3 ADD SWAP1 POP DUP2 DUP2 SUB PUSH0 DUP4 ADD MSTORE PUSH2 0x36E7 DUP2 DUP9 PUSH2 0x3473 JUMP JUMPDEST SWAP1 POP PUSH2 0x36F6 PUSH1 0x20 DUP4 ADD DUP8 PUSH2 0x3512 JUMP JUMPDEST PUSH2 0x3703 PUSH1 0x40 DUP4 ADD DUP7 PUSH2 0x3521 JUMP JUMPDEST DUP2 DUP2 SUB PUSH1 0x60 DUP4 ADD MSTORE PUSH2 0x3715 DUP2 DUP6 PUSH2 0x3473 JUMP JUMPDEST SWAP1 POP DUP2 DUP2 SUB PUSH1 0x80 DUP4 ADD MSTORE PUSH2 0x3729 DUP2 DUP5 PUSH2 0x3473 JUMP JUMPDEST SWAP1 POP SWAP7 SWAP6 POP POP POP POP POP POP JUMP JUMPDEST PUSH0 DUP2 MLOAD SWAP1 POP SWAP2 SWAP1 POP JUMP JUMPDEST PUSH0 DUP3 DUP3 MSTORE PUSH1 0x20 DUP3 ADD SWAP1 POP SWAP3 SWAP2 POP POP JUMP JUMPDEST PUSH0 DUP2 SWAP1 POP PUSH1 0x20 DUP3 ADD SWAP1 POP SWAP2 SWAP1 POP JUMP JUMPDEST PUSH2 0x3767 DUP2 PUSH2 0x3405 JUMP JUMPDEST DUP3 MSTORE POP POP JUMP JUMPDEST PUSH0 PUSH2 0x3778 DUP4 DUP4 PUSH2 0x375E JUMP JUMPDEST PUSH1 0x20 DUP4 ADD SWAP1 POP SWAP3 SWAP2 POP POP JUMP JUMPDEST PUSH0 PUSH1 0x20 DUP3 ADD SWAP1 POP SWAP2 SWAP1 POP JUMP JUMPDEST PUSH0 PUSH2 0x379A DUP3 PUSH2 0x3735 JUMP JUMPDEST PUSH2 0x37A4 DUP2 DUP6 PUSH2 0x373F JUMP JUMPDEST SWAP4 POP PUSH2 0x37AF DUP4 PUSH2 0x374F JUMP JUMPDEST DUP1 PUSH0 JUMPDEST DUP4 DUP2 LT ISZERO PUSH2 0x37DF JUMPI DUP2 MLOAD PUSH2 0x37C6 DUP9 DUP3 PUSH2 0x376D JUMP JUMPDEST SWAP8 POP PUSH2 0x37D1 DUP4 PUSH2 0x3784 JUMP JUMPDEST SWAP3 POP POP PUSH1 0x1 DUP2 ADD SWAP1 POP PUSH2 0x37B2 JUMP JUMPDEST POP DUP6 SWAP4 POP POP POP POP SWAP3 SWAP2 POP POP JUMP JUMPDEST PUSH0 PUSH1 0x40 DUP3 ADD SWAP1 POP DUP2 DUP2 SUB PUSH0 DUP4 ADD MSTORE PUSH2 0x3804 DUP2 DUP6 PUSH2 0x3123 JUMP JUMPDEST SWAP1 POP DUP2 DUP2 SUB PUSH1 0x20 DUP4 ADD MSTORE PUSH2 0x3818 DUP2 DUP5 PUSH2 0x3790 JUMP JUMPDEST SWAP1 POP SWAP4 SWAP3 POP POP POP JUMP JUMPDEST PUSH0 DUP1 PUSH0 PUSH1 0x60 DUP5 DUP7 SUB SLT ISZERO PUSH2 0x3838 JUMPI PUSH2 0x3837 PUSH2 0x31BF JUMP JUMPDEST JUMPDEST PUSH0 DUP5 ADD CALLDATALOAD PUSH8 0xFFFFFFFFFFFFFFFF DUP2 GT ISZERO PUSH2 0x3855 JUMPI PUSH2 0x3854 PUSH2 0x31C3 JUMP JUMPDEST JUMPDEST PUSH2 0x3861 DUP7 DUP3 DUP8 ADD PUSH2 0x3320 JUMP JUMPDEST SWAP4 POP POP PUSH1 0x20 DUP5 ADD CALLDATALOAD PUSH8 0xFFFFFFFFFFFFFFFF DUP2 GT ISZERO PUSH2 0x3882 JUMPI PUSH2 0x3881 PUSH2 0x31C3 JUMP JUMPDEST JUMPDEST PUSH2 0x388E DUP7 DUP3 DUP8 ADD PUSH2 0x3320 JUMP JUMPDEST SWAP3 POP POP PUSH1 0x40 DUP5 ADD CALLDATALOAD PUSH8 0xFFFFFFFFFFFFFFFF DUP2 GT ISZERO PUSH2 0x38AF JUMPI PUSH2 0x38AE PUSH2 0x31C3 JUMP JUMPDEST JUMPDEST PUSH2 0x38BB DUP7 DUP3 DUP8 ADD PUSH2 0x3320 JUMP JUMPDEST SWAP2 POP POP SWAP3 POP SWAP3 POP SWAP3 JUMP JUMPDEST PUSH0 PUSH1 0xA0 DUP3 ADD SWAP1 POP PUSH2 0x38D8 PUSH0 DUP4 ADD DUP9 PUSH2 0x367C JUMP JUMPDEST PUSH2 0x38E5 PUSH1 0x20 DUP4 ADD DUP8 PUSH2 0x367C JUMP JUMPDEST PUSH2 0x38F2 PUSH1 0x40 DUP4 ADD DUP7 PUSH2 0x3512 JUMP JUMPDEST DUP2 DUP2 SUB PUSH1 0x60 DUP4 ADD MSTORE PUSH2 0x3904 DUP2 DUP6 PUSH2 0x3473 JUMP JUMPDEST SWAP1 POP DUP2 DUP2 SUB PUSH1 0x80 DUP4 ADD MSTORE PUSH2 0x3918 DUP2 DUP5 PUSH2 0x3473 JUMP JUMPDEST SWAP1 POP SWAP7 SWAP6 POP POP POP POP POP POP JUMP JUMPDEST PUSH0 DUP1 PUSH1 0x40 DUP4 DUP6 SUB SLT ISZERO PUSH2 0x393A JUMPI PUSH2 0x3939 PUSH2 0x31BF JUMP JUMPDEST JUMPDEST PUSH0 DUP4 ADD CALLDATALOAD PUSH8 0xFFFFFFFFFFFFFFFF DUP2 GT ISZERO PUSH2 0x3957 JUMPI PUSH2 0x3956 PUSH2 0x31C3 JUMP JUMPDEST JUMPDEST PUSH2 0x3963 DUP6 DUP3 DUP7 ADD PUSH2 0x3320 JUMP JUMPDEST SWAP3 POP POP PUSH1 0x20 PUSH2 0x3974 DUP6 DUP3 DUP7 ADD PUSH2 0x3424 JUMP JUMPDEST SWAP2 POP POP SWAP3 POP SWAP3 SWAP1 POP JUMP JUMPDEST PUSH0 DUP1 PUSH0 PUSH1 0x60 DUP5 DUP7 SUB SLT ISZERO PUSH2 0x3995 JUMPI PUSH2 0x3994 PUSH2 0x31BF JUMP JUMPDEST JUMPDEST PUSH0 PUSH2 0x39A2 DUP7 DUP3 DUP8 ADD PUSH2 0x320D JUMP JUMPDEST SWAP4 POP POP PUSH1 0x20 DUP5 ADD CALLDATALOAD PUSH8 0xFFFFFFFFFFFFFFFF DUP2 GT ISZERO PUSH2 0x39C3 JUMPI PUSH2 0x39C2 PUSH2 0x31C3 JUMP JUMPDEST JUMPDEST PUSH2 0x39CF DUP7 DUP3 DUP8 ADD PUSH2 0x3320 JUMP JUMPDEST SWAP3 POP POP PUSH1 0x40 DUP5 ADD CALLDATALOAD PUSH8 0xFFFFFFFFFFFFFFFF DUP2 GT ISZERO PUSH2 0x39F0 JUMPI PUSH2 0x39EF PUSH2 0x31C3 JUMP JUMPDEST JUMPDEST PUSH2 0x39FC DUP7 DUP3 DUP8 ADD PUSH2 0x3320 JUMP JUMPDEST SWAP2 POP POP SWAP3 POP SWAP3 POP SWAP3 JUMP JUMPDEST PUSH0 PUSH1 0x40 DUP3 ADD SWAP1 POP PUSH2 0x3A19 PUSH0 DUP4 ADD DUP6 PUSH2 0x3521 JUMP JUMPDEST PUSH2 0x3A26 PUSH1 0x20 DUP4 ADD DUP5 PUSH2 0x3521 JUMP JUMPDEST SWAP4 SWAP3 POP POP POP JUMP JUMPDEST PUSH32 0x4F6E6C792061646D696E2063616E20706572666F726D20746869732061637469 PUSH0 DUP3 ADD MSTORE PUSH32 0x6F6E2E0000000000000000000000000000000000000000000000000000000000 PUSH1 0x20 DUP3 ADD MSTORE POP JUMP JUMPDEST PUSH0 PUSH2 0x3A87 PUSH1 0x23 DUP4 PUSH2 0x3463 JUMP JUMPDEST SWAP2 POP PUSH2 0x3A92 DUP3 PUSH2 0x3A2D JUMP JUMPDEST PUSH1 0x40 DUP3 ADD SWAP1 POP SWAP2 SWAP1 POP JUMP JUMPDEST PUSH0 PUSH1 0x20 DUP3 ADD SWAP1 POP DUP2 DUP2 SUB PUSH0 DUP4 ADD MSTORE PUSH2 0x3AB4 DUP2 PUSH2 0x3A7B JUMP JUMPDEST SWAP1 POP SWAP2 SWAP1 POP JUMP JUMPDEST PUSH32 0x4E487B7100000000000000000000000000000000000000000000000000000000 PUSH0 MSTORE PUSH1 0x32 PUSH1 0x4 MSTORE PUSH1 0x24 PUSH0 REVERT JUMPDEST PUSH32 0x4E487B7100000000000000000000000000000000000000000000000000000000 PUSH0 MSTORE PUSH1 0x22 PUSH1 0x4 MSTORE PUSH1 0x24 PUSH0 REVERT JUMPDEST PUSH0 PUSH1 0x2 DUP3 DIV SWAP1 POP PUSH1 0x1 DUP3 AND DUP1 PUSH2 0x3B2C JUMPI PUSH1 0x7F DUP3 AND SWAP2 POP JUMPDEST PUSH1 0x20 DUP3 LT DUP2 SUB PUSH2 0x3B3F JUMPI PUSH2 0x3B3E PUSH2 0x3AE8 JUMP JUMPDEST JUMPDEST POP SWAP2 SWAP1 POP JUMP JUMPDEST PUSH0 DUP2 SWAP1 POP SWAP3 SWAP2 POP POP JUMP JUMPDEST PUSH0 PUSH2 0x3B59 DUP3 PUSH2 0x3094 JUMP JUMPDEST PUSH2 0x3B63 DUP2 DUP6 PUSH2 0x3B45 JUMP JUMPDEST SWAP4 POP PUSH2 0x3B73 DUP2 DUP6 PUSH1 0x20 DUP7 ADD PUSH2 0x30AE JUMP JUMPDEST DUP1 DUP5 ADD SWAP2 POP POP SWAP3 SWAP2 POP POP JUMP JUMPDEST PUSH0 PUSH2 0x3B8A DUP3 DUP5 PUSH2 0x3B4F JUMP JUMPDEST SWAP2 POP DUP2 SWAP1 POP SWAP3 SWAP2 POP POP JUMP JUMPDEST PUSH32 0x4174206C656173742074776F2063616E64696461746573207265717569726564 PUSH0 DUP3 ADD MSTORE PUSH32 0x2E00000000000000000000000000000000000000000000000000000000000000 PUSH1 0x20 DUP3 ADD MSTORE POP JUMP JUMPDEST PUSH0 PUSH2 0x3BEF PUSH1 0x21 DUP4 PUSH2 0x3463 JUMP JUMPDEST SWAP2 POP PUSH2 0x3BFA DUP3 PUSH2 0x3B95 JUMP JUMPDEST PUSH1 0x40 DUP3 ADD SWAP1 POP SWAP2 SWAP1 POP JUMP JUMPDEST PUSH0 PUSH1 0x20 DUP3 ADD SWAP1 POP DUP2 DUP2 SUB PUSH0 DUP4 ADD MSTORE PUSH2 0x3C1C DUP2 PUSH2 0x3BE3 JUMP JUMPDEST SWAP1 POP SWAP2 SWAP1 POP JUMP JUMPDEST PUSH32 0x4172656120646F6573206E6F742065786973742E000000000000000000000000 PUSH0 DUP3 ADD MSTORE POP JUMP JUMPDEST PUSH0 PUSH2 0x3C57 PUSH1 0x14 DUP4 PUSH2 0x3463 JUMP JUMPDEST SWAP2 POP PUSH2 0x3C62 DUP3 PUSH2 0x3C23 JUMP JUMPDEST PUSH1 0x20 DUP3 ADD SWAP1 POP SWAP2 SWAP1 POP JUMP JUMPDEST PUSH0 PUSH1 0x20 DUP3 ADD SWAP1 POP DUP2 DUP2 SUB PUSH0 DUP4 ADD MSTORE PUSH2 0x3C84 DUP2 PUSH2 0x3C4B JUMP JUMPDEST SWAP1 POP SWAP2 SWAP1 POP JUMP JUMPDEST PUSH32 0x43616E646964617465206E616D652063616E6E6F7420626520656D7074792E00 PUSH0 DUP3 ADD MSTORE POP JUMP JUMPDEST PUSH0 PUSH2 0x3CBF PUSH1 0x1F DUP4 PUSH2 0x3463 JUMP JUMPDEST SWAP2 POP PUSH2 0x3CCA DUP3 PUSH2 0x3C8B JUMP JUMPDEST PUSH1 0x20 DUP3 ADD SWAP1 POP SWAP2 SWAP1 POP JUMP JUMPDEST PUSH0 PUSH1 0x20 DUP3 ADD SWAP1 POP DUP2 DUP2 SUB PUSH0 DUP4 ADD MSTORE PUSH2 0x3CEC DUP2 PUSH2 0x3CB3 JUMP JUMPDEST SWAP1 POP SWAP2 SWAP1 POP JUMP JUMPDEST PUSH32 0x43616E64696461746520616C726561647920726567697374657265642E000000 PUSH0 DUP3 ADD MSTORE POP JUMP JUMPDEST PUSH0 PUSH2 0x3D27 PUSH1 0x1D DUP4 PUSH2 0x3463 JUMP JUMPDEST SWAP2 POP PUSH2 0x3D32 DUP3 PUSH2 0x3CF3 JUMP JUMPDEST PUSH1 0x20 DUP3 ADD SWAP1 POP SWAP2 SWAP1 POP JUMP JUMPDEST PUSH0 PUSH1 0x20 DUP3 ADD SWAP1 POP DUP2 DUP2 SUB PUSH0 DUP4 ADD MSTORE PUSH2 0x3D54 DUP2 PUSH2 0x3D1B JUMP JUMPDEST SWAP1 POP SWAP2 SWAP1 POP JUMP JUMPDEST PUSH32 0x4E6174696F6E616C20494420616C726561647920726567697374657265642E00 PUSH0 DUP3 ADD MSTORE POP JUMP JUMPDEST PUSH0 PUSH2 0x3D8F PUSH1 0x1F DUP4 PUSH2 0x3463 JUMP JUMPDEST SWAP2 POP PUSH2 0x3D9A DUP3 PUSH2 0x3D5B JUMP JUMPDEST PUSH1 0x20 DUP3 ADD SWAP1 POP SWAP2 SWAP1 POP JUMP JUMPDEST PUSH0 PUSH1 0x20 DUP3 ADD SWAP1 POP DUP2 DUP2 SUB PUSH0 DUP4 ADD MSTORE PUSH2 0x3DBC DUP2 PUSH2 0x3D83 JUMP JUMPDEST SWAP1 POP SWAP2 SWAP1 POP JUMP JUMPDEST PUSH0 DUP2 SWAP1 POP DUP2 PUSH0 MSTORE PUSH1 0x20 PUSH0 KECCAK256 SWAP1 POP SWAP2 SWAP1 POP JUMP JUMPDEST PUSH0 PUSH1 0x20 PUSH1 0x1F DUP4 ADD DIV SWAP1 POP SWAP2 SWAP1 POP JUMP JUMPDEST PUSH0 DUP3 DUP3 SHL SWAP1 POP SWAP3 SWAP2 POP POP JUMP JUMPDEST PUSH0 PUSH1 0x8 DUP4 MUL PUSH2 0x3E1F PUSH32 0xFFFFFFFFFFFFFFFFFFFFFFFFFFFFFFFFFFFFFFFFFFFFFFFFFFFFFFFFFFFFFFFF DUP3 PUSH2 0x3DE4 JUMP JUMPDEST PUSH2 0x3E29 DUP7 DUP4 PUSH2 0x3DE4 JUMP JUMPDEST SWAP6 POP DUP1 NOT DUP5 AND SWAP4 POP DUP1 DUP7 AND DUP5 OR SWAP3 POP POP POP SWAP4 SWAP3 POP POP POP JUMP JUMPDEST PUSH0 DUP2 SWAP1 POP SWAP2 SWAP1 POP JUMP JUMPDEST PUSH0 PUSH2 0x3E64 PUSH2 0x3E5F PUSH2 0x3E5A DUP5 PUSH2 0x3405 JUMP JUMPDEST PUSH2 0x3E41 JUMP JUMPDEST PUSH2 0x3405 JUMP JUMPDEST SWAP1 POP SWAP2 SWAP1 POP JUMP JUMPDEST PUSH0 DUP2 SWAP1 POP SWAP2 SWAP1 POP JUMP JUMPDEST PUSH2 0x3E7D DUP4 PUSH2 0x3E4A JUMP JUMPDEST PUSH2 0x3E91 PUSH2 0x3E89 DUP3 PUSH2 0x3E6B JUMP JUMPDEST DUP5 DUP5 SLOAD PUSH2 0x3DF0 JUMP JUMPDEST DUP3 SSTORE POP POP POP POP JUMP JUMPDEST PUSH0 SWAP1 JUMP JUMPDEST PUSH2 0x3EA5 PUSH2 0x3E99 JUMP JUMPDEST PUSH2 0x3EB0 DUP2 DUP5 DUP5 PUSH2 0x3E74 JUMP JUMPDEST POP POP POP JUMP JUMPDEST JUMPDEST DUP2 DUP2 LT ISZERO PUSH2 0x3ED3 JUMPI PUSH2 0x3EC8 PUSH0 DUP3 PUSH2 0x3E9D JUMP JUMPDEST PUSH1 0x1 DUP2 ADD SWAP1 POP PUSH2 0x3EB6 JUMP JUMPDEST POP POP JUMP JUMPDEST PUSH1 0x1F DUP3 GT ISZERO PUSH2 0x3F18 JUMPI PUSH2 0x3EE9 DUP2 PUSH2 0x3DC3 JUMP JUMPDEST PUSH2 0x3EF2 DUP5 PUSH2 0x3DD5 JUMP JUMPDEST DUP2 ADD PUSH1 0x20 DUP6 LT ISZERO PUSH2 0x3F01 JUMPI DUP2 SWAP1 POP JUMPDEST PUSH2 0x3F15 PUSH2 0x3F0D DUP6 PUSH2 0x3DD5 JUMP JUMPDEST DUP4 ADD DUP3 PUSH2 0x3EB5 JUMP JUMPDEST POP POP JUMPDEST POP POP POP JUMP JUMPDEST PUSH0 DUP3 DUP3 SHR SWAP1 POP SWAP3 SWAP2 POP POP JUMP JUMPDEST PUSH0 PUSH2 0x3F38 PUSH0 NOT DUP5 PUSH1 0x8 MUL PUSH2 0x3F1D JUMP JUMPDEST NOT DUP1 DUP4 AND SWAP2 POP POP SWAP3 SWAP2 POP POP JUMP JUMPDEST PUSH0 PUSH2 0x3F50 DUP4 DUP4 PUSH2 0x3F29 JUMP JUMPDEST SWAP2 POP DUP3 PUSH1 0x2 MUL DUP3 OR SWAP1 POP SWAP3 SWAP2 POP POP JUMP JUMPDEST PUSH2 0x3F69 DUP3 PUSH2 0x3094 JUMP JUMPDEST PUSH8 0xFFFFFFFFFFFFFFFF DUP2 GT ISZERO PUSH2 0x3F82 JUMPI PUSH2 0x3F81 PUSH2 0x3229 JUMP JUMPDEST JUMPDEST PUSH2 0x3F8C DUP3 SLOAD PUSH2 0x3B15 JUMP JUMPDEST PUSH2 0x3F97 DUP3 DUP3 DUP6 PUSH2 0x3ED7 JUMP JUMPDEST PUSH0 PUSH1 0x20 SWAP1 POP PUSH1 0x1F DUP4 GT PUSH1 0x1 DUP2 EQ PUSH2 0x3FC8 JUMPI PUSH0 DUP5 ISZERO PUSH2 0x3FB6 JUMPI DUP3 DUP8 ADD MLOAD SWAP1 POP JUMPDEST PUSH2 0x3FC0 DUP6 DUP3 PUSH2 0x3F45 JUMP JUMPDEST DUP7 SSTORE POP PUSH2 0x4027 JUMP JUMPDEST PUSH1 0x1F NOT DUP5 AND PUSH2 0x3FD6 DUP7 PUSH2 0x3DC3 JUMP JUMPDEST PUSH0 JUMPDEST DUP3 DUP2 LT ISZERO PUSH2 0x3FFD JUMPI DUP5 DUP10 ADD MLOAD DUP3 SSTORE PUSH1 0x1 DUP3 ADD SWAP2 POP PUSH1 0x20 DUP6 ADD SWAP5 POP PUSH1 0x20 DUP2 ADD SWAP1 POP PUSH2 0x3FD8 JUMP JUMPDEST DUP7 DUP4 LT ISZERO PUSH2 0x401A JUMPI DUP5 DUP10 ADD MLOAD PUSH2 0x4016 PUSH1 0x1F DUP10 AND DUP3 PUSH2 0x3F29 JUMP JUMPDEST DUP4 SSTORE POP JUMPDEST PUSH1 0x1 PUSH1 0x2 DUP9 MUL ADD DUP9 SSTORE POP POP POP JUMPDEST POP POP POP POP POP POP JUMP JUMPDEST PUSH0 PUSH1 0x80 DUP3 ADD SWAP1 POP PUSH2 0x4042 PUSH0 DUP4 ADD DUP8 PUSH2 0x3512 JUMP JUMPDEST DUP2 DUP2 SUB PUSH1 0x20 DUP4 ADD MSTORE PUSH2 0x4054 DUP2 DUP7 PUSH2 0x3473 JUMP JUMPDEST SWAP1 POP DUP2 DUP2 SUB PUSH1 0x40 DUP4 ADD MSTORE PUSH2 0x4068 DUP2 DUP6 PUSH2 0x3473 JUMP JUMPDEST SWAP1 POP DUP2 DUP2 SUB PUSH1 0x60 DUP4 ADD MSTORE PUSH2 0x407C DUP2 DUP5 PUSH2 0x3473 JUMP JUMPDEST SWAP1 POP SWAP6 SWAP5 POP POP POP POP POP JUMP JUMPDEST PUSH0 DUP2 SLOAD PUSH2 0x4093 DUP2 PUSH2 0x3B15 JUMP JUMPDEST PUSH2 0x409D DUP2 DUP7 PUSH2 0x3B45 JUMP JUMPDEST SWAP5 POP PUSH1 0x1 DUP3 AND PUSH0 DUP2 EQ PUSH2 0x40B7 JUMPI PUSH1 0x1 DUP2 EQ PUSH2 0x40CC JUMPI PUSH2 0x40FE JUMP JUMPDEST PUSH1 0xFF NOT DUP4 AND DUP7 MSTORE DUP2 ISZERO ISZERO DUP3 MUL DUP7 ADD SWAP4 POP PUSH2 0x40FE JUMP JUMPDEST PUSH2 0x40D5 DUP6 PUSH2 0x3DC3 JUMP JUMPDEST PUSH0 JUMPDEST DUP4 DUP2 LT ISZERO PUSH2 0x40F6 JUMPI DUP2 SLOAD DUP2 DUP10 ADD MSTORE PUSH1 0x1 DUP3 ADD SWAP2 POP PUSH1 0x20 DUP2 ADD SWAP1 POP PUSH2 0x40D7 JUMP JUMPDEST DUP4 DUP9 ADD SWAP6 POP POP POP JUMPDEST POP POP POP SWAP3 SWAP2 POP POP JUMP JUMPDEST PUSH0 PUSH2 0x4112 DUP3 DUP5 PUSH2 0x4087 JUMP JUMPDEST SWAP2 POP DUP2 SWAP1 POP SWAP3 SWAP2 POP POP JUMP JUMPDEST PUSH32 0x4E487B7100000000000000000000000000000000000000000000000000000000 PUSH0 MSTORE PUSH1 0x11 PUSH1 0x4 MSTORE PUSH1 0x24 PUSH0 REVERT JUMPDEST PUSH0 PUSH2 0x4154 DUP3 PUSH2 0x3405 JUMP JUMPDEST SWAP2 POP PUSH32 0xFFFFFFFFFFFFFFFFFFFFFFFFFFFFFFFFFFFFFFFFFFFFFFFFFFFFFFFFFFFFFFFF DUP3 SUB PUSH2 0x4186 JUMPI PUSH2 0x4185 PUSH2 0x411D JUMP JUMPDEST JUMPDEST PUSH1 0x1 DUP3 ADD SWAP1 POP SWAP2 SWAP1 POP JUMP JUMPDEST PUSH32 0x566F74696E67206973206E6F74206163746976652E0000000000000000000000 PUSH0 DUP3 ADD MSTORE POP JUMP JUMPDEST PUSH0 PUSH2 0x41C5 PUSH1 0x15 DUP4 PUSH2 0x3463 JUMP JUMPDEST SWAP2 POP PUSH2 0x41D0 DUP3 PUSH2 0x4191 JUMP JUMPDEST PUSH1 0x20 DUP3 ADD SWAP1 POP SWAP2 SWAP1 POP JUMP JUMPDEST PUSH0 PUSH1 0x20 DUP3 ADD SWAP1 POP DUP2 DUP2 SUB PUSH0 DUP4 ADD MSTORE PUSH2 0x41F2 DUP2 PUSH2 0x41B9 JUMP JUMPDEST SWAP1 POP SWAP2 SWAP1 POP JUMP JUMPDEST PUSH32 0x596F7520617265206E6F74207265676973746572656420746F20766F74652E00 PUSH0 DUP3 ADD MSTORE POP JUMP JUMPDEST PUSH0 PUSH2 0x422D PUSH1 0x1F DUP4 PUSH2 0x3463 JUMP JUMPDEST SWAP2 POP PUSH2 0x4238 DUP3 PUSH2 0x41F9 JUMP JUMPDEST PUSH1 0x20 DUP3 ADD SWAP1 POP SWAP2 SWAP1 POP JUMP JUMPDEST PUSH0 PUSH1 0x20 DUP3 ADD SWAP1 POP DUP2 DUP2 SUB PUSH0 DUP4 ADD MSTORE PUSH2 0x425A DUP2 PUSH2 0x4221 JUMP JUMPDEST SWAP1 POP SWAP2 SWAP1 POP JUMP JUMPDEST PUSH32 0x596F75206861766520616C726561647920766F7465642E000000000000000000 PUSH0 DUP3 ADD MSTORE POP JUMP JUMPDEST PUSH0 PUSH2 0x4295 PUSH1 0x17 DUP4 PUSH2 0x3463 JUMP JUMPDEST SWAP2 POP PUSH2 0x42A0 DUP3 PUSH2 0x4261 JUMP JUMPDEST PUSH1 0x20 DUP3 ADD SWAP1 POP SWAP2 SWAP1 POP JUMP JUMPDEST PUSH0 PUSH1 0x20 DUP3 ADD SWAP1 POP DUP2 DUP2 SUB PUSH0 DUP4 ADD MSTORE PUSH2 0x42C2 DUP2 PUSH2 0x4289 JUMP JUMPDEST SWAP1 POP SWAP2 SWAP1 POP JUMP JUMPDEST PUSH32 0x4E6174696F6E616C20494420646F6573206E6F74206D617463682E0000000000 PUSH0 DUP3 ADD MSTORE POP JUMP JUMPDEST PUSH0 PUSH2 0x42FD PUSH1 0x1B DUP4 PUSH2 0x3463 JUMP JUMPDEST SWAP2 POP PUSH2 0x4308 DUP3 PUSH2 0x42C9 JUMP JUMPDEST PUSH1 0x20 DUP3 ADD SWAP1 POP SWAP2 SWAP1 POP JUMP JUMPDEST PUSH0 PUSH1 0x20 DUP3 ADD SWAP1 POP DUP2 DUP2 SUB PUSH0 DUP4 ADD MSTORE PUSH2 0x432A DUP2 PUSH2 0x42F1 JUMP JUMPDEST SWAP1 POP SWAP2 SWAP1 POP JUMP JUMPDEST PUSH32 0x4172656120646F6573206E6F74206D617463682074686520766F746572277320 PUSH0 DUP3 ADD MSTORE PUSH32 0x7265676973746572656420617265612E00000000000000000000000000000000 PUSH1 0x20 DUP3 ADD MSTORE POP JUMP JUMPDEST PUSH0 PUSH2 0x438B PUSH1 0x30 DUP4 PUSH2 0x3463 JUMP JUMPDEST SWAP2 POP PUSH2 0x4396 DUP3 PUSH2 0x4331 JUMP JUMPDEST PUSH1 0x40 DUP3 ADD SWAP1 POP SWAP2 SWAP1 POP JUMP JUMPDEST PUSH0 PUSH1 0x20 DUP3 ADD SWAP1 POP DUP2 DUP2 SUB PUSH0 DUP4 ADD MSTORE PUSH2 0x43B8 DUP2 PUSH2 0x437F JUMP JUMPDEST SWAP1 POP SWAP2 SWAP1 POP JUMP JUMPDEST PUSH32 0x496E76616C69642063616E646964617465206E616D652E000000000000000000 PUSH0 DUP3 ADD MSTORE POP JUMP JUMPDEST PUSH0 PUSH2 0x43F3 PUSH1 0x17 DUP4 PUSH2 0x3463 JUMP JUMPDEST SWAP2 POP PUSH2 0x43FE DUP3 PUSH2 0x43BF JUMP JUMPDEST PUSH1 0x20 DUP3 ADD SWAP1 POP SWAP2 SWAP1 POP JUMP JUMPDEST PUSH0 PUSH1 0x20 DUP3 ADD SWAP1 POP DUP2 DUP2 SUB PUSH0 DUP4 ADD MSTORE PUSH2 0x4420 DUP2 PUSH2 0x43E7 JUMP JUMPDEST SWAP1 POP SWAP2 SWAP1 POP JUMP JUMPDEST PUSH32 0x43616E64696461746520616E6420766F746572206D75737420626520696E2074 PUSH0 DUP3 ADD MSTORE PUSH32 0x68652073616D6520617265612E00000000000000000000000000000000000000 PUSH1 0x20 DUP3 ADD MSTORE POP JUMP JUMPDEST PUSH0 PUSH2 0x4481 PUSH1 0x2D DUP4 PUSH2 0x3463 JUMP JUMPDEST SWAP2 POP PUSH2 0x448C DUP3 PUSH2 0x4427 JUMP JUMPDEST PUSH1 0x40 DUP3 ADD SWAP1 POP SWAP2 SWAP1 POP JUMP JUMPDEST PUSH0 PUSH1 0x20 DUP3 ADD SWAP1 POP DUP2 DUP2 SUB PUSH0 DUP4 ADD MSTORE PUSH2 0x44AE DUP2 PUSH2 0x4475 JUMP JUMPDEST SWAP1 POP SWAP2 SWAP1 POP JUMP JUMPDEST PUSH32 0x566F74696E67206C696D697420666F7220746869732061726561206861732062 PUSH0 DUP3 ADD MSTORE PUSH32 0x65656E20726561636865642E0000000000000000000000000000000000000000 PUSH1 0x20 DUP3 ADD MSTORE POP JUMP JUMPDEST PUSH0 PUSH2 0x450F PUSH1 0x2C DUP4 PUSH2 0x3463 JUMP JUMPDEST SWAP2 POP PUSH2 0x451A DUP3 PUSH2 0x44B5 JUMP JUMPDEST PUSH1 0x40 DUP3 ADD SWAP1 POP SWAP2 SWAP1 POP JUMP JUMPDEST PUSH0 PUSH1 0x20 DUP3 ADD SWAP1 POP DUP2 DUP2 SUB PUSH0 DUP4 ADD MSTORE PUSH2 0x453C DUP2 PUSH2 0x4503 JUMP JUMPDEST SWAP1 POP SWAP2 SWAP1 POP JUMP JUMPDEST PUSH0 PUSH2 0x454D DUP3 PUSH2 0x3405 JUMP JUMPDEST SWAP2 POP PUSH2 0x4558 DUP4 PUSH2 0x3405 JUMP JUMPDEST SWAP3 POP DUP3 DUP3 ADD SWAP1 POP DUP1 DUP3 GT ISZERO PUSH2 0x4570 JUMPI PUSH2 0x456F PUSH2 0x411D JUMP JUMPDEST JUMPDEST SWAP3 SWAP2 POP POP JUMP JUMPDEST PUSH0 PUSH1 0x60 DUP3 ADD SWAP1 POP PUSH2 0x4589 PUSH0 DUP4 ADD DUP7 PUSH2 0x3512 JUMP JUMPDEST PUSH2 0x4596 PUSH1 0x20 DUP4 ADD DUP6 PUSH2 0x3512 JUMP JUMPDEST DUP2 DUP2 SUB PUSH1 0x40 DUP4 ADD MSTORE PUSH2 0x45A8 DUP2 DUP5 PUSH2 0x3473 JUMP JUMPDEST SWAP1 POP SWAP5 SWAP4 POP POP POP POP JUMP JUMPDEST PUSH32 0x41726561206E616D652063616E6E6F7420626520656D7074792E000000000000 PUSH0 DUP3 ADD MSTORE POP JUMP JUMPDEST PUSH0 PUSH2 0x45E6 PUSH1 0x1A DUP4 PUSH2 0x3463 JUMP JUMPDEST SWAP2 POP PUSH2 0x45F1 DUP3 PUSH2 0x45B2 JUMP JUMPDEST PUSH1 0x20 DUP3 ADD SWAP1 POP SWAP2 SWAP1 POP JUMP JUMPDEST PUSH0 PUSH1 0x20 DUP3 ADD SWAP1 POP DUP2 DUP2 SUB PUSH0 DUP4 ADD MSTORE PUSH2 0x4613 DUP2 PUSH2 0x45DA JUMP JUMPDEST SWAP1 POP SWAP2 SWAP1 POP JUMP JUMPDEST PUSH32 0x41726561206D7573742068617665207265676973746572656420766F74657273 PUSH0 DUP3 ADD MSTORE PUSH32 0x2E00000000000000000000000000000000000000000000000000000000000000 PUSH1 0x20 DUP3 ADD MSTORE POP JUMP JUMPDEST PUSH0 PUSH2 0x4674 PUSH1 0x21 DUP4 PUSH2 0x3463 JUMP JUMPDEST SWAP2 POP PUSH2 0x467F DUP3 PUSH2 0x461A JUMP JUMPDEST PUSH1 0x40 DUP3 ADD SWAP1 POP SWAP2 SWAP1 POP JUMP JUMPDEST PUSH0 PUSH1 0x20 DUP3 ADD SWAP1 POP DUP2 DUP2 SUB PUSH0 DUP4 ADD MSTORE PUSH2 0x46A1 DUP2 PUSH2 0x4668 JUMP JUMPDEST SWAP1 POP SWAP2 SWAP1 POP JUMP JUMPDEST PUSH32 0x4172656120616C7265616479206578697374732E000000000000000000000000 PUSH0 DUP3 ADD MSTORE POP JUMP JUMPDEST PUSH0 PUSH2 0x46DC PUSH1 0x14 DUP4 PUSH2 0x3463 JUMP JUMPDEST SWAP2 POP PUSH2 0x46E7 DUP3 PUSH2 0x46A8 JUMP JUMPDEST PUSH1 0x20 DUP3 ADD SWAP1 POP SWAP2 SWAP1 POP JUMP JUMPDEST PUSH0 PUSH1 0x20 DUP3 ADD SWAP1 POP DUP2 DUP2 SUB PUSH0 DUP4 ADD MSTORE PUSH2 0x4709 DUP2 PUSH2 0x46D0 JUMP JUMPDEST SWAP1 POP SWAP2 SWAP1 POP JUMP JUMPDEST PUSH32 0x566F74657220616C726561647920726567697374657265642E00000000000000 PUSH0 DUP3 ADD MSTORE POP JUMP JUMPDEST PUSH0 PUSH2 0x4744 PUSH1 0x19 DUP4 PUSH2 0x3463 JUMP JUMPDEST SWAP2 POP PUSH2 0x474F DUP3 PUSH2 0x4710 JUMP JUMPDEST PUSH1 0x20 DUP3 ADD SWAP1 POP SWAP2 SWAP1 POP JUMP JUMPDEST PUSH0 PUSH1 0x20 DUP3 ADD SWAP1 POP DUP2 DUP2 SUB PUSH0 DUP4 ADD MSTORE PUSH2 0x4771 DUP2 PUSH2 0x4738 JUMP JUMPDEST SWAP1 POP SWAP2 SWAP1 POP JUMP JUMPDEST PUSH0 PUSH1 0x60 DUP3 ADD SWAP1 POP PUSH2 0x478B PUSH0 DUP4 ADD DUP7 PUSH2 0x3512 JUMP JUMPDEST DUP2 DUP2 SUB PUSH1 0x20 DUP4 ADD MSTORE PUSH2 0x479D DUP2 DUP6 PUSH2 0x3473 JUMP JUMPDEST SWAP1 POP DUP2 DUP2 SUB PUSH1 0x40 DUP4 ADD MSTORE PUSH2 0x47B1 DUP2 DUP5 PUSH2 0x3473 JUMP JUMPDEST SWAP1 POP SWAP5 SWAP4 POP POP POP POP JUMP JUMPDEST PUSH0 PUSH1 0x60 DUP3 ADD SWAP1 POP PUSH2 0x47CE PUSH0 DUP4 ADD DUP7 PUSH2 0x3512 JUMP JUMPDEST PUSH2 0x47DB PUSH1 0x20 DUP4 ADD DUP6 PUSH2 0x3521 JUMP JUMPDEST DUP2 DUP2 SUB PUSH1 0x40 DUP4 ADD MSTORE PUSH2 0x47ED DUP2 DUP5 PUSH2 0x3473 JUMP JUMPDEST SWAP1 POP SWAP5 SWAP4 POP POP POP POP JUMP INVALID LOG2 PUSH5 0x6970667358 0x22 SLT KECCAK256 0x4F SWAP8 0xE6 0xC6 PUSH17 0x1688FA321749FDF4D1375778921D4942DA LOG1 PREVRANDAO 0xC7 0xE9 SUB 0xE SWAP7 SUB 0xE4 PUSH26 0x64736F6C634300081A0033000000000000000000000000000000 "
				},
				"gasEstimates": {
					"creation": {
						"codeDepositCost": "3695400",
						"executionCost": "28434",
						"totalCost": "3723834"
					},
					"external": {
						"addArea(string,uint256)": "infinite",
						"admin()": "2637",
						"areaList(uint256)": "infinite",
						"areas(string)": "infinite",
						"candidateList(uint256)": "4988",
						"candidates(address)": "infinite",
						"endVoting()": "infinite",
						"getAreas()": "infinite",
						"getCandidates()": "infinite",
						"getCandidatesByArea(string)": "infinite",
						"getTotalValidVotersByAllAreas()": "infinite",
						"getWinnerByArea(string)": "infinite",
						"registerCandidate(address,string,string,string)": "infinite",
						"registerVoter(address,string,string)": "infinite",
						"resetVotingSystem()": "infinite",
						"startVoting()": "53093",
						"vote(string,string,string)": "infinite",
						"voterList(uint256)": "5033",
						"voters(address)": "infinite",
						"votingEnded()": "2606",
						"votingStarted()": "2577"
					}
				},
				"methodIdentifiers": {
					"addArea(string,uint256)": "ac6ba3c3",
					"admin()": "f851a440",
					"areaList(uint256)": "3e46d279",
					"areas(string)": "d4a7de3e",
					"candidateList(uint256)": "b13c744b",
					"candidates(address)": "8ab66a90",
					"endVoting()": "c3403ddf",
					"getAreas()": "2ea3981a",
					"getCandidates()": "06a49fce",
					"getCandidatesByArea(string)": "438aabdc",
					"getTotalValidVotersByAllAreas()": "8dfba9ac",
					"getWinnerByArea(string)": "432dea47",
					"registerCandidate(address,string,string,string)": "21b3f528",
					"registerVoter(address,string,string)": "bb8fab8e",
					"resetVotingSystem()": "03b2b7f0",
					"startVoting()": "1ec6b60a",
					"vote(string,string,string)": "95f59fe1",
					"voterList(uint256)": "50e2e8af",
					"voters(address)": "a3ec138d",
					"votingEnded()": "9d5a0529",
					"votingStarted()": "83d948b7"
				}
			},
			"storageLayout": {
				"storage": [
					{
						"astId": 3,
						"contract": "contracts/VotingSystem.sol:VotingSystem",
						"label": "admin",
						"offset": 0,
						"slot": "0",
						"type": "t_address"
					},
					{
						"astId": 35,
						"contract": "contracts/VotingSystem.sol:VotingSystem",
						"label": "voters",
						"offset": 0,
						"slot": "1",
						"type": "t_mapping(t_address,t_struct(Voter)14_storage)"
					},
					{
						"astId": 39,
						"contract": "contracts/VotingSystem.sol:VotingSystem",
						"label": "voterNationalIDExists",
						"offset": 0,
						"slot": "2",
						"type": "t_mapping(t_string_memory_ptr,t_bool)"
					},
					{
						"astId": 44,
						"contract": "contracts/VotingSystem.sol:VotingSystem",
						"label": "candidates",
						"offset": 0,
						"slot": "3",
						"type": "t_mapping(t_address,t_struct(Candidate)25_storage)"
					},
					{
						"astId": 48,
						"contract": "contracts/VotingSystem.sol:VotingSystem",
						"label": "candidateNationalIDExists",
						"offset": 0,
						"slot": "4",
						"type": "t_mapping(t_string_memory_ptr,t_bool)"
					},
					{
						"astId": 53,
						"contract": "contracts/VotingSystem.sol:VotingSystem",
						"label": "areas",
						"offset": 0,
						"slot": "5",
						"type": "t_mapping(t_string_memory_ptr,t_struct(Area)30_storage)"
					},
					{
						"astId": 56,
						"contract": "contracts/VotingSystem.sol:VotingSystem",
						"label": "candidateList",
						"offset": 0,
						"slot": "6",
						"type": "t_array(t_address)dyn_storage"
					},
					{
						"astId": 59,
						"contract": "contracts/VotingSystem.sol:VotingSystem",
						"label": "areaList",
						"offset": 0,
						"slot": "7",
						"type": "t_array(t_string_storage)dyn_storage"
					},
					{
						"astId": 62,
						"contract": "contracts/VotingSystem.sol:VotingSystem",
						"label": "voterList",
						"offset": 0,
						"slot": "8",
						"type": "t_array(t_address)dyn_storage"
					},
					{
						"astId": 64,
						"contract": "contracts/VotingSystem.sol:VotingSystem",
						"label": "votingStarted",
						"offset": 0,
						"slot": "9",
						"type": "t_bool"
					},
					{
						"astId": 66,
						"contract": "contracts/VotingSystem.sol:VotingSystem",
						"label": "votingEnded",
						"offset": 1,
						"slot": "9",
						"type": "t_bool"
					}
				],
				"types": {
					"t_address": {
						"encoding": "inplace",
						"label": "address",
						"numberOfBytes": "20"
					},
					"t_array(t_address)dyn_storage": {
						"base": "t_address",
						"encoding": "dynamic_array",
						"label": "address[]",
						"numberOfBytes": "32"
					},
					"t_array(t_string_storage)dyn_storage": {
						"base": "t_string_storage",
						"encoding": "dynamic_array",
						"label": "string[]",
						"numberOfBytes": "32"
					},
					"t_bool": {
						"encoding": "inplace",
						"label": "bool",
						"numberOfBytes": "1"
					},
					"t_mapping(t_address,t_struct(Candidate)25_storage)": {
						"encoding": "mapping",
						"key": "t_address",
						"label": "mapping(address => struct VotingSystem.Candidate)",
						"numberOfBytes": "32",
						"value": "t_struct(Candidate)25_storage"
					},
					"t_mapping(t_address,t_struct(Voter)14_storage)": {
						"encoding": "mapping",
						"key": "t_address",
						"label": "mapping(address => struct VotingSystem.Voter)",
						"numberOfBytes": "32",
						"value": "t_struct(Voter)14_storage"
					},
					"t_mapping(t_string_memory_ptr,t_bool)": {
						"encoding": "mapping",
						"key": "t_string_memory_ptr",
						"label": "mapping(string => bool)",
						"numberOfBytes": "32",
						"value": "t_bool"
					},
					"t_mapping(t_string_memory_ptr,t_struct(Area)30_storage)": {
						"encoding": "mapping",
						"key": "t_string_memory_ptr",
						"label": "mapping(string => struct VotingSystem.Area)",
						"numberOfBytes": "32",
						"value": "t_struct(Area)30_storage"
					},
					"t_string_memory_ptr": {
						"encoding": "bytes",
						"label": "string",
						"numberOfBytes": "32"
					},
					"t_string_storage": {
						"encoding": "bytes",
						"label": "string",
						"numberOfBytes": "32"
					},
					"t_struct(Area)30_storage": {
						"encoding": "inplace",
						"label": "struct VotingSystem.Area",
						"members": [
							{
								"astId": 27,
								"contract": "contracts/VotingSystem.sol:VotingSystem",
								"label": "maxVoters",
								"offset": 0,
								"slot": "0",
								"type": "t_uint256"
							},
							{
								"astId": 29,
								"contract": "contracts/VotingSystem.sol:VotingSystem",
								"label": "currentVotes",
								"offset": 0,
								"slot": "1",
								"type": "t_uint256"
							}
						],
						"numberOfBytes": "64"
					},
					"t_struct(Candidate)25_storage": {
						"encoding": "inplace",
						"label": "struct VotingSystem.Candidate",
						"members": [
							{
								"astId": 16,
								"contract": "contracts/VotingSystem.sol:VotingSystem",
								"label": "name",
								"offset": 0,
								"slot": "0",
								"type": "t_string_storage"
							},
							{
								"astId": 18,
								"contract": "contracts/VotingSystem.sol:VotingSystem",
								"label": "candidateAddress",
								"offset": 0,
								"slot": "1",
								"type": "t_address"
							},
							{
								"astId": 20,
								"contract": "contracts/VotingSystem.sol:VotingSystem",
								"label": "voteCount",
								"offset": 0,
								"slot": "2",
								"type": "t_uint256"
							},
							{
								"astId": 22,
								"contract": "contracts/VotingSystem.sol:VotingSystem",
								"label": "area",
								"offset": 0,
								"slot": "3",
								"type": "t_string_storage"
							},
							{
								"astId": 24,
								"contract": "contracts/VotingSystem.sol:VotingSystem",
								"label": "nationalID",
								"offset": 0,
								"slot": "4",
								"type": "t_string_storage"
							}
						],
						"numberOfBytes": "160"
					},
					"t_struct(Voter)14_storage": {
						"encoding": "inplace",
						"label": "struct VotingSystem.Voter",
						"members": [
							{
								"astId": 5,
								"contract": "contracts/VotingSystem.sol:VotingSystem",
								"label": "isRegistered",
								"offset": 0,
								"slot": "0",
								"type": "t_bool"
							},
							{
								"astId": 7,
								"contract": "contracts/VotingSystem.sol:VotingSystem",
								"label": "hasVoted",
								"offset": 1,
								"slot": "0",
								"type": "t_bool"
							},
							{
								"astId": 9,
								"contract": "contracts/VotingSystem.sol:VotingSystem",
								"label": "votedCandidate",
								"offset": 2,
								"slot": "0",
								"type": "t_address"
							},
							{
								"astId": 11,
								"contract": "contracts/VotingSystem.sol:VotingSystem",
								"label": "area",
								"offset": 0,
								"slot": "1",
								"type": "t_string_storage"
							},
							{
								"astId": 13,
								"contract": "contracts/VotingSystem.sol:VotingSystem",
								"label": "nationalID",
								"offset": 0,
								"slot": "2",
								"type": "t_string_storage"
							}
						],
						"numberOfBytes": "96"
					},
					"t_uint256": {
						"encoding": "inplace",
						"label": "uint256",
						"numberOfBytes": "32"
					}
				}
			},
			"userdoc": {
				"kind": "user",
				"methods": {},
				"version": 1
			}
		}
	}
}